:020000040800F2
:10000000A00C00201102000863440008612F0008C2
:10001000D9420008190A0008095800080000000029
:100020000000000000000000000000003146000851
:10003000D10A000800000000654400089949000842
:100040002B0200082B0200082B0200082B020008DC
:100050002B0200082B0200082B0200082B020008CC
:100060002B0200082B0200082B0200082B020008BC
:100070002B0200082B0200082B0200082B020008AC
:100080002B0200082B0200082B0200082B0200089C
:100090002B0200082B0200082B0200082B0200088C
:1000A0002B0200082B0200082B0200082B0200087C
:1000B000714A00088D4A0008A94A00082B0200086E
:1000C0002B0200082B0200082B0200082B0200085C
:1000D0002B0200082B0200082B0200082B0200084C
:1000E0002B0200082B0200082B0200082B0200083C
:1000F0002B0200082B0200082B0200082B0200082C
:100100002B0200082B0200082B0200082B0200081B
:100110002B0200082B0200082B0200082B0200080B
:100120002B0200082B0200082B0200082B020008FB
:100130002B0200082B0200082B0200082B020008EB
:100140002B0200082B0200082B0200082B020008DB
:100150002B0200082B0200082B0200082B020008CB
:100160002B0200082B0200082B0200082B020008BB
:100170002B0200082B0200082B02000800000000E0
:100180002B0200082B0200082B0200082B0200089B
:100190002B0200082B0200082B0200082B0200088B
:1001A0002B0200082B0200082B0200082B0200087B
:1001B0002B0200082B0200082B0200082B0200086B
:1001C0002B0200082B020008000000002B02000890
:1001D0002B0200082B0200082B0200082B0200084B
:1001E0002B0200082B0200082B0200082B0200083B
:1001F0002B0200082B020008DFF810D000F064FA90
:100200000048004741690008AFF30080A00C0020BF
:100210000648804706480047FEE7FEE7FEE7FEE7A0
:10022000FEE7FEE7FEE7FEE7FEE7FEE7614A0008BD
:10023000F90100082DE9F05F0546002092469B4633
:1002400088460646814640241BE0284641464746EC
:10025000224600F070F853465A46C01A914110D316
:1002600011461846224600F057F82D1A67EB010890
:100270004F4622460120002100F04EF817EB0009FE
:100280004E41201EA4F10104DFDC484631462A46D7
:100290004346BDE8F09F40EA01039B0703D009E015
:1002A00008C9121F08C0042AFAD203E011F8013B62
:1002B00000F8013B521EF9D27047D2B201E000F8BB
:1002C000012B491EFBD270470022F6E710B51346FA
:1002D0000A4604461946FFF7F0FF204610BD421CAF
:1002E00010F8011B0029FBD1801A704730B50B466E
:1002F000014600202022012409E021FA02F59D4256
:1003000005D303FA02F5491B04FA02F52844151E29
:10031000A2F10102F1DC30BD202A04DB203A00FA10
:1003200002F1002070479140C2F1200320FA03F34C
:10033000194390407047202A04DB203A21FA02F04A
:100340000021704721FA02F3D040C2F1200291400F
:100350000843194670472DE9FE4F804681EA0300A5
:10036000C00F0C46009021F0004123F00045B8EB8F
:100370000200A94105D24046214690461C460B4644
:10038000024623F00040104347D0270DC7F30A0070
:10039000C3F30A510290401A019040286BDAC3F36C
:1003A000130040F4801B0098924620B10023D2EB4A
:1003B000030A63EB0B0B01985946C0F1400250460B
:1003C000FFF7AAFF06460D4650465946019A00F02F
:1003D0008DF910EB08006141002487EA115284EA8C
:1003E000E7731A4340D0009A62B3019A012A4FEA98
:1003F000075215DC001B61EB02014FF0004202EADC
:100400000752CDE90042001C41F5801132462B46CF
:1004100000F08DF903B0BDE8F08F40462146F9E7C2
:10042000001B61EB0201001C41F5801300185B41C9
:100430002018A2F5001747EB030140EAD570B61962
:100440006D4111E06D084FEA360645EAC0754FEA86
:100450000752001B61EB0201001C41F580114908A5
:100460004FEA30000019514132462B4603B0BDE837
:10047000F04F00F04DB90098012240000023D0EB6E
:10048000020263EBE073009821464FEAE074B8EB98
:10049000000061EB0401E9E783F000435BE781F0D2
:1004A000004158E72DE9FE4F81EA030404F00044BF
:1004B00021F0004100944FF0000B23F0004350EA7C
:1004C00001045ED052EA03045BD0C3F30A54C1F3C3
:1004D0000A552C44A4F2F3340194A0FB0254C1F356
:1004E000130141F48011C3F3130343F4801301FBA0
:1004F000024400FB034E840A970A44EA815447EA07
:100500008357A4FB076802958D0A05FB07854FEA10
:10051000932C04FB0C542705029D4FEA065847EA2A
:100520001637B5EB08056EEB070C870E920E47EAFF
:10053000811742EA8312A7FB0201B6EB0B0164EBC1
:1005400000042B0D43EA0C335E1844EB1C50DA46D2
:100550005146E7FB0201C5F313044FEA0B3343EAAC
:1005600014534FEA0432019C43EA0603A4F10C043D
:100570000294009CCDE900B400F0D9F803B0BDE8C6
:10058000F08F00200146F9E72DE9F04D81EA0304E0
:1005900004F0004B21F0004514464FF0000A23F010
:1005A000004150EA050220D054EA01021DD0C5F3F3
:1005B0000A570246C5F31303C1F31300C1F30A56E9
:1005C00040F4801543F48013A7EB0608101BD646B1
:1005D00008F2FD3873EB050002D308F1010801E0D1
:1005E00092185B41B8F1000F03DA00200146BDE824
:1005F000F08D00204FF48011064684460EE0171B54
:1006000073EB050705D3121B63EB050306434CEAA6
:10061000010C49084FEA300092185B4150EA01078B
:10062000EDD152EA030012D082EA040083EA050108
:10063000084305D0101BAB4106D20122002306E07F
:1006400000224FF0004302E06FF0010253101AEB5A
:1006500006004CEB085110EB0A0041EB0B01BDE822
:10066000F04D00F055B8C1F30A52C1F3130140F246
:10067000FF3341F480119A4202DA002001467047AC
:1006800040F233439A42A2F2334202DC5242FFF775
:1006900052BEFFF741BE000030B5041E71F10004E8
:1006A00004DB4FF00044404264EB0101141E73F17F
:1006B000000405DB1C464FF00043524263EB040389
:1006C000994208BF904230BD064C074D06E0E068F5
:1006D00040F0010394E8070098471034AC42F6D389
:1006E000FFF78EFD5070000870700008202A06DBAE
:1006F000CB17203A41FA02F043EAE07306E041FAF0
:1007000002F3D040C2F120029140084319467047DD
:1007100010B5141E73F1000408DA401C41F1000109
:1007200092185B411A4301D120F0010010BD2DE960
:10073000F04D92469B4611B1B1FA81F202E0B0FA57
:1007400080F220329046FFF7E7FD04460F4640EA6C
:100750000A0041EA0B0153465A46084313D011469A
:1007600053EA010019D0C8F140025046FFF7E3FDFB
:1007700005460E46504659464246FFF7CDFD084312
:1007800005D0012004E020463946BDE8F08D002068
:10079000054346EAE0762C4337430A986305E40AAA
:1007A000A0EB08000022FD0A44EA47540A3002D5B3
:1007B00000200146E9E7010510196941DDE9084516
:1007C00000196941BDE8F04DA2E770B58C1810F82A
:1007D000015B15F0070301D110F8013B2A1106D186
:1007E00010F8012B03E010F8016B01F8016B5B1EA0
:1007F000F9D12B0705D40023521E0DD401F8013B7B
:10080000FAE710F8013BCB1A921C03E013F8015BE6
:1008100001F8015B521EF9D5A142D8D3002070BD6A
:1008200010B5094C8EB009482168B83103F0ACF915
:10083000206807A190ED400B684653EC102B04F0A4
:10084000E5FF0EB010BD000044000020180300209A
:10085000256C6600FEB5022006F030F81D4D10B97B
:100860002868807810B31C4CE08802F0F5FEE08820
:100870004FF6FF76062233461E210090462000F0F8
:1008800029FAE18804206422CDE90001638813A0DD
:10089000114602F0BDFE13490323A08812A2009660
:1008A000CDE90101B4216A2000F0C6F906F0C2F9D1
:1008B0000C48012105F028FF002809D10C480168E7
:1008C0000020087428684078BDE8FE4005F0A8BE06
:1008D000FEBD00004800002030000020414C415285
:1008E0004D000000FC05002053544F500000000054
:1008F000440000207FB53F483C4C3D4D0068807867
:1009000080B33D493DA000F025FB287860B13DA0B3
:10091000394A0121103200F041FB35482A780C3069
:1009200001881AB1C08906E038A0F1E72268127C7C
:1009300002B94189408804220192CDE90210206861
:10094000C16900915F21D0E90523142000F0F6F978
:10095000294802235F21083000902068027CE120B2
:1009600000F02CFA06F066F9287838B1294E224BAF
:10097000183347CE83E84700052100E003211E48D5
:1009800005F0C2FE002105282FD2DFE800F0030A9F
:1009900010172100297004B00320BDE8704005F055
:1009A0003FBE2068027C02B90121017419E0287859
:1009B00010B10020287014E00120FBE72168182204
:1009C0004869401C90FBF2F302FB1300486108E009
:1009D00021683C228869401C90FBF2F302FB130063
:1009E0008861BDE87F4006F013B97FBD4400002058
:1009F0002400002048000020FC050020414C41520A
:100A00004D000000444F4E4500000000454449544D
:100A100000000000706F0008FEE7000038B51C4CB5
:100A20002068807858B11B491BA000F093FA194A3E
:100A30001832A2F10801A1F1080000F06BF80320C0
:100A400005F03CFF10B92068807840B114480522B9
:100A5000418800915A210388282000F055F906F0BA
:100A6000E9F80C48042105F04FFE50B101280AD0E6
:100A700002280AD003280AD10520BDE8384005F035
:100A8000CFBD0120F9E70420F7E70620F5E738BDE0
:100A900048000020FC050020434C4F434B00000061
:100AA0003000002070B54FF488720D4607490446A7
:100AB000FFF7F1FB0549103908682860C1E90145D5
:100AC00000F012F8BDE8704000F004B850000020BB
:100AD0007047000010B5034803F00DF80128FAD064
:100AE00010BD00001803002010B502F0C9FD074832
:100AF000408802F0B1FD012002F030FF0448006898
:100B000090F8B000BDE8104005F0CEBF30000020E6
:100B1000440000202DE9FE433E4C0D464FF6FF7881
:100B20001746022306463CA2A188CDF80080CDE9F5
:100B30000110C8210A2000F07FF8DFF8E490D9F80E
:100B40000000007C012812D1A0890090B288308872
:100B50007188F3880244521F19448BB2401DA1F1E1
:100B6000050C92B21FFA8CF180B202F05BFCA088F7
:100B70000223CDF800802BA2CDE901053088B18891
:100B8000084480B2C82100F057F8D9F800004E465A
:100B900090F82000A8B10228A08900D120890090F7
:100BA000AA8828886988EB880244521F19448BB2AE
:100BB000401DA1F1050C92B21FFA8CF180B202F037
:100BC00031FCA1880223CDF8008018A2CDE90117DD
:100BD0002888A988084480B2C82100F02DF8306820
:100BE00090F83000002813D00228A08900D1208975
:100BF0000090BA8838887988FB880244521F1944CB
:100C00008BB24C1F401D92B2A1B280B202F00AFC1E
:100C1000BDE8FE8330000020416C61726D00000071
:100C20004400002054696D657200000053746F70B9
:100C300077617463680000002DE9FF4F83B01C46A4
:100C400089468046DDF848B00598DDE91065FFF774
:100C500046FB801C4FF6FF7127010095604300EBB7
:100C6000400001EA400A494609EB070083B208EB5D
:100C70000A0082B2404602F0D5FBE000334600EEA7
:100C8000100AB6EE002B04EB4400B8EE401B00EE59
:100C9000109A08EB400081B2B8EE400BCDE9004558
:100CA00001EE020BBCEEC00B10EE100A82B20598EA
:100CB00002F0AEFC68F30F056AF30F0669F31F45F7
:100CC000CBF8005067F31F46CBF8046007B0BDE8CF
:100CD000F08F00002DE9FF41094D1646094C1F46D3
:100CE000DDF828C02D686A682271AB686371ED6811
:100CF000A5718DE8E01000F021F8BDE8FF8100004B
:100D000044000020240000202DE9FF41094D164633
:100D1000094C1F46DDF828C02D686A682271AB684F
:100D20006371ED68A5718DE8E01000F025F8BDE86D
:100D3000FF81000044000020240000202DE9F04144
:100D400086B005460DA80C4608A190E8C00102A88F
:100D500004F05CFDCDE9006802A83B462246294626
:100D600002F056FC06B0BDE8F0810000252E32648A
:100D70003A252E32640000002DE9F04186B00C4681
:100D80000CA905460F9E91E8810108A1009002A8D8
:100D900004F03CFDCDE9007602A8434622462946F0
:100DA00002F036FC06B0BDE8F0810000252E32646A
:100DB0003A252E32643A252E326400002DE9F04F98
:100DC0002DED068B85B00C464FF02A0180461500AC
:100DD0001E4613FB01F004904FEA031B58486BD0EA
:100DE000B0F80C0004EB0B0300902146049808EBCC
:100DF00000024046924602F015FB002DB6EE00AB15
:100E0000B7EE0C8BB5EE009B4FEAC60556D04DA150
:100E100002A804F0FBFC00EE105A00EE904A48488D
:100E2000B8EE401BB8EE600B818901EE0A0BCDE9EC
:100E3000006143884146BCEEC00B10EE100A82B23E
:100E400002A802F0E5FB00EE105A00EE904AA6EB75
:100E500086024FF6FF70B8EE402BB8EE601BB8EE7E
:100E6000403BB8EE600BAAF10501009002EE081BB2
:100E70000AEB82008AB280B203EE090BBCEEC11B02
:100E8000BCEEC00B11EE103A9BB210EE101A89B2F4
:100E900002F0C8FA049868F30F0964F31F4960F37D
:100EA0000F0714986BF31F47C0F80090476005B018
:100EB000BDEC068BBDE8F08F408993E722A223A109
:100EC00002A804F0A3FC00EE105A00EE904A1C4861
:100ED000B8EE401BB8EE600B418901EE0A0BCDE97C
:100EE000006143884146BCEEC00B10EE100A82B28E
:100EF00002A802F08DFB00EE105A00EE904A4FF669
:100F0000FF700090B8EE402BB8EE601BB8EE403B8F
:100F1000B8EE600B06EB460202EE081B08EB8202FD
:100F200003EE090BBCEEC11BBCEEC00B11EE100AA8
:100F300083B208F1050010EE101A89B2A8E700008C
:100F400030000020204F4E004F46460025367320CB
:100F50000000000010B58CB00C460BA1024602A8A0
:100F600004F054FC0B4802214288CDE900120A2209
:100F7000038802A8114602F04BFB0749D1E90001A2
:100F8000206061600CB010BD3C3C20252E323173D6
:100F90000000000030000020606F00082DE9FC41D7
:100FA00015460C468046FFF79AF9134AC0F11A011C
:100FB00002204FF6FF7601EB4101538806EA8101DA
:100FC000CDE900030CB1938800E053890A22404622
:100FD00002F01EFB0948D0E902474046FFF77FF9BF
:100FE000C0F11A0000EB400006EA800060F30F0435
:100FF0002C606F60BDE8FC8130000020606F00084D
:1010000072B6FEE770B5044600F004F90546601CB0
:1010100002D004480078044400F0FCF8401BA042D1
:10102000FAD370BD140000202DE9F84F00224FF0D4
:1010300001094FF0030A4FF00F0E00BF0B6809FAC9
:1010400002F42340A34270D14D68012D05D0022D3A
:1010500003D0112D01D0122D11D185685700CE6813
:101060000AFA07FC25EA0C05BE402E438660456857
:101070000E79A543C6F3001696402E434660C56818
:1010800056008F680AFA06F4A543B7402F43C7609D
:101090004D68022D01D0122D12D1D5080F694FEAEB
:1010A000427C00EB8505AB462D6A4FEADC6C0EFAFC
:1010B0000CF807FA0CF725EA08052F43CBF8207047
:1010C0000D79076805F00305A743B5403D4305606A
:1010D0004C68E40074D53D4C256845F48045256096
:1010E000246822F00307960704F480440094384CE7
:1010F000360F2744D7F80848DFF8D8C00EFA06F5AF
:10110000604524EA050401D100252EE0324DA842B5
:1011100001D1012529E0314DA84201D1022524E069
:101120002F4DA84202D103251FE049E02D4DA842D2
:1011300001D1042519E02C4DA84201D1052514E068
:101140002A4DA84201D106250FE0294DA84201D120
:1011500007250AE0274DA84201D1082505E0264DC4
:10116000A84201D1092500E00A25B540234E2543B8
:10117000C7F808584D683468ED0324EA030400D525
:101180001C431E4D34602D1D4E682C68B60324EAA6
:10119000030400D51C43194E2C6008364D68346892
:1011A000ED0224EA030400D51C43144D34600C35D1
:1011B0004E682C68B60224EA030400D51C432C6058
:1011C000521C102AFFF43AAFBDE8F88F44380240B1
:1011D00000300140000002400004024000080240CC
:1011E000000C0240001002400014024000180240AF
:1011F000001C02400020024000240240003C01404C
:101200000069084000D0012070470AB18161704731
:101210000904FBE7014880687047000014000020C3
:1012200030B590F84120202A24D190F84020012A9E
:1012300020D0012380F84030242280F84120202350
:1012400000240268156825F001051560026815681C
:1012500025F480551560026815680D431560016816
:101260000A6842F001020A6080F8413080F840408C
:10127000002030BD022030BD30B590F84120202A3A
:1012800022D190F84020012A1ED0012380F840305E
:10129000242280F84120202400250268136823F0CE
:1012A000010313600268136823F4706343EA0121A9
:1012B000116001680A6842F001020A6080F841404A
:1012C00080F84050002030BD022030BD70B50400D1
:1012D00004D094F84100002510B106E0012070BD53
:1012E000204684F8405000F0ABF9242084F84100F7
:1012F0002068016821F001010160D4E9001020F0AC
:10130000706008612068816821F400418160E068B4
:1013100021680128A06806D040F404408860E06895
:10132000022803D006E040F40040F7E721684FF4BC
:101330000060486020212068114A436813434360DD
:101340002068C26822F40042C26054F8106B0DCCD1
:10135000104340EA0320F06054F81C3CD4E900023A
:101360001043186054F81C0D026842F0010202603C
:10137000656484F84110256384F84250002070BDF4
:10138000008000022DE9FF4F83B0044690F8410031
:101390009A469346DDE91087DDF84890202874D1FD
:1013A0005FEA080014D09FB194F8400001286CD087
:1013B000012084F84000FFF72DFF01220646192383
:1013C0000090D103204601F009FF002871D103E00D
:1013D0004FF4007060646CE00025C4F82480222182
:1013E00084F84110402084F84200656467855346C4
:1013F00065635A4604992046CDE9009601F074FED3
:1014000010B184F8405054E0618DFF2734484FF00C
:101410008078FF294FF0007A04D927853A46434661
:10142000009005E0618D53462185009094F82820B6
:101430002046049901F0BCFE00224B4604212046C0
:10144000009601F0CBFEA0BB2068616A406A08707C
:10145000606A401C6062208D401E81B22185608DD3
:10146000401E6085608DD8B1D1B900224B468021E5
:101470002046009601F0B2FED8B9608DFF2805D94C
:1014800027853A464346009506E026E0608D5346A0
:101490002085009594F828202046049901F088FEC4
:1014A000608D0028C8D132464946204601F0C3FE6F
:1014B00018B1012007B0BDE8F08F21682020094A4B
:1014C000C86121684B6813404B6084F8410084F880
:1014D0004250002084F84050ECE70220EAE7000088
:1014E0000024008000E800FE2DE9FF4F83B0044691
:1014F00090F841009A469346DDE91087DDF8489060
:10150000202871D15FEA080014D09FB194F8400000
:10151000012869D0012084F84000FFF77BFE0122FA
:10152000064619230090D103204601F057FE0028FB
:101530006ED103E04FF40070606469E00025C4F8E8
:101540002480212184F84110402084F84200656401
:101550006785534665635A4604992046CDE900964F
:1015600001F0F4FD10B184F8405051E0608DFF2788
:101570004FF08078FF284FF0007A04D927853A464B
:101580004346009505E0608D53462085009594F80C
:1015900028202046049901F00BFE32464946204699
:1015A00001F070FEA0BB606A216800788862606A02
:1015B000401C6062608D401E6085208D401E80B2A0
:1015C0002085618DD9B1D0B900224B4680212046BB
:1015D000009601F003FED8B9608DFF2805D9278554
:1015E0003A464346009506E026E0608D5346208546
:1015F000009594F828202046049901F0D9FD608DCB
:101600000028CAD132464946204601F014FE18B1DE
:10161000012007B0BDE8F08F20682021074AC16192
:10162000206843681340436084F8411084F84250B6
:10163000002084F84050ECE70220EAE700E800FED2
:1016400010B586B0044614216846FEF73DFE1249E7
:10165000206888421ED11148016841F002010160F2
:1016600000681221012200F00200059003230424E7
:101670004FF440708DE81F0009486946FFF7D4FC1D
:1016800006481030016841F400110160006800F460
:101690000010059006B010BD0054004030380240E4
:1016A000000402400248816802781144816070475A
:1016B00014000020032010B500F06EF8002000F0A8
:1016C00005F800F023F8002010BD000070B50D4DA6
:1016D00004464FF47A700C4A29781268B0FBF1F096
:1016E000B2FBF0F000F097FF48B9102C07D20022AF
:1016F0002146501E00F030F800206C6070BD0120C3
:1017000070BD000014000020200000200A4808B529
:10171000016841F080510160006800F08050009045
:101720000548001D016841F480410160006800F433
:101730008040009008BD000040380240002809DBCE
:10174000410900F01F028900012001F1E0219040D1
:10175000C1F80001704700000E4BF0B41B680D4645
:10176000C3F30223C3F10706042E00D90426191D72
:10177000072901D2002300E0DB1E012404FA06F150
:101780009C40491E2940641E994014402143F0BCEE
:1017900004F068B80CED00E0064900F0070210B54F
:1017A0004FF6FF040868044B204040EA022018432B
:1017B000086010BD0CED00E00000FA051848F8B50F
:1017C000016841F0805101600068164C00F08050C3
:1017D0000090206840F480302060FFF71BFD4FF43C
:1017E0007A76054605E000BFFFF714FD401BB042C6
:1017F0000FD86068C003F7D5206840F4003020603F
:10180000FFF708FD054606E0FFF704FD401BB04268
:1018100001D90320F8BD60688003F5D50020F8BD2C
:1018200040380240007000400248016841F4807175
:1018300001607047007000402DE9F84F04460078C1
:10184000DFF824944FF000063746C0070ED0D9F8D1
:10185000001021F40001C9F80010D9F80010626BE3
:101860001143C9F80010606B00B90126FE4D2068D5
:10187000843500030ED5E16B286820F4401008433E
:101880002860E06BB0F5801F01D010B102E00126A6
:1018900000E0012720684FF4800BC0020CD5216CBA
:1018A000286820F4400008432860206C584501D186
:1018B000012601E000B901272068C10100D50126F9
:1018C000800666D5E8483830016841F080510160F3
:1018D0000068DFF898A300F080500090DAF800105C
:1018E00041F48071CAF80010FFF794FC804605E0CF
:1018F000FFF790FCA0EB080064287DD8DAF8000020
:10190000C005F5D5DFF8608308F16808D8F8000055
:1019100010F440702AD0218E01F44071814225D00C
:10192000D8F80010D8F8002021F4407142F4803239
:10193000C8F80020D8F8002022F48032C8F800202F
:10194000C8F80010D8F80000C0070FD0FFF762FCFD
:10195000824607E0FFF75EFCA0EB0A0141F2883007
:101960008142CAD8D8F800008007F3D5206BC0F3B5
:10197000012103297ED0D9F8001021F4F811C9F80B
:101980000010228ED8F80010C2F30B021143C8F8E1
:1019900000102078C00607D5286820F080702860E5
:1019A0002868A16B084328602188AF488830490423
:1019B00005D5626E016821F4403111430160218830
:1019C000090405D5A26E016821F44021114301608C
:1019D0002168C90305D5E26E016821F44011114365
:1019E00001602168890305D5226F016821F4400157
:1019F00011430160217800E034E1490605D5626CAD
:101A0000016821F00301114301602178090605D521
:101A1000A26C016821F00C01114301602188C90505
:101A200005D5E26C016821F0300111430160218885
:101A3000890505D5226D016821F0C00111430160BF
:101A40002188490505D5626D016821F44071114373
:101A500001602188090505D5A26D016821F4406166
:101A6000114301602188C90407D5E26D016821F4A2
:101A7000405100E068E0114301602188890405D5E8
:101A8000226E016821F4404111430160216849023E
:101A900005D5A26F016821F08061114301602168C2
:101AA0004FF0006A890209D5E26F016821F00061F8
:101AB00011430160E16F514500D1012721680A07F8
:101AC00000D50127490305D5626F016821F04071F7
:101AD000114301602168090206D5D4F8802001680D
:101AE00021F08051114301602168490106D5D4F8E5
:101AF0008420016821F00051114301602068000139
:101B000006D5D4F88810286820F0007008432860B3
:101B10002068C00006D5D4F88C10286820F08060BA
:101B200008432860DFF84891012E02D02068800128
:101B30007ED5D9F800004E4620F08060C9F800003C
:101B4000FFF768FB80460FE04A4AD9F800301040A2
:101B500023F4F8120243C9F8002012E7FFF75AFBFA
:101B6000A0EB080064287DD830680001F6D4217805
:101B70003D487C30C90712D0616B81B9237A626815
:101B80000168D0F800C09201C1F3014142EA01426C
:101B9000CCF3036142EA016141EA0371016021680B
:101BA0000A0303D5E26BB2F5801F04D0C9021AD52F
:101BB000216C594517D16368016894F80CC002681C
:101BC0009B01C1F3014143EA0141C2F3027241EAC0
:101BD0000C6141EA027101602968626A21F01F010B
:101BE000521E114329602168C90110D5238A6268F9
:101BF0000168D0F800C09201C1F3036142EA0342D8
:101C000042EA0162CCF3027142EA0171016021688B
:101C100089010CD56168228A237B94F808C0890168
:101C200041EA024141EA036141EA0C71016000E0CE
:101C300011E03168B04641F080613160FFF7EAFAA7
:101C4000064604E0FFF7E6FA801B64280AD8D8F8B5
:101C500000000001F6D5E7B3D9F800004E4620F0A9
:101C6000805009E07BE0000008380240007000402E
:101C700000380240FFFCFF0FC9F80000FFF7CAFA66
:101C8000074604E0FFF7C6FAC01B642867D830682F
:101C9000C0438000F6D5216835480A0301D5E26BC0
:101CA0001AB1C9021DD5216CD9B963690168277EB3
:101CB00002689B01C1F3014143EA0143C2F302718F
:101CC00043EA076242EA0171016029686FF0FF038D
:101CD00000E04BE0A26A21F4F85103EB0222114329
:101CE00029602168890212D5E16F51450FD1238CFB
:101CF0006269016807689201C1F3036142EA034225
:101D000042EA0162C7F3027142EA0171016021787F
:101D1000090716D561690268D0F800C08B01277FDA
:101D2000C2F30362CCF3014143EA014141EA02619B
:101D300041EA077101602868E16A20F440300843F5
:101D40002860306840F080503060FFF763FA044646
:101D500008E000BFFFF75EFA001B642802D90320E9
:101D6000BDE8F88F3068C0438000F3D40020F7E767
:101D7000883802402DE9F04705000F4663D0444EF5
:101D8000306800F00F00B84209D2306820F00F0030
:101D900038433060306800F00F00B84253D12868F3
:101DA0003C4C810712D5400703D5206840F4E05031
:101DB00020602878000703D5206840F46040206048
:101DC000A968206820F0F000084320602878C00748
:101DD0002AD0304968680839012810D009680228DB
:101DE00010D0890700292EDA216821F00301014370
:101DF0002160FFF70FFA804641F288390DE009684B
:101E00008903EFE78901EDE7FFF704FAA0EB08018A
:101E1000494502D90320BDE8F0876868216801F0D0
:101E20000C01B1EB800FEFD1306800F00F00B84229
:101E30000BD9306820F00F0038433060306800F074
:101E40000F00B84201D00120E5E72878400705D50A
:101E5000E968206820F4E0500843206028780007F3
:101E600006D52869216821F4604141EAC00020605C
:101E700000F038F82168084AC1F30311515CC840EA
:101E80000649086006480068FFF720FC0020C2E70A
:101E9000003C024008380240486F00082000002043
:101EA000180000200449054809680068044AC1F385
:101EB0008221515CC8407047083802402000002051
:101EC000586F00080449054809680068044AC1F3CE
:101ED0004231515CC8407047083802402000002061
:101EE000586F0008154910B51548096811F00C0223
:101EF00013D04110042A0FD0082A0ED10F4C241FF2
:101F00002268236802F03F025B0207D52068C0F315
:101F10008810A0FB010106E0084610BD2168C1F34E
:101F20008811A1FB00010023FEF784F92168C1F3A9
:101F30000141491C4900B0FBF1F010BD08380240D6
:101F40000024F4002DE9F84F04004FF000076ED094
:101F50002078DFF87CA3AAF10408C007A8F10405E3
:101F60004CD0DAF800105046C1F38101012908D0A5
:101F70000068C0F3810002280AD1D8F800004002AE
:101F800006D52868800339D560680028DFD035E0A1
:101F90006068B0F5803F0BD010B1B0F5A02F11D024
:101FA000286820F480302860286820F4802002E02F
:101FB000286840F480302860606890B1FFF72AF903
:101FC00006460AE0286840F480202860F0E700BF59
:101FD000FFF720F9801B642872D828688003F7D5A2
:101FE0000CE0FFF717F9064605E000BFFFF712F90E
:101FF000801B6428F0D828688003F7D420788007F5
:1020000042D5DAF80010504611F00C0F08D00068E5
:10201000C0F3810002280BD1D8F80000400207D499
:102020002868800718D5E068012800D114E04AE14B
:10203000E0680028286817D040F001002860FFF70A
:10204000E9F8064605E000BFFFF7E4F8801B022828
:10205000C2D828688007F7D52069296821F0F801DF
:1020600041EAC00028600FE020F001002860FFF77F
:10207000D1F8064605E000BFFFF7CCF8801B022828
:102080001ED828688007F7D42078000729D5904803
:1020900061696C3000298146016812D041F001016C
:1020A0000160FFF7B7F8064605E000BFFFF7B2F89A
:1020B000801B022804D8D9F800008007F6D510E06C
:1020C00089E021F001010160FFF7A4F8064604E071
:1020D000FFF7A0F8801B02287DD8D9F80000800700
:1020E000F6D4207840076BD5DFF8E49109F1380980
:1020F000D9F80000C0000BD4D9F8001041F080518D
:10210000C9F80010D9F80000012700F080500090B5
:1021100070480168C90512D40168834641F4807192
:102120000160FFF777F8064605E000BFFFF772F899
:10213000801B64284FD8DBF80000C005F6D5644E3C
:10214000A068683601280AD008B1052811D0306887
:1021500020F001003060306820F0040002E03068B8
:1021600040F001003060A068A0B1FFF753F883464B
:102170000CE0306840F004003060F0E7FFF74AF808
:10218000A0EB0B0141F28830814268D830688007AB
:10219000F4D50EE0FFF73EF8834607E0FFF73AF884
:1021A000A0EB0B0141F28830814258D8306880079B
:1021B000F4D42FB1D9F8001021F08051C9F80010E3
:1021C000A069E0B3DAF80010C1F3810102294DD013
:1021D0000228286800E042E020F08070286003D0E8
:1021E000FFF718F804463DE0FFF714F8064604E050
:1021F000FFF710F8801B022831D828688001F7D437
:10220000D4E90921DFF8D0C0D4E9070694F83030CA
:102210004F0894F82C1030430CEB074444EA821228
:10222000104340EA016040EA0370C8F800002868E3
:1022300040F080702860FEF7EDFF044605E044E0C2
:10224000FEF7E8FF001B022809D828688001F7D5AF
:102250003BE000BFFEF7DEFF001B022802D903208F
:10226000BDE8F88F28688001F4D42EE00128D8F862
:10227000000028D0E16900F480028A4223D1216A5B
:1022800000F03F028A421ED1626A47F6C0710140E7
:10229000B1EB821F17D1A16A4FF0FF3200F4403337
:1022A00002EB5101B3EB014F0DD194F82C1000F06B
:1022B0007062B2EB016F06D194F8301000F0E0408C
:1022C000B0EB017F01D00120CAE70020C8E7000081
:1022D00008380240007000400000FFFF70B50400A5
:1022E00003D06079002510B105E0012070BD2046C3
:1022F000257100F00DF8022060710121206802684C
:1023000042F0040202606171A560002070BD00000F
:1023100008B500680649884208D10648016841F0BE
:1023200040010160006800F04000009008BD00001E
:1023300000080650343802402DE9F04104000AD06C
:10234000606A002550B12561C4F8145094F85D000E
:10235000A56248B10DE00120BDE8F0816068B0F5EC
:10236000827FF3D0E561F1E7204684F85C5000F00D
:102370005DF8022084F85D004FF4E0622068016897
:1023800021F040010160E068904201D9002101E0A4
:102390004FF48051B0F5706F02D0904200D0A5622A
:1023A0002289A088237C02F4044C277D00F48270EB
:1023B00003F00206228B40EA0C00237F304394F89E
:1023C000206007F001073843278D02F400721043A4
:1023D00003F038031843236806F08002104307F423
:1023E000005630431860A069042394F8242001F4B7
:1023F000805194F8346003EA1040A78902F010027B
:10240000104306F008031843236807F47062104372
:10241000084358602068C16921F40062C26101214B
:10242000256684F85D10002096E7000010B586B0A0
:10243000044614216846FDF747FF12492068884288
:102440001ED11148016841F480110160006800F458
:10245000801005900C481438016841F0200101609B
:1024600000680221002200F02000059003230524CB
:102470004FF460708DE81F0004486946FEF7D4FDF4
:1024800006B010BD00500140443802400014024024
:102490002DE9F84F044690F85C0000271D460128FE
:1024A000164689460DD04FF0010B84F85CB0FEF75C
:1024B000B1FE804694F85D00BA46012804D0022798
:1024C000A3E00220BDE8F88FB9F1000F73D0002E11
:1024D00071D0A2680321C4F83890A68784F85D10F3
:1024E000C4F860A0E687C4F840A0A4F844A0A4F80B
:1024F00046A0B2F5004FC4F850A0C4F84CA009D1D2
:102500002068016821F0400101602068016841F401
:102510008041016020680168490603D4016841F0E8
:1025200040010160E068B0F5E06F606823D908B150
:10253000012E1CD1A06B21680088C86006E02068CD
:102540008168890709D5A16B0988C160A06B801CCF
:10255000A063E08F401EE08709E0FEF75BFEA0EB82
:102560000800A84202D3681C01D045E0A5B3E08F63
:102570000028E4D135E008B1012E2FD1E08F216889
:102580000128A06B02D90088C8600EE000780873AB
:1025900014E0E08722E020688168890714D5E18F84
:1025A0000129A16B08D90988C160A06B801CA063B8
:1025B000E08F801EEDE727E009780173A06B401CD7
:1025C000A063E08F401EE4E7FEF724FEA0EB0800C6
:1025D000A84202D3681C01D00EE06DB1E08F002844
:1025E000D9D142462946204601F03DFF08B12020BE
:1025F0002066A06810B105E0032706E02068C168E6
:1026000080680090206E00B1012784F85DB03846E4
:1026100084F85CA056E7401EB0F1807F10B501D36E
:10262000012010BD4FF0E02460610F21601703F01E
:1026300019F90020A0610721216110BD7047704782
:1026400070470000F0B590F83C20012A3BD01F4EA7
:10265000012480F83C40022280F83D2002681C4D95
:102660005368B242D2F808C001D0AA4203D14F68E1
:1026700023F470033B430F6823F070031F4357603C
:102680000268B24213D0B2F1804F10D0114B9A427F
:102690000DD0114B9A420AD0104B9A4207D0AA4251
:1026A00005D00F4B9A4202D00E4B9A4204D1896852
:1026B0002CF0800319439160002180F83D4080F8A0
:1026C0003C100846F0BD0220F0BD000000000140B3
:1026D000000401400004004000080040000C0040DD
:1026E000004001400018004010B5040003D094F8E9
:1026F0003D0010B107E0012010BD002084F83C002F
:10270000204600F023F8022084F83D002068211DB7
:1027100002F0D8F9012084F8480084F83E0084F8DB
:102720003F0084F8400084F8410084F8420084F8B7
:10273000430084F8440084F8450084F8460084F897
:10274000470084F83D00002010BD000008B5016876
:102750002348814209D12348016841F00101016009
:10276000006800F00100009008BD1F48B1F1804FE3
:1027700011D01E4A91421DD1016841F00201016051
:1027800000680022012100F0020000901D20FEF7E9
:10279000E3FF1D201FE0016841F0010101600068B6
:1027A0000022012100F0010000901C20FEF7D4FF60
:1027B0001C2010E00E4A9142D6D1016841F004017C
:1027C000016000680022012100F0040000901E203A
:1027D000FEF7C2FF1E20BDE80840FEF7AFBF0000B5
:1027E00000000140443802404038024000040040EC
:1027F0000008004090F83D10012901D001207047E9
:10280000174A022180F83D100168CB6843F00103AC
:10281000CB600068904214D0B0F1804F11D01149C4
:1028200088420ED0104988420BD01049884208D007
:102830000F49884205D00F49884202D00E4988428C
:1028400007D181680D4A1140062906D0B1F5803FB5
:1028500003D0016841F001010160002070470000D1
:10286000000001400004004000080040000C00404F
:102870000004014000400140001800400700010032
:1028800070B5044690F83C00012817D0324B012562
:1028900084F83C50022084F83D002268906818407B
:1028A00020F47F4090600868502830D00DDC20284C
:1028B0004DD005DC98B310283BD148E0022070BD14
:1028C000302844D0402834D139E0602828D07028FE
:1028D00006D0B0F5805F2CD0B0F5005F29D10AE0BA
:1028E0004A682068D1E9021302F05FF92068816824
:1028F00041F0770109E04A682068D1E9021302F04B
:1029000054F92068816841F48041816011E0CA680F
:102910004968206802F090FA2068502107E016E02C
:10292000CA684968206802F098FA2068602102F0BD
:1029300045F9002084F83D5084F83C0070BDCA6819
:102940004968206802F078FA20684021EFE72268A1
:1029500001461046EBE7000088FFFEFF704770B5A8
:102960000446006800250169C943890715D4C16878
:10297000C943890711D4EA1E026101212177206829
:1029800080698007204602D0FFF7E8FF04E000F0EE
:10299000CFF8204600F0A2F9257720680169C943E5
:1029A000490717D4C168C943490713D402216FF0FE
:1029B0000402026121772068806910F4407F20467C
:1029C00002D0FFF7CBFF04E000F0B2F8204600F0A1
:1029D00085F9257720680169C943090716D4C168BC
:1029E000C943090712D404216FF00802026121775C
:1029F0002068C0698007204602D0FFF7AFFF04E0DF
:102A000000F096F8204600F069F925772068016902
:102A1000C943C90617D4C168C943C90613D40821DC
:102A20006FF01002026121772068C06910F4407FC6
:102A3000204602D0FFF792FF04E000F079F820462C
:102A400000F04CF9257720680169C943C90708D10E
:102A5000C168C943C90704D1891E0161204600F03D
:102A6000BBF920680169C943090609D4C168C94393
:102A7000090605D46FF0800101612046FFF7DFFDF4
:102A800020680169C943C90509D4C168C943090659
:102A900005D46FF4807101612046FFF7CFFD2068F7
:102AA0000169C943490609D4C168C943490605D427
:102AB0006FF040010161204600F08FF92068016944
:102AC000C94389060BD4C168C943890607D46FF08E
:102AD000200101612046BDE87040FFF7B1BD70BD27
:102AE00010B586B0044614216846FDF7EDFB0D498C
:102AF0002068884214D10C48016841F0010101604E
:102B000000680021082200F00100059002200092D8
:102B1000CDE90101CDE9031004486946FEF784FAC6
:102B200006B010BD000C00403038024000000240EA
:102B3000704770B5044690F83C000D4601280BD054
:102B4000012084F83C000C2A45D007DC5AB1042A45
:102B50001BD0082A78D12CE0022070BD102A4ED05C
:102B6000142A71D15DE0206802F030F82068816994
:102B700041F0080181612068816921F004018161CF
:102B800020682A698169114311E0206802F058F831
:102B90002068816941F4006181612068816921F4C4
:102BA0008061816120682969826942EA012181612D
:102BB0004AE0206802F080F82068C16941F008010D
:102BC000C1612068C16921F00401C16120682A69DE
:102BD000C169114311E0206802F0AAF82068C169B8
:102BE00041F40061C1612068C16921F48061C16163
:102BF00020682969C26942EA0121C16124E0206894
:102C000002F0C2F82068416D41F00801416520687A
:102C1000416D21F00401416520682A69416D11432D
:102C200011E0206802F0DCF82068416D41F4006199
:102C300041652068416D21F4806141652068296902
:102C4000426D42EA01214165002084F83C0070BDDC
:102C500010B5040003D094F83D0010B107E0012046
:102C600010BD002084F83C00204600F023F802202C
:102C700084F83D002068211D01F024FF012084F824
:102C8000480084F83E0084F83F0084F8400084F84F
:102C9000410084F8420084F8430084F8440084F83A
:102CA000450084F8460084F8470084F83D00002081
:102CB00010BD000008B500680649884208D10648E2
:102CC000016841F008010160006800F00800009010
:102CD00008BD0000000C0040403802407047000072
:102CE00010B504464FF0020269B1042912D0082938
:102CF00017D00C291CD0102921D094F843000128AA
:102D000024D0012010BD94F83E000128F9D184F8A8
:102D10003E201DE094F83F000128F2D184F83F20C6
:102D200016E094F840000128EBD184F840200FE031
:102D300094F841000128E4D184F8412008E094F897
:102D400042000128DDD184F8422001E084F84320CC
:102D50000122206801F01CFF17492068174A8842A9
:102D600001D0904203D1436C43F400434364206894
:102D7000884213D0B0F1804F10D0114988420DD055
:102D8000104988420AD01049884207D0904205D0A5
:102D90000E49884202D00E49884207D181680D4A07
:102DA0001140062906D0B1F5803F03D0016841F0FB
:102DB00001010160002010BD00000140000401403D
:102DC0000004004000080040000C004000400140AA
:102DD00000180040070001007047704710B504005C
:102DE00002D0A06F10B107E0012010BD002084F8D0
:102DF0007400204600F026F82420A06720680168AF
:102E000021F001010160204602F092FB0128ECD084
:102E1000606A10B1204602F0E1FA2068416821F4AE
:102E2000904141602068816821F02A01816020681A
:102E3000016841F0010101602046BDE8104002F048
:102E400031BB000010B586B0044614216846FDF77A
:102E50003BFA1249206888421ED11148016841F4AA
:102E600080210160006800F4802005900C48103833
:102E7000016841F00801016000680221002200F0B1
:102E800008000590032307244FF440708DE81F00CD
:102E900004486946FEF7C8F806B010BD0048004077
:102EA00040380240000C02402DE9F8430446806F90
:102EB0001F4616460D46202850D1CDB1C6B194F814
:102EC000740001284AD0012084F8740021224FF0B8
:102ED0000008C4F88080A267FEF79CF98146A068CC
:102EE000A4F85060A4F85260B0F5805F03D004E00D
:102EF0000120BDE8F883206928B12E465FF0000567
:102F000084F8748010E00026FAE78021204602F061
:102F100029FCB8B9C6B116F8010B21688862B4F86B
:102F20005200401EA4F85200B4F852004B464FF035
:102F3000000200970028E8D14FF04001204602F03F
:102F400011FC38B10320D4E735F8020B2168C0F337
:102F50000800E3E72020A0670020CAE70220C8E7B6
:102F6000FEE70000FEB52A4E2A4C3068807850B348
:102F70002948006890F8B00003F096FD27494FF605
:102F8000FF75A0880323009525A2CDE901017821D2
:102F90001420FDF751FE21490323A08822A2083105
:102FA0000095CDE901017821AF20FDF745FE1B48D2
:102FB00000210095022310301DA2CDE90110C82187
:102FC000B420FDF739FE022003F078FC10B9306818
:102FD000807838B16088062200901E212388462020
:102FE000FDF778FE03F026FE0C48032103F08CFB6E
:102FF00040B1012808D0022808D10720BDE8FE40D2
:1030000003F00EBB0220F9E70320F7E7FEBD000046
:10301000480000203000002044000020FC05002073
:103020004D55534943000000434C4F434B000000B3
:1030300053455454494E47530000000001688A69C3
:10304000D243920701D400228A6200688169C94391
:10305000C90703D0816941F0010181617047000017
:103060002DE9F0410446006890460E468069C04351
:10307000C00635D40025202720688069C04380061B
:1030800016D5701CF8D0FEF7C5F8A0EB0800B042CA
:1030900001D8002EF0D1606C84F8405040F0200040
:1030A000606484F8417084F842500120BDE8F081EA
:1030B00021681020C8612068C7612046FFF7BEFF65
:1030C0002068084942680A404260606C40F0040091
:1030D000606484F8417084F8425084F84050E4E71A
:1030E0000020E3E700E800FE2DE9F8431746044618
:1030F0001548DAB2DDE908981E4600900023204604
:1031000000F056F842464946204600F0BBF8B8B9F0
:10311000012EFDB208D02068390A81624246494634
:10312000204600F0AFF858B920688562002240219F
:103130004B462046CDF8008000F050F8002800D023
:103140000120BDE8F8830000002000802DE9F8434D
:103150000446164817461E46DAB20090C3022046BF
:10316000DDE9089800F024F842464946204600F080
:1031700089F8B8B9012EFDB208D02068390A8162F9
:1031800042464946204600F07DF858B920688562DD
:10319000002280214B462046CDF8008000F01EF82A
:1031A000002800D00120BDE8F88300000020008046
:1031B00070B50068C1F30901074E41EA0241049C61
:1031C0004FF480654268194305EA54553543AA43D4
:1031D00021430A43426070BDFF63FF032DE9F041C4
:1031E0001D4617460E460446DDF8188008E0681CA8
:1031F00006D0FEF70FF8A0EB0800A8420BD855B197
:103200002068806936EA000013D00020B842EED072
:103210000020BDE8F081626C002084F8400020218D
:1032200042F02002626484F8411084F842000120D8
:10323000EFE70120EAE770B516460D4604460DE0BB
:10324000324629462046FFF70BFF08B1012070BD2A
:10325000FDF7E0FF801BA84207D835B120688069E0
:10326000C0438006ECD4002070BD626C002084F85E
:103270004000202142F02002626484F8411084F86A
:103280004200E3E770B516460D4604460FE03246AD
:1032900029462046FFF7E4FE08B1012070BD681CF6
:1032A00005D0FDF7B7FF801BA84207D835B12068CD
:1032B0008069C0438007EAD4002070BD626C0020A2
:1032C00084F84000202142F02002626484F841101A
:1032D00084F84200E1E700002DE9FE4F92469B464C
:1032E00020288946DDE90C6201D32038C0B2234B87
:1032F00001AC00EB4001002003EB4101431C0D5CDD
:103300002554D8B20628F9D306EB46014FF6FF70D4
:1033100000EAC603009200EA41025146484600F026
:1033200047F90127A04600255FF0000418F80500C2
:1033300007FA04F108420DD0012E15D004FB06A1B6
:1033400005FB06903346CDF800B089B21A4680B22C
:1033500000F02EF9641CE4B2082CE7D36D1CEDB22A
:10336000062DE1D3BDE8FE8F0AEB04015A4609EBB6
:10337000050089B280B200F06FF8EBE7086D000835
:103380002DE9F0470E4607464FF4FA74B4EB460FAA
:1033900000D90C46DFF8849001224D464846510280
:1033A000FDF733FF4FF4807A284600225146FDF79F
:1033B0002CFF4FEA1728204603F040FB054600206B
:1033C000F9B204E02B1805F80080801C5970A04267
:1033D000F8D37000B0FBF4F1B0FBF4F704FB110874
:1033E00057B1002606E0A2B20D480A232946FFF78E
:1033F0004FF8761CBE42F6D31FFA88F208480A231B
:103400002946FFF745F8012251464846FDF7FDFEE3
:103410002846BDE8F04703F029BA00000008024042
:1034200074030020F8B54FF0000C161A6746069D8D
:1034300001D54FF0010C5C1A00D50127BCF1000F3B
:1034400001D0861A1046B2B20FB1CC1A1946A3B2F7
:10345000009500F0ADF8F8BD2DE9FE430546514852
:103460000C46164641888D427DD2008884427AD22D
:10347000DFF834814FF40077002239464046FDF7EB
:10348000C4FE4FF48079404600224946FDF7BDFE58
:103490002A2000F02FFA012239464046FDF7B5FEFA
:1034A000012249464046FDF7B0FE0022494640460B
:1034B000FDF7ABFE681C290A8DF800108DF801504D
:1034C000020A8DF8022001238DF8030004223748F8
:1034D0006946FEF7DDFF012249464046FDF795FEAD
:1034E000002239464046FDF790FE002249464046FC
:1034F000FDF78BFE2B2000F0FDF9012239464046F6
:10350000FDF783FE012249464046FDF77EFE00227C
:1035100049464046FDF779FE601C210A8DF80410EB
:103520008DF80540020A8DF8062001238DF807006A
:1035300004221E4801A9FEF7ABFF0122494640467E
:10354000FDF763FE002239464046FDF75EFE00228D
:1035500049464046FDF759FE2C2000F0CBF90122E8
:103560003946404600E01BE0FDF74FFE0122494688
:103570004046FDF74AFE002249464046FDF745FE1B
:10358000300A8DF808000948012302228DF80960ED
:1035900002A9FEF77DFF012249464046FDF735FEB0
:1035A000BDE8FE83000000200008024074030020F4
:1035B0002DE9F041154C16461D46069F6288904243
:1035C00021D2228891421ED263888219521E9A42C9
:1035D00002DB6288121A96B223884A19521E9A4256
:1035E00002DB2288521A95B24B1982195B1E521EB9
:1035F0009BB292B200F088F905FB06F13846BDE8AF
:10360000F041FFF7BDBEBDE8F081000000000020E2
:103610002DE9FC47994692460D460446DDE90A78B5
:1036200007EB47060AE0641C4B46CDE9007852469A
:103630002946FFF751FE05EB460085B220780028A9
:10364000F1D1BDE8FC870000012202489102FDF79C
:10365000DCBD00000008024070B5084C0546238818
:1036600062880021084600F04FF9618820884143B4
:103670002846BDE87040FFF783BE00000000002030
:1036800010B5FFF7E1FF00F025F900F005F9012082
:1036900000F08CF94FF47A70FDF7B4FCCB2000F009
:1036A00085F9392000F09EF92C2000F09BF90020CC
:1036B00000F098F9342000F095F9022000F092F91A
:1036C000CF2000F073F9002000F08CF9C12000F049
:1036D00089F9302000F086F9E82000F067F98520AC
:1036E00000F080F9002000F07DF9782000F07AF9F0
:1036F000EA2000F05BF9002000F074F9002000F0EF
:1037000071F9ED2000F052F9642000F06BF903200C
:1037100000F068F9122000F065F9812000F062F9EC
:10372000F72000F043F9202000F05CF9C02000F001
:103730003DF9232000F056F9C12000F037F91020A0
:1037400000F050F9C52000F031F93E2000F04AF9B0
:10375000282000F047F9C72000F028F9862000F063
:1037600041F9362000F022F9482000F03BF93A20D8
:1037700000F01CF9552000F035F9B12000F016F9E1
:10378000002000F02FF9182000F02CF9B62000F0EE
:103790000DF9082000F026F9822000F023F92720F7
:1037A00000F020F9F22000F001F9002000F01AF9F1
:1037B000262000F0FBF8012000F014F9E02000F0D2
:1037C000F5F80F2000F00EF9312000F00BF92B2056
:1037D00000F008F90C2000F005F90E2000F002F9C5
:1037E000082000F0FFF84E2000F0FCF8F12000F077
:1037F000F9F8372000F0F6F8072000F0F3F8102071
:1038000000F0F0F8032000F0EDF80E2000F0EAF8E8
:10381000092000F0E7F8002000F0E4F8E12000F0D3
:10382000C5F8002000F0DEF80E2000F0DBF81420D0
:1038300000F0D8F8032000F0D5F8112000F0D2F8FD
:10384000072000F0CFF8312000F0CCF8C12000F0C4
:10385000C9F8482000F0C6F8082000F0C3F80F208F
:1038600000F0C0F80C2000F0BDF8312000F0BAF8EC
:10387000362000F0B7F80F2000F0B4F8112000F067
:1038800095F87820FDF7BEFB292000F08FF8BDE801
:103890001040002000F062B870B50D4D4FF4806408
:1038A000002221462846FDF7B0FCC820FDF7AAFB00
:1038B00000222846A110FDF7A8FCC820FDF7A2FBB6
:1038C00021462846BDE870400122FDF79EBC00005D
:1038D0000008024010B500F0B1FB00F07DFABDE831
:1038E0001040034800224FF48071FDF78EBC0000A9
:1038F00000080240012301B502481A466946FEF756
:10390000C7FD08BD740300202DE9F0411C46154693
:103910000E4607462A2000F049F8380A00F062F8FF
:10392000F8B200F05FF8280A00F05CF8E8B200F0A6
:1039300059F82B2000F03AF8300A00F053F8F0B2B2
:1039400000F050F8200A00F04DF8E0B200F04AF81C
:10395000BDE8F0412C2000F029B800002DE9F0412D
:103960000746362000F022F80120FDF74BFB0E4CF5
:103970004FF4A0764FF0F00567B1012F0CD0022F65
:103980000CD0032F04D1E82000F02CF866802580AD
:10399000BDE8F081482002E02820F5E7882000F00B
:1039A00021F865802680F3E70000002070B50C4DFB
:1039B0004FF480740022064621462846FDF725FC78
:1039C000002228466100FDF720FC3046FFF792FFF9
:1039D00021462846BDE870400122FDF716BC0000D4
:1039E0000008024070B50B4C0122064651022046E9
:1039F000FDF70BFCA515204600222946FDF705FC26
:103A00003046FFF777FF29462046BDE87040012287
:103A1000FDF7FBBB000802400A2008B503F044F89C
:103A2000022002F04BFF18B908480068807840B1C6
:103A300007480622418800915A2103884B20FDF750
:103A400049F9BDE8084003F0F5B80000480000203F
:103A5000300000202DED0A8B90ED0C3B90ED105BBB
:103A600090ED0E7BB0EE43BB90ED00CB12EE05BBAC
:103A700090ED0A4B90ED02AB90ED049B90ED088B1E
:103A800090ED066B02EE453B3BEE47BB02EE457BFD
:103A90003BEE0CBB0AEE025B02EE0B4B31EE481B19
:103AA00034EE09AB02EE016B87EE0A9BB0EE441BCD
:103AB00030EE460B84EE0A2B09EE008B09EE447BB8
:103AC00002EE006BB0EE430B02EE441B80ED066B82
:103AD00080ED088B02EE430B80ED0A1B09EE435B81
:103AE00080ED0C0B80ED0E7BB0EE460B80ED105B95
:103AF000BDEC0A8B70472DE9F0410125804686B068
:103B00002B4604A86424CDE9000575224046D02147
:103B10000294FDF737FC9DF81000682803D00120BF
:103B200006B0BDE8F08100278DF80C7003AE00965A
:103B3000012340466B22D021CDE90154FDF7D4FC8E
:103B400007208DF80C000096012319224046D02151
:103B5000CDE90154FDF7C8FC8DF80C7001230096E7
:103B60001C22D0214046CDE90154FDF7BDFC8DF863
:103B70000C70012300961B22D0214046CDE9015450
:103B8000FDF7B2FC0020CBE730B564230C460E22D3
:103B90002DED088B87B003A98DE80E0001233B2291
:103BA000D021FDF7EFFBBDF80C009FED781B9FEDDA
:103BB000795B9FED7A3A9FED7A2BDFED7B0A40BA75
:103BC00000B2208000EE100ABDF80E00B8EEC04B27
:103BD00040BA00B2608000EE100ABDF8100024EE7A
:103BE000024B40BA00B2A080B8EEC06B00EE100AE3
:103BF000BDF81410BDF81200B8EEC07B26EE022B03
:103C000087EE056B49BA09B2218400EE101A40BA5A
:103C1000BDF8161000B2B8EEC07B00EE100A48BA2C
:103C200000B26084B8EEC00AC0EE033A00EE100A9B
:103C3000BDF81800B8EEC08B40BA00B2A08400EE08
:103C4000100A84ED024B84ED042BB8EEC04B84EDDA
:103C5000066B87EE015B33EEA00A84ED100A88EE56
:103C6000017B84ED0A5B84EE012B84ED0C7B84EDFB
:103C70000E2BFDF7CFFA4D4D9FED4D1B2968401AD5
:103C800000EE100AB8EE400B80EE01ABFDF7C2FA71
:103C90002860208810FB00F1A08810FB001000EEC7
:103CA000100AB8EEC00B01F0D3FFB5EEC00BF1EE79
:103CB00010FA9FED41BB0ED0B4F9020001EE100ADC
:103CC000B8EEC12B82EE001BB0EE410B01F0DCFD23
:103CD00020EE0B9B01E09FED3A9BB4F90010B4F984
:103CE0000400494200EE900A00EE101AB8EEE01B04
:103CF000B8EEC00B01F0C8FE20EE0B0B9FED321B9F
:103D00009FED338BB4EEC10BF1EE10FA06D294EDB9
:103D1000142BB4EEC82BF1EE10FA0BDCB4EEC80B8A
:103D2000F1EE10FA0BDD94ED142BB4EEC12BF1EE95
:103D300010FA04D21D48503080ED060B07E01B48F6
:103D400094ED0C1B5030B0EE4A2BFFF783FE84ED50
:103D5000140BB0EEC00BB4EEC80BF1EE10FA05DD9B
:103D600094ED0A0BB1EE400B84ED0A0B0F4894ED75
:103D70000C1B0830B0EE4A2BB0EE490BFFF76AFE81
:103D800084ED120B07B0BDEC088B30BD00000000C5
:103D900000606040000000000029CC400000AA4301
:103DA000000000000000103FB81E12426001002019
:103DB0000000000000408F40F8C1631ADCA54C40B1
:103DC000000000000000000000000000008056C05D
:103DD00000000000008056402DE9F04F87B014210C
:103DE0006846FCF771FA6F48016841F01001016004
:103DF000016801F010010591016841F004010160C2
:103E0000016801F004010591016841F020010160A1
:103E1000016801F020010591016841F08001016015
:103E2000016801F080010591016841F00101016024
:103E3000016801F001010591016841F00201016092
:103E4000016801F002010591016841F0080101607B
:103E5000016801F008010591016841F0400101602D
:103E600000680022504D682100F04000059028466F
:103E7000FDF7CBF944F2810A4C4800225146FDF788
:103E8000C4F94B4800224021FDF7BFF94FF4E06B25
:103E9000484800225946FDF7B8F900246946142025
:103EA0000294CDE900042846FDF7BEF86820009092
:103EB00001276946CDE9017428460394FDF7B4F85B
:103EC0003D494FF40059CDF80090CDE9011439482F
:103ED0006946FDF7A9F802254FF00B083220694624
:103EE00002AACDE900050326324882E85001FDF719
:103EF0009BF88620694602AACDE900052F4882E892
:103F00005001FDF791F8CDF800A06946CDE90174A4
:103F100026480394FDF788F802AA2448694682E8F7
:103F20005001CDE90095FDF77FF840200090CDE9E4
:103F300001741F4869460394FDF776F880206946AE
:103F4000CDE900041A480294FDF76EF8CDF800B0F0
:103F50006946CDE9017417480394FDF765F84FF4FD
:103F6000E85000900A206946CDE903601348CDE986
:103F70000154FDF759F828026946CDE900040F48BD
:103F80000294FDF751F84FF42051094802AACDE9F7
:103F90000015694682E85001FDF746F807B0BDE814
:103FA000F08F000030380240001002400004024050
:103FB00000180240000802400000111000000240FA
:103FC0001348002110B5114C0123124A0460C0E9C6
:103FD0000121C0E9033141618161C1610162FDF7E5
:103FE00075F908B1FDF70CF809480021FDF718F93B
:103FF00008B1FDF705F806480021FDF73DF9002856
:1040000003D0BDE81040FCF7FBBF10BD00540040DA
:1040100018030020591940000749064810B50860E8
:104020000846FEF75BF9002803D0BDE81040FCF716
:10403000E7BF10BD000806506403002070B5104DA6
:104040004FF4E0630F4800214FF482746A15C0E911
:10405000021301610723C0E90512C16101624162D7
:10406000C0E90A1301634163C0E90054FEF764F933
:10407000002803D0BDE87040FCF7C2BF70BD00004F
:10408000005001407403002010B588B01749002487
:10409000174842F2107200948B1501940294039415
:1040A00004940594069480E81600C0E90343446133
:1040B0008461FEF719FB08B1FCF7A2FF4FF48050B2
:1040C00000900B486946FEF7DBFB08B1FCF798FF50
:1040D000074804A9049405940694FEF7B3FA00284F
:1040E00001D0FCF78DFF08B010BD000000000140BA
:1040F000D803002010B588B01648002440F2E733FA
:10410000632200944FF0804101940294039404943C
:104110000594069480E81600C0E903348461FEF734
:10412000E3FA08B1FCF76CFF4FF4805000900948A7
:104130006946FEF7A5FB08B1FCF762FF054804A934
:1041400004940694FEF77EFA002801D0FCF758FF8D
:1041500008B010BD2404002010B588B01748002412
:104160001549632240F2E7330094019402940394CA
:1041700004940594069480E81600C0E90334846131
:10418000FEF7B2FA08B1FCF73BFF4FF48050009005
:104190000A486946FEF774FB08B1FCF731FF07488F
:1041A00004A904940694FEF74DFA002801D0FCF708
:1041B00027FF08B010BD000000040040700400207C
:1041C00010B588B0174800241549632240F2E73340
:1041D000009401940294039404940594069480E856
:1041E0001600C0E903348461FEF77EFA08B1FCF7DB
:1041F00007FF4FF4805000900A486946FEF740FBE5
:1042000008B1FCF7FDFE074804A904940694FEF7E4
:1042100019FA002801D0FCF7F3FE08B010BD000029
:1042200000080040BC04002010B58AB00024684695
:104230001C21079408940994FCF746F8164840F2AC
:10424000E7316322134BC0E9024104618461C0E994
:104250000032FEF7FDFC08B1FCF7D2FE0E4807A9BC
:1042600007940994FEF7EEF908B1FCF7C9FE602047
:104270006946CDE9000408480C2202940494FEF734
:1042800058FC08B1FCF7BCFE0348FEF729FC0AB055
:1042900010BD0000000C0040080500200D48002162
:1042A00010B50B4C0C224FF4E1330460C0E901312E
:1042B000C160C0E904128161C16101624162FEF71F
:1042C0008DFD002803D0BDE81040FCF799BE10BD5D
:1042D0000048004054050020FEE70000064802A107
:1042E0000068413001F092BA48656C6C6F205465EB
:1042F00073742031323334004400002070470000D2
:104300003F4870B53F4E9CB00068807800284CD084
:104310003D493EA0FCF71EFE32680DF13E0103A8A8
:10432000413202F04DFC3B4D032046226988CDE925
:1043300000012B88322103A8FFF76AF930684FF695
:10434000FF7490F8400001280ED000BF4FF000002D
:104350002D49AA88C0F16A0001F108010094CDE955
:10436000012104D12CA203E04FF00900F0E72CA2B8
:104370004FF003034FF09601FCF75EFC2248002546
:104380000094022310309E2127A2CDE9015026205F
:10439000FCF752FC1C48022300949E21183023A2F3
:1043A000CDE90150EA20FCF747FC02F043FC164837
:1043B000042102F0A9F960B1012810D0022819D017
:1043C00003281AD1FFF79AFF1CB0BDE8704002F035
:1043D0001FBC1CB00120BDE8704002F021B930685C
:1043E00090F84000012802D000F02AF8ECE700F035
:1043F0001FF8E9E700F034F8E6E71CB070BD0000F4
:104400004800002044000020FC0500204D55534981
:10441000430000003000002050415553450000008B
:10442000504C4159000000003C3C00003E3E000062
:1044300002480168022081F84000704744000020D3
:1044400010B5064C206890F8400008B9FFF746FF09
:104450002168012081F8400010BD000044000020C8
:104460007047FEE77047F8B515460E4604460B4602
:104470004FF4C0510092002200F01AF888B90022CF
:10448000334680212046009500F076F848B9002296
:1044900033464FF4C0612046009500F009F800282B
:1044A00004D0206E40F0200020660320F8BD0000FC
:1044B0002DE9FC47994617460E4604460A9DFCF72F
:1044C000A9FE411BA9EB0105FCF7A4FE8046294883
:1044D0004FF4C06A0068C0EBC00000EB8000000D24
:1044E00068433FE0564502D10FB9007B0190B9F116
:1044F000FF3F38D0FCF78EFEA0EB0800A84203D2A5
:1045000015B1009860B32CE02068416821F0E0010B
:1045100041606068B0F5827F0BD1A068B0F5004FB4
:1045200002D0B0F5806F04D12068016821F040010D
:104530000160A06AB0F5005F09D12068016821F42C
:10454000005101602068016841F4005101600121BF
:1045500084F85D10002084F85C000320BDE8FC872F
:104560000025401E0090206881683140B942B9D1D1
:104570000020F3E7200000202DE9F8431E46914675
:1045800088460446089DFCF745FE401B351AFCF79B
:1045900041FE074625480068C0F3CB30684338E049
:1045A000701C37D0FCF736FEC01BA84203D215B1F1
:1045B000009860B32CE02068416821F0E001416080
:1045C0006068B0F5827F0BD1A068B0F5004F02D0D3
:1045D000B0F5806F04D12068016821F040010160CE
:1045E000A06AB0F5005F09D12068016821F400518C
:1045F00001602068016841F400510160012184F8E4
:104600005D10002084F85C000320BDE8F8830025DD
:10461000401E00902068816838EA010004D0002123
:104620004945BDD10020F0E70121F9E72000002035
:10463000704700002DE9FF5F4748484C484D00682F
:10464000807800283FD0474947A0FCF783FC60886A
:104650004FF0020836220A21CDE90080238845A0C8
:10466000FEF7D6FFE0890322009032212388C8207C
:10467000FCF730FB414E642260880A21D6F844B032
:10468000B76BD6E90F9ACDE9008023883CA0FEF7EE
:10469000BFFF28683DA190F8B02002A801F0B6F84D
:1046A000E18903206022CDE900012388C82102A806
:1046B000FEF7AEFF2B48D6E912231838C0E90C23C9
:1046C000203080E8800E022002F0F8F838B1E0894E
:1046D0000322009032212388C820FCF7FBFA02F065
:1046E000A9FA2048042102F00FF8C0B101281CD01B
:1046F000022824D003282CD1286890F8B0100A3161
:10470000C9B280F8B010642902D90A2180F8B0102B
:10471000C8B202F0C9F9BDE8FF5F02F079BA04B08F
:104720000120BDE8F05F01F07BBF296818224868CE
:10473000401C90FBF2F302FB13004860EBE7296892
:104740003C228868401C90FBF2F302FB1300886057
:10475000E1E7BDE8FF9F0000480000203000002096
:1047600044000020FC05002053455454494E475353
:104770000000000054494D4500000000606F000833
:104780004252494748544E45535300002533642054
:10479000252500002DE9FF47DFF84891524CDFF84E
:1047A0004C81A4F10C06D9F80000807800284BD089
:1047B0004F4950A0FCF7CEFBD8F800104FF6FF751C
:1047C0004B48083091F8301031B1012900F1080749
:1047D0000ED0022922D037E0A1890323009548A2F8
:1047E000CDE9011096212820FCF726FA00202AE0C6
:1047F000A1880223009545A2CDE901109621282029
:10480000FCF71AFA208902239621029741A2CDE9EA
:104810000050C420FCF710FA012014E0A188022304
:1048200000953AA2CDE9011096212820FCF704FA60
:10483000A08902239621029738A2CDE90050B82022
:10484000FCF7FAF90220F0702949D8F800000C3979
:104850000B68426B93420BD1836B4D689D4207D12D
:10486000C36B8968994203D1D9F80010897861B186
:1048700001AF65882388052187E82A00C16B009174
:104880004621836B2820FCF777FA02F0D3F9184809
:10489000032101F039FF50B1F17871B1012911D034
:1048A00002291CD1012814D0022818D107E004B035
:1048B0000320BDE8F04701F0B3BE01280FD100F09E
:1048C0004BF808E0012804D0022808D100F02AF8AB
:1048D00001E000F02FF8BDE8FF4702F099B9BDE80C
:1048E000FF87000048000020300000204400002026
:1048F000FC05002053544F505741544348000000DA
:10490000202020535441525420202000524553452A
:104910005400000050415553450000005245535586
:104920004D45000002480168022081F830007047C0
:104930004400002006480021064B10B500681A68A4
:10494000D3E90143C363C0E90D2480F8301010BDE2
:1049500044000020D80500200C48012110B50C4C63
:1049600040F25373006880F83010D0E90D12C06B2C
:1049700061435A4300EB4003C3EBC01001EB42110B
:1049800001EBC0000349086010BD00004400002096
:1049900080EE36000C000020FCF784BE70B5B8B085
:1049A000342124A8FBF790FC142131A8FBF78CFCE0
:1049B00090216846FBF788FCFCF736FF2548016824
:1049C00041F080510160006800F08050369022482C
:1049D000016841F44041016000684FF4A0210225C4
:1049E00000F440403690012004238205C8240926A3
:1049F000CDE92A52CDE924012CA924A881E8780028
:104A0000FDF7A0FA08B172B6FEE7FCF7D7FE08B1D1
:104A100072B6FEE74FF480524FF4A0510024339455
:104A2000CDE934120F20CDE93105062131A8FDF77B
:104A3000A1F908B172B6FEE70848199413941F94BF
:104A400000906846FCF7F8FE002801D072B6FEE739
:104A500038B070BD40380240007000400041200076
:104A60000248016841F470010160704788ED00E080
:104A7000044810B5FDF773FF03480168491C016045
:104A800010BD00002404002008000020044810B5D8
:104A9000FDF765FF03480168491C016010BD000077
:104AA000700400200C000020044810B5FDF757FFEB
:104AB00003480168491E016010BD0000BC040020CD
:104AC00010000020F0B5274B4FF0804E264D0268B5
:104AD0009842264E264F274C09D0704507D0A84251
:104AE00005D0B04203D0B84201D0A04205D1D1F8E0
:104AF00004C022F070024CEA020298421BD07045BA
:104B000019D0A84217D0B04215D0B84213D0A04255
:104B100011D0194DA8420ED0184DA8420BD0184DF7
:104B2000A84208D0174DA84205D0174DA84202D080
:104B3000164DA84203D1CD6822F440722A434D6934
:104B400022F080022A43026098428A68C2620A68A0
:104B5000826201D0A04201D1096901630121416152
:104B6000F0BD0000000001400004004000080040CB
:104B7000000C00400004014000400140004401409E
:104B80000048014000180040001C00400020004088
:104B900010B5046A012301F01F018B409C4304629D
:104BA0008A40016A1143016210BD42EA0322836810
:104BB0000A4323F47F410A4382607047826822F0EF
:104BC00070020A4342F0070181607047F0B5026A43
:104BD000DFF860C0184F22F00102DFF860E00262E7
:104BE000066A4268836926F002060D68B8428C683E
:104BF00003EA0C0323F0030344EA060445EA030531
:104C000001D0704505D1CB6824F00804234323F07C
:104C10000404B84201D0704505D122F44076D1E9B0
:104C2000053233431A434260856149684163046237
:104C3000F0BD00008FFFFEFF0000014000040140B6
:104C4000F0B5026A194E1A4C22F01002DFF864E047
:104C50000262056A4368826925F02005D1F808C020
:104C6000A0420F6802EA060222F4407245EA0C15DF
:104C700042EA072201D0704506D1CE6825F08005B2
:104C800045EA061525F04005A04201D0704507D140
:104C9000D1E9054623F4406343EA840343EA8603EB
:104CA00043608261496881630562F0BDFF8FFFFE4A
:104CB0000000014000040140F0B5026A194F1A4E8D
:104CC00022F48072DFF864E00262056A4368C26918
:104CD00025F40075D1F808C0B0420C6802EA07025A
:104CE00022F0030245EA0C2544EA020401D0704593
:104CF00006D1CF6825F4006242EA072222F48065DB
:104D0000B04201D0704507D123F44052D1E90536B5
:104D100042EA031242EA06134360C4614968C16370
:104D20000562F0BD8FFFFEFF00000140000401405E
:104D3000F0B5026A124B114F22F48052984202627F
:104D4000046A4268C36924F400548E680D6803EA5B
:104D5000070323F4407344EA063443EA052302D0F0
:104D6000084DA84204D14D6922F4804242EA8512DE
:104D70004260C361496801640462F0BDFF8FFFFEB9
:104D80000000014000040140F0B5026ADFF844C0B1
:104D900022F480320262056A4268446D25F40035CF
:104DA0000E8960450C4F0B6804EA070445EA064586
:104DB00043EA040302D0094CA04204D14C6922F416
:104DC000803242EA04224260436549688165056297
:104DD000F0BD0000000001408FFFFEFF0004014015
:104DE000F0B5026ADFF844C022F480120262046A5D
:104DF0004268436D24F400140E8960450C4F0D6821
:104E000003EA070344EA065443EA052302D0094DA6
:104E1000A84204D14D6922F4802242EA85224260F0
:104E200043654968C1650462F0BD000000000140AF
:104E3000FF8FFFFE0004014010B5036A046A23F0EF
:104E40000A0324F00104046284690B4324F0F00196
:104E500041EA02118161036210BD10B5036A23F0BB
:104E6000100303628369046A23F4704324F0A004EE
:104E700043EA0232826144EA0111016210BD00007E
:104E80002DE9F0410F4E10255FF000044FF6FF773B
:104E900001223046082107EA4404FCF7B6F9002253
:104EA00030460821FCF7B1F910213046FCF7A8F98B
:104EB00008B1641CA4B26D1E15F0FF05E8D12046B0
:104EC000BDE8F081001002402DE9F047DFF8DC90EA
:104ED0000122082106464846FCF797F90122484678
:104EE0002021FCF792F9012248464021FCF78DF978
:104EF000002748464FF47A7A3C46402155463A46C8
:104F0000FCF783F90EE0902000F062F8FFF7B8FF9D
:104F10000744D02000F05CF8FFF7B2FF641C6D1E60
:104F2000804405D004214846FCF76AF90028EAD0FD
:104F300001224D4640214846FCF767F9544504D10B
:104F400004212846FCF75CF920B1002030807080F5
:104F5000BDE8F087B8FBF4F0B7FBF4F140F21112B2
:104F6000CC239FED130B40424C4281B2B1FBF2F1D6
:104F7000A0B2B0FBF3F0C1F1E30101EE101A0F385B
:104F800001EE900AB8EEC12BB8EEE11B22EE002B29
:104F900021EE001BBCEEC20BFCEEC10B10EE100AA2
:104FA0003080012010EE901A7180D1E7001002408D
:104FB0008FC2F5285C8FF23F0448042110B5FCF73E
:104FC0001FF908B1002010BD012010BD00100240E3
:104FD00070B5114E08240022054621463046FCF7E4
:104FE00014F9280601D5012200E0002230462021D4
:104FF000FCF70BF968060122050E30460821FCF784
:1050000004F9002230460821FCF7FFF8641E14F072
:10501000FF04E6D170BD0000001002403EB5194DFE
:1050200028688078C8B1184CE088FEF715FBE18845
:1050300004206422CDE90001638814A01146FEF724
:10504000E7FA144A4FF6FF70A18803238DE80700A2
:10505000B4216A2010A2FBF7EFFD01F0EBFD0D4833
:10506000012101F051FB00280AD10D480168002000
:1050700081F8200028684078BDE83E4001F0D0BAB1
:105080003EBD0000480000203000002054494D453E
:1050900052000000FC05002053544F500000000057
:1050A000440000202DE9FF5FDFF83CA2DAF80000A1
:1050B000416A002905DC816A002902DCC06A0028F7
:1050C00001DD012000E00020DFF820B28146884D9C
:1050D000A5F10C04DBF80000807800287BD085491E
:1050E00085A0FBF737FFDAF800004FF6FF78814E16
:1050F000103690F8200040B1012806F108072DD0A5
:10510000022843D0032859D065E0607808B17CA01C
:1051100000E07DA0774A01210832FBF73FFFB9F19B
:10512000000F01D06078B8B168890323CDF8008002
:105130009621CDE90106282074A2FBF77DFD607859
:10514000002847D074496B48183091E84E11012768
:1051500080E84E11A7703EE0A889E6E7A9880223FF
:10516000CDF800802820CDE9011696216BA2FBF72F
:1051700063FD29890223CDF80080C420CDE9011701
:10518000962168A2FBF758FD022023E0A98802239C
:10519000CDF800802820CDE9011696215FA2FBF70B
:1051A0004BFDA9890223CDF80080B820CDE9011775
:1051B00096215EA2FBF740FD03200BE0A8880323A5
:1051C000CDF800809621CDE90106282059A2FBF7F1
:1051D00033FD0420A07047495646DAF8000018391C
:1051E0000B68426A93420BD1836A4F689F4207D192
:1051F000C36A8968994203D1DBF80010897881B1CC
:10520000617809B1E98900E069882B880525019555
:10521000CDE90231C16A00914621836A2820FBF75B
:10522000ABFD01F007FD3348062101F06DFA60B1D6
:10523000A17881B101291DD0022942D003294DD086
:1052400004294FD102284DD142E004B00320BDE82B
:10525000F05F01F0E5B9012807D0022842D1B9F189
:10526000000F37D000F086F834E06078A0B100205D
:1052700060702FE00128F8D003280FD03C210428CB
:1052800016D005282ED13268D06A401C90FBF1F36D
:1052900001FB1300D0621DE00120E9E731686322C1
:1052A000486A401C90FBF2F302FB1300486211E0D5
:1052B0003268906A401C90FBF1F301FB130090628E
:1052C00008E0022804D003280CD100F039F801E0EE
:1052D00000F03EF8BDE8FF5F01F09ABC0228F7D06D
:1052E0000328BFD0BDE8FF9F4400002048000020F5
:1052F00030000020FC05002054494D4552000000BC
:10530000444F4E45000000005345540020202053D8
:105310005441525420202000806F000852455345CC
:10532000540000005041555345000000524553556C
:105330004D45000020202052455345542020200098
:1053400002480168022081F82000704744000020D4
:1053500006480021064B10B500681A68D3E90143DE
:10536000C362C0E9092480F8201010BD4400002069
:10537000D805002010B5134C86B00121206880F8B4
:105380002010C16A009110A1D0E9092301A800F002
:105390003DFA01A800F0B4F8206840F253730D4CB8
:1053A000D0E90912C06A61435A4300EB4003C3EBE2
:1053B000C01001EB421101EBC0000749086006B0C4
:1053C00010BD0000440000202532642025326420F6
:1053D0002532640080EE36001000002090F8241082
:1053E000C90706D00168836A4A6822F400321A436A
:1053F0004A6090F82410890706D50168C36A4A6894
:1054000022F480321A434A6090F82410490706D5E6
:105410000168036B4A6822F480221A434A6090F8BC
:105420002410090706D50168436B4A6822F400423C
:105430001A434A6090F82410C90606D50168836BA8
:105440008A6822F480521A438A6090F824108906F0
:1054500006D50168C36B8A6822F400521A438A6039
:1054600090F82410490611D50168036C4A6822F4AB
:1054700080121A434A60016CB1F5801F06D10168A1
:10548000436C4A6822F4C0021A434A6090F8241020
:10549000090606D50168826C486820F40020104394
:1054A00048607047F8B500260446C0F88060FBF7F6
:1054B000B1FE054620686FF07E470068000708D5FA
:1054C00000222B464FF400112046009700F04AF9C5
:1054D00060B92068006840070AD500222B464FF4C7
:1054E00080012046009700F03DF908B10320F8BD87
:1054F0002020A067E0672666002084F87460F8BD6D
:1055000070B50446FAF7EBFE4FF47A75214682B285
:1055100005482B46FDF7C8FC2B460348BDE8704004
:10552000042202A1FDF7C0BC540500200A0D0000B2
:105530002DE9F04104460368C2698168D4E904504A
:10554000DFF8F4C17D4E29431F68002510437C4AD3
:10555000014307EA0C070F431F604FF40040216826
:10556000E7684B6823F440533B434B602768A369CB
:10557000216AD7F808C019432CF430630B43BB6091
:105580002168B1420AD1116811F0030152D00129FA
:105590007CD0022971D003296ED184E0694B9942F5
:1055A0000AD1116811F00C0167D0042965D00829CF
:1055B00075D00C2960D176E0634B99420AD111680D
:1055C00011F0300159D010296BD0202967D0302933
:1055D00052D168E05D4B99420AD1116811F0C001C7
:1055E0004BD040295DD0802959D0C02944D15AE000
:1055F000574B99420DD1116811F440713DD0B1F56E
:10560000807F4ED0B1F5007F49D0B1F5407F33D1D6
:1056100049E0504B99420FD1116811F4406109D013
:10562000B1F5806F3DD0B1F5006F38D0B1F5406F66
:1056300022D138E0012120E0474B99420DD1116879
:1056400011F4405119D0B1F5805F2AD0B1F5005F57
:1056500025D0B1F5405F0FD125E0404B99420BD1E9
:10566000116811F4404108D0B1F5804F19D0814242
:1056700015D0B1F5404F16D01021E369384A4FF6E6
:10568000EF7683422FD109294BD201E009E006E0F1
:10569000DFE801F00B0E11471347474716000221C0
:1056A000EBE70421E9E70821E7E7FCF7FBFB06E06D
:1056B000FCF708FC03E0104602E0FCF713FC88B39B
:1056C0006168400000EB5100B0FBF1F080B2A0F146
:1056D0001001B14225D84FF6F0732168C0F34202A1
:1056E0001840104320E009291BD2DFE801F005082B
:1056F0000B1A0D1A1A1A1000FCF7D4FB06E0FCF77F
:10570000E1FB03E0104602E0FCF7ECFB50B16168FE
:1057100000EB5100B0FBF1F080B2A0F11001B142FA
:1057200001D9012501E02168C86000206066A066FB
:105730002846BDE8F0810000F369FFEF001001404A
:10574000903802400044004000480040004C0040B7
:10575000005000400014014000780040007C0040F0
:105760000024F4002DE9F0479A4617460E460446F9
:10577000089D4FF000094FF0200839E0681C37D031
:10578000FBF748FDA0EB0A00A84222D80DB3206821
:10579000016849072CD5C069C043000528D4236897
:1057A0004FF40061196221680B6823F4D0730B6019
:1057B00021688B6823F001038B60C4F87880C4F8FB
:1057C0007C80C4F8808000BF032084F87490BDE81A
:1057D000F08721680B6823F4D0730B6021688B6815
:1057E00023F001038B60C4F87880C4F87C80EBE779
:1057F0002068C06936EA000004D00020B842BDD05D
:105800000020E4E70120F9E7FEE700000FB4084BB1
:1058100010B504A902AA039800F072FB044602A97D
:10582000002000F0F0FE204610BC5DF814FB0000E4
:105830000766000803B401984100009850EAC120AF
:1058400018BF04204A0D18BF40F0010040F2FF725B
:10585000B2EB515F08BF40F00200012808BF0520ED
:1058600002B07047090700284FEA116104DB00F11C
:10587000E02080F80014704700F00F0000F1E020F5
:1058800080F8141D7047000070B565482DED020BBF
:105890002DED048B059D25F00044A04218DC6148E5
:1058A000844202DC0AD1049840B19DED040BBDECAA
:1058B000048B02B0BDE8704000F035BA002DCCBFBB
:1058C0009FED590B9FED5A0BBDEC048B02B070BDE0
:1058D0005948A04215DD5948A042D8BF4FF0FF34C7
:1058E00055DD9DED040B51EC100BFFF7A3FF0428D1
:1058F00008BF00F021FA9DED040BBDEC048B02B053
:1059000070BD9DED040B51EC100B00F0A3FFCDE931
:1059100004014B489FED4C0BA0421CDD4C48A042BB
:105920000BDD9DED042B00249FED4B1B12EE010BB4
:1059300032EE011B80EE012B27E09DED041B9DED57
:10594000042B012431EE401B32EE000B81EE002BC4
:105950008DED042B1BE04248A0420FDD9DED042B92
:1059600002249FED411B9DED043B32EE412B03EEE3
:10597000010B82EE001B8DED041B08E09DED040B76
:105980009FED3B1B032481EE002B8DED042B9DED41
:10599000040B3948062120EE009B29EE098BB0EE5E
:1059A000480B784400F087F920EE099B3348B0EEAD
:1059B000480B0521784400F07EF920EE080B002CFE
:1059C0000BDA9DED042B39EE001B9DED040BBDECB5
:1059D000048B02B002EE410B70BD2948784439EEC9
:1059E000000B00EBC4009DED042B90ED001B25483F
:1059F00012EE001B9DED040B31EE400B784400EBE2
:105A0000C400002D90ED001B31EE400BB8BFB1EE8D
:105A1000400BBDEC048B02B070BD00000000000024
:105A2000000010440000F07F182D4454FB21F93F82
:105A3000182D4454FB21F9BF0000DC3F0000203E3C
:105A40000000F33F00000000000000000000F03FF5
:105A50000000E63F000000000000000000000040E1
:105A60000080034000000000000000000000F83F3C
:105A7000000000000000F0BF7216000038160000A1
:105A8000F0150000B015000070B5614E2DED040B4F
:105A90002DED048B82B0DDF824C0DDE907235C42E4
:105AA0002CF000411C4341EAD474069D22F00040D2
:105AB000B44205D86C422C4340EAD474B4420BD9AA
:105AC0009DED081B9DED060B02B0BDEC048B04B0F0
:105AD000BDE8704000F02AB9ACF14054A4F17F64F5
