:020000040800F2
:10000000200A002011020008D33F0008B32F000887
:10001000793E0008CD050008FF58000800000000E8
:100020000000000000000000000000001543000870
:10003000A506000800000000D73F00086947000837
:100040002B0200082B0200082B0200082B020008DC
:100050002B0200082B0200082B0200082B020008CC
:100060002B0200082B0200082B0200082B020008BC
:100070002B0200082B0200082B0200082B020008AC
:100080002B0200082B0200082B0200082B0200089C
:100090002B0200082B0200082B0200082B0200088C
:1000A0002B0200082B0200082B0200082B0200087C
:1000B000614800087D480008994800082B020008A4
:1000C0002B0200082B0200082B0200082B0200085C
:1000D0002B0200082B0200082B0200082B0200084C
:1000E0002B0200082B0200082B0200082B0200083C
:1000F0002B0200082B0200082B0200082B0200082C
:100100002B0200082B0200082B0200082B0200081B
:100110002B0200082B0200082B0200082B0200080B
:100120002B0200082B0200082B0200082B020008FB
:100130002B0200082B0200082B0200082B020008EB
:100140002B0200082B0200082B0200082B020008DB
:100150002B0200082B0200082B0200082B020008CB
:100160002B0200082B0200082B0200082B020008BB
:100170002B0200082B0200082B02000800000000E0
:100180002B0200082B0200082B0200082B0200089B
:100190002B0200082B0200082B0200082B0200088B
:1001A0002B0200082B0200082B0200082B0200087B
:1001B0002B0200082B0200082B0200082B0200086B
:1001C0002B0200082B020008000000002B02000890
:1001D0002B0200082B0200082B0200082B0200084B
:1001E0002B0200082B0200082B0200082B0200083B
:1001F0002B0200082B020008DFF810D000F0ACF84A
:1002000000480047955F0008AFF30080200A0020F7
:100210000648804706480047FEE7FEE7FEE7FEE7A0
:10022000FEE7FEE7FEE7FEE7FEE7FEE74D480008D3
:10023000F90100082DE9F05F0546002092469B4633
:1002400088460646814640241BE0284641464746EC
:10025000224600F070F853465A46C01A914110D316
:1002600011461846224600F057F82D1A67EB010890
:100270004F4622460120002100F04EF817EB0009FE
:100280004E41201EA4F10104DFDC484631462A46D7
:100290004346BDE8F09F40EA01039B0703D009E015
:1002A00008C9121F08C0042AFAD203E011F8013B62
:1002B00000F8013B521EF9D27047D2B201E000F8BB
:1002C000012B491EFBD270470022F6E710B51346FA
:1002D0000A4604461946FFF7F0FF204610BD421CAF
:1002E00010F8011B0029FBD1801A704730B50B466E
:1002F000014600202022012409E021FA02F59D4256
:1003000005D303FA02F5491B04FA02F52844151E29
:10031000A2F10102F1DC30BD202A04DB203A00FA10
:1003200002F1002070479140C2F1200320FA03F34C
:10033000194390407047202A04DB203A21FA02F04A
:100340000021704721FA02F3D040C2F1200291400F
:100350000843194670470000064C074D06E0E06868
:1003600040F0010394E8070098471034AC42F6D3FC
:10037000FFF746FFC4650008E46500080EB50220DB
:1003800005F0E0FD18B91F480068807838B31E49B1
:10039000C88803F09BF81C48C0884FF6FF730622FC
:1003A0001E210090462000F0AFFA1748C0880421B3
:1003B000CDE90010144843886422114613A003F0CD
:1003C0005FF81449104880884FF6FF720323CDE987
:1003D0000020029110A2B4216A2000F041FA05F039
:1003E00009FF01210B4805F0E3FC48B900200C4946
:1003F0000968087303490968487805F069FC00BF7B
:1004000000BF0EBD9000002028000020414C41524A
:100410004D0000006803002053544F5000000000BE
:100420008C0000207FB55D480068807800283ED0B1
:100430005B495CA000F004FC5C49097809B95CA147
:1004400000E05DA10846564A1032012100F022FC6E
:100450005B4805885548007828B95A480068007BF1
:1004600008B9574845895148007810B15448C089A7
:1004700001E0534840880421CDE90115039051481B
:100480000068806900904F4800685F21D0E904232C
:10049000142000F099FA424808300090494800685A
:1004A000027B02235F21E12000F0D6FA00BF05F0B5
:1004B000A1FE3E480078B0B1434903C9CDE902012D
:1004C0004149083103C9CDE90001354802998161EC
:1004D0000399C1610099016201994162052105F00A
:1004E00067FC044604E003212D4805F061FC044646
:1004F000052C50D2DFE804F0030A1A253A00002048
:100500002A490870032005F0E3FB45E02D48006808
:10051000007B20B901202B490968087303E0002003
:1005200028490968087305F053FE35E01F48007834
:1005300008B9012000E000201C49087005F048FEC1
:100540002AE0204800680069401C1E4909680861CB
:100550001C4800680069182190FBF1F201FB1200B1
:1005600018490968086105F033FE15E01548006870
:100570004069401C13490968486112480068406995
:100580003C2190FBF1F201FB12010E480068416131
:1005900005F01EFE00E000BF00BF7FBD9000002000
:1005A00068030020414C41524D00000038000020FB
:1005B0004544495400000000444F4E4500000000EF
:1005C000280000208C0000208465000800BFFEE7A2
:1005D00038B522480068807858B1214921A000F040
:1005E0002FFB1F4A1832A2F10801A1F1080000F008
:1005F00071F8032005F0A6FC18B918480068807847
:1006000048B11A48408800901848038805225A21AA
:10061000282000F0A9F905F0EDFD0421104805F0AF
:10062000C7FB044634B1012C08D0022C0AD0032C9D
:1006300010D10BE0012005F04BFB0CE0042005F08D
:1006400047FB08E0062005F043FB04E0052005F029
:100650003FFB00E000BF00BF38BD0000900000205D
:1006600068030020434C4F434B000000280000204B
:1006700070B505460C464C2206492846FFF70BFE8E
:10068000054800682060054805600548046000F0E2
:100690000BF870BD400000203C0000208C000020C2
:1006A000900000207047000010B502F027FF0749B6
:1006B000488802F00BFF012003F08AF8044909681A
:1006C00091F8480005F0E0FC10BD00002800002073
:1006D0008C0000202DE9FE4304460D46164657487F
:1006E00080884FF6FF71022355A2CDE901040091E5
:1006F000C8210A2000F0B4F853480068007B0128A4
:1007000018D14E48808900906788B4F806C06744C5
:10071000BBB22788B4F804C067447F1FBAB26788A9
:10072000B4F806C067447F1FB9B227887F1DB8B2EE
:1007300002F06EFD414880884FF6FF71CDE901055A
:1007400000912188A288114488B202233FA2C821C7
:1007500000F086F83C480068007F58B33748878926
:1007600039480068007F022801D134480789009782
:10077000B5F802C0B5F80680C4441FFA8CF3B5F88A
:1007800000C0B5F80480C444ACF1050C1FFA8CF22B
:10079000B5F802C0B5F80680C444ACF1050C1FFAE8
:1007A0008CF1B5F800C00CF1050C1FFA8CF002F0CA
:1007B0002FFD00BF214880884FF6FF71CDE901066B
:1007C00000912988AA88114488B2022321A2C82155
:1007D00000F046F81C48006890F82C0060B31748F9
:1007E00087891948006890F82C00022801D1134825
:1007F00007890097B6F802C0B6F80680C4441FFA0D
:100800008CF3B6F800C0B6F80480C444ACF1050C13
:100810001FFA8CF2B6F802C0B6F80680C444ACF1F8
:10082000050C1FFA8CF1B6F800C00CF1050C1FFA8C
:100830008CF002F0EDFC00BFBDE8FE832800002034
:10084000416C61726D0000008C00002054696D6580
:100850007200000053746F70776174636800000069
:100860002DE9F04F85B006460D4617461C46DDF8CB
:100870003C803846FFF733FD049004EB4400410010
:100880000498801C41431FFA81F94FEA041A05EBD2
:100890000A0083B206EB090082B229463046CDF841
:1008A000008002F0B5FCE00000EE100AB8EEC00BCC
:1008B000B0EE002B80EE021B00EE105AB8EE400B9B
:1008C00031EE000BBCEEC00B10EE100A1FFA80FBDD
:1008D000062000FB046081B2CDE900485A46384644
:1008E0000E9B02F0CDFDADF80860ADF80A50ADF8F2
:1008F0000C90ADF80EA00299109801600399416028
:1009000005B0BDE8F08F00002DE9FF4106460F4617
:1009100014461D46DDF828800F48006800780F490E
:1009200008700D48006800790D4908700A48006891
:10093000007A0C4908700848CDE902580194006813
:10094000806800900448006839460CC8304600F0C2
:100950003BF8BDE8FF8100008C000020240000204F
:1009600025000020260000202DE9FF4106460F4605
:1009700014461D46DDF828800F48006800780F49AE
:1009800008700D48006800790D4908700A48006831
:10099000007A0C4908700848CDE9025801940068B3
:1009A000806800900448006839460CC8304600F062
:1009B0002DF8BDE8FF8100008C00002024000020FD
:1009C00025000020260000200FB42DE9F04186B05C
:1009D00004460D46DDE91278119E09A103A8DDE960
:1009E0000E2304F08FFF3B462A46214603A8CDE99B
:1009F000006802F045FD06B0BDE8F0015DF814FBAB
:100A0000252E32643A252E32640000000FB42DE901
:100A1000F04186B004460D46DDE91278119E10982B
:100A2000009009A103A8DDE90E2304F06BFF3B460B
:100A30002A46214603A8CDE9006802F021FD06B050
:100A4000BDE8F0015DF814FB252E32643A252E3204
:100A5000643A252E326400002DE9F04F87B0064637
:100A60000C4690461D46DDF840A005EB45004000D1
:100A7000C0EBC0074FEA0519B8F1000F02D16B486F
:100A8000408901E069488089009004EB090083B245
:100A9000F01982B22146304602F0BAFBB8F1000FDD
:100AA00053D163A263A105A804F02CFFE80000EE77
:100AB000100AB8EEC00BB0EE002B80EE021B00EE69
:100AC000104AB8EE400B31EE000BBCEEC00B10EE3E
:100AD000100A1FFA80FB55484089CDE90050534861
:100AE00043885A46314605A802F0CAFC4FF6FF700B
:100AF0000090E80000EE100AB8EEC01B00EE104AAD
:100B0000B8EE400BB7EE0C2B01EE020BBCEEC00BA7
:100B100010EE100A83B205EB450006EB8002E800F8
:100B200000EE100AB8EEC01B00EE104AB8EE400B03
:100B3000B5EE002B01EE020BBCEEC00B10EE100A5E
:100B400081B2701D02F064FB5EE03CA105A804F0D8
:100B5000D9FEE80000EE100AB8EEC00BB0EE002B94
:100B600080EE021B00EE104AB8EE400B31EE000B97
:100B7000BCEEC00B10EE100A1FFA80FB2B488089D8
:100B8000CDE90050294843885A46314605A802F06D
:100B900077FC4FF6FF7006EB070B05EB450CABEB54
:100BA0008C0C00901FFA8CF04FEAC50C00EE10CAB6
:100BB000B8EEC01B00EE104AB8EE400BB7EE0C2B9F
:100BC00001EE020BBCEEC00B10EE10CA1FFA8CF344
:100BD00006EB070CACF1050C1FFA8CF24FEAC50CC2
:100BE00000EE10CAB8EEC01B00EE104AB8EE400B83
:100BF000B5EE002B01EE020BBCEEC00B10EE10CADE
:100C00001FFA8CF102F004FBADF80C60ADF80E4059
:100C1000ADF81070ADF812900398CAF8000004986F
:100C2000CAF8040007B0BDE8F08F000028000020DB
:100C30004F4646002536732000000000204F4E002E
:100C400030B58FB004460D4622460DA105A804F02C
:100C500059FE0E4840880221CDE900100B48038858
:100C60000A22114605A802F00BFC094903C9CDE987
:100C7000030103982860049868600FB030BD00003D
:100C80003C3C20252E32317300000000280000205B
:100C90006C6500082DE9FF4106460C4615463046B6
:100CA000FFF71DFBC0F11A0000EB40008004070CA9
:100CB000124840880221CDE9001014B10F48808805
:100CC00001E00E48408903460A223946304602F0C8
:100CD000D7FB0B4903C9CDE902013046FFF7FFFA04
:100CE000C0F11A0000EB40008004000CADF80800D1
:100CF0000298286003986860BDE8FF812800002002
:100D00007465000872B600BFFEE7000070B50446C7
:100D100000F02AF906462546681C10B10448007800
:100D2000054400BF00F020F9801BA842FAD370BD33
:100D30001C000020F8B502460B46002100250024C7
:100D4000002000BFE4E0012606FA01F51E6806EA6D
:100D50000504AC4271D15E68012E08D05E68022E97
:100D600005D05E68112E02D05E68122E13D19068F5
:100D70004F000326BE40B0434F00DE68BE40304304
:100D80009060506801268E40B0431E79C6F300166D
:100D90008E4030435060D0684F000326BE40B043C1
:100DA0004F009E68BE403043D0605E68022E02D085
:100DB0005E68122E13D1CF0802F1200656F82700E4
:100DC0004E07F70E0F26BE40B0434F07FF0E1E69B9
:100DD000BE403043CF0802F1200646F827001068D5
:100DE0004F000326BE40B0431E7906F003064F00B5
:100DF000BE40304310605E6806F08056B6F1805FFA
:100E0000A8D100BF444E366846F48046424F3E604B
:100E10003E46366806F48046009600BF00BF3F4E4F
:100E20008F0856F827008E07370F0F26BE40B043B5
:100E30003B4EB24202D100262EE068E0394EB2426B
:100E400001D1012628E0384EB24201D1022623E02A
:100E5000364EB24201D103261EE0354EB24201D1D8
:100E6000042619E0334EB24201D1052614E0324E79
:100E7000B24201D106260FE0304EB24201D1072620
:100E80000AE02F4EB24201D1082605E02D4EB242B3
:100E900001D1092600E00A268F073F0FBE403043EC
:100EA0001E4E8F0846F82700274E3068A0435E6824
:100EB00006F48036B6F5803F00D12043224E3060E4
:100EC000361D3068A0435E6806F40036B6F5003F74
:100ED00000D120431C4E361D3060361D3068A043C3
:100EE0005E6806F48016B6F5801F00D12043164ECA
:100EF00008363060361D3068A0435E6806F4001680
:100F0000B6F5001F00D120430F4E0C363060491C4F
:100F10001029FFF418AFF8BD4438024008380140EA
:100F2000000002400004024000080240000C0240A1
:100F3000001002400014024000180240001C024051
:100F40000020024000240240003C01400246136998
:100F50000B400BB1012000E0002070470AB1816115
:100F600001E00B048361704701480068704700008E
:100F70001400002003480068034909780844014927
:100F800008607047140000201C00002010B50320EA
:100F900000F09CF8002000F005F800F029F800208F
:100FA00010BD000070B504460E4800784FF47A7109
:100FB000B1FBF0F00C490968B1FBF0F5284601F0EF
:100FC00050FA08B1012070BD102C07D20022214632
:100FD000501E00F03DF80548046001E00120F2E7F2
:100FE0000020F0E71C000020200000201800002056
:100FF00008B500BF0D48006840F080500B490860FC
:101000000846006800F08050009000BF00BF00BF9D
:10101000081D006840F48040091D0860084600680B
:1010200000F48040009000BF00BF08BD403802407F
:1010300001460846002809DB00F01F0301229A4000
:1010400043099B0003F1E023C3F8002100BF704770
:101050002DE9F05F80460D461646002704F066FC39
:10106000074639462A46334601F00700C0F1070A11
:10107000BAF1040F02D94FF0040A01E0C0F1070AE7
:10108000D14600F1040ABAF1070F02D24FF0000A6C
:1010900001E0A0F1030AD4464FF0010A0AFA09FA66
:1010A000AAF1010A0AEA020A0AFA0CFA4FF0010B45
:1010B0000BFA0CFBABF1010B0BEA030B4AEA0B0436
:1010C0002146404604F03AFCBDE8F09F00BF00F026
:1010D0000702064B19684FF6FF031940044B0B43F8
:1010E00043EA0221014B196000BF70470CED00E09C
:1010F0000000FA0538B5002400BF2048006840F021
:1011000080501E4908600846006800F0805000903A
:1011100000BF00BF1A48006840F4803018490860DA
:10112000FFF722FF044607E0FFF71EFF001BB0F5A4
:101130007A7F01D9032038BD1148406800F480301F
:10114000B0F5803FF0D10E48006840F400300C4903
:101150000860FFF709FF044607E0FFF705FF001BE3
:10116000B0F57A7F01D90320E5E70548406800F42F
:101170000030B0F5003FF0D10020DCE740380240FD
:10118000007000400348006840F480700149086026
:1011900070470000007000402DE9F8430446002627
:1011A00000250027A846A946207800F0010088B154
:1011B00000BFFE48006820F40000FC4908600846B3
:1011C0000068616B0843F949086000BF606B08B9AB
:1011D0004FF00108206800F40020B0F5002F13D173
:1011E000F2488430006820F44010E16B0843EF4976
:1011F00084310860E06BB0F5801F01D14FF0010829
:10120000E06B08B94FF00109206800F48010B0F5D8
:10121000801F13D1E5488430006820F44000216C21
:101220000843E24984310860206CB0F5800F01D199
:101230004FF00108206C08B94FF00109206800F058
:101240008070B0F1807F01D14FF00108207800F06C
:101250002000202870D100BFD4483830006840F00A
:101260008050D249383108600846006800F080504C
:10127000009000BF00BFCE48006840F48070CC49A9
:101280000860FFF771FE064607E0FFF76DFE801B62
:10129000642802D90320BDE8F883C548006800F43B
:1012A00080700028F1D0C1486830006800F44075B3
:1012B00085B3208E00F44070A8422BD0BB48683024
:1012C000006820F44075B9486830006840F4803008
:1012D000B649683108600846006820F4803008602C
:1012E00008460560006800F0010098B1FFF73CFE79
:1012F000064608E0FFF738FE801B41F2883188423D
:1013000001D90320C7E7A94868300068C0F340004E
:101310000028EFD000BF208E00F44070B0F5407F71
:101320000BD1A248006820F4F810A24A216B1140AA
:1013300008439E49086006E010E09C48006820F4DD
:10134000F8109A490860994868300068218EC1F306
:101350000B01084395496831086000BF207800F010
:101360001000102810D100BF90488430006820F091
:1013700080708E498431086008460068A16B08437C
:101380008A498431086000BF208800F48040B0F5AD
:10139000804F09D185488830006820F44030616E64
:1013A0000843824988310860208800F40040B0F585
:1013B000004F09D17D488830006820F44020A16E9C
:1013C00008437A4988310860206800F48030B0F51D
:1013D000803F09D175488830006820F44010E16EE4
:1013E0000843724988310860206800F40030B0F585
:1013F000003F09D16D488830006820F44000216F1B
:1014000008436A4988310860207800F0400040288D
:1014100009D166488830006820F00300616C0843F9
:10142000624988310860207800F08000802809D166
:101430005E488830006820F00C00A16C08435B49CE
:1014400088310860208800F48070B0F5807F09D171
:1014500056488830006820F03000E16C084353495A
:1014600088310860208800F40070B0F5007F09D151
:101470004E488830006820F0C000216D08434B4979
:1014800088310860208800F48060B0F5806F09D151
:1014900046488830006820F44070616D0843434935
:1014A00088310860208800F40060B0F5006F09D131
:1014B0003E488830006820F44060A16D08433B49F5
:1014C00088310860208800F48050B0F5805F09D131
:1014D00036488830006820F44050E16D08433349B5
:1014E00088310860208800F40050B0F5005F09D111
:1014F0002E488830006820F44040216E08432B4974
:1015000088310860206800F48000B0F5800F09D1B0
:1015100026488830006820F08060A16F0843234986
:1015200088310860206800F40010B0F5001F0FD16A
:101530001E488830006820F00060E16F08431B49B6
:1015400088310860E06FB0F1006F01D14FF0010900
:10155000207800F00800082801D14FF00109206828
:1015600000F48020B0F5802F09D110488830006841
:1015700020F04070616F08430C4988310860206892
:1015800000F40000B0F5000F0AD108488830006868
:1015900020F08050D4F88010084304498831086056
:1015A000206800F08060B0F1806F05E008380240EC
:1015B00000700040FFFCFF0F08D1CD48006820F00C
:1015C0000050D4F884100843C9490860206800F02E
:1015D0000060B0F1006F0AD1C548001F006820F01C
:1015E0000070D4F888100843C149091F08602068BA
:1015F00000F08050B0F1805F0AD1BD48001F006844
:1016000020F08060D4F88C100843B949091F0860A5
:10161000B8F1010F05D0206800F00070B0F1007F34
:101620007ED1B3489038006820F08060B04990398E
:101630000860FFF799FC064606E0FFF795FC801B63
:10164000642801D9032026E6A94890380068C0F331
:10165000C0600028F1D1207800F00100B8B1606BC3
:10166000A8B9A3480C380068C0F30145A0480C385D
:101670000068C0F303676068800140EA054040EA03
:101680000761207A41EA007099490C3908602068A6
:1016900000F40020B0F5002F03D1E06BB0F5801FFF
:1016A00009D0206800F48010B0F5801F24D1206C90
:1016B000B0F5800F20D18E480C380068C0F301458A
:1016C0008B480C380068C0F302776068800140EAFC
:1016D0000541207B41EA006040EA077084490C39EB
:1016E00008608348001F006820F01F00616A491EDF
:1016F00008437F49091F0860206800F08070B0F13E
:10170000807F17D17A480C380068C0F303657848A9
:101710000C380068C0F3027760688101208A00E01D
:1017200036E041EA004040EA056040EA077070494F
:101730000C390860206800F00070B0F1007F0DD116
:1017400060688101208A41EA0041207B41EA006112
:10175000207A41EA007066490C3908606448903884
:10176000006840F08060624990390860FFF7FCFB38
:10177000064606E0FFF7F8FB801B642801D903202A
:1017800089E55B4890380068C0F3C0600028F1D05C
:10179000B9F1010F7ED156489038006820F0805092
:1017A000534990390860FFF7DFFB064606E0FFF774
:1017B000DBFB801B642801D903206CE54C48903882
:1017C0000068C0F340700028F1D1206800F40020C8
:1017D000B0F5002F01D1E06B38B1206800F4801023
:1017E000B0F5801F22D1206C00BB4148083800684A
:1017F000C0F301453E4808380068C0F302776069CD
:10180000800140EA0541207E41EA006040EA07701D
:10181000374908390860081D006820F4F851A06AAB
:10182000401E41EA00203249091F0860206800F488
:101830000010B0F5001F19D1E06FB0F1006F15D1A5
:101840002B4808380068C0F3036529480838006849
:10185000C0F3027760698101208C41EA004040EAD0
:10186000056040EA0770224908390860207800F0D6
:101870000800082820D11E4808380068C0F3036516
:101880001B4808380068C0F301476069800140EADE
:10189000074000E02AE040EA0561207F41EA00704D
:1018A000134908390860081D006820F44030E16AD7
:1018B00008430F49091F08600D489038006840F040
:1018C00080500B4990390860FFF74EFB064606E052
:1018D000FFF74AFB801B642801D90320DBE404489E
:1018E00090380068C0F340700028F1D00020D2E4A6
:1018F0009038024070B504460D4600260CB9012010
:1019000070BD5C48006800F00F00A8420ED2594834
:10191000006820F00F002843564908600846006818
:1019200000F00F00A84201D00120E9E7207800F084
:10193000020002281DD1207800F00400042805D1FF
:101940004D48006840F4E0504B490860207800F0B2
:101950000800082805D14848006840F4604046491E
:1019600008604548006820F0F000A168084342493B
:101970000860207800F0010090B36068012807D16A
:101980003D4808380068C0F34040A0B90120B7E7DF
:101990006068022807D1384808380068C0F3406002
:1019A00048B90120ACE7344808380068C0F340006B
:1019B00008B90120A4E73048006820F003006168FE
:1019C00008432D490860FFF7CFFA064609E0FFF704
:1019D000CBFA801B41F28831884202D903208FE77D
:1019E00007E02548006800F00C006168B0EB810F4B
:1019F000EDD12048006800F00F00A8420ED91D4824
:101A0000006820F00F0028431A4908600846006863
:101A100000F00F00A84201D0012071E7207800F00B
:101A20000400042807D11448006820F4E050E1685D
:101A3000084311490860207800F00800082808D100
:101A40000D48006820F46040216940EAC1000A495D
:101A5000086000F03FF808490968C1F30311074A1C
:101A6000515CC8400649086006480068FFF79AFACA
:101A7000002045E7003C024008380240506500085D
:101A80002000002018000020014800687047000076
:101A90002000002000B5FFF7F7FF04490968C1F3F3
:101AA0008221034A515CC84000BD00000838024052
:101AB0006065000800B5FFF7E7FF04490968C1F356
:101AC0004231034A515CC84000BD00000838024062
:101AD000606500082DE9F047002400250026A14696
:101AE0002548006800F00C0020B1042805D0082823
:101AF0003AD105E0DFF8849039E0DFF8849036E0F1
:101B00001D48001F006800F03F041B48001F0068CC
:101B100000F4800078B11A481749091F0968C1F319
:101B20008811A0FB01700146224600233846FEF7CB
:101B300081FB05460EE011480F49091F0968C1F3F2
:101B40008811A0FB01700146224600233846FEF7AB
:101B500071FB05460848001F0068C0F30140401CA7
:101B60004600B5FBF6F902E0DFF8109000BF00BFB9
:101B70004846BDE8F0870000083802400024F40021
:101B800000127A00F8B5044600270CB90120F8BD10
:101B9000207800F00100002871D0F948006800F0BA
:101BA0000C0004280DD0F648006800F00C0008284E
:101BB00013D1F348001F006800F48000B0F5800FD7
:101BC0000BD1EF4808380068C0F34040002869D0C6
:101BD0006068002866D10120D9E700BF6068B0F5D1
:101BE000803F08D1E6480838006840F48030E44976
:101BF000083908602EE0606868B9E1480838006874
:101C000020F48030DE49083908600846006820F476
:101C1000802008601EE06068B0F5A02F0DD1D84884
:101C20000838006840F48020D54908390860084623
:101C3000006840F4803008600CE0D1480838006843
:101C400020F48030CE49083908600846006820F446
:101C50008020086000BF606890B1FFF785F90546F5
:101C600006E0FFF781F9401B642801D903208EE7C5
:101C7000C34808380068C0F340400028F1D011E0A4
:101C8000FFF772F9054606E0FFF76EF9401B64287E
:101C900001D903207BE7BA4808380068C0F3404008
:101CA0000028F1D1207800F00200022869D1B44860
:101CB000006800F00C0058B1B148006800F00C005A
:101CC00008281CD1AE48001F006800F48000B0B99D
:101CD000AB4808380068C0F3400020B1E068012834
:101CE00001D0012053E7A6480838006820F0F8002A
:101CF000216940EAC100A2490839086041E0E06872
:101D000028B39F480838006840F001009C49083912
:101D10000860FFF729F9054606E0FFF725F9401BA3
:101D2000022801D9032032E7954808380068C0F33B
:101D300040000028F1D092480838006820F0F800F0
:101D4000216940EAC1008E490839086019E08C48D1
:101D50000838006820F00100894908390860FFF759
:101D600003F9054606E0FFF7FFF8401B022801D9FA
:101D700003200CE7824808380068C0F340000028C0
:101D8000F1D1207800F00800082836D16069D0B180
:101D90007B486C30006840F0010079496C31086084
:101DA000FFF7E2F8054606E0FFF7DEF8401B0228E1
:101DB00001D90320EBE672486C300068C0F34000A4
:101DC0000028F1D019E06E486C30006820F0010066
:101DD0006B496C310860FFF7C7F8054606E0FFF76E
:101DE000C3F8401B022801D90320D0E664486C30B8
:101DF0000068C0F340000028F1D1207800F0040012
:101E0000042874D15E483830006800F0805080B9F2
:101E100000BF5B483830006840F080505849383186
:101E200008600846006800F08050009000BF00BFC6
:101E300001275448006800F48070B0B95148006828
:101E400040F480704F490860FFF78EF8054606E0C1
:101E5000FFF78AF8401B642801D9032097E6494818
:101E6000006800F480700028F2D000BFA06801284C
:101E700008D143486830006840F0010040496831AB
:101E800008602DE0A06868B93D486830006820F01F
:101E900001003B49683108600846006820F00400F2
:101EA00008601DE0A06805280DD13548683000683D
:101EB00040F004003249683108600846006840F08C
:101EC000010008600CE02E486830006820F0010036
:101ED0002B49683108600846006820F0040008605B
:101EE00000BFA068A8B1FFF73FF8054609E02EE063
:101EF000FFF73AF8401B41F28831884201D90320AC
:101F000045E61F4868300068C0F340000028EFD065
:101F100013E0FFF729F8054608E0FFF725F8401B16
:101F200041F28831884201D9032030E614486830F4
:101F30000068C0F340000028EFD1012F07D11048FE
:101F40003830006820F080500D4938310860A069B1
:101F5000002854D00A48006800F00C00082867D018
:101F6000A06902284CD106480838006820F080702B
:101F7000034908390860FEF7F7FF05460BE000004B
:101F80000838024000700040FEF7EEFF401B0228B8
:101F900001D90320FBE53F480068C0F340600028FA
:101FA000F2D1D4E907010843616A40EA81110122B4
:101FB000A06AC2EB500041EA00412C20005D41EADA
:101FC00000613020005D41EA00703249091D08605F
:101FD000081F006840F08070091F0860FEF7C4FF0A
:101FE000054606E0FEF7C0FF401B022801D903208A
:101FF000CDE528480068C0F340600028F2D047E0F3
:102000002448006820F0807022490860FEF7ACFF89
:10201000054606E0FEF7A8FF401B022801D9032071
:10202000B5E51C480068C0F340600028F2D12FE0FD
:102030001848001D0668A069012827D006F4800111
:10204000E069814222D106F03F01206A81421DD120
:1020500047F6C0703040616AB0EB811F16D106F4BC
:1020600040310122A06AC2EB5000B1EB004F0DD10C
:1020700006F070612C20005DB1EB006F06D106F018
:10208000E0413020005DB1EB007F01D001207EE512
:1020900000207CE50038024010B504460CB9012050
:1020A00010BD607920B900202071204600F00EF8A4
:1020B000022060712068006840F004002168086018
:1020C000012060710020A06000BFE9E708B5094A5F
:1020D000016891420DD100BF0749096841F04001F4
:1020E000054A11601146096801F04001009100BFE6
:1020F00000BF08BD000806503438024070B50446E1
:102100000CB9012070BD606A38B96068B0F5827F93
:1021100000D105E00021E16102E00021216161615F
:102120000021A16294F85D0028B9002084F85C00C9
:10213000204600F061F8022084F85D002068006805
:1021400020F0400021680860E068B0F5E06F01D938
:10215000002501E04FF48055E068B0F5706F05D0C0
:10216000E068B0F5E06F01D00021A162A08800F422
:102170008270218901F404410843217C01F00201AD
:102180000843217D01F001010843218B01F4007116
:102190000843217F01F0380108432021095D01F047
:1021A00080010843218D01F4005108432168086033
:1021B0000421A06901EA104094F8241001F01001F4
:1021C000084394F8341001F008010843A18901F490
:1021D0007061084305F48051084321684860206815
:1021E000C06920F400602168C861002020660120D9
:1021F00084F85D00002085E710B586B00446142100
:1022000001A8FEF761F81949206888422CD100BF67
:102210001748006840F480101549086008460068B7
:1022200000F48010009000BF00BF00BF10481438B9
:10223000006840F020000E49143908600846006824
:1022400000F02000009000BF00BF4FF460700190CC
:1022500002200290002003900320049005200590A6
:1022600001A90448FEF766FD06B010BD005001400C
:1022700044380240001402402DE9F84F04468846D5
:1022800016461D464FF0000A00BF94F85C00012876
:1022900002D10220BDE8F88F012084F85C0000BF65
:1022A000FEF762FE0746B14694F85D00012802D0B1
:1022B0004FF0020ACBE0B8F1000F00D016B94FF092
:1022C000010AC4E0032084F85D0000202066C4F801
:1022D0003880A687E6872064A4F84400A4F8460066
:1022E0002065E064A068B0F5004F0BD1206800685D
:1022F00020F04000216808602068006840F48040B9
:10230000216808602068006800F04000402805D07F
:102310002068006840F0400021680860E068B0F57F
:10232000E06F2FD9606810B1B9F1010F09D1A06B2E
:1023300000882168C860A06B801CA063E08F401EED
:10234000E0871BE02068806800F0020002280AD1C4
:10235000A06B00882168C860A06B801CA063E08F20
:10236000401EE0870AE0FEF7FFFDC01BA84201D334
:10237000681C00B915B94FF0030A68E0E08F002827
:10238000E0D14AE0606810B1B9F1010F17D1E08FD8
:1023900001280AD9A06B00882168C860A06B801C46
:1023A000A063E08F801EE08709E0A06B00782168C1
:1023B0000873A06B401CA063E08F401EE08729E0FB
:1023C0002068806800F00200022818D1E08F012800
:1023D0000AD9A06B00882168C860A06B801CA0632C
:1023E000E08F801EE08715E0A06B007821680873FD
:1023F000A06B401CA063E08F401EE0870AE0FEF760
:10240000B3FDC01BA84201D3681C00B915B94FF039
:10241000030A1CE0E08F0028D2D13A462946204624
:1024200001F066FE08B120202066A06850B900BF08
:10243000002000902068C0680090206880680090AC
:1024400000BF00BF206E08B14FF0010A00BF01209D
:1024500084F85D0000BF002084F85C0000BF504697
:1024600018E770B504462546681EB0F1807F01D399
:1024700001200FE0681E4FF0E02148610F214FF06E
:10248000FF3003F05BFA00204FF0E0218861072065
:102490000861002070BD70477047704730B5024634
:1024A0000B4600BF92F83C00012801D1022030BD4C
:1024B000012082F83C0000BF022082F83D00106835
:1024C000416810688468214D1068A84203D0204DEF
:1024D0001068A84203D121F470015868014321F02B
:1024E00070011868014310684160184D1068A842D7
:1024F0001BD01068B0F1804F17D0164D1068A8425D
:1025000013D0154D1068A8420FD0144D1068A84282
:102510000BD00F4D1068A84207D0114D1068A8428B
:1025200003D0104D1068A84205D124F080049868AB
:10253000044310688460012082F83D0000BF002041
:1025400082F83C0000BF00BFB1E70000000001407E
:10255000000401400004004000080040000C00405E
:10256000004001400018004010B504460CB901209D
:1025700010BD94F83D0028B9002084F83C002046A6
:1025800000F02AF8022084F83D00211D206802F0A6
:1025900091F9012084F8480000BF84F83E00012131
:1025A0003F20015540200155412001554220015551
:1025B0004320015500BF00BF012084F8440045209E
:1025C0000155462001554720015500BF012084F8E0
:1025D0003D000020CCE7000038B5044634492068AF
:1025E00088420DD100BF3348006840F001003149F6
:1025F00008600846006800F00100009000BF55E048
:102600002068B0F1804F18D100BF2A48001F006831
:1026100040F001002749091F08600846006800F0E3
:102620000100009000BF00BF002201211C20FEF726
:102630000FFD1C20FEF7FCFC38E01F492068884293
:1026400018D100BF1B48001F006840F00200194964
:10265000091F08600846006800F00200009000BFF3
:1026600000BF002202211D20FEF7F2FC1D20FEF714
:10267000DFFC1BE011492068884217D100BF0D48DC
:10268000001F006840F004000A49091F086008465E
:10269000006800F00400009000BF00BF002203218A
:1026A0001E20FEF7D5FC1E20FEF7C2FC38BD000040
:1026B000000001404438024000040040000800408F
:1026C000014691F83D00012801D001207047022009
:1026D00081F83D000868C06840F001000B68D860D0
:1026E0001C4B086898421BD00868B0F1804F17D087
:1026F000194B0868984213D0184B086898420FD0BD
:10270000174B086898420BD0164B0868984207D0C0
:10271000154B0868984203D0144B0868984210D1B2
:1027200008688068124B00EA0302062A0FD0B2F54F
:10273000803F0CD00868006840F001000B6818600A
:1027400005E00868006840F001000B681860002090
:10275000BCE7000000000140000400400008004009
:10276000000C0040000401400040014000180040FF
:10277000070001002DE9F04104460D4600BF94F822
:102780003C00012802D10220BDE8F081012084F83C
:102790003C0000BF022084F83D002068866837486E
:1027A000064026F47F46206886602868502833D08B
:1027B0000CDC202850D004DC00284BD0102851D14C
:1027C00049E0302849D040284CD139E060282DD04C
:1027D000702807D0B0F5805F03D0B0F5005F41D11D
:1027E0000DE040E0D5E902136A68206802F0DFF8E6
:1027F0002068866846F077062068866033E0D5E971
:1028000002136A68206802F0D2F82068806840F4F9
:1028100080402168886026E0EA686968206802F0E4
:1028200011FA5021206802F0CDF81CE0EA686968CE
:10283000206802F01AFA6021206802F0C3F812E062
:10284000EA686968206802F0FDF94021206802F01A
:10285000B9F808E000BF00BF00BF2968206802F097
:10286000B1F800E000BF00BF012084F83D0000BFC8
:10287000002084F83C0000BF00BF85E788FFFEFF12
:10288000704710B5044620680069C0F34000D8B115
:102890002068C068C0F34000B0B16FF0020021684A
:1028A0000861012020772068806900F0030018B1DA
:1028B0002046FFF7E5FF05E0204600F0EDF8204652
:1028C00000F0EEF90020207720680069C0F3800056
:1028D000D8B12068C068C0F38000B0B16FF00400C8
:1028E00021680861022020772068806900F4407028
:1028F00018B12046FFF7C4FF05E0204600F0CCF8F1
:10290000204600F0CDF90020207720680069C0F350
:10291000C000D8B12068C068C0F3C000B0B16FF08B
:10292000080021680861042020772068C06900F051
:10293000030018B12046FFF7A3FF05E0204600F092
:10294000ABF8204600F0ACF9002020772068006941
:10295000C0F30010D8B12068C068C0F30010B0B157
:102960006FF0100021680861082020772068C06996
:1029700000F4407018B12046FFF782FF05E02046C2
:1029800000F08AF8204600F08BF9002020772068BC
:10299000006900F0010058B12068C06800F0010033
:1029A00030B16FF0010021680861204600F01CFA88
:1029B00020680069C0F3C01058B12068C068C0F337
:1029C000C01030B16FF08000216808612046FFF729
:1029D00063FD20680069C0F3002058B12068C0681A
:1029E000C0F3C01030B16FF48070216808612046D8
:1029F000FFF751FD20680069C0F3801058B12068CE
:102A0000C068C0F3801030B16FF0400021680861E9
:102A1000204600F0EAF920680069C0F3401058B180
:102A20002068C068C0F3401030B16FF0200021680A
:102A300008612046FFF731FD10BD000010B586B0DB
:102A40000446142101A8FDF73FFC10492068884284
:102A50001AD100BF0E48006840F001000C49086020
:102A60000846006800F00100009000BF00BF082089
:102A70000190022002900020039004900220059013
:102A800001A90448FEF756F906B010BD000C00403D
:102A90003038024000000240704770B504460D46D1
:102AA000164600BF94F83C00012801D1022070BDF9
:102AB000012084F83C0000BF0C2E51D005DC4EB143
:102AC000042E1ED0082E7AD133E0102E60D0142EA2
:102AD000F9D175E02946206801F07EFF2068806901
:102AE00040F00800216888612068806920F00400B7
:102AF00021688861206880692969084321688861A4
:102B000077E02946206801F0A1FF2068806940F441
:102B10000060216888612068806920F480602168F5
:102B2000886120688069296940EA012021688861FC
:102B30005FE02946206801F0C9FF2068C06940F0C5
:102B400008002168C8612068C06920F0040021687D
:102B5000C8612068C069296908432168C86148E0E4
:102B60002946206801F0F0FF2068C06940F4006049
:102B70002168C8612068C06920F480602168C8614C
:102B80002068C069296940EA01202168C86130E0F5
:102B90002946206802F004F82068406D40F00800E3
:102BA000216848652068406D20F004002168486570
:102BB0002068406D296908432168486519E017E0DD
:102BC0002946206802F014F82068406D40F4006047
:102BD000216848652068406D20F480602168486560
:102BE0002068406D296940EA01202168486500E0BD
:102BF00000BF00BF00BF002084F83C0000BF00BF42
:102C000055E710B504460CB9012010BD94F83D00FD
:102C100028B9002084F83C00204600F029F8022062
:102C200084F83D00211D206801F044FE012084F855
:102C3000480000BF84F83E0001213F20015540209C
:102C4000015541200155422001554320015500BF47
:102C500000BF012084F8440045200155462001555D
:102C60004720015500BF012084F83D000020CCE73B
:102C700008B5094A016891420DD100BF07490968AA
:102C800041F00801054A11601146096801F0080188
:102C9000009100BF00BF08BD000C0040403802405A
:102CA0007047000070B504460D4615B994F83E0013
:102CB00015E0042D02D13F20005D10E0082D02D167
:102CC0004020005D0BE00C2D02D14120005D06E0AC
:102CD000102D02D14220005D01E04320005D01285B
:102CE00001D0012070BD1DB9022084F83E001AE019
:102CF000042D03D102213F20015514E0082D03D1FA
:102D00000221402001550EE00C2D03D1022141206B
:102D1000015508E0102D03D102214220015502E0A7
:102D200002214320015501222946206801F02EFE90
:102D300025492068884203D024492068884201D16F
:102D4000012000E0002028B12068406C40F40040E1
:102D5000216848641C49206888421BD02068B0F173
:102D6000804F17D01A492068884213D0194920682B
:102D700088420FD01849206888420BD01349206838
:102D8000884207D015492068884203D0144920683A
:102D9000884210D120688068124900EA0106062E98
:102DA0000FD0B6F5803F0CD02068006840F00100DD
:102DB0002168086005E02068006840F00100216893
:102DC000086000208EE70000000001400004014080
:102DD0000004004000080040000C0040004001409A
:102DE00000180040070001007047704710B5044606
:102DF0000CB9012010BDA06900B100E000BFA06FB8
:102E000028B9002084F87400204600F029F8242016
:102E1000A0672068006820F0010021680860204653
:102E200002F074FB012800D1E4E7606A10B120468B
:102E300002F09CFA2068406820F4904021684860C5
:102E40002068806820F02A00216888602068006877
:102E500040F0010021680860204602F003FBC9E74A
:102E600010B586B00446142101A8FDF72DFA1949C2
:102E7000206888422CD100BF1748006840F48020A9
:102E8000154908600846006800F48020009000BFE3
:102E900000BF00BF10481038006840F008000E491D
:102EA000103908600846006800F00800009000BF74
:102EB00000BF4FF440700190022002900020039068
:102EC000032004900720059001A90448FDF732FF74
:102ED00006B010BD0048004040380240000C0240DF
:102EE0002DE9F84F04460E4617469946A06F202854
:102EF0005DD106B117B90120BDE8F88F00BF94F885
:102F00007400012801D10220F6E7012084F8740042
:102F100000BF0020503420632120A062FEF724F877
:102F2000824627806780503CA068B0F5805F04D15E
:102F3000206910B90025B04602E035464FF0000880
:102F400000BF002084F8740000BF1DE0534600223B
:102F500080212046CDF8009002F076FC08B10320D5
:102F6000CAE745B9B8F80000C0F3080021688862D4
:102F700008F1020803E02878216888626D1CB4F823
:102F80005200401EA4F85200B4F852000028DDD1CF
:102F90005346002240212046CDF8009002F054FC18
:102FA00008B10320A8E72020A0670020A4E70220A2
:102FB000A2E700BFFEE700003EB531480068807818
:102FC00080B33049096891F8480003F05DF82E4954
:102FD0002E4880884FF6FF720323CDE9002002912E
:102FE0002BA278211420FDF73BFC27480830274905
:102FF00089884FF6FF720323CDE90021029026A2B3
:103000007821AF20FDF72CFC1F48103000214FF62F
:10301000FF720223CDE90021029021A2C821B42031
:10302000FDF71EFC022002F08DFF18B9144800685D
:10303000807848B1154840880090144803880622DB
:103040001E214620FDF760FC03F0D4F803210E4852
:1030500002F0AEFE044624B1012C06D0022C0CD1A5
:1030600007E0022002F034FE08E0032002F030FE08
:1030700004E0072002F02CFE00E000BF00BF3EBDD0
:10308000900000208C000020680300202800002011
:103090004D55534943000000434C4F434B00000043
:1030A00053455454494E4753000000002DE9FE4F4C
:1030B00081460F4690469A460C9CCB46BBF1200FAA
:1030C00002DA4FF0000903E0ABF1200000F0FF0B43
:1030D000002009E00BEB4B01204A02EB4101095CA7
:1030E00001AA1154411CC8B20628F3DB0D980090C8
:1030F000E004030C04EB44004004020C4146384653
:1031000000F082F9002524E000261EE001A8405DC1
:103110000121B1400840B0B1012C08D108EB0602F2
:1031200091B27A1990B2524600F0B6F80BE006FB65
:10313000048291B205FB047290B223462246CDF878
:1031400000A000F061F9701CC6B2082EDEDB681C1E
:10315000C5B2062DD8DBBDE8FE8F00001063000865
:103160002DE9FC5F07460D4600264FF4FA70B0EBE0
:10317000450F01D92E4601E04FF4FA7601225102A3
:103180002148FDF7EBFE00224FF480711E48FDF749
:10319000E5FE38120190B246504602F03FFF044669
:1031A000002004E001992154411C6754801CB04266
:1031B000F8D34FEA4508B8FBF6F9B8FBF6F006FB82
:1031C00010800090B9F1000F0CD04FF0000B07E019
:1031D000B2B20A2321460D48FFF74EF80BF1010B5E
:1031E000CB45F5D3009882B20A2321460748FFF762
:1031F00043F8012211020448FDF7B0FE204602F018
:1032000079FEBDE8FC9F000000080240F8000020A5
:103210002DE9F04F85B004460D4616461F46DDF8F1
:1032200038904FF0000A00200490834603908046B7
:1032300002900190A6EB0408B8F1000F01DA4FF0FC
:10324000010B4FF00008A7EB0508B8F1000F01DAF9
:1032500001200390BBF1000F04D1301B1FFA80FA4C
:10326000029403E0A01B1FFA80FA0296039820B98B
:10327000781B80B20490019503E0E81B80B20490B3
:103280000197CDF800905246049BDDE9011000F053
:10329000BBF805B0BDE8F08FFEB504460D461646F6
:1032A00055480088844203DA54480088854200DB90
:1032B000FEBD00224FF400715148FDF74FFE002281
:1032C0004FF480714E48FDF749FE2A2000F04CFA79
:1032D000012251024A48FDF741FE012211024848ED
:1032E000FDF73CFE00224FF480714548FDF736FEA5
:1032F00020128DF80800E0B28DF80900601C000A69
:103300008DF80A00601CC0B28DF80B000123042266
:1033100002A93C48FEF7B0FF012211023848FDF730
:103320001DFE00224FF400713548FDF717FE002204
:103330004FF480713248FDF711FE2B2000F014FA93
:10334000012251022E48FDF709FE012211022C48EC
:10335000FDF704FE00224FF480712948FDF7FEFDC1
:1033600028128DF80400E8B28DF80500681C000AE8
:103370008DF80600681CC0B28DF8070001230422F6
:1033800001A92048FEF778FF012211021C48FDF731
:10339000E5FD00224FF400711948FDF7DFFD002222
:1033A0004FF480711648FDF7D9FD2C2000F0DCF9B0
:1033B000012251021248FDF7D1FD012211021048ED
:1033C000FDF7CCFD00224FF480710D48FDF7C6FDDE
:1033D00030128DF80000F0B28DF8010001230222B6
:1033E00069460848FEF748FF012211020448FDF72C
:1033F000B5FD00BF5CE700000200002000000020D7
:1034000000080240F80000202DE9F04104460D4676
:1034100016461F46DDF8188017480088844203DAF4
:1034200016480088854201DBBDE8F081A019401EE6
:1034300011490988884203DB0F480088001B86B2C7
:10344000E819401E0D490988884203DB0B480088B3
:10345000401B87B2E819401E83B2A019401E82B2F9
:103460002946204600F08AF907FB06F14046FFF79F
:1034700077FE00BFD8E70000020000200000002017
:103480002DE9FC4704460D4617469846DDE90A69D2
:103490000CE0CDE9006914F8010B43463A46294691
:1034A000FFF704FE062000FB065085B220780028B6
:1034B000EFD1BDE8FC87000010B50122910202485F
:1034C000FDF74CFD10BD00000008024010B5044699
:1034D00008480388084802880021084600F04EF991
:1034E00005480088034A128800FB02F12046FFF7D6
:1034F00037FE10BD000000200200002010B5FFF7CD
:10350000DBFF00F023F900F005F9012000F0A4F939
:103510004FF47A70FDF7FAFBCB2000F09DF93920CB
:1035200000F0B4F92C2000F0B1F9002000F0AEF961
:10353000342000F0ABF9022000F0A8F9CF2000F011
:103540008BF9002000F0A2F9C12000F09FF9302093
:1035500000F09CF9E82000F07FF9852000F096F952
:10356000002000F093F9782000F090F9EA2000F0B4
:1035700073F9002000F08AF9002000F087F9ED20AF
:1035800000F06AF9642000F081F9032000F07EF970
:10359000122000F07BF9812000F078F9F72000F08C
:1035A0005BF9202000F072F9C02000F055F92320CB
:1035B00000F06CF9C12000F04FF9102000F066F91E
:1035C000C52000F049F93E2000F060F9282000F005
:1035D0005DF9C72000F040F9862000F057F9362049
:1035E00000F03AF9482000F051F93A2000F034F99F
:1035F000552000F04BF9B12000F02EF9002000F02A
:1036000045F9182000F042F9B62000F025F908200D
:1036100000F03CF9822000F039F9272000F036F95B
:10362000F22000F019F9002000F030F9262000F017
:1036300013F9012000F02AF9E02000F00DF90F2025
:1036400000F024F9312000F021F92B2000F01EF9C0
:103650000C2000F01BF90E2000F018F9082000F0F3
:1036600015F94E2000F012F9F12000F00FF9372083
:1036700000F00CF9072000F009F9102000F006F91D
:10368000032000F003F90E2000F000F9092000F0FB
:10369000FDF8002000F0FAF8E12000F0DDF800204D
:1036A00000F0F4F80E2000F0F1F8142000F0EEF82D
:1036B000032000F0EBF8112000F0E8F8072000F0FC
:1036C000E5F8312000F0E2F8C12000F0DFF84820F2
:1036D00000F0DCF8082000F0D9F80F2000F0D6F850
:1036E0000C2000F0D3F8312000F0D0F8362000F0A4
:1036F000CDF80F2000F0CAF8112000F0ADF87820C6
:10370000FDF704FB292000F0A7F8002000F060F886
:1037100010BD000010B500224FF480610A48FDF78B
:103720001DFCC820FDF7F2FA00224FF48071064814
:10373000FDF714FCC820FDF7E9FA012291020248C6
:10374000FDF70CFC10BD00000008024010B500F0B1
:103750002DFA00F0E7F800224FF480710148FDF7E0
:10376000FDFB10BD0008024001B501231A46694661
:103770000148FEF781FD08BDF80000202DE9F04169
:1037800004460D4616461F462A2000F065F8201212
:1037900000F07CF8E0B200F079F8301200F076F832
:1037A000F0B200F073F82B2000F056F8281200F069
:1037B0006DF8E8B200F06AF8381200F067F8F8B275
:1037C00000F064F82C2000F047F8BDE8F08100001C
:1037D00070B504462546362000F03EF80120FDF77E
:1037E00095FA35B1012D0FD0022D18D0032D2CD113
:1037F00020E0482000F04AF8F020154908804FF4F6
:10380000A0701449088021E0282000F03FF84FF410
:10381000A0700F490880F0200E49088016E088202B
:1038200000F034F8F0200A4908804FF4A0700949EC
:1038300008800BE0E82000F029F84FF4A07004495C
:103840000880F0200349088000E000BF00BF70BD81
:10385000020000200000002010B5044600224FF4B2
:1038600080710948FDF77AFB00224FF40071064889
:10387000FDF774FB2046FFF777FF01221102024893
:10388000FDF76CFB10BD00000008024010B50446B7
:10389000012251020848FDF761FB00224FF48071BC
:1038A0000548FDF75BFB2046FFF75EFF0122110292
:1038B0000148FDF753FB10BD000802400EB50A2079
:1038C00002F0E2FB022002F03DFB18B9114800684B
:1038D000807848B11048408800900F48038806223D
:1038E0005A214B20FDF710F802F084FC0B4903C964
:1038F000CDE90101012101A802F05AFA40B90849B5
:10390000096891F8480002F0BFFB012002F0E0F9DD
:103910000EBD000090000020280000207C650008FB
:103920008C00002000B587B0142102A8FCF7CCFC65
:1039300000BF8F48006840F010008D4908600846BD
:10394000006800F01000019000BF00BF00BF0846F3
:10395000006840F0040008600846006800F00400B9
:10396000019000BF00BF00BF0846006840F0200083
:1039700008600846006800F02000019000BF00BF0A
:1039800000BF0846006840F08000086008460068F4
:1039900000F08000019000BF00BF00BF0846006833
:1039A00040F0010008600846006800F00100019046
:1039B00000BF00BF00BF0846006840F0020008607A
:1039C0000846006800F00200019000BF00BF00BF81
:1039D0000846006840F0080008600846006800F0EB
:1039E0000800019000BF00BF00BF0846006840F01B
:1039F000400008600846006800F04000019000BFE9
:103A000000BF002268215B48FDF7A8FA002244F2BB
:103A100081015948FDF7A2FA002240215748FDF7DD
:103A20009DFA00224FF4E0615548FDF797FA142003
:103A3000029000200390049002A94E48FDF77AF905
:103A4000682002900120039000200490059002A9B4
:103A50004848FDF76FF94FF4005002904948039031
:103A60000020049002A94648FDF764F93220029034
:103A70000220039000200490032005900B20069064
:103A800002A93F48FDF756F98620029002200390D4
:103A900000200490032005900B20069002A93A48CC
:103AA000FDF748F944F281000290012003900020C4
:103AB0000490059002A93048FDF73CF94FF40050FE
:103AC00002900220039000200490032005900B2018
:103AD000069002A92848FDF72DF940200290012008
:103AE000039000200490059002A92448FDF722F9D4
:103AF0008020029000200390049002A91F48FDF747
:103B000019F94FF4E0600290012003900020049026
:103B1000059002A91A48FDF70DF94FF4E8500290FC
:103B20000220039000200490032005900A200690B4
:103B300002A91548FDF7FEF84FF40070029000202E
:103B40000390049002A91048FDF7F4F84FF42050B8
:103B500002900220039000200490032005900B2087
:103B6000069002A90548FDF7E5F807B000BD000082
:103B700030380240001002400004024000180240A9
:103B800000080240000011100000024010B5054876
:103B9000054908600846FEF77FFA08B1FDF7B2F85C
:103BA00010BD000000080650E800002010B51148C4
:103BB000114908604FF48270486000210E4881600E
:103BC0004FF4E061C1600021016141614FF4007177
:103BD00081610021C1610162416281620721C1628C
:103BE000002101634163FEF789FA08B1FDF78AF805
:103BF00010BD000000500140F800002000B587B063
:103C0000002003900490059006900090019002908F
:103C100015481649086042F21070486000211348A8
:103C20008160C1604FF48071016100214161816157
:103C3000FEF79AFC08B1FDF765F84FF48050039049
:103C400003A90A48FEF796FD08B1FDF75BF80020CE
:103C500000900190029069460448FEF71FFC08B1ED
:103C6000FDF750F807B000BD000001405C010020E6
:103C700000B587B000200390049005900690009056
:103C8000019002904FF08040134908606320486023
:103C900000211148816040F2E731C16000210161DB
:103CA0008161FEF761FC08B1FDF72CF84FF48050FC
:103CB000039003A90848FEF75DFD08B1FDF722F85F
:103CC00000200090029069460348FEF7E7FB08B128
:103CD000FDF718F807B000BDA801002000B587B0B7
:103CE00000200390049005900690009001900290AF
:103CF000144815490860632048600021124881601B
:103D000040F2E731C160002101618161FEF72CFCC6
:103D100008B1FCF7F7FF4FF48050039003A90A485D
:103D2000FEF728FD08B1FCF7EDFF0020009002909F
:103D300069460548FEF7B2FB08B1FCF7E3FF07B0A0
:103D400000BD000000040040F401002000B587B071
:103D5000002003900490059006900090019002903E
:103D600014481549086063204860002112488160AA
:103D700040F2E731C160002101618161FEF7F4FB8F
:103D800008B1FCF7BFFF4FF48050039003A90A4825
:103D9000FEF7F0FC08B1FCF7B5FF002000900290A0
:103DA00069460548FEF77AFB08B1FCF7ABFF07B0A0
:103DB00000BD0000000800404002002000B58BB0AC
:103DC0000020089009900A901C2101A8FCF77CFAB9
:103DD0001748184908606320486000211548816031
:103DE00040F2E731C160002101618161FEF709FF06
:103DF00008B1FCF787FF002008900A9008A90D4839
:103E0000FEF74CFB08B1FCF77DFF6020019000201D
:103E10000290039005900C2201A90648FEF73DFE92
:103E200008B1FCF76FFF0348FEF708FE0BB000BDBA
:103E3000000C00408C02002010B50D480D490860B0
:103E40004FF4E130486000210A488160C16001619F
:103E50000C21416100218161C1610162002005499D
:103E600048620846FEF7C2FF08B1FCF74BFF10BDE1
:103E700000480040D802002000BFFEE770477047AE
:103E80003EB53B4800688078002843D039493AA0C5
:103E9000FCF7D6FE3A48006890F83C00012801D1B2
:103EA000092000E00020C0F16A043248083035499A
:103EB00089884FF6FF72CDE90021029030490968E8
:103EC00091F83C10012901D12FA100E030A10A4650
:103ED000A0B203239621FCF7C3FC26481030002132
:103EE0004FF6FF720223CDE9002102902AA29E2103
:103EF0002620FCF7B5FC1F48183000214FF6FF7252
:103F00000223CDE90021029024A29E21EA20FCF7A1
:103F1000A7FC00BF02F06EF90421164801F048FF2B
:103F200030B1012808D0022814D003281CD116E093
:103F3000012001F0CDFE18E01148006890F83C0027
:103F4000012802D100F02CF801E000F031F802F075
:103F50003FF90AE000F03CF802F03AF905E0FFF71B
:103F60008EFF02F035F900E000BF00BF3EBD00004B
:103F700090000020680300204D5553494300000085
:103F80008C000020280000205041555345000000BF
:103F9000504C4159000000003C3C00003E3E0000F7
:103FA00002200249096881F83C0070478C0000201B
:103FB00000B50648006890F83C0008B9FFF75EFFBE
:103FC00001200249096881F83C0000BD8C000020F6
:103FD000704700BFFEE7704710B50023234C2360F5
:103FE00000BF00BF00BFBFF34F8F00BF00BF00BFC7
:103FF000231F1868C0F34E3100BFC0F3C90200BFD1
:1040000043F6E07303EA41134FF0404404EA82743C
:104010002343174C236000BF00BF131EA2F101020F
:10402000EED10B1EA1F10101E7D100BF00BF00BF1F
:10403000BFF34F8F00BF00BF00BF0C4B703B1B682E
:1040400043F48033094C703C236000BF00BF00BFC5
:10405000BFF34F8F00BF00BF00BF00BF00BF00BF56
:10406000BFF36F8F00BF00BF00BF10BD84ED00E045
:1040700060EF00E000BF00BF00BFBFF34F8F00BF85
:1040800000BF00BF00BF00BF00BFBFF36F8F00BF06
:1040900000BF00BF00201449086000BF00BF00BF80
:1040A000BFF34F8F00BF00BF00BF00BF00BF00BF06
:1040B000BFF36F8F00BF00BF00BF0C48006840F423
:1040C00000300A49086000BF00BF00BFBFF34F8F38
:1040D00000BF00BF00BF00BF00BF00BFBFF36F8FB6
:1040E00000BF00BF00BF704750EF00E014ED00E0DC
:1040F000F8B504460E461546334600224FF4C0512B
:104100002046009500F026F828B1206E40F02000EF
:1041100020660320F8BD334600228021204600950A
:1041200000F08CF828B1206E40F0200020660320BB
:10413000F0E7334600224FF4C0612046009500F0BE
:1041400009F828B1206E40F0200020660320E1E746
:104150000020DFE72DE9FC4704460D461646984649
:10416000DDF82890FCF700FFA0EB0900A8EB0007A2
:10417000FCF7FAFE824630480068C0EBC00000EB56
:104180008000000D784300904EE0B5F5C06F04D17B
:104190001EB92068007B019000BF08F101000028D3
:1041A00042D0FCF7E1FEA0EB0A00B84200D2A7BB68
:1041B0002068406820F0E000216848606068B0F541
:1041C000827F0DD1A068B0F5004F03D0A068B0F594
:1041D000806F05D12068006820F0400021680860E9
:1041E000A06AB0F5005F0DD100BF2068006820F420
:1041F0000050216808602068006840F40050216881
:10420000086000BF012084F85D0000BF002084F832
:104210005C0000BF0320BDE8FC87FFE7009800B901
:1042200000270098401E0090206880682840B04217
:10423000ABD10020EFE70000200000202DE9F84F6F
:1042400004460D4690461E46DDF82890FCF78CFE8D
:10425000A0EB0900371AFCF787FE82462C4800685D
:10426000C0F3CB307843009045E0701C002842D06A
:10427000FCF77AFEA0EB0A00B84200D2A7BB206888
:10428000406820F0E000216848606068B0F5827FF7
:104290000DD1A068B0F5004F03D0A068B0F5806FD5
:1042A00005D12068006820F0400021680860A06AFD
:1042B000B0F5005F0DD100BF2068006820F4005009
:1042C000216808602068006840F400502168086098
:1042D00000BF012084F85D0000BF002084F85C006E
:1042E00000BF0320BDE8F88FFFE7009800B9002762
:1042F0000098401E0090206880682840A84201D1A4
:10430000012000E000204045AFD10020EAE7000096
:10431000200000207047000000B58BB062480068A4
:104320008078002855D0614961A0FCF789FC63487A
:1043300040880221CDE900106048038836220A2116
:104340005FA0FFF79DF85D48C08900905B48038837
:1043500003223221C820FCF7D7FA5B4903C9CDE913
:1043600009015949083103C9CDE90701534840887B
:104370000221CDE900105148038864220A2153A08C
:10438000FFF77EF85448006890F8482053A105A82C
:1043900001F0B8FA4948C0890321CDE90010474827
:1043A00003886022C82105A8FFF76AF84649103142
:1043B00003C9CDE903013D48099981600A99C160AB
:1043C0000799016108994161039981610499C1616B
:1043D00000BF022001F0B6FD48B13848C089009006
:1043E0003648038803223221C820FCF78DFA01F0F9
:1043F00001FF04212D4801F0DBFC30B1012808D079
:1044000002281BD003284BD12DE0012001F060FCD5
:1044100047E0314800680068401C2F49096808607F
:104420002D4800680068182190FBF1F201FB120092
:1044300029490968086001F0CBFE32E0264800688F
:104440004068401C24490968486023480068406867
:104450003C2190FBF1F201FB12001F490968486002
:1044600001F0B6FE1DE01C48006890F848000A30D4
:104470001949096881F848001748006890F8480011
:10448000642804DD0A201449096881F848001249AB
:10449000096891F8480001F0F7FD01F099FE00E08D
:1044A00000BF00BF0BB000BD9000002068030020DB
:1044B00053455454494E4753000000002800002043
:1044C00054494D4500000000AC6500084252494780
:1044D00048544E45535300008C000020253364207F
:1044E000252500001FB570480068807800286AD034
:1044F0006E496FA0FCF7A4FB7048006890F82C0090
:1045000090B96A4808306E4989894FF6FF720323D3
:10451000CDE9002102906BA296212820FCF7A0F99A
:1045200000206B4908704EE06448006890F82C0049
:10453000012821D15D480830614989884FF6FF7212
:104540000223CDE90021029062A296212820FCF7E7
:1045500087F9564810305A4909894FF6FF720223ED
:10456000CDE9002102905DA29621C420FCF778F9E4
:1045700001205749087026E05048006890F82C0048
:10458000022820D1494808304D4989884FF6FF72EA
:104590000223CDE9002102904EA296212820FCF7AB
:1045A0005FF942481030464989894FF6FF7202236D
:1045B000CDE9002102904BA29621B820FCF750F9DA
:1045C000022043490870494800683C490968096B62
:1045D000884211D14548416838480068406B8142A3
:1045E0000AD14248816835480068806B814203D116
:1045F0002D480068807898B1314840883049098852
:104600000522CDE9012103902C480068806B0090C1
:104610002A4800684621D0E90C232820FCF7F6F947
:1046200001F0E8FD0321214801F0C2FB04461CB95A
:10463000032001F04DFB35E02548007840B9012CFE
:1046400004D100F06DF801F0C3FD00E000BF29E0E7
:104650001F480078012810D1012C02D0022C0AD169
:1046600004E000F04DF801F0B3FD05E000F040F883
:1046700001F0AEFD00BF00BF14E01548007802282D
:1046800010D1012C02D0022C0AD104E000F038F83D
:1046900001F09EFD05E000F043F801F099FD00E017
:1046A00000BF00BF1FBD0000900000206803002075
:1046B00053544F5057415443480000008C00002091
:1046C0002800002020202053544152542020200054
:1046D0003B000020524553455400000050415553C3
:1046E00045000000524553554D450000140400207C
:1046F00002200249096881F82C0070478C000020D4
:1047000005480068054B0ECB30300EC00020024932
:10471000096881F82C0070478C0000205C030020A1
:1047200001200E49096881F82C000C480068006BD4
:104730000B49484309490968496B40F25372514398
:1047400000EB411105480068806B00EB4002C2EBB2
:10475000C01001EBC0000349086070478C000020C6
:1047600080EE36000C00002010B5FCF703FC10BDF5
:1047700000B5B7B034212AA8FBF7A6FD142125A85F
:10478000FBF7A2FD902101A8FBF79EFDFCF7FAFCC8
:1047900000BF2B48006840F0805029490860084657
:1047A000006800F08050009000BF00BF00BF2548A7
:1047B000006840F44040234908600846006800F45F
:1047C0004040009000BF00BF01202A904FF4A0207D
:1047D0002B900220309041052AA8C161042101627A
:1047E000C8214162022181620921C162FDF7CAF933
:1047F00008B1FCF787FAFCF77DFC08B1FCF782FAF8
:104800000F20259002202690002027904FF4A050E2
:1048100028904FF480502990062125A8FDF76AF8CA
:1048200008B1FCF76FFA084801900020149020901E
:1048300001A8FCF7B1FC08B1FCF764FA37B000BD81
:10484000403802400070004000012000034800682A
:1048500040F47000014908607047000088ED00E0F6
:1048600010B50448FEF70DF803480068401C0249E3
:10487000086010BDA80100200800002010B5044801
:10488000FDF7FFFF03480068401C0249086010BDA7
:10489000F40100200C00002010B50448FDF7F1FFE2
:1048A00003480068401E0249086010BD4002002015
:1048B0001000002010B50268294B98420ED0B0F1CC
:1048C000804F0BD0274B984208D0274B984205D0F9
:1048D000264B984202D0264B984203D122F0700218
:1048E0004B681A431E4B984220D0B0F1804F1DD028
:1048F0001C4B98421AD01C4B984217D01B4B984225
:1049000014D01B4B984211D01A4B98420ED01A4B20
:1049100098420BD0194B984208D0194B984205D0B9
:10492000184B984202D0184B984203D122F440729F
:10493000CB681A4322F080034C6943EA0402026008
:104940008B68C3620B688362054B984202D0084BA8
:10495000984201D10B6903630123436110BD00003C
:10496000000001400004004000080040000C00402E
:104970000004014000400140004401400048014063
:1049800000180040001C00400020004030B501F03D
:104990001F05012404FA05F3046A9C430462046AB7
:1049A00001F01F0502FA05F52C43046230BD30B555
:1049B0000C46816821F47F4142EA032525432943BF
:1049C000816030BD0A46816821F0700142F0070322
:1049D000194381607047000030B5056A25F0010574
:1049E0000562026A43688469154D2C4024F0030473
:1049F0000D682C4322F002028D682A43114DA84213
:104A000000D103E0104DA84206D100BF22F00802F9
:104A1000CD682A4322F004020A4DA84202D00A4D72
:104A2000A84207D123F4807323F400734D692B430C
:104A30008D692B43436084614D684563026230BDDC
:104A40008FFFFEFF000001400004014030B5056A01
:104A500025F010050562026A43688469184D2C40F0
:104A600024F440740D6844EA052422F020028D6885
:104A700042EA0512134DA84200D103E0124DA842AC
:104A800007D100BF22F08002CD6842EA051222F071
:104A900040020C4DA84202D00B4DA84209D123F48C
:104AA000806323F400634D6943EA85038D6943EA1B
:104AB0008503436084614D688563026230BD0000F8
:104AC000FF8FFFFE000001400004014030B5056A81
:104AD00025F480750562026A4368C469174D2C404D
:104AE00024F003040D682C4322F400728D6842EA1E
:104AF0000522134DA84200D103E0124DA84207D170
:104B000000BF22F40062CD6842EA052222F48062EE
:104B10000B4DA84202D00B4DA84209D123F480537B
:104B200023F400534D6943EA05138D6943EA0513E5
:104B30004360C4614D68C563026230BD8FFFFEFFF4
:104B4000000001400004014030B5056A25F480559D
:104B50000562036A4468C2690E4D2A4022F440721D
:104B60000D6842EA052223F400538D6843EA0533B9
:104B7000094DA84202D0094DA84204D124F4804432
:104B80004D6944EA85144460C2614D68056403625E
:104B900030BD0000FF8FFFFE000001400004014017
:104BA00030B5056A25F480350562026A4368446DB4
:104BB0000C4D2C400D682C4322F400320D8942EA42
:104BC0000542094DA84202D0084DA84204D123F461
:104BD00080334D6943EA0523436044654D6885652C
:104BE000026230BD8FFFFEFF000001400004014063
:104BF00030B5056A25F480150562026A4368446D84
:104C00000D4D2C400D6844EA052422F400120D8954
:104C100042EA0552094DA84202D0094DA84204D1EA
:104C200023F480234D6943EA8523436044654D683E
:104C3000C565026230BD0000FF8FFFFE000001402D
:104C40000004014030B50B461446026A056A25F09F
:104C500001050562816921F0F00141EA041122F0A9
:104C60000A021A438161026230BD30B50B46144618
:104C7000056A25F0100505628169026A21F4704118
:104C800041EA043122F0A00242EA03128161026289
:104C900030BD000070B51025002416E04FF6FF70FF
:104CA00000EA4404012208210A48FCF757F90022CF
:104CB00008210848FCF752F910210648FCF746F98C
:104CC00008B1601C84B2681EC5B2002DE6DC204627
:104CD00070BD0000001002402DE9F84F054601228A
:104CE00008213F48FCF73AF9012220213C48FCF713
:104CF00035F9012240213A48FCF730F900200090B4
:104D0000002681464FF47A7A002700224021344859
:104D1000FCF724F914E0902000F074F8FFF7BAFFD4
:104D20000646009830440090B144D02000F06AF864
:104D3000FFF7B0FF0446A344A044AAF1010A7F1C78
:104D4000BAF1000F05D004212548FCF7FFF8002830
:104D5000E1D0012240212248FCF700F9B7F57A7F23
:104D600038D104211E48FCF7F1F890BBB8FBF7F8E6
:104D7000B9FBF7F91FFA88F41FFA89F6604284B28A
:104D8000704286B240F2111094FBF0F0C0F1E300E3
:104D900000EE100AB8EEC00B9FED121B20EE010BC7
:104DA000BCEEC00B10EE100A2880CC2096FBF0F071
:104DB0000F3800EE100AB8EEC00B9FED0A1B20EE74
:104DC000010BBCEEC00B10EE100A68800120BDE89C
:104DD000F88FFFE700202880688000BFF7E7000019
:104DE000001002408FC2F5285C8FF23F10B50421FD
:104DF0000348FCF7ABF808B9012010BD0020FCE720
:104E00000010024070B50446082500220821114810
:104E1000FCF7A4F81BE004F0800028B10122202157
:104E20000C48FCF79BF804E0002220210948FCF71D
:104E300095F86006040E012208210648FCF78EF85A
:104E4000002208210348FCF789F8681EC5B2002D2E
:104E5000E1DC70BD001002400EB51A480068807891
:104E6000E8B11949C888FEF731FB1748C08804210A
:104E7000CDE90010144843886422114613A0FEF7C0
:104E8000FFFA1449104880884FF6FF720323CDE9DA
:104E90000020029110A2B4216A20FBF7E1FC01F08E
:104EA000A9F901210B4800F083FF48B900200C4903
:104EB0000968087703490968487800F009FF00BFCE
:104EC00000BF0EBD900000202800002054494D4531
:104ED000520000006803002053544F5000000000AF
:104EE0008C00002030B587B0DC480068006A0028DC
:104EF00009DCDA480068406A002804DCD74800680A
:104F0000806A002801DD012000E000200546D44829
:104F10000068807800284BD0D249D3A0FBF790FEE0
:104F2000CE480068007F002847D1D149097809B1EF
:104F3000D0A100E0D1A10846CA4A08320121FBF7FE
:104F4000A9FEC84910312DB1C948007810B9CC4824
:104F5000808901E0CA4840894FF6FF720323CDE9FA
:104F600000200291C7A296212820FBF779FCC048B7
:104F70000078F0B1C64903C9CDE90501C44908313B
:104F800003C9CDE90301C249103103C9CDE90101CB
:104F9000B448059981610699C16103990162049938
:104FA0004162019981620299C1620120B949087088
:104FB00068E00020B749087064E0A8480068007FF6
:104FC000012821D1A7481030AD4989884FF6FF72DA
:104FD0000223CDE900210290AFA296212820FBF701
:104FE0003FFCA0481830A64909894FF6FF720223FA
:104FF000CDE900210290AAA29621C420FBF730FC43
:105000000220A44908703DE094480068007F02280F
:1050100021D1944810309A4989884FF6FF720223B3
:10502000CDE9002102909CA296212820FBF718FCD4
:105030008C481830924989894FF6FF720223CDE9D6
:105040000021029098A29621B820FBF709FC0320CA
:105050009049087016E081480068007F032811D14C
:1050600080481030864989884FF6FF720323CDE9C6
:10507000002102908EA296212820FBF7F1FB04204C
:10508000844908708D48006874490968096A884233
:1050900011D18A48416871480068406A81420AD14A
:1050A000864881686D480068806A814203D16C48F7
:1050B00000688078C8B16E48007810B17048C08927
:1050C00001E06F4840886E4909880522CDE9012139
:1050D000039062480068806A00906048006846213A
:1050E000D0E908232820FBF791FC01F083F8062182
:1050F0005C4800F05DFE04461CB9032000F0E8FDAA
:10510000AAE064480078B8B9012C02D0022C11D171
:105110000AE05748007808B9012000E0002054490F
:10512000087001F055F806E00DB100F0E1F801F06B
:105130004FF800E000BF8FE056480078012854D1B6
:10514000012C06D0032C0FD0042C22D0052C4AD1E0
:1051500034E04748007808B9012000E000204449C5
:10516000087001F035F83FE03C480068006A401CD8
:105170003A490968086239480068006A632190FB6F
:10518000F1F201FB120035490968086201F020F8CC
:105190002AE032480068406A401C30490968486289
:1051A0002E480068406A3C2190FBF1F201FB12019D
:1051B0002A480068416201F00BF815E027480068B2
:1051C000806A401C25490968886224480068806A12
:1051D0003C2190FBF1F201FB120120480068816242
:1051E00000F0F6FF00E000BF36E02A480078022811
:1051F00010D1022C02D0032C0AD104E000F068F890
:1052000000F0E6FF05E000F05BF800F0E1FF00BF12
:1052100000BF21E01F480078032810D1022C02D0E3
:10522000032C0AD104E000F053F800F0D1FF05E0B0
:1052300000F05EF800F0CCFF00E000BF0CE0154885
:105240000078042808D1022C04D100F041F800F0C5
:10525000BFFF00E000BF00BF07B030BD8C000020E2
:10526000900000206803002054494D455200000082
:1052700039000020444F4E450000000053455400C3
:105280002800002020202053544152542020200088
:10529000946500083A000020524553455400000030
:1052A0005041555345000000524553554D450000AF
:1052B000202020524553455420202000080400207F
:1052C0000220024909680877704700008C0000201E
:1052D00005480068054B0ECB20300EC00020024967
:1052E00009680877704700008C0000205C030020EC
:1052F00000B587B00120174909680877154800688C
:10530000806A009013480068436A1248006812A13E
:10531000026A02A800F0F6FA02A800F0DDF80D48D3
:105320000068006A0F4948430A490968496A40F21F
:105330005372514300EB411106480068806A00EB4C
:105340004002C2EBC01001EBC0000749086007B083
:1053500000BD00008C00002025326420253264202E
:105360002532640080EE36001000002090F82410F2
:1053700001F0010139B10168496821F40031826A04
:1053800011430268516090F8241001F002010229D3
:1053900007D10168496821F48031C26A114302686B
:1053A000516090F8241001F00401042907D101682C
:1053B000496821F48021026B11430268516090F822
:1053C000241001F00801082907D10168496821F477
:1053D0000041426B11430268516090F8241001F0C3
:1053E0001001102907D10168896821F48051826B6E
:1053F00011430268916090F8241001F020012029E7
:1054000007D10168896821F40051C26B1143026819
:10541000916090F8241001F04001402913D10168F7
:10542000496821F48011026C114302685160016CDB
:10543000B1F5801F07D10168496821F4C001426CB1
:1054400011430268516090F8241001F08001802916
:1054500007D10168496821F40021826C1143026878
:105460005160704738B504460020C4F88000FBF74F
:105470007BFD05462068006800F0080008280CD174
:105480006FF07E402B4600224FF400110090204622
:1054900000F0DAF908B1032038BD2068006800F098
:1054A000040004280CD16FF07E402B4600224FF4FC
:1054B00080010090204600F0C7F908B10320EBE717
:1054C0002020A067E0670020206600BF84F87400F9
:1054D00000BF00BFE0E7000070B504462046FAF7C1
:1054E000FEFE85B24FF47A732A4621460548FDF741
:1054F000F7FC4FF47A73042203A10248FDF7F0FC95
:1055000070BD0000D80200200A0D00002DE9F04710
:1055100005464FF0000A2969A868084369690843ED
:10552000E96940EA010828680068BC49084040EA87
:105530000800296808602868406820F44050E9683D
:10554000084329684860D5F81880286A40EA0808A6
:105550002868806820F4306040EA08002968886084
:1055600000BFAF492868884216D1AE48006800F0F5
:10557000030030B1012808D0022804D0032808D144
:1055800005E0012407E0022405E0042403E00824E8
:1055900001E0102400BFC9E0A3492868884216D161
:1055A000A048006800F00C0030B1042808D008289A
:1055B00004D00C2808D105E0002407E0022405E00F
:1055C000042403E0082401E0102400BFAEE0974962
:1055D0002868884216D19348006800F0300030B146
:1055E000102808D0202804D0302808D105E0002455
:1055F00007E0022405E0042403E0082401E010246D
:1056000000BF93E08A492868884216D1854800681F
:1056100000F0C00030B1402808D0802804D0C02855
:1056200008D105E0002407E0022405E0042403E09B
:10563000082401E0102400BF78E07E4928688842F1
:1056400019D17848006800F4407048B1B0F5807F07
:105650000AD0B0F5007F05D0B0F5407F08D105E055
:10566000002407E0022405E0042403E0082401E00C
:10567000102400BF5AE070492868884219D169484F
:10568000006800F4406048B1B0F5806F0AD0B0F512
:10569000006F05D0B0F5406F08D105E0012407E0A8
:1056A000022405E0042403E0082401E0102400BFE4
:1056B0003CE062492868884219D15A48006800F4E1
:1056C000405048B1B0F5805F0AD0B0F5005F05D01A
:1056D000B0F5405F08D105E0002407E0022405E0B2
:1056E000042403E0082401E0102400BF1EE0544914
:1056F0002868884219D14B48006800F4404048B1FE
:10570000B0F5804F0AD0B0F5004F05D0B0F5404F4E
:1057100008D105E0002407E0022405E0042403E0AA
:10572000082401E0102400BF00E0102400BFE86955
:10573000B0F5004F3AD1092C17D2DFE804F0050983
:105740000D160F1616161300FCF7A4F9064610E006
:10575000FCF7B0F906460CE03A4E0AE0FCF7BAF95D
:10576000064606E04FF4004603E000264FF0010A2B
:1057700000BF00BF8EB37000696800EB5100B0FB42
:10578000F1F087B2102F0ED3B7F5803F0BD24FF652
:10579000F07007EA0009C7F3420049EA00092868E7
:1057A000C0F80C9034E04FF0010A31E0092C18D217
:1057B000DFE804F005090D170F1717171400FCF7A1
:1057C00069F9064611E0FCF775F906460DE01D4E35
:1057D0000BE0FCF77FF9064607E019E04FF40046BE
:1057E00003E000264FF0010A00BF00BF86B16868E1
:1057F00006EB50006968B0FBF1F087B2102F05D3BB
:10580000B7F5803F02D22868C76001E04FF0010A77
:1058100000206866A8665046BDE8F087F369FFEF90
:105820000010014090380240004400400048004011
:10583000004C00400050004000140140007800403F
:10584000007C00400024F4002DE9F04104460D46A0
:1058500017469846069E46E0701C002843D0FBF78A
:1058600083FBA0EB0800B04200D8B6B920680068FE
:1058700020F4D070216808602068806820F0010062
:10588000216888602020A067E06700BF002084F8BE
:10589000740000BF0320BDE8F0812068006800F0BC
:1058A000040000B32068C069C0F3C020D8B14FF431
:1058B0000060216808622068006820F4D0702168C8
:1058C00008602068806820F001002168886020203E
:1058D000A067E067C4F8800000BF002084F874006F
:1058E00000BF0320D7E72068C0692840A84201D143
:1058F000012000E00020B842AED00020CBE700BF7E
:10590000FEE700000FB4084B10B504A902AA0398E3
:1059100000F038F8044602A9002000F0D4F920462F
:1059200010BC5DF814FB0000C75C0008024800686A
:10593000C0F30220704700000CED00E010B5002815
:1059400004DB0A07130E054A135406E00A07140E77
:10595000034A00F00F031B1FD45410BD00E400E005
:1059600018ED00E002E008C8121F08C1002AFAD1B1
:1059700070477047002001E001C1121F002AFBD1CF
:10598000704700002DE9FF4F8BB088460546002682
:1059900006E025280BD0DDE90D1290476D1C761C22
:1059A00028780028F5D10FB03046BDE8F08F0024EC
:1059B000A146A2460122AE4900E0044315F8013F8A
:1059C000203B02FA03F00842F7D128782A2810D0A9
:1059D0006FF02F022878A0F13001092915D809EBC2
:1059E000890102EB410144F0020400EB01096D1C46
:1059F000F0E758F8041B5FEA010903D544F40054AA
:105A0000C9F1000944F002046D1C28782E2817D132
:105A100015F8010F44F004042A280ED06FF02F026D
:105A20002878A0F1300109290AD80AEB8A0102EB93
:105A3000410100EB010A6D1CF2E758F804AB6D1C44
:105A400028786C280FD006DC4C2817D068280DD099
:105A50006A2814D104E0742810D07A280FD10DE000
:105A600044F400140AE044F4801401E044F44014C7
:105A70006978814202D104F580146D1C6D1C287870
:105A8000692865D006DC00288DD0632827D06428DB
:105A900006D15DE06E2808D073282AD0752877D00B
:105AA000DDE90D129047761CE0E0C4F302500228B5
:105AB00009D003280DD0D8F8001004280DD00E60AE
:105AC00008F10408D2E0D8F80010F217C1E900622A
:105AD000F6E7D8F800100E80F2E70E70F0E718F83D
