:020000040800F2
:100000009070002011020008514C0008D135000802
:100010000D4A0008310A00082166000800000000AF
:100020000000000000000000000000002154000853
:10003000050B000800000000534C00088957000819
:100040002B0200082B0200082B0200082B020008DC
:100050002B0200082B0200082B0200082B020008CC
:100060002B0200082B0200082B0200082B020008BC
:100070002B0200082B0200082B0200082B020008AC
:100080002B0200082B0200082B0200082B0200089C
:100090002B0200082B0200082B0200082B0200088C
:1000A0002B0200082B0200082B0200082B0200087C
:1000B0007558000891580008AD5800082B02000838
:1000C0002B0200082B0200082B0200082B0200085C
:1000D000E55100082B0200082B0200082B02000843
:1000E0002B0200082B0200082B0200082B0200083C
:1000F0002B0200082B0200082B0200082B0200082C
:100100002B0200082B0200082B0200082B0200081B
:100110002B0200082B0200082B0200082B0200080B
:100120002B0200082B0200082B0200082B020008FB
:100130002B0200082B0200082B0200082B020008EB
:100140002B0200082B0200082B0200082B020008DB
:100150002B0200082B0200082B0200082B020008CB
:100160002B0200082B0200082B0200082B020008BB
:100170002B0200082B0200082B02000800000000E0
:100180002B0200082B0200082B0200082B0200089B
:100190002B0200082B0200082B0200082B0200088B
:1001A0002B0200082B0200082B0200082B0200087B
:1001B0002B0200082B0200082B0200082B0200086B
:1001C0002B0200082B020008000000002B02000890
:1001D0002B0200082B0200082B0200082B0200084B
:1001E0002B0200082B0200082B0200082B0200083B
:1001F0002B0200082B020008DFF810D000F070FA84
:100200000048004741940008AFF300809070002040
:100210000648804706480047FEE7FEE7FEE7FEE7A0
:10022000FEE7FEE7FEE7FEE7FEE7FEE765580008AB
:10023000F90100082DE9F05F0546002092469B4633
:1002400088460646814640241BE0284641464746EC
:10025000224600F07DF853465A46C01A914110D309
:1002600011461846224600F064F82D1A67EB010883
:100270004F4622460120002100F05BF817EB0009F1
:100280004E41201EA4F10104DFDC484631462A46D7
:100290004346BDE8F09F40EA01039B0703D009E015
:1002A00008C9121F08C0042AFAD203E011F8013B62
:1002B00000F8013B521EF9D27047D2B201E000F8BB
:1002C000012B491EFBD270470022F6E710B51346FA
:1002D0000A4604461946FFF7F0FF204610BD421CAF
:1002E00010F8011B0029FBD1801A704730B5044675
:1002F0000020034600E05B1C934203D2E05CCD5C2F
:10030000401BF8D030BD30B50B46014600202022FE
:10031000012409E021FA02F59D4205D303FA02F512
:10032000491B04FA02F52844151EA2F10102F1DC72
:1003300030BD202A04DB203A00FA02F10020704789
:100340009140C2F1200320FA03F319439040704713
:10035000202A04DB203A21FA02F00021704721FA1A
:1003600002F3D040C2F12002914008431946704781
:100370002DE9FE4F804681EA0300C00F0C46009035
:1003800021F0004123F00045B8EB0200A94105D25D
:100390004046214690461C460B46024623F000404C
:1003A000104347D0270DC7F30A00C3F30A51029048
:1003B000401A019040286BDAC3F3130040F4801B0D
:1003C0000098924620B10023D2EB030A63EB0B0B9B
:1003D00001985946C0F140025046FFF7AAFF064671
:1003E0000D4650465946019A00F08CF910EB080072
:1003F0006141002487EA115284EAE7731A4340D02E
:10040000009A62B3019A012A4FEA075215DC001BD9
:1004100061EB02014FF0004202EA0752CDE90042CF
:10042000001C41F5801132462B4600F08CF903B0D8
:10043000BDE8F08F40462146F9E7001B61EB020161
:10044000001C41F5801300185B412018A2F500172D
:1004500047EB030140EAD570B6196D4111E06D0814
:100460004FEA360645EAC0754FEA0752001B61EBBA
:100470000201001C41F5801149084FEA30000019C3
:10048000514132462B4603B0BDE8F04F00F04CB965
:100490000098012240000023D0EB020263EBE073DE
:1004A000009821464FEAE074B8EB000061EB0401CC
:1004B000E9E783F000435BE781F0004158E72DE96D
:1004C000FE4F81EA030404F0004421F0004100944F
:1004D0004FF0000B23F0004350EA01045ED052EAD3
:1004E00003045BD0C3F30A54C1F30A552C44A4F2AD
:1004F000F3340194A0FB0254C1F3130141F48011C1
:10050000C3F3130343F4801301FB024400FB034EC7
:10051000840A970A44EA815447EA8357A4FB076890
:1005200002958D0A05FB07854FEA932C04FB0C54BA
:100530002705029D4FEA065847EA1637B5EB08052E
:100540006EEB070C870E920E47EA811742EA831280
:10055000A7FB0201B6EB0B0164EB00042B0D43EA91
:100560000C335E1844EB1C50DA465146E7FB02019F
:10057000C5F313044FEA0B3343EA14534FEA043232
:10058000019C43EA0603A4F10C040294009CCDE90B
:1005900000B400F0D8F803B0BDE8F08F00200146A9
:1005A000F9E72DE9F04D81EA030404F0004B21F056
:1005B000004514464FF0000A23F0004150EA0502BE
:1005C00020D054EA01021DD0C5F30A570246C5F3F4
:1005D0001303C1F31300C1F30A5640F4801543F42A
:1005E0008013A7EB0608101BD64608F2FD3873EB04
:1005F000050002D308F1010801E092185B41B8F14F
:10060000000F03DA00200146BDE8F08D00204FF412
:100610008011064684460EE0171B73EB050705D3D1
:10062000121B63EB050306434CEA010C49084FEA31
:10063000300092185B4150EA0107EDD152EA030005
:1006400012D082EA040083EA0501084305D0101B9A
:10065000AB4106D20122002306E000224FF0004306
:1006600002E06FF0010253101AEB06004CEB085148
:1006700010EB0A0041EB0B01BDE8F04D00F054B85F
:10068000C1F30A52C1F3130140F2FF3341F4801168
:100690009A4202DA00200146704740F233439A4200
:1006A000A2F2334202DC5242FFF752BEFFF741BED4
:1006B00030B5041E71F1000404DB4FF000444042E9
:1006C00064EB0101141E73F1000405DB1C464FF0BE
:1006D0000043524263EB0403994208BF904230BD8D
:1006E000064C074D06E0E06840F0010394E807007F
:1006F00098471034AC42F6D3FFF782FDB8A4000847
:10070000D8A40008202A06DBCB17203A41FA02F0D1
:1007100043EAE07306E041FA02F3D040C2F120025E
:10072000914008431946704710B5141E73F1000438
:1007300008DA401C41F1000192185B411A4301D1D3
:1007400020F0010010BD2DE9F04D92469B4611B1FD
:10075000B1FA81F202E0B0FA80F220329046FFF75F
:10076000E8FD04460F4640EA0A0041EA0B01534601
:100770005A46084313D0114653EA010019D0C8F174
:1007800040025046FFF7E4FD05460E4650465946E6
:100790004246FFF7CEFD084305D0012004E0204685
:1007A0003946BDE8F08D0020054346EAE0762C434B
:1007B00037430A986305E40AA0EB08000022FD0A0B
:1007C00044EA47540A3002D500200146E9E7010512
:1007D00010196941DDE9084500196941BDE8F04D8E
:1007E000A2E770B58C1810F8015B15F0070301D172
:1007F00010F8013B2A1106D110F8012B03E010F884
:10080000016B01F8016B5B1EF9D12B0705D40023A6
:10081000521E0DD401F8013BFAE710F8013BCB1A48
:10082000921C03E013F8015B01F8015B521EF9D53D
:10083000A142D8D3002070BD10B5094C8EB0094834
:100840002168B83103F0D8FC206807A190ED400B77
:10085000684653EC102B05F0E5FE0EB010BD00000D
:100860007400002070030020256C6600FEB5022095
:1008700008F080FD1D4D10B92868807810B31C4C1D
:10088000E08803F021FAE0884FF6FF76062233462F
:100890001E210090462000F039FAE18804206422ED
:1008A000CDE90001638813A0114603F0E9F913496B
:1008B0000323A08812A20096CDE90101B4216A2089
:1008C00000F0D6F909F0A0F90C48012106F01AFE53
:1008D000002809D10C480168002008742868407875
:1008E000BDE8FE4006F0A8BDFEBD00007800002077
:1008F0005C000020414C41524D000000C4670020C4
:1009000053544F5000000000740000207FB53F4852
:100910003C4C3D4D0068807880B33D493DA000F0DF
:1009200035FB287860B13DA0394A0121103200F032
:1009300051FB35482A780C3001881AB1C08906E08D
:1009400038A0F1E72268127C02B94189408804226C
:100950000192CDE902102068C16900915F21D0E9C0
:100960000523142000F006FA294802235F210830ED
:1009700000902068027CE12000F03CFA09F044F984
:10098000287838B1294E224B183347CE83E84700E8
:10099000052100E003211E4806F0B4FD00210528D2
:1009A0002FD2DFE800F0030A10172100297004B0ED
:1009B0000320BDE8704006F03FBD2068027C02B90C
:1009C0000121017419E0287810B10020287014E08A
:1009D0000120FBE7216818224869401C90FBF2F3D4
:1009E00002FB1300486108E021683C228869401C32
:1009F00090FBF2F302FB13008861BDE87F4009F031
:100A0000F1B87FBD74000020500000207800002065
:100A1000C4670020414C41524D000000444F4E45F8
:100A20000000000045444954000000007C9F00087D
:100A3000FEE7000038B51C4C2068807858B11B498F
:100A40001BA000F0A3FA194A1832A2F10801A1F183
:100A5000080000F07BF8032008F08CFC10B9206837
:100A6000807840B114480522418800915A210388BA
:100A7000282000F065F909F0C7F80C48042106F0B9
:100A800041FD50B101280AD002280AD003280AD11A
:100A90000520BDE8384006F0CFBC0120F9E704206E
:100AA000F7E70620F5E738BD78000020C46700208E
:100AB000434C4F434B0000005C00002070B54FF4E6
:100AC00088720D4607490446FFF7E5FB05491039D2
:100AD00008682860C1E9014500F022F8BDE87040CF
:100AE00000F012B88000002005480122102110B546
:100AF00000F0CFFBBDE81040012000F0C7BA0000B5
:100B0000000002407047000010B5044803F02BFBC2
:100B10000128FAD0BDE8104008F0D4B870030020D6
:100B200010B503F0E5F80748408803F0CDF8012040
:100B300003F04CFA0448006890F8B000BDE810409B
:100B400008F0FABE5C000020740000202DE9FE438E
:100B50003E4C0D464FF6FF781746022306463CA250
:100B6000A188CDF80080CDE90110C8210A2000F04D
:100B70007FF8DFF8E490D9F80000007C012812D15A
:100B8000A0890090B28830887188F3880244521F8F
:100B900019448BB2401DA1F1050C92B21FFA8CF1E1
:100BA00080B202F077FFA0880223CDF800802BA24C
:100BB000CDE901053088B188084480B2C82100F031
:100BC00057F8D9F800004E4690F82000A8B1022846
:100BD000A08900D120890090AA8828886988EB889C
:100BE0000244521F19448BB2401DA1F1050C92B270
:100BF0001FFA8CF180B202F04DFFA1880223CDF8DC
:100C0000008018A2CDE901172888A988084480B27D
:100C1000C82100F02DF8306890F83000002813D07B
:100C20000228A08900D120890090BA883888798864
:100C3000FB880244521F19448BB24C1F401D92B2D4
:100C4000A1B280B202F026FFBDE8FE835C00002066
:100C5000416C61726D0000007400002054696D6584
:100C60007200000053746F70776174636800000055
:100C70002DE9FF4F83B01C4689468046DDF848B019
:100C80000598DDE91065FFF72AFB801C4FF6FF7120
:100C900027010095604300EB400001EA400A494605
:100CA00009EB070083B208EB0A0082B2404602F06B
:100CB000F1FEE000334600EE100AB6EE002B04EB26
:100CC0004400B8EE401B00EE109A08EB400081B2E1
:100CD000B8EE400BCDE9004501EE020BBCEEC00BB7
:100CE00010EE100A82B2059802F0CAFF68F30F05F1
:100CF0006AF30F0669F31F45CBF8005067F31F46F0
:100D0000CBF8046007B0BDE8F08F00002DE9FF418B
:100D1000094D1646094C1F46DDF828C02D686A6843
:100D20002271AB686371ED68A5718DE8E01000F089
:100D300021F8BDE8FF810000740000205000002071
:100D40002DE9FF41094D1646094C1F46DDF828C024
:100D50002D686A682271AB686371ED68A5718DE8D2
:100D6000E01000F025F8BDE8FF81000074000020CD
:100D7000500000202DE9F04186B005460DA80C4634
:100D800008A190E8C00102A805F04CFCCDE900687C
:100D900002A83B462246294602F072FF06B0BDE893
:100DA000F0810000252E32643A252E3264000000C6
:100DB0002DE9F04186B00C460CA905460F9E91E83E
:100DC000810108A1009002A805F02CFCCDE9007675
:100DD00002A843462246294602F052FF06B0BDE86B
:100DE000F0810000252E32643A252E32643A252EF9
:100DF000326400002DE9F04F2DED068B85B00C46D6
:100E00004FF02A01804615001E4613FB01F00490A6
:100E10004FEA031B58486BD0B0F80C0004EB0B03EF
:100E200000902146049808EB00024046924602F0EA
:100E300031FE002DB6EE00ABB7EE0C8BB5EE009B8D
:100E40004FEAC60556D04DA102A805F0EBFB00EE17
:100E5000105A00EE904A4848B8EE401BB8EE600BBE
:100E6000818901EE0A0BCDE9006143884146BCEE61
:100E7000C00B10EE100A82B202A802F001FF00EED1
:100E8000105A00EE904AA6EB86024FF6FF70B8EEBD
:100E9000402BB8EE601BB8EE403BB8EE600BAAF1F9
:100EA0000501009002EE081B0AEB82008AB280B2B4
:100EB00003EE090BBCEEC11BBCEEC00B11EE103AE9
:100EC0009BB210EE101A89B202F0E4FD049868F3A8
:100ED0000F0964F31F4960F30F0714986BF31F4762
:100EE000C0F80090476005B0BDEC068BBDE8F08F00
:100EF000408993E722A223A102A805F093FB00EE0C
:100F0000105A00EE904A1C48B8EE401BB8EE600B39
:100F1000418901EE0A0BCDE9006143884146BCEEF0
:100F2000C00B10EE100A82B202A802F0A9FE00EE79
:100F3000105A00EE904A4FF6FF700090B8EE402B2A
:100F4000B8EE601BB8EE403BB8EE600B06EB460215
:100F500002EE081B08EB820203EE090BBCEEC11B7C
:100F6000BCEEC00B11EE100A83B208F1050010EEC2
:100F7000101A89B2A8E700005C000020204F4E0044
:100F80004F464600253673200000000010B58CB097
:100F90000C460BA1024602A805F044FB0B480221B7
:100FA0004288CDE900120A22038802A8114602F005
:100FB00067FE0749D1E90001206061600CB010BDF7
:100FC0003C3C20252E323173000000005C000020E4
:100FD0006C9F00082DE9FC4115460C468046FFF742
:100FE0007EF9134AC0F11A0102204FF6FF7601EB99
:100FF0004101538806EA8101CDE900030CB19388D1
:1010000000E053890A22404602F03AFE0948D0E93E
:1010100002474046FFF763F9C0F11A0000EB4000B9
:1010200006EA800060F30F042C606F60BDE8FC816D
:101030005C0000206C9F000872B6FEE7002200F002
:1010400001B8000084464DF8044D01200E4B5C7A37
:10105000002C16D1587A1C54587A03EB8000C0F843
:1010600004C0587A03F1080C00F80C20587A421C8E
:101070005A72303008703A2048702F208870CC7037
:1010800000205DF8044B7047846A002070B5044668
:1010900000F004F90546601C02D0044800780444BE
:1010A00000F0FCF8401BA042FAD370BD14000020F1
:1010B0002DE9F84F00224FF001094FF0030A4FF0DD
:1010C0000F0E00BF0B6809FA02F42340A34270D14F
:1010D0004D68012D05D0022D03D0112D01D0122D08
:1010E00011D185685700CE680AFA07FC25EA0C057D
:1010F000BE402E43866045680E79A543C6F30016B0
:1011000096402E434660C56856008F680AFA06F47A
:10111000A543B7402F43C7604D68022D01D0122D63
:1011200012D1D5080F694FEA427C00EB8505AB462A
:101130002D6A4FEADC6C0EFA0CF807FA0CF725EA78
:1011400008052F43CBF820700D79076805F00305DB
:10115000A743B5403D4305604C68E40074D53D4C61
:10116000256845F480452560246822F0030796072A
:1011700004F480440094384C360F2744D7F80848CC
:10118000DFF8D8C00EFA06F5604524EA050401D15F
:1011900000252EE0324DA84201D1012529E0314D34
:1011A000A84201D1022524E02F4DA84202D10325F7
:1011B0001FE049E02D4DA84201D1042519E02C4D36
:1011C000A84201D1052514E02A4DA84201D10625E7
:1011D0000FE0294DA84201D107250AE0274DA8427A
:1011E00001D1082505E0264DA84201D1092500E0DE
:1011F0000A25B540234E2543C7F808584D68346882
:10120000ED0324EA030400D51C431E4D34602D1D5C
:101210004E682C68B60324EA030400D51C43194E1B
:101220002C6008364D683468ED0224EA030400D5CA
:101230001C43144D34600C354E682C68B60224EA09
:10124000030400D51C432C60521C102AFFF43AAF53
:10125000BDE8F88F443802400030014000000240F1
:101260000004024000080240000C0240001002404E
:101270000014024000180240001C024000200240FE
:1012800000240240003C01400069084000D00120D9
:1012900070470AB1816170470904FBE70148806823
:1012A000704700001400002030B590F84120202A3B
:1012B00024D190F84020012A20D0012380F840302A
:1012C000242280F84120202300240268156825F09C
:1012D000010515600268156825F4805515600268DF
:1012E00015680D43156001680A6842F001020A6042
:1012F00080F8413080F84040002030BD022030BDF1
:1013000030B590F84120202A22D190F84020012ABF
:101310001ED0012380F84030242280F84120202470
:1013200000250268136823F0010313600268136844
:1013300023F4706343EA0121116001680A6842F0F6
:1013400001020A6080F8414080F84050002030BD22
:10135000022030BD70B5040004D094F8410000258F
:1013600010B106E0012070BD204684F8405000F026
:10137000ABF9242084F841002068016821F00101C4
:101380000160D4E9001020F0706008612068816875
:1013900021F400418160E06821680128A06806D03E
:1013A00040F404408860E068022803D006E040F47E
:1013B0000040F7E721684FF4006048602021206872
:1013C000114A4368134343602068C26822F4004214
:1013D000C26054F8106B0DCC104340EA0320F0605B
:1013E00054F81C3CD4E900021043186054F81C0D5A
:1013F000026842F001020260656484F841102563CE
:1014000084F84250002070BD008000022DE9FF4F9B
:1014100083B0044690F841009A469346DDE9108770
:10142000DDF84890202874D15FEA080014D09FB1FD
:1014300094F8400001286CD0012084F84000FFF7A8
:101440002DFF0122064619230090D103204602F009
:10145000FDF9002871D103E04FF4007060646CE086
:101460000025C4F82480222184F84110402084F80B
:10147000420065646785534665635A460499204671
:10148000CDE9009602F068F910B184F8405054E0BC
:10149000618DFF2734484FF08078FF294FF0007AA4
:1014A00004D927853A464346009005E0618D5346AE
:1014B0002185009094F828202046049902F0B0F984
:1014C00000224B4604212046009602F0BFF9A0BB43
:1014D0002068616A406A0870606A401C6062208D02
:1014E000401E81B22185608D401E6085608DD8B11F
:1014F000D1B900224B4680212046009602F0A6F981
:10150000D8B9608DFF2805D927853A46434600950E
:1015100006E026E0608D53462085009594F828204B
:101520002046049902F07CF9608D0028C8D132462B
:101530004946204602F0B7F918B1012007B0BDE8CE
:10154000F08F21682020094AC86121684B68134048
:101550004B6084F8410084F84250002084F84050E9
:10156000ECE70220EAE700000024008000E800FE2B
:101570002DE9FF4F83B0044690F841009A46934608
:10158000DDE91087DDF84890202871D15FEA080076
:1015900014D09FB194F84000012869D0012084F84C
:1015A0004000FFF77BFE0122064619230090D1037D
:1015B000204602F04BF900286ED103E04FF4007092
:1015C000606469E00025C4F82480212184F841107A
:1015D000402084F8420065646785534665635A4637
:1015E00004992046CDE9009602F0E8F810B184F89D
:1015F000405051E0608DFF274FF08078FF284FF07A
:10160000007A04D927853A464346009505E0608D67
:1016100053462085009594F828202046049902F02E
:10162000FFF832464946204602F064F9A0BB606AE2
:10163000216800788862606A401C6062608D401E8C
:101640006085208D401E80B22085618DD9B1D0B9D2
:1016500000224B4680212046009602F0F7F8D8B9C8
:10166000608DFF2805D927853A464346009506E058
:1016700026E0608D53462085009594F8282020466A
:10168000049902F0CDF8608D0028CAD1324649464F
:10169000204602F008F918B1012007B0BDE8F08F2C
:1016A00020682021074AC1612068436813404360D5
:1016B00084F8411084F84250002084F84050ECE750
:1016C0000220EAE700E800FE10B586B004461421C7
:1016D0006846FEF7F9FD1249206888421ED111487C
:1016E000016841F00201016000681221012200F04E
:1016F00002000590032304244FF440708DE81F007E
:1017000009486946FFF7D4FC06481030016841F4E7
:1017100000110160006800F40010059006B010BDD3
:10172000005400403038024000040240704770B559
:10173000016801244B688A68D24355061AD5D5073B
:1017400018D1DD436D0615D4C968826A1180816A9B
:10175000891C8162C18D491EC185C18D002908D1B6
:1017600001684A6822F060024A6080F8394000F05F
:1017700021F970BD950718D4DD432D0615D4026AF2
:101780001288CA60016A891C0162C18C491EC18429
:10179000C18C0029EDD101684A6822F0A0024A609C
:1017A00080F8394000F042F970BDDB439B06FBD462
:1017B000530607D44B6823F060034B60C16B41F0C4
:1017C0000201C163110708D401684A6822F0A0022F
:1017D0004A60C16B41F00401C16380F83940FFF7F2
:1017E000A5FF70BD2DE9F041040004D094F8390044
:1017F000002518B107E00120BDE8F08184F83850D9
:10180000204600F087F8022040F6BF7384F83900C4
:101810002168CA699A43CA61216808626269022A1A
:101820004BD0E6687EB12021A068202800D849006E
:10183000E069012809D0022809D000202769B7F5FE
:10184000007F1ED021E01021EEE72E48F6E72E485B
:1018500007687F0201D42D4F00E02D4F006800F093
:101860003F00B7FBF0F0284F8037D7F800E03F6823
:10187000C7F3881CCEF302770CFB00FCBCFBF7F02F
:10188000DCE70EB1890000E0C900B0FBF1F00A21ED
:1018900000EB80004000B0FBF2F0401DB0FBF1F027
:1018A00000F00101401A09024008821EFE2A06D3F8
:1018B000E06B40F01000E0639DE702200021226908
:1018C0000843216802430A6294E80310A769E268AA
:1018D000C6693A4341EA0C019E431143314341F446
:1018E0000061C161A068302801D0B02804D120680F
:1018F000C16941F48051C1610120E56384F8390078
:10190000002079E70080BB00043802400024F40086
:1019100000127A0070B586B0044614216846FEF7BE
:10192000D3FC20492068884239D11F48016841F41E
:1019300080410160006800F4804005901A4810382A
:10194000016841F004010160016801F004010591A2
:10195000016841F002010160006800240526694623
:1019600000F0020005900820009002250F48CDE904
:101970000154CDE90346FFF79BFBB0020090CDE98F
:1019800001540B486946CDE90346FFF791FB00225D
:101990002420114600F0BAF8242000F0A9F806B07F
:1019A00070BD00000038004040380240000802408E
:1019B00000040240704710B581B17AB190F8383018
:1019C000012B09D0012480F83840002390F83940D9
:1019D000012C05D080F83830022010BD012010BD48
:1019E000032480F83940C36301620468E16901F0AF
:1019F0000701032913D0052911D08284C2846168AC
:101A000041F0A00161600168CA69520503D4CA6946
:101A100042F48062CA6180F83830002010BD4FF671
:101A2000FF7101EA42018184C184E8E710B5084CE6
:101A3000207800280AD1D4E903014FF48052C4E988
:101A400003100448FFF7B7FF0120607010BD0000CD
:101A500024000020BC030020024881680278114461
:101A60008160704714000020032010B500F06EF86C
:101A7000002000F005F800F023F8002010BD000061
:101A800070B50D4D04464FF47A700C4A29781268EF
:101A9000B0FBF1F0B2FBF0F001F0F5F848B9102C12
:101AA00007D200222146501E00F030F800206C6062
:101AB00070BD012070BD0000140000202000002037
:101AC0000A4808B5016841F080510160006800F0E3
:101AD000805000900548001D016841F4804101607C
:101AE000006800F48040009008BD000040380240CB
:101AF000002809DB410900F01F028900012001F1E3
:101B0000E0219040C1F80001704700000E4BF0B496
:101B10001B680D46C3F30223C3F10706042E00D948
:101B20000426191D072901D2002300E0DB1E012431
:101B300004FA06F19C40491E2940641E9940144055
:101B40002143F0BC04F09ABD0CED00E0064900F022
:101B5000070210B54FF6FF040868044B204040EA26
:101B600002201843086010BD0CED00E00000FA05EB
:101B70001848F8B5016841F0805101600068164CC2
:101B800000F080500090206840F480302060FFF723
:101B900085FB4FF47A76054605E000BFFFF77EFB34
:101BA000401BB0420FD86068C003F7D5206840F4EE
:101BB00000302060FFF772FB054606E0FFF76EFB82
:101BC000401BB04201D90320F8BD60688003F5D501
:101BD0000020F8BD40380240007000400248016813
:101BE00041F4807101607047007000402DE9F84FAA
:101BF00004460078DFF824944FF000063746C0070B
:101C00000ED0D9F8001021F40001C9F80010D9F85D
:101C10000010626B1143C9F80010606B00B9012617
:101C2000FE4D2068843500030ED5E16B286820F452
:101C3000401008432860E06BB0F5801F01D010B160
:101C400002E0012600E0012720684FF4800BC0026B
:101C50000CD5216C286820F4400008432860206CD3
:101C6000584501D1012601E000B901272068C101D2
:101C700000D50126800666D5E8483830016841F075
:101C8000805101600068DFF898A300F08050009058
:101C9000DAF8001041F48071CAF80010FFF7FEFA7C
:101CA000804605E0FFF7FAFAA0EB080064287DD82B
:101CB000DAF80000C005F5D5DFF8608308F16808A0
:101CC000D8F8000010F440702AD0218E01F4407141
:101CD000814225D0D8F80010D8F8002021F44071B6
:101CE00042F48032C8F80020D8F8002022F4803274
:101CF000C8F80020C8F80010D8F80000C0070FD0BE
:101D0000FFF7CCFA824607E0FFF7C8FAA0EB0A011A
:101D100041F288308142CAD8D8F800008007F3D554
:101D2000206BC0F3012103297ED0D9F8001021F4E3
:101D3000F811C9F80010228ED8F80010C2F30B0277
:101D40001143C8F800102078C00607D5286820F095
:101D5000807028602868A16B084328602188AF48FC
:101D60008830490405D5626E016821F44031114381
:101D700001602188090405D5A26E016821F4402183
:101D8000114301602168C90305D5E26E016821F4A1
:101D90004011114301602168890305D5226F016854
:101DA00021F4400111430160217800E034E149064B
:101DB00005D5626C016821F00301114301602178AF
:101DC000090605D5A26C016821F00C0111430160E0
:101DD0002188C90505D5E26C016821F03001114365
:101DE00001602188890505D5226D016821F0C001B7
:101DF000114301602188490505D5626D016821F410
:101E00004071114301602188090505D5A26D016863
:101E100021F44061114301602188C90407D5E26DB6
:101E2000016821F4405100E068E01143016021881D
:101E3000890405D5226E016821F4404111430160F7
:101E40002168490205D5A26F016821F08061114324
:101E5000016021684FF0006A890209D5E26F0168CC
:101E600021F0006111430160E16F514500D101276C
:101E700021680A0700D50127490305D5626F01686B
:101E800021F04071114301602168090206D5D4F8A0
:101E90008020016821F080511143016021684901CF
:101EA00006D5D4F88420016821F000511143016067
:101EB0002068000106D5D4F88810286820F000704A
:101EC000084328602068C00006D5D4F88C10286824
:101ED00020F0806008432860DFF84891012E02D08E
:101EE000206880017ED5D9F800004E4620F0806041
:101EF000C9F80000FFF7D2F980460FE04A4AD9F846
:101F00000030104023F4F8120243C9F8002012E711
:101F1000FFF7C4F9A0EB080064287DD83068000101
:101F2000F6D421783D487C30C90712D0616B81B965
:101F3000237A62680168D0F800C09201C1F30141C0
:101F400042EA0142CCF3036142EA016141EA0371D2
:101F5000016021680A0303D5E26BB2F5801F04D04B
:101F6000C9021AD5216C594517D16368016894F8E4
:101F70000CC002689B01C1F3014143EA0141C2F375
:101F8000027241EA0C6141EA027101602968626AE9
:101F900021F01F01521E114329602168C90110D58B
:101FA000238A62680168D0F800C09201C1F303611E
:101FB00042EA034242EA0162CCF3027142EA017151
:101FC0000160216889010CD56168228A237B94F81D
:101FD00008C0890141EA024141EA036141EA0C710A
:101FE000016000E011E03168B04641F0806131608D
:101FF000FFF754F9064604E0FFF750F9801B642808
:102000000AD8D8F800000001F6D5E7B3D9F80000E7
:102010004E4620F0805009E07BE000000838024086
:102020000070004000380240FFFCFF0FC9F80000BC
:10203000FFF734F9074604E0FFF730F9C01B6428C6
:1020400067D83068C0438000F6D5216835480A0358
:1020500001D5E26B1AB1C9021DD5216CD9B96369EA
:102060000168277E02689B01C1F3014143EA0143F5
:10207000C2F3027143EA076242EA01710160296812
:102080006FF0FF0300E04BE0A26A21F4F85103EB8C
:102090000222114329602168890212D5E16F51455E
:1020A0000FD1238C6269016807689201C1F3036153
:1020B00042EA034242EA0162C7F3027142EA017155
:1020C00001602178090716D561690268D0F800C05F
:1020D0008B01277FC2F30362CCF3014143EA014144
:1020E00041EA026141EA077101602868E16A20F46F
:1020F000403008432860306840F080503060FFF77F
:10210000CDF8044608E000BFFFF7C8F8001B6428BC
:1021100002D90320BDE8F88F3068C0438000F3D4B3
:102120000020F7E7883802402DE9F04705000F4608
:1021300063D0444E306800F00F00B84209D23068D6
:1021400020F00F0038433060306800F00F00B842D4
:1021500053D128683C4C810712D5400703D520682D
:1021600040F4E05020602878000703D5206840F450
:1021700060402060A968206820F0F00008432060DB
:102180002878C0072AD0304968680839012810D05B
:102190000968022810D0890700292EDA216821F069
:1021A000030101432160FFF779F8804641F2883945
:1021B0000DE009688903EFE78901EDE7FFF76EF8A5
:1021C000A0EB0801494502D90320BDE8F087686803
:1021D000216801F00C01B1EB800FEFD1306800F005
:1021E0000F00B8420BD9306820F00F003843306040
:1021F000306800F00F00B84201D00120E5E72878F0
:10220000400705D5E968206820F4E05008432060C5
:102210002878000706D52869216821F4604141EA41
:10222000C000206000F038F82168084AC1F30311AB
:10223000515CC8400649086006480068FFF720FC6A
:102240000020C2E7003C024008380240549F0008CA
:102250002000002018000020044905480968006893
:10226000044AC1F38221515CC840704708380240DB
:1022700020000020649F00080449054809680068A0
:10228000044AC1F34231515CC840704708380240EB
:1022900020000020649F0008154910B51548096802
:1022A00011F00C0213D04110042A0FD0082A0ED1CD
:1022B0000F4C241F2268236802F03F025B0207D5FF
:1022C0002068C0F38810A0FB010106E0084610BD9D
:1022D0002168C1F38811A1FB00010023FDF7AAFFCB
:1022E0002168C1F30141491C4900B0FBF1F010BD68
:1022F000083802400024F4002DE9F84F04004FF0A4
:1023000000076ED02078DFF87CA3AAF10408C0078C
:10231000A8F104054CD0DAF800105046C1F3810151
:10232000012908D00068C0F3810002280AD1D8F83A
:102330000000400206D52868800339D5606800286F
:10234000DFD035E06068B0F5803F0BD010B1B0F55C
:10235000A02F11D0286820F480302860286820F44D
:10236000802002E0286840F480302860606890B1E6
:10237000FEF794FF06460AE0286840F480202860B3
:10238000F0E700BFFEF78AFF801B642872D8286838
:102390008003F7D50CE0FEF781FF064605E000BF9D
:1023A000FEF77CFF801B6428F0D828688003F7D4F0
:1023B0002078800742D5DAF80010504611F00C0F53
:1023C00008D00068C0F3810002280BD1D8F80000C3
:1023D000400207D42868800718D5E068012800D19A
:1023E00014E04AE1E0680028286817D040F00100B6
:1023F0002860FEF753FF064605E000BFFEF74EFFDC
:10240000801B0228C2D828688007F7D52069296870
:1024100021F0F80141EAC00028600FE020F001003F
:102420002860FEF73BFF064605E000BFFEF736FFDB
:10243000801B02281ED828688007F7D42078000760
:1024400029D5904861696C3000298146016812D015
:1024500041F001010160FEF721FF064605E000BFE3
:10246000FEF71CFF801B022804D8D9F80000800763
:10247000F6D510E089E021F001010160FEF70EFFC2
:10248000064604E0FEF70AFF801B02287DD8D9F833
:1024900000008007F6D4207840076BD5DFF8E49180
:1024A00009F13809D9F80000C0000BD4D9F80010A0
:1024B00041F08051C9F80010D9F80000012700F060
:1024C0008050009070480168C90512D401688346A5
:1024D00041F480710160FEF7E1FE064605E000BFB1
:1024E000FEF7DCFE801B64284FD8DBF80000C00537
:1024F000F6D5644EA068683601280AD008B10528D0
:1025000011D0306820F001003060306820F0040005
:1025100002E0306840F001003060A068A0B1FEF732
:10252000BDFE83460CE0306840F004003060F0E708
:10253000FEF7B4FEA0EB0B0141F28830814268D86F
:1025400030688007F4D50EE0FEF7A8FE834607E06A
:10255000FEF7A4FEA0EB0B0141F28830814258D86F
:1025600030688007F4D42FB1D9F8001021F08051E1
:10257000C9F80010A069E0B3DAF80010C1F38101D6
:1025800002294DD00228286800E042E020F0807047
:10259000286003D0FEF782FE04463DE0FEF77EFE93
:1025A000064604E0FEF77AFE801B022831D8286830
:1025B0008001F7D4D4E90921DFF8D0C0D4E90706B7
:1025C00094F830304F0894F82C1030430CEB07444B
:1025D00044EA8212104340EA016040EA0370C8F8FE
:1025E0000000286840F080702860FEF757FE04461F
:1025F00005E044E0FEF752FE001B022809D82868D7
:102600008001F7D53BE000BFFEF748FE001B022823
:1026100002D90320BDE8F88F28688001F4D42EE0A9
:102620000128D8F8000028D0E16900F480028A422D
:1026300023D1216A00F03F028A421ED1626A47F626
:10264000C0710140B1EB821F17D1A16A4FF0FF3278
:1026500000F4403302EB5101B3EB014F0DD194F87C
:102660002C1000F07062B2EB016F06D194F83010BC
:1026700000F0E040B0EB017F01D00120CAE700206C
:10268000C8E7000008380240007000400000FFFF6B
:1026900070B5040003D06079002510B105E0012079
:1026A00070BD2046257100F00DF8022060710121F7
:1026B0002068026842F0040202606171A560002097
:1026C00070BD000008B500680649884208D1064878
:1026D000016841F040010160006800F04000009096
:1026E00008BD000000080650343802402DE9F041D2
:1026F00004000AD0606A002550B12561C4F8145066
:1027000094F85D00A56248B10DE00120BDE8F081BC
:102710006068B0F5827FF3D0E561F1E7204684F888
:102720005C5000F05DF8022084F85D004FF4E06238
:102730002068016821F040010160E068904201D901
:10274000002101E04FF48051B0F5706F02D090424B
:1027500000D0A5622289A088237C02F4044C277D46
:1027600000F4827003F00206228B40EA0C00237F03
:10277000304394F8206007F001073843278D02F4B6
:102780000072104303F038031843236806F08002F8
:10279000104307F4005630431860A069042394F8EE
:1027A000242001F4805194F8346003EA1040A78992
:1027B00002F01002104306F008031843236807F4E0
:1027C00070621043084358602068C16921F40062B8
:1027D000C2610121256684F85D10002096E70000A3
:1027E000F0B587B0064614216846FDF76DFD264812
:1027F000002532680224254B143823490326052777
:102800009A4224D10A6842F480520A60096801F4AD
:1028100080510591016841F001010160016801F0FA
:1028200001010591016841F00201016000686946FB
:1028300000F00200059060208DE8F1001448FEF7DA
:1028400037FC202069468DE8F100124818E0124B51
:102850009A4217D10A6842F480120A60096801F4AA
:1028600080110591016841F020010160006869460E
:1028700000F0200005904FF460708DE8F1000748EB
:10288000FEF716FC07B0F0BD4438024000300140AE
:1028900000000240000402400050014000140240C9
:1028A0002DE9F84F044690F85C0000271D460128EA
:1028B000164689460DD04FF0010B84F85CB0FEF748
:1028C000EDFC804694F85D00BA46012804D002274A
:1028D000A3E00220BDE8F88FB9F1000F73D0002EFD
:1028E00071D0A2680321C4F83890A68784F85D10DF
:1028F000C4F860A0E687C4F840A0A4F844A0A4F8F7
:1029000046A0B2F5004FC4F850A0C4F84CA009D1BD
:102910002068016821F0400101602068016841F4ED
:102920008041016020680168490603D4016841F0D4
:1029300040010160E068B0F5E06F606823D908B13C
:10294000012E1CD1A06B21680088C86006E02068B9
:102950008168890709D5A16B0988C160A06B801CBB
:10296000A063E08F401EE08709E0FEF797FCA0EB34
:102970000800A84202D3681C01D045E0A5B3E08F4F
:102980000028E4D135E008B1012E2FD1E08F216875
:102990000128A06B02D90088C8600EE00078087397
:1029A00014E0E08722E020688168890714D5E18F70
:1029B0000129A16B08D90988C160A06B801CA063A4
:1029C000E08F801EEDE727E009780173A06B401CC3
:1029D000A063E08F401EE4E7FEF760FCA0EB080078
:1029E000A84202D3681C01D00EE06DB1E08F002830
:1029F000D9D142462946204602F0FAFB08B12020F0
:102A00002066A06810B105E0032706E02068C168D1
:102A100080680090206E00B1012784F85DB03846D0
:102A200084F85CA056E72DE9F05F8B4690F85C10C7
:102A300000271D460A9E0129924604464FF00109CF
:102A40000ED0012084F85C00FEF728FC804694F844
:102A50005D00616801280CD0B1F5827F07D102E0EA
:102A60000220BDE8F09FA16809B9042801D002271F
:102A7000FFE0BBF1000F24D0BAF1000F21D005B365
:102A800094F85D00042802D0052084F85D00A4F8C5
:102A900044500020A5874FF4E062C4F838B0C4F871
:102AA00040A0E16820669142E0642065A4F84650A9
:102AB000E58701D8012D06D92068416821F48051AD
:102AC00005E00127D5E02068416841F4805141606C
:102AD00020680168490603D4016841F040010160A3
:102AE000E0689042606845D908B1012D3AD1A06BE9
:102AF00021680088C860A06B801CA063E08F401E26
:102B0000E0872FE02068816889070FD5E18F69B1E0
:102B1000B9F1010F0AD1A26B4FF000091188C16011
:102B2000A06B801CA063E08F401EE0872068816856
:102B3000C9070FD0B4F8461061B1C0684FF0010961
:102B4000226C1080206C801C2064B4F84600401E6B
:102B5000A4F84600FEF7A2FBA0EB0800B04201D3A8
:102B6000701C74D1E08F0028CCD1B4F84600002846
:102B7000C8D175E008B1012D6BD1E08F2168012823
:102B8000A06B07D90088C860A06B801CA063E08F91
:102B9000801E06E000780873A06B401CA063E08FE5
:102BA000401EE08755E02068816889071AD5E18FCB
:102BB000C1B1B9F1010F15D1E18F0129A16B07D97D
:102BC0000988C160A06B801CA063E08F801E06E0B6
:102BD00009780173A06B401CA063E08F401EE08762
:102BE0004FF0000920688168C90728D0B4F8461062
:102BF00029B3B4F84610012914D9C068216C0880A3
:102C0000206C801C2064B4F84600801EA4F84600A6
:102C1000B4F84600012810D82068416841F480517A
:102C200041600AE0007B216C0870206C401C20642D
:102C3000B4F84600401EA4F846004FF00109FEF724
:102C40002DFBA0EB0800B04202D3701C01D018E0AD
:102C5000BEB1E08F0028A6D1B4F846000028A2D16A
:102C600042463146204602F0C3FA10B120202066C9
:102C70000127012084F85D000021384684F85C10AB
:102C8000EFE60327F5E7401EB0F1807F10B501D3D2
:102C9000012010BD4FF0E02460610F21601703F0A8
:102CA000EDFC0020A0610721216110BD7047704735
:102CB00070470000F0B590F83C20012A3BD01F4E31
:102CC000012480F83C40022280F83D2002681C4D1F
:102CD0005368B242D2F808C001D0AA4203D14F686B
:102CE00023F470033B430F6823F070031F435760C6
:102CF0000268B24213D0B2F1804F10D0114B9A4209
:102D00000DD0114B9A420AD0104B9A4207D0AA42DA
:102D100005D00F4B9A4202D00E4B9A4204D18968DB
:102D20002CF0800319439160002180F83D4080F829
:102D30003C100846F0BD0220F0BD0000000001403C
:102D4000000401400004004000080040000C004066
:102D5000004001400018004010B5040003D094F872
:102D60003D0010B107E0012010BD002084F83C00B8
:102D7000204600F023F8022084F83D002068211D41
:102D800002F0A2FD012084F8480084F83E0084F897
:102D90003F0084F8400084F8410084F8420084F841
:102DA000430084F8440084F8450084F8460084F821
:102DB000470084F83D00002010BD000008B5016800
:102DC0002348814209D12348016841F00101016093
:102DD000006800F00100009008BD1F48B1F1804F6D
:102DE00011D01E4A91421DD1016841F002010160DB
:102DF00000680022012100F0020000901D20FEF773
:102E000085FE1D201FE0016841F00101016000689E
:102E10000022012100F0010000901C20FEF776FE48
:102E20001C2010E00E4A9142D6D1016841F0040105
:102E3000016000680022012100F0040000901E20C3
:102E4000FEF764FE1E20BDE80840FEF751BE0000FC
:102E50000000014044380240403802400004004075
:102E60000008004090F83D10012901D00120704772
:102E7000174A022180F83D100168CB6843F0010336
:102E8000CB600068904214D0B0F1804F11D011494E
:102E900088420ED0104988420BD01049884208D091
:102EA0000F49884205D00F49884202D00E49884216
:102EB00007D181680D4A1140062906D0B1F5803F3F
:102EC00003D0016841F0010101600020704700005B
:102ED000000001400004004000080040000C0040D9
:102EE00000040140004001400018004007000100BC
:102EF00070B5044690F83C00012817D0324B0125EC
:102F000084F83C50022084F83D0022689068184004
:102F100020F47F4090600868502830D00DDC2028D5
:102F20004DD005DC98B310283BD148E0022070BD9D
:102F3000302844D0402834D139E0602828D0702887
:102F400006D0B0F5805F2CD0B0F5005F29D10AE043
:102F50004A682068D1E9021302F029FD20688168DF
:102F600041F0770109E04A682068D1E9021302F0D4
:102F70001EFD2068816841F48041816011E0CA68CB
:102F80004968206802F05AFE2068502107E016E0E8
:102F9000CA684968206802F062FE2068602102F079
:102FA0000FFD002084F83D5084F83C0070BDCA68D5
:102FB0004968206802F042FE20684021EFE722685D
:102FC00001461046EBE7000088FFFEFF704770B532
:102FD0000446006800250169C943890715D4C16802
:102FE000C943890711D4EA1E0261012121772068B3
:102FF00080698007204602D0FFF7E8FF04E000F078
:10300000CFF8204600F0A2F9257720680169C9436E
:10301000490717D4C168C943490713D402216FF087
:103020000402026121772068806910F4407F204605
:1030300002D0FFF7CBFF04E000F0B2F8204600F02A
:1030400085F9257720680169C943090716D4C16845
:10305000C943090712D404216FF0080202612177E5
:103060002068C0698007204602D0FFF7AFFF04E068
:1030700000F096F8204600F069F92577206801698C
:10308000C943C90617D4C168C943C90613D4082166
:103090006FF01002026121772068C06910F4407F50
:1030A000204602D0FFF792FF04E000F079F82046B6
:1030B00000F04CF9257720680169C943C90708D198
:1030C000C168C943C90704D1891E0161204600F0C7
:1030D000BBF920680169C943090609D4C168C9431D
:1030E000090605D46FF0800101612046FFF7DFFD7E
:1030F00020680169C943C90509D4C168C9430906E3
:1031000005D46FF4807101612046FFF7CFFD206880
:103110000169C943490609D4C168C943490605D4B0
:103120006FF040010161204600F08FF920680169CD
:10313000C94389060BD4C168C943890607D46FF017
:10314000200101612046BDE87040FFF7B1BD70BDB0
:1031500010B586B0044614216846FDF7B5F80D4950
:103160002068884214D10C48016841F001010160D7
:1031700000680021082200F0010005900220009262
:10318000CDE90101CDE9031004486946FDF790FF40
:1031900006B010BD000C0040303802400000024074
:1031A000704770B5044690F83C000D4601280BD0DE
:1031B000012084F83C000C2A45D007DC5AB1042ACF
:1031C0001BD0082A78D12CE0022070BD102A4ED0E6
:1031D000142A71D15DE0206802F0FAFB2068816951
:1031E00041F0080181612068816921F00401816159
:1031F00020682A698169114311E0206802F022FCED
:103200002068816941F4006181612068816921F44D
:103210008061816120682969826942EA01218161B6
:103220004AE0206802F04AFC2068C16941F00801C8
:10323000C1612068C16921F00401C16120682A6967
:10324000C169114311E0206802F074FC2068C16973
:1032500041F40061C1612068C16921F48061C161EC
:1032600020682969C26942EA0121C16124E020681D
:1032700002F08CFC2068416D41F008014165206836
:10328000416D21F00401416520682A69416D1143B7
:1032900011E0206802F0A6FC2068416D41F4006155
:1032A00041652068416D21F480614165206829698C
:1032B000426D42EA01214165002084F83C0070BD66
:1032C00010B5040003D094F83D0010B107E00120D0
:1032D00010BD002084F83C00204600F023F80220B6
:1032E00084F83D002068211D02F0EEFA012084F8E8
:1032F000480084F83E0084F83F0084F8400084F8D9
:10330000410084F8420084F8430084F8440084F8C3
:10331000450084F8460084F8470084F83D0000200A
:1033200010BD000008B500680649884208D106486B
:10333000016841F008010160006800F00800009099
:1033400008BD0000000C00404038024070470000FB
:1033500010B504464FF0020269B1042912D00829C1
:1033600017D00C291CD0102921D094F84300012833
:1033700024D0012010BD94F83E000128F9D184F832
:103380003E201DE094F83F000128F2D184F83F2050
:1033900016E094F840000128EBD184F840200FE0BB
:1033A00094F841000128E4D184F8412008E094F821
:1033B00042000128DDD184F8422001E084F8432056
:1033C0000122206802F0E6FA17492068174A88426D
:1033D00001D0904203D1436C43F40043436420681E
:1033E000884213D0B0F1804F10D0114988420DD0DF
:1033F000104988420AD01049884207D0904205D02F
:103400000E49884202D00E49884207D181680D4A90
:103410001140062906D0B1F5803F03D0016841F084
:1034200001010160002010BD0000014000040140C6
:103430000004004000080040000C00400040014033
:1034400000180040070001007047704710B50400E5
:1034500002D0A06F10B107E0012010BD002084F859
:103460007400204600F026F82420A0672068016838
:1034700021F001010160204602F05CFF0128ECD040
:10348000606A10B1204602F0ABFE2068416821F46A
:10349000904141602068816821F02A0181602068A4
:1034A000016841F0010101602046BDE8104002F0D2
:1034B000FBBE000010B586B0044614216846FCF738
:1034C00003FF1249206888421ED11148016841F467
:1034D00080210160006800F4802005900C481038BD
:1034E000016841F00801016000680221002200F03B
:1034F00008000590032307244FF440708DE81F0057
:1035000004486946FDF7D4FD06B010BD00480040F0
:1035100040380240000C02402DE9F8430446806F19
:103520001F4616460D46202850D1CDB1C6B194F89D
:10353000740001284AD0012084F8740021224FF041
:103540000008C4F88080A267FDF7A8FE8146A06845
:10355000A4F85060A4F85260B0F5805F03D004E096
:103560000120BDE8F883206928B12E465FF00005F0
:1035700084F8748010E00026FAE78021204602F0EB
:10358000F3FFB8B9C6B116F8010B21688862B4F828
:103590005200401EA4F85200B4F852004B464FF0BF
:1035A000000200970028E8D14FF04001204602F0C9
:1035B000DBFF38B10320D4E735F8020B2168C0F3F4
:1035C0000800E3E72020A0670020CAE70220C8E740
:1035D000FEE70000FEB52A4E2A4C3068807850B3D2
:1035E0002948006890F8B00006F0A6F927494FF680
:1035F000FF75A0880323009525A2CDE9010178215C
:103600001420FDF735FB21490323A08822A20831AD
:103610000095CDE901017821AF20FDF729FB1B487A
:1036200000210095022310301DA2CDE90110C82110
:10363000B420FDF71DFB022005F09CFE10B9306898
:10364000807838B16088062200901E2123884620A9
:10365000FDF75CFB06F0D8FA0C48032103F052FF9B
:1036600040B1012808D0022808D10720BDE8FE405B
:1036700003F0E2BE0220F9E70320F7E7FEBD0000F9
:10368000780000205C00002074000020C467002047
:103690004D55534943000000434C4F434B0000003D
:1036A00053455454494E47530000000001688A694D
:1036B000D243920701D400228A6200688169C9431B
:1036C000C90703D0816941F00101816170470000A1
:1036D0002DE9F0410446006890460E468069C043DB
:1036E000C00635D40025202720688069C0438006A5
:1036F00016D5701CF8D0FDF7D1FDA0EB0800B04244
:1037000001D8002EF0D1606C84F8405040F02000C9
:10371000606484F8417084F842500120BDE8F08173
:1037200021681020C8612068C7612046FFF7BEFFEE
:103730002068084942680A404260606C40F004001A
:10374000606484F8417084F8425084F84050E4E7A3
:103750000020E3E700E800FE2DE9F84317460446A1
:103760001548DAB2DDE908981E460090002320468D
:1037700000F056F842464946204600F0BBF8B8B97A
:10378000012EFDB208D02068390A816242464946BE
:10379000204600F0AFF858B9206885620022402129
:1037A0004B462046CDF8008000F050F8002800D0AD
:1037B0000120BDE8F8830000002000802DE9F843D7
:1037C0000446164817461E46DAB20090C302204649
:1037D000DDE9089800F024F842464946204600F00A
:1037E00089F8B8B9012EFDB208D02068390A816283
:1037F00042464946204600F07DF858B92068856267
:10380000002280214B462046CDF8008000F01EF8B3
:10381000002800D00120BDE8F883000000200080CF
:1038200070B50068C1F30901074E41EA0241049CEA
:103830004FF480654268194305EA54553543AA435D
:1038400021430A43426070BDFF63FF032DE9F0414D
:103850001D4617460E460446DDF8188008E0681C31
:1038600006D0FDF71BFDA0EB0800A8420BD855B110
:103870002068806936EA000013D00020B842EED0FC
:103880000020BDE8F081626C002084F84000202117
:1038900042F02002626484F8411084F84200012062
:1038A000EFE70120EAE770B516460D4604460DE045
:1038B000324629462046FFF70BFF08B1012070BDB4
:1038C000FDF7ECFC801BA84207D835B12068806961
:1038D000C0438006ECD4002070BD626C002084F8E8
:1038E0004000202142F02002626484F8411084F8F4
:1038F0004200E3E770B516460D4604460FE0324637
:1039000029462046FFF7E4FE08B1012070BD681C7F
:1039100005D0FDF7C3FC801BA84207D835B120684D
:103920008069C0438007EAD4002070BD626C00202B
:1039300084F84000202142F02002626484F84110A3
:1039400084F84200E1E700002DE9FE4F92469B46D5
:1039500020288946DDE90C6201D32038C0B2234B10
:1039600001AC00EB4001002003EB4101431C0D5C66
:103970002554D8B20628F9D306EB46014FF6FF705E
:1039800000EAC603009200EA41025146484600F0B0
:1039900047F90127A04600255FF0000418F805004C
:1039A00007FA04F108420DD0012E15D004FB06A140
:1039B00005FB06903346CDF800B089B21A4680B2B6
:1039C00000F02EF9641CE4B2082CE7D36D1CEDB2B4
:1039D000062DE1D3BDE8FE8F0AEB04015A4609EB40
:1039E000050089B280B200F06FF8EBE7149D000883
:1039F0002DE9F0470E4607464FF4FA74B4EB460F34
:103A000000D90C46DFF8849001224D464846510209
:103A1000FDF73FFC4FF4807A284600225146FDF71F
:103A200038FC4FEA1728204605F090FD0546002097
:103A3000F9B204E02B1805F80080801C5970A042F0
:103A4000F8D37000B0FBF4F1B0FBF4F704FB1108FD
:103A500057B1002606E0A2B20D480A232946FEF718
:103A60001FFF761CBE42F6D31FFA88F208480A23CD
:103A70002946FEF715FF012251464846FDF709FC8D
:103A80002846BDE8F04704F0BBBF00000008024034
:103A900070040020F8B54FF0000C161A6746069D1A
:103AA00001D54FF0010C5C1A00D50127BCF1000FC5
:103AB00001D0861A1046B2B20FB1CC1A1946A3B281
:103AC000009500F0ADF8F8BD2DE9FE4305465148DC
:103AD0000C46164641888D427DD2008884427AD2B7
:103AE000DFF834814FF40077002239464046FDF775
:103AF000D0FB4FF48079404600224946FDF7C9FBD0
:103B00002A2000F02FFA012239464046FDF7C1FB7A
:103B1000012249464046FDF7BCFB0022494640468B
:103B2000FDF7B7FB681C290A8DF800108DF80150CD
:103B3000020A8DF8022001238DF803000422374881
:103B40006946FEF7ADFE012249464046FDF7A1FB5E
:103B5000002239464046FDF79CFB0022494640467C
:103B6000FDF797FB2B2000F0FDF901223946404676
:103B7000FDF78FFB012249464046FDF78AFB0022F4
:103B800049464046FDF785FB601C210A8DF804106C
:103B90008DF80540020A8DF8062001238DF80700F4
:103BA00004221E4801A9FEF77BFE01224946404639
:103BB000FDF76FFB002239464046FDF76AFB002205
:103BC00049464046FDF765FB2C2000F0CBF9012269
:103BD0003946404600E01BE0FDF75BFB0122494609
:103BE0004046FDF756FB002249464046FDF751FB93
:103BF000300A8DF808000948012302228DF8096077
:103C000002A9FEF74DFE012249464046FDF741FB61
:103C1000BDE8FE8300000020000802407004002080
:103C20002DE9F041154C16461D46069F62889042CC
:103C300021D2228891421ED263888219521E9A4252
:103C400002DB6288121A96B223884A19521E9A42DF
:103C500002DB2288521A95B24B1982195B1E521E42
:103C60009BB292B200F088F905FB06F13846BDE838
:103C7000F041FFF7BDBEBDE8F0810000000000206C
:103C80002DE9FC47994692460D460446DDE90A783F
:103C900007EB47060AE0641C4B46CDE90078524624
:103CA0002946FFF751FE05EB460085B22078002833
:103CB000F1D1BDE8FC870000012202489102FDF726
:103CC000E8BA00000008024070B5084C0546238899
:103CD00062880021084600F04FF96188208841433E
:103CE0002846BDE87040FFF783BE000000000020BA
:103CF00010B5FFF7E1FF00F025F900F005F901200C
:103D000000F08CF94FF47A70FDF7C0F9CB2000F089
:103D100085F9392000F09EF92C2000F09BF9002055
:103D200000F098F9342000F095F9022000F092F9A3
:103D3000CF2000F073F9002000F08CF9C12000F0D2
:103D400089F9302000F086F9E82000F067F9852035
:103D500000F080F9002000F07DF9782000F07AF979
:103D6000EA2000F05BF9002000F074F9002000F078
:103D700071F9ED2000F052F9642000F06BF9032096
:103D800000F068F9122000F065F9812000F062F976
:103D9000F72000F043F9202000F05CF9C02000F08B
:103DA0003DF9232000F056F9C12000F037F910202A
:103DB00000F050F9C52000F031F93E2000F04AF93A
:103DC000282000F047F9C72000F028F9862000F0ED
:103DD00041F9362000F022F9482000F03BF93A2062
:103DE00000F01CF9552000F035F9B12000F016F96B
:103DF000002000F02FF9182000F02CF9B62000F078
:103E00000DF9082000F026F9822000F023F9272080
:103E100000F020F9F22000F001F9002000F01AF97A
:103E2000262000F0FBF8012000F014F9E02000F05B
:103E3000F5F80F2000F00EF9312000F00BF92B20DF
:103E400000F008F90C2000F005F90E2000F002F94E
:103E5000082000F0FFF84E2000F0FCF8F12000F000
:103E6000F9F8372000F0F6F8072000F0F3F81020FA
:103E700000F0F0F8032000F0EDF80E2000F0EAF872
:103E8000092000F0E7F8002000F0E4F8E12000F05D
:103E9000C5F8002000F0DEF80E2000F0DBF814205A
:103EA00000F0D8F8032000F0D5F8112000F0D2F887
:103EB000072000F0CFF8312000F0CCF8C12000F04E
:103EC000C9F8482000F0C6F8082000F0C3F80F2019
:103ED00000F0C0F80C2000F0BDF8312000F0BAF876
:103EE000362000F0B7F80F2000F0B4F8112000F0F1
:103EF00095F87820FDF7CAF8292000F08FF8BDE882
:103F00001040002000F062B870B50D4D4FF4806491
:103F1000002221462846FDF7BCF9C820FDF7B6F877
:103F200000222846A110FDF7B4F9C820FDF7AEF82D
:103F300021462846BDE870400122FDF7AAB90000DD
:103F40000008024010B500F013FC00F08BFABDE849
:103F50001040034800224FF48071FDF79AB9000029
:103F600000080240012301B502481A466946FEF7DF
:103F700097FC08BD700400202DE9F0411C46154651
:103F80000E4607462A2000F049F8380A00F062F889
:103F9000F8B200F05FF8280A00F05CF8E8B200F030
:103FA00059F82B2000F03AF8300A00F053F8F0B23C
:103FB00000F050F8200A00F04DF8E0B200F04AF8A6
:103FC000BDE8F0412C2000F029B800002DE9F041B7
:103FD0000746362000F022F80120FDF757F80E4C76
:103FE0004FF4A0764FF0F00567B1012F0CD0022FEF
:103FF0000CD0032F04D1E82000F02CF86680258037
:10400000BDE8F081482002E02820F5E7882000F094
:1040100021F865802680F3E70000002070B50C4D84
:104020004FF480740022064621462846FDF731F9F8
:10403000002228466100FDF72CF93046FFF792FF79
:1040400021462846BDE870400122FDF722B9000054
:104050000008024070B50B4C012206465102204672
:10406000FDF717F9A515204600222946FDF711F99D
:104070003046FFF777FF29462046BDE87040012211
:10408000FDF707B9000802400A2008B505F054FC06
:10409000022005F06FF918B908480068807840B12F
:1040A00007480622418800915A2103884B20FCF7DB
:1040B0002DFEBDE8084005F0A7BD000078000020F7
:1040C0005C0000202DED0A8B90ED0C3B90ED105B19
:1040D00090ED0E7BB0EE43BB90ED00CB12EE05BB36
:1040E00090ED0A4B90ED02AB90ED049B90ED088BA8
:1040F00090ED066B02EE453B3BEE47BB02EE457B87
:104100003BEE0CBB0AEE025B02EE0B4B31EE481BA2
:1041100034EE09AB02EE016B87EE0A9BB0EE441B56
:1041200030EE460B84EE0A2B09EE008B09EE447B41
:1041300002EE006BB0EE430B02EE441B80ED066B0B
:1041400080ED088B02EE430B80ED0A1B09EE435B0A
:1041500080ED0C0B80ED0E7BB0EE460B80ED105B1E
:10416000BDEC0A8B70472DE9F0410125804686B0F1
:104170002B4604A86424CDE9000575224046D021D1
:104180000294FDF743F99DF81000682803D0012040
:1041900006B0BDE8F08100278DF80C7003AE0096E4
:1041A000012340466B22D021CDE90154FDF7E0F90F
:1041B00007208DF80C000096012319224046D021DB
:1041C000CDE90154FDF7D4F98DF80C700123009668
:1041D0001C22D0214046CDE90154FDF7C9F98DF8E4
:1041E0000C70012300961B22D0214046CDE90154DA
:1041F000FDF7BEF90020CBE730B564230C460E2254
:104200002DED088B87B003A98DE80E0001233B221A
:10421000D021FDF7FBF8BDF80C009FED781B9FED5A
:10422000795B9FED7A3A9FED7A2BDFED7B0A40BAFE
:1042300000B2208000EE100ABDF80E00B8EEC04BB0
:1042400040BA00B2608000EE100ABDF8100024EE03
:10425000024B40BA00B2A080B8EEC06B00EE100A6C
:10426000BDF81410BDF81200B8EEC07B26EE022B8C
:1042700087EE056B49BA09B2218400EE101A40BAE4
:10428000BDF8161000B2B8EEC07B00EE100A48BAB6
:1042900000B26084B8EEC00AC0EE033A00EE100A25
:1042A000BDF81800B8EEC08B40BA00B2A08400EE92
:1042B000100A84ED024B84ED042BB8EEC04B84ED64
:1042C000066B87EE015B33EEA00A84ED100A88EEE0
:1042D000017B84ED0A5B84EE012B84ED0C7B84ED85
:1042E0000E2BFCF7DBFF4D4D9FED4D1B2968401A4F
:1042F00000EE100AB8EE400B80EE01ABFCF7CEFFEB
:104300002860208810FB00F1A08810FB001000EE50
:10431000100AB8EEC00B02F0A7FBB5EEC00BF1EE31
:1043200010FA9FED41BB0ED0B4F9020001EE100A65
:10433000B8EEC12B82EE001BB0EE410B02F0B0F9DB
:1043400020EE0B9B01E09FED3A9BB4F90010B4F90D
:104350000400494200EE900A00EE101AB8EEE01B8D
:10436000B8EEC00B02F09CFA20EE0B0B9FED321B57
:104370009FED338BB4EEC10BF1EE10FA06D294ED43
:10438000142BB4EEC82BF1EE10FA0BDCB4EEC80B14
:10439000F1EE10FA0BDD94ED142BB4EEC12BF1EE1F
:1043A00010FA04D21D48503080ED060B07E01B4880
:1043B00094ED0C1B5030B0EE4A2BFFF783FE84EDDA
:1043C000140BB0EEC00BB4EEC80BF1EE10FA05DD25
:1043D00094ED0A0BB1EE400B84ED0A0B0F4894EDFF
:1043E0000C1B0830B0EE4A2BB0EE490BFFF76AFE0B
:1043F00084ED120B07B0BDEC088B30BD000000004F
:1044000000606040000000000029CC400000AA438A
:10441000000000000000103FB81E12429001002072
:104420000000000000408F40F8C1631ADCA54C403A
:10443000000000000000000000000000008056C0E6
:10444000000000000080564010B503490348FCF707
:10445000F5FD0349087010BD3D0200202802002030
:104460003C0200202DE9F04F87B014216846FBF78D
:104470002BFF7648016841F010010160016801F0EE
:1044800010010591016841F004010160016801F02B
:1044900004010591016841F020010160016801F00B
:1044A00020010591016841F080010160016801F07F
:1044B00080010591016841F001010160016801F08E
:1044C00001010591016841F002010160016801F0FC
:1044D00002010591016841F008010160016801F0E5
:1044E00008010591016841F0400101600068002267
:1044F000574E682100F0400005903046FCF7C9FE99
:10450000544800221021FCF7C4FE44F2810A5248AC
:1045100000225146FCF7BDFE504800224021FCF726
:10452000B8FE4FF4E86B4E4800225946FCF7B1FE46
:104530000024694614200294CDE900043046FCF7BB
:10454000B7FD6820009001256946CDE90154304649
:104550000394FCF7ADFD43484FF40059CDF80090AB
:104560006946CDE901043E48FCF7A2FD02264FF062
:104570000B083220694602AACDE900060327384815
:1045800082E89001FCF794FD8620694602AACDE9F5
:104590000006304882E89001FCF78AFD1020009068
:1045A000CDE901542B4869460394FCF781FDCDF811
:1045B00000A06946CDE9015427480394FCF778FD33
:1045C00002AA2548694682E89001CDE90096FCF7E9
:1045D0006FFD40200090CDE90154204869460394C6
:1045E000FCF766FD80206946CDE900041B48029473
:1045F000FCF75EFDCDF800B06946CDE901541848DE
:104600000394FCF755FD4FF4E85000900A206946EA
:10461000CDE903700F48CDE90164FCF749FD68025C
:104620006946CDE900040B480294FCF741FD4FF4C4
:1046300020510A4802AACDE90016694682E8900195
:10464000FCF736FD07B0BDE8F08F000030380240BF
:104650000010024000000240000402400018024026
:1046600000080240000011101348002110B5114C41
:104670000123124A0460C0E90121C0E9033141610C
:104680008161C1610162FCF765FE08B1FCF7D4FCF1
:1046900009480021FCF708FE08B1FCF7CDFC0648EC
:1046A0000021FCF72DFE002803D0BDE81040FCF7E8
:1046B000C3BC10BD005400407003002059194000D5
:1046C0000D48002170B50B4A4AF6444402600225A9
:1046D0005315C0E90131C160C0E90414C0E90615F1
:1046E000FDF780F8002803D0BDE87040FCF7A4BCBB
:1046F00070BD000000380040BC0300200749064898
:1047000010B508600846FDF7C3FF002803D0BDE8D8
:104710001040FCF791BC10BD00080650FC030020BF
:1047200070B512484FF4E06400210F4E4FF48275CB
:104730001023C0E9021401617215E0E80565072441
:10474000082580E80E00C1600161C0E90514C0E9D8
:1047500007150648FDF7CAFF002803D0BDE87040E2
:10476000FCF76ABC70BD0000003001400C04002062
:1047700070B5104D4FF4E0630F4800214FF4827480
:104780006A15C0E9021301610723C0E90512C1617E
:1047900001624162C0E90A1301634163C0E9005448
:1047A000FDF7A4FF002803D0BDE87040FCF744BC2F
:1047B00070BD0000005001407004002010B588B0AA
:1047C00017490024174842F2107200948B15019487
:1047D0000294039404940594069480E81600C0E9BA
:1047E000034344618461FEF7B7FA08B1FCF724FC87
:1047F0004FF4805000900B486946FEF779FB08B1F2
:10480000FCF71AFC074804A9049405940694FEF7E3
:1048100051FA002801D0FCF70FFC08B010BD0000D1
:1048200000000140D404002010B588B016480024D0
:1048300040F2E733632200944FF0804101940294E8
:10484000039404940594069480E81600C0E90334A8
:104850008461FEF781FA08B1FCF7EEFB4FF480505B
:10486000009009486946FEF743FB08B1FCF7E4FBFA
:10487000054804A904940694FEF71CFA002801D008
:10488000FCF7DAFB08B010BD2005002010B588B099
:10489000174800241549632240F2E733009401943D
:1048A0000294039404940594069480E81600C0E9E9
:1048B00003348461FEF750FA08B1FCF7BDFB4FF4F6
:1048C000805000900A486946FEF712FB08B1FCF7D9
:1048D000B3FB074804A904940694FEF7EBF90028FB
:1048E00001D0FCF7A9FB08B010BD00000004004097
:1048F0006C05002010B588B01748002415496322C4
:1049000040F2E733009401940294039404940594D4
:10491000069480E81600C0E903348461FEF71CFAAF
:1049200008B1FCF789FB4FF4805000900A486946B3
:10493000FEF7DEFA08B1FCF77FFB074804A90494F0
:104940000694FEF7B7F9002801D0FCF775FB08B014
:1049500010BD000000080040B805002010B58AB066
:10496000002468461C21079408940994FBF7ACFCCA
:10497000164840F2E7316322134BC0E9024104615B
:104980008461C0E90032FEF79BFC08B1FCF754FBE0
:104990000E4807A907940994FEF78CF908B1FCF7B3
:1049A0004BFB60206946CDE9000408480C220294C4
:1049B0000494FEF7F6FB08B1FCF73EFB0348FEF754
:1049C000C7FB0AB010BD0000000C00400406002028
:1049D0000D48002110B50B4C0C224FF4E13304605C
:1049E000C0E90131C160C0E904128161C1610162A5
:1049F0004162FEF72BFD002803D0BDE81040FCF714
:104A00001BBB10BD0048004050060020FEE7000020
:104A10000448006890F84000012801D104F002BE6B
:104A2000704700007400002010B5074C07A12068F3
:104A3000D0F8A820413001F0F5FD2068BDE8104015
:104A4000413004F079B900007400002025642E770D
:104A500061760000104810B50068D0F8A810491C15
:104A6000C0F8A8100D4803F0F3FA0D4800210D4BD3
:104A70004FF48054A3F50052C16001614FEA010078
:104A800023F8101022F81010401CA042F8DBBDE8FB
:104A90001040FFF7C9BF0000740000201817002065
:104AA00024000020484700203F4870B53F4E9CB08E
:104AB0000068807800284CD03D493EA0FCF766FA9B
:104AC00032680DF13E0103A8413205F063F83B4D19
:104AD000032046226988CDE900012B88322103A8F2
:104AE000FFF7CEF830684FF6FF7490F840000128C9
:104AF0000ED000BF4FF000002D49AA88C0F16A0017
:104B000001F108010094CDE9012104D12CA203E0B8
:104B10004FF00900F0E72CA24FF003034FF096018D
:104B2000FCF7A6F8224800250094022310309E21AD
:104B300027A2CDE901502620FCF79AF81C48022351
:104B400000949E21183023A2CDE90150EA20FCF701
:104B50008FF805F059F81648042102F0D3FC60B133
:104B6000012810D0022819D003281AD1FFF772FFAC
:104B70001CB0BDE8704005F035B81CB00120BDE8A0
:104B8000704002F059BC306890F84000012802D013
:104B900000F032F8ECE700F01FF8E9E700F042F827
:104BA000E6E71CB070BD0000780000207400002013
:104BB000C46700204D555349430000005C000020AD
:104BC0005041555345000000504C41590000000031
:104BD0003C3C00003E3E000005480022402110B54C
:104BE000FCF757FB03480168022081F8400010BD24
:104BF000000802407400002008480122402110B53E
:104C0000FCF747FB064C206890F8400008B9FFF716
:104C10000BFF2168012081F8400010BD0008024010
:104C200074000020084810B50068D0F8A8100029CA
:104C300002DD491EC0F8A810044803F009FABDE8D7
:104C40001040FFF7F1BE000074000020181700208C
:104C5000FEE770477CB541F6FF74FBF745FF002582
:104C6000FF2000F00DFB6D1C0A2DF9DB00F0ACFA03
:104C700000208DF8040040218DF800108DF801000F
:104C800095228DF8020006218DF8030068468DF804
:104C9000052000F0E7FA00F0CFFA012806D0641EE4
:104CA00000F0CAFA012801D0002CF8D1FBF71CFF54
:104CB000FF2000F0E5FA0249012048707CBD0000A9
:104CC0004C02002010B5064C4FF4FA70A4F8060010
:104CD00000F0B2FAFF2802D0E1880029F8D110BD17
:104CE0004C02002070B50F4E0446C8200D46B0801F
:104CF00000F0A2FAFF2803D0FE2805D0002070BDE6
:104D0000B0880028F4D1F9E72646641C00F094FA34
:104D10006D1E3070F8D200F08FFA00F08DFA01208D
:104D200070BD00004C02002070B50C460546FFF730
:104D3000C9FFFF2801D0FF2070BD284600F0A0FA6F
:104D4000200E00F09DFAC4F3074000F099FAC4F376
:104D5000072000F095FAE0B200F092FA402D07D05B
:104D6000482D07D0012000F08BFA4C2D06D007E02B
:104D7000952000E0872000F083FA01E000F05CFA63
:104D80005FF00A0400F058FA0106D5D5641E14F04D
:104D9000FF04F7D170BD70B500240E460546FFF73D
:104DA00091FFFF2820D1304600F06AFAFD2E17D07F
:104DB0004FF40071284600F055FA00F03DFA00F07B
:104DC0003BFA00F039FA054600F01F00052803D031
:104DD000641CE4B2402CF4D900F02EFA0028FBD079
:104DE00005F01F00052801D0002070BD012070BD16
:104DF000F8B508B10120F8BD484C2078800772D47E
:104E0000FFF728FF00F0E0F9002540202946FFF7D2
:104E10008BFF012872D14FF47A704FF4D571A080C6
:104E20004820FFF781FF01280DD000217720FFF7F0
:104E30007BFF012841D800216920FFF775FF012879
:104E40003BD8022540E000264FEA0D0700F0F4F9B8
:104E5000711CB855CEB2042EF8D39DF8020001287B
:104E60004CD19DF80300AA2848D14607002177209D
:104E7000FFF75AFF012804D869203146FFF754FF95
:104E800018B1A0880028F1D138E0A08860B30021D3
:104E90007A20FFF749FF38BB5FF0000500F0CCF93E
:104EA000691C7855CDB2042DF8D39DF8000040065A
:104EB00001D50C2522E0042520E0012501E0022D8A
:104EC00002D00021412007E000217720FFF72CFFCE
:104ED000012804D800216920FFF726FF28B1A08807
:104EE0000028ECD109E016E008E0A08828B15020A5
:104EF0004FF40071FFF718FF00B10025A570FBF714
:104F0000F3FD00F099F925B1207820F00100207020
:104F100001E0002060702078F8BD00004C02002005
:104F20007FB515460E4610B1042004B070BD4D4843
:104F3000052E4FF0010404D00078C00715D00320DF
:104F4000F3E7297829B1012907D0022909D00424DF
:104F500085E0002141700C4681E0FFF77BFE0024D4
:104F60007DE040780024507079E000F02DF90B2EA0
:104F700052D005DCEEB3012E07D0022E6AD141E0FB
:104F80000C2E4CD00D2E65D155E000214920FFF7A5
:104F9000CBFE78BB10216846FFF7A4FE50B39DF806
:104FA00000100120B0EB911F09D19DF808209DF859
:104FB000091000EB022008440004800920E09DF85D
:104FC00005009DF80A409DF8091000F00F069DF8B5
:104FD00008309DF8070001F003019DF8062006EB5C
:104FE000D4149B0904EB410103EB800002F003029F
:104FF00001E00CE02FE000EB8220401CC91F88403C
:10500000286016E000244FF40070288023E0FFF7AA
:1050100059FEFF280DD01EE00021492001E00021AB
:105020004A20FFF781FEB0B910212846FFF75AFE4B
:1050300088B100240FE000217A20FFF775FE48B9FF
:105040005FF0000400F0F8F8641CE4B2042C05F8EA
:10505000010BF7D30424FBF747FD00F0EDF82046E1
:1050600063E700004C0200202DE9F0411C46154684
:105070000E4638B934B121480178C90704D003205D
:10508000BDE8F0810420FBE78078400700D455029A
:1050900000F09AF8012C29464FF4007704D05220F2
:1050A000FFF742FE70B11AE05120FFF73DFEE0B974
:1050B00039463046FFF716FEB8B1FBF715FD00F094
:1050C000BBF818E039463046FFF70CFE18B1641EF5
:1050D00006F50076F6D100214C20FFF725FEFBF700
:1050E00003FD00F0A9F824B905E0FBF7FDFC00F092
:1050F000A3F80120C4E70020C2E700004C02002012
:1051000008B1012070470148007870474C02002028
:105110002DE9F0411C4616460F4638B934B1294DE9
:105120002878C00704D00320BDE8F0810420FBE705
:105130002878400701D50220F6E7A878400700D478
:10514000560200F041F8012C10D0A878800707D54E
:1051500000217720FFF7E8FD57202146FFF7E4FD07
:1051600059203146FFF7E0FD78B11CE05820314668
:10517000FFF7DAFDF0B9FE213846FFF70CFEC8B1A3
:10518000FBF7B2FC00F058F819E0FC213846FFF7B5
:1051900002FE18B1641E07F50077F6D1FD2100204C
:1051A000FFF7F9FD30B1FBF79FFC00F045F834B193
:1051B0000120B9E7FBF798FC00F03EF8F8E7002083
:1051C000B2E700004C02002005480022102110B573
:1051D000FCF75FF8BDE810400120FBF757BF000067
:1051E000000002400148FCF7A2BA0000BC03002006
:1051F000F8B515460E4604460B464FF4C0510092D2
:10520000002200F04DF888B9002233468021204664
:10521000009500F0A9F848B9002233464FF4C06168
:105220002046009500F03CF8002804D0206E40F0A5
:10523000200020660320F8BD0EB50948FF218DF837
:105240000410006881688907FCD564200090044838
:10525000012302AA01A9FDF7E6FB9DF808000EBD97
:105260000C040020054A126893689B07FCD50A4687
:10527000014602486423FDF713BB00000C04002024
:1052800001B50648006881688907FCD50348642396
:1052900001226946FDF704FB08BD00000C04002054
:1052A0002DE9FC47994617460E4604460A9DFBF732
:1052B000F5FF411BA9EB0105FBF7F0FF80462948EC
:1052C0004FF4C06A0068C0EBC00000EB8000000D26
:1052D00068433FE0564502D10FB9007B0190B9F118
:1052E000FF3F38D0FBF7DAFFA0EB0800A84203D25B
:1052F00015B1009860B32CE02068416821F0E0010E
:1053000041606068B0F5827F0BD1A068B0F5004FB6
:1053100002D0B0F5806F04D12068016821F040010F
:105320000160A06AB0F5005F09D12068016821F42E
:10533000005101602068016841F4005101600121C1
:1053400084F85D10002084F85C000320BDE8FC8731
:105350000025401E0090206881683140B942B9D1D3
:105360000020F3E7200000202DE9F8431E46914677
:1053700088460446089DFBF791FF401B351AFBF752
:105380008DFF074625480068C0F3CB30684338E0FE
:10539000701C37D0FBF782FFC01BA84203D215B1A7
:1053A000009860B32CE02068416821F0E001416082
:1053B0006068B0F5827F0BD1A068B0F5004F02D0D5
:1053C000B0F5806F04D12068016821F040010160D0
:1053D000A06AB0F5005F09D12068016821F400518E
:1053E00001602068016841F400510160012184F8E6
:1053F0005D10002084F85C000320BDE8F8830025E0
:10540000401E00902068816838EA010004D0002125
:105410004945BDD10020F0E70121F9E72000002037
:10542000704700002DE9FF5F4748484C484D006831
:10543000807800283FD0474947A0FBF7A7FD608848
:105440004FF0020836220A21CDE90080238845A0CA
:10545000FEF716FCE0890322009032212388C82041
:10546000FBF754FC414E642260880A21D6F844B010
:10547000B76BD6E90F9ACDE9008023883CA0FEF7F0
:10548000FFFB28683DA190F8B02002A801F0CAF8FF
:10549000E18903206022CDE900012388C82102A808
:1054A000FEF7EEFB2B48D6E912231838C0E90C238F
:1054B000203080E8800E022003F05CFF38B1E089E4
:1054C0000322009032212388C820FBF71FFC04F040
:1054D0009BFB2048042102F015F8C0B101281CD024
:1054E000022824D003282CD1286890F8B0100A3163
:1054F000C9B280F8B010642902D90A2180F8B0102E
:10550000C8B204F019FABDE8FF5F04F06BBB04B049
:105510000120BDE8F05F01F08FBF296818224868BC
:10552000401C90FBF2F302FB13004860EBE7296894
:105530003C228868401C90FBF2F302FB1300886059
:10554000E1E7BDE8FF9F0000780000205C0000203C
:1055500074000020C467002053455454494E4753FB
:105560000000000054494D45000000006C9F0008F9
:105570004252494748544E45535300002533642056
:10558000252500002DE9FF47DFF84891524CDFF850
:105590004C81A4F10C06D9F80000807800284BD08B
:1055A0004F4950A0FBF7F2FCD8F800104FF6FF75FA
:1055B0004B48083091F8301031B1012900F108074B
:1055C0000ED0022922D037E0A1890323009548A2FA
:1055D000CDE9011096212820FBF74AFB00202AE0A4
:1055E000A1880223009545A2CDE90110962128202B
:1055F000FBF73EFB208902239621029741A2CDE9C9
:105600000050C420FBF734FB012014E0A1880223E2
:1056100000953AA2CDE9011096212820FBF728FB3E
:10562000A08902239621029738A2CDE90050B82024
:10563000FBF71EFB0220F0702949D8F800000C3956
:105640000B68426B93420BD1836B4D689D4207D12F
:10565000C36B8968994203D1D9F80010897861B188
:1056600001AF65882388052187E82A00C16B009176
:105670004621836B2820FBF79BFB04F0C5FA1848F2
:10568000032101F03FFF50B1F17871B1012911D030
:1056900002291CD1012814D0022818D107E004B037
:1056A0000320BDE8F04701F0C7BE01280FD100F08C
:1056B0004BF808E0012804D0022808D100F02AF8AD
:1056C00001E000F02FF8BDE8FF4704F08BBABDE819
:1056D000FF870000780000205C000020740000209C
:1056E000C467002053544F505741544348000000B2
:1056F000202020535441525420202000524553452D
:105700005400000050415553450000005245535588
:105710004D45000002480168022081F830007047C2
:105720007400002006480021064B10B500681A6876
:10573000D3E90143C363C0E90D2480F8301010BDE4
:1057400074000020D40600200C48012110B50C4C38
:1057500040F25373006880F83010D0E90D12C06B2E
:1057600061435A4300EB4003C3EBC01001EB42110D
:1057700001EBC0000349086010BD00007400002068
:1057800080EE36000C000020FCF766B970B5B8B0AA
:10579000342124A8FAF798FD142131A8FAF794FDD2
:1057A00090216846FAF790FDFCF718FA2A4801683C
:1057B00041F080510160006800F080503690274829
:1057C000016841F440410160006802240DF1B00C11
:1057D00000F44040369060050421C822CDE92A40FB
:1057E00009232F934FF4A0258CE816000126CDE95C
:1057F000246524A8FCF780FD08B172B6FEE7FCF72B
:10580000B7F908B172B6FEE74FF480524FF4A051D9
:105810000025CDE9341231AA0F20062182E831009B
:1058200031A8FCF781FC08B172B6FEE70C49C02034
:1058300004940091CDE901040D95684613951995DE
:1058400009961F950394FCF7D1F9002801D072B690
:10585000FEE738B070BD00004038024000700040E4
:10586000014120000248016841F470010160704765
:1058700088ED00E0044810B5FDF7A9FB0348016876
:10588000491C016010BD0000200500200800002018
:10589000044810B5FDF79BFB03480168491C0160F3
:1058A00010BD00006C0500200C000020044810B55D
:1058B000FDF78DFB03480168491E016010BD000023
:1058C000B805002010000020F0B5274B4FF0804EA7
:1058D000264D02689842264E264F274C09D0704527
:1058E00007D0A84205D0B04203D0B84201D0A042B0
:1058F00005D1D1F804C022F070024CEA02029842AD
:105900001BD0704519D0A84217D0B04215D0B8426C
:1059100013D0A04211D0194DA8420ED0184DA84264
:105920000BD0184DA84208D0174DA84205D0174DEE
:10593000A84202D0164DA84203D1CD6822F440728D
:105940002A434D6922F080022A43026098428A6805
:10595000C2620A68826201D0A04201D10969016372
:1059600001214161F0BD0000000001400004004041
:1059700000080040000C00400004014000400140CD
:10598000004401400048014000180040001C004055
:105990000020004010B5046A012301F01F018B4074
:1059A0009C4304628A40016A1143016210BD42EACD
:1059B000032283680A4323F47F410A4382607047CD
:1059C000826822F070020A4342F00701816070474A
:1059D000F0B5026ADFF860C0184F22F00102DFF86C
:1059E00060E00262066A4268836926F002060D687A
:1059F000B8428C6803EA0C0323F0030344EA06046C
:105A000045EA030501D0704505D1CB6824F00804B0
:105A1000234323F00404B84201D0704505D122F499
:105A20004076D1E9053233431A43426085614968C3
:105A300041630462F0BD00008FFFFEFF00000140E3
:105A400000040140F0B5026A194E1A4C22F010020F
:105A5000DFF864E00262056A4368826925F0200588
:105A6000D1F808C0A0420F6802EA060222F4407290
:105A700045EA0C1542EA072201D0704506D1CE68EE
:105A800025F0800545EA061525F04005A04201D025
:105A9000704507D1D1E9054623F4406343EA840306
:105AA00043EA860343608261496881630562F0BD11
:105AB000FF8FFFFE0000014000040140F0B5026AC4
:105AC000194F1A4E22F48072DFF864E00262056A10
:105AD0004368C26925F40075D1F808C0B0420C686B
