:020000040800F2
:100000007871002011020008D56700089B4B00089A
:10001000E56300082511000867880008000000005B
:100020000000000000000000000000001D72000839
:100030001D12000800000000D96700087176000852
:100040002B0200082B0200082B0200082B020008DC
:100050002B0200082B0200082B0200082B020008CC
:100060002B0200082B0200082B0200082B020008BC
:100070002B0200082B0200082B0200082B020008AC
:100080002B0200082B0200082B0200082B0200089C
:100090002B0200082B0200082B0200082B0200088C
:1000A0002B0200082B0200082B0200082B0200087C
:1000B0007D770008B5770008D17700082B0200088B
:1000C0002B0200082B0200082B0200082B0200085C
:1000D000616F00082B0200082B0200082B020008A9
:1000E0002B0200082B0200082B0200082B0200083C
:1000F0002B0200082B0200082B0200082B0200082C
:100100002B0200082B0200082B0200082B0200081B
:100110002B0200082B0200082B0200082B0200080B
:100120002B0200082B0200082B0200082B020008FB
:100130002B0200082B0200082B0200082B020008EB
:100140002B0200082B0200082B0200082B020008DB
:100150002B0200082B0200082B0200082B020008CB
:100160002B0200082B0200082B0200082B020008BB
:100170002B0200082B0200082B02000800000000E0
:100180002B0200082B0200082B0200082B0200089B
:100190002B0200082B0200082B0200082B0200088B
:1001A0002B0200082B0200082B0200082B0200087B
:1001B0002B0200082B0200082B0200082B0200086B
:1001C0002B0200082B020008000000002B02000890
:1001D0002B0200082B0200082B0200082B0200084B
:1001E0002B0200082B0200082B0200082B0200083B
:1001F0002B0200082B020008DFF810D000F098FB5B
:1002000000480047B1B80008AFF3008078710020C3
:100210000648804706480047FEE7FEE7FEE7FEE7A0
:10022000FEE7FEE7FEE7FEE7FEE7FEE76977000888
:10023000F90100082DE9F05F0546002092469B4633
:1002400088460646814640241BE0284641464746EC
:10025000224600F062F953465A46C01A914110D323
:1002600011461846224600F049F92D1A67EB01089D
:100270004F4622460120002100F040F917EB00090B
:100280004E41201EA4F10104DFDC484631462A46D7
:100290004346BDE8F09F40EA01039B0703D009E015
:1002A00008C9121F08C0042AFAD203E011F8013B62
:1002B00000F8013B521EF9D27047D2B201E000F8BB
:1002C000012B491EFBD270470022F6E710B51346FA
:1002D0000A4604461946FFF7F0FF204610BD421CAF
:1002E00010F8011B0029FBD1801A704730B5044675
:1002F0000020034600E05B1C934203D2E05CCD5C2F
:10030000401BF8D030BD000070B50F4D00B9286813
:10031000002412E00A4602E09E4203D0521C1378E9
:10032000002BF9D1DAB2224305D02BB124B1002140
:1003300000F8011B04E00446401C0678002EE9D1B9
:100340002860204670BD0000CC0200200FB400B52C
:100350008DB010A909900B9000914FF0FF300A90DA
:1003600000200C9005480690054807906A4609A8A9
:100370000F9900F0F7F80DB05DF814FB8105000847
:100380009F0500082DE9FF5F1D464FF0FF3BD5E9B3
:10039000014691465F464FF00008A9697F1C01980D
:1003A0008847296A824688470028F6D1BAF1FF3F7C
:1003B0000CD024F4C064002E19DD600614D5BAF107
:1003C0002B0F09D0BAF12D0F0ED103E0584604B01F
:1003D000BDE8F09F44F48064A9697F1C01988847B8
:1003E000761E8246002E02DDBAF1300F03D0B9F13D
:1003F000000F26D032E0A969761E44F400747F1CF9
:10040000019888478246002E05DDBAF1780F06D0A4
:10041000BAF1580F03D0B9F1000F10D01EE0B9F1B6
:10042000000F02D0B9F1100F18D1A969761E24F47B
:1004300000747F1C019888478246102002E0082043
:1004400000E00A20814609E008FB0908A969761E38
:1004500044F400747F1C019888478246002E05DD15
:100460004946504600F069F80028EDDAE96901983C
:100470008847A00502D46FF00100A8E7E00725D166
:10048000600613D5600502D5C8F1000000E04046C3
:1004900029680A1D2A600968220501D5087015E03F
:1004A000220701D5088011E008600FE02868011DCF
:1004B00029600068210502D580F8008006E0210748
:1004C00002D5A0F8008001E0C0F8008038467EE741
:1004D00030B50B46014600202022012409E021FA14
:1004E00002F59D4205D303FA02F5491B04FA02F511
:1004F0002844151EA2F10102F1DC30BD202A04DBE4
:10050000203A00FA02F1002070479140C2F1200326
:1005100020FA03F3194390407047202A04DB203A65
:1005200021FA02F00021704721FA02F3D040C2F113
:10053000200291400843194670473A2800D23038CB
:1005400020F02002412A01D3A2F13700884201D3D2
:100550004FF0FF30704700000268114413780160CB
:1005600018467047D1600449516104491162002165
:100570001161114600F006BA590500087909000812
:10058000426842B1016811F8013B23B1521EC0E933
:100590000012184670470121C160881E70474268EA
:1005A0005AB1C368016843B983688B4205D0491EBC
:1005B000521CC0E90012002070474FF0FF30704716
:1005C0002DE9FE4F804681EA0300C00F0C460090E3
:1005D00021F0004123F00045B8EB0200A94105D20B
:1005E0004046214690461C460B46024623F00040FA
:1005F000104347D0270DC7F30A00C3F30A510290F6
:10060000401A019040286BDAC3F3130040F4801BBA
:100610000098924620B10023D2EB030A63EB0B0B48
:1006200001985946C0F140025046FFF767FF064661
:100630000D4650465946019A00F08CF910EB08001F
:100640006141002487EA115284EAE7731A4340D0DB
:10065000009A62B3019A012A4FEA075215DC001B87
:1006600061EB02014FF0004202EA0752CDE900427D
:10067000001C41F5801132462B4600F02AFB03B0E6
:10068000BDE8F08F40462146F9E7001B61EB02010F
:10069000001C41F5801300185B412018A2F50017DB
:1006A00047EB030140EAD570B6196D4111E06D08C2
:1006B0004FEA360645EAC0754FEA0752001B61EB68
:1006C0000201001C41F5801149084FEA3000001971
:1006D000514132462B4603B0BDE8F04F00F0EABA74
:1006E0000098012240000023D0EB020263EBE0738C
:1006F000009821464FEAE074B8EB000061EB04017A
:10070000E9E783F000435BE781F0004158E72DE91A
:10071000FE4F81EA030404F0004421F000410094FC
:100720004FF0000B23F0004350EA01045ED052EA80
:1007300003045BD0C3F30A54C1F30A552C44A4F25A
:10074000F3340194A0FB0254C1F3130141F480116E
:10075000C3F3130343F4801301FB024400FB034E75
:10076000840A970A44EA815447EA8357A4FB07683E
:1007700002958D0A05FB07854FEA932C04FB0C5468
:100780002705029D4FEA065847EA1637B5EB0805DC
:100790006EEB070C870E920E47EA811742EA83122E
:1007A000A7FB0201B6EB0B0164EB00042B0D43EA3F
:1007B0000C335E1844EB1C50DA465146E7FB02014D
:1007C000C5F313044FEA0B3343EA14534FEA0432E0
:1007D000019C43EA0603A4F10C040294009CCDE9B9
:1007E00000B400F076FA03B0BDE8F08F00200146B7
:1007F000F9E72DE9F04D81EA030404F0004B21F004
:10080000004514464FF0000A23F0004150EA05026B
:1008100020D054EA01021DD0C5F30A570246C5F3A1
:100820001303C1F31300C1F30A5640F4801543F4D7
:100830008013A7EB0608101BD64608F2FD3873EBB1
:10084000050002D308F1010801E092185B41B8F1FC
:10085000000F03DA00200146BDE8F08D00204FF4C0
:100860008011064684460EE0171B73EB050705D37F
:10087000121B63EB050306434CEA010C49084FEADF
:10088000300092185B4150EA0107EDD152EA0300B3
:1008900012D082EA040083EA0501084305D0101B48
:1008A000AB4106D20122002306E000224FF00043B4
:1008B00002E06FF0010253101AEB06004CEB0851F6
:1008C00010EB0A0041EB0B01BDE8F04D00F0F2B96E
:1008D000C1F30A52C1F3130140F2FF3341F4801116
:1008E0009A4202DA00200146704740F233439A42AE
:1008F000A2F2334202DC5242FFF70FBEFFF7FEBD09
:1009000030B5041E71F1000404DB4FF00044404296
:1009100064EB0101141E73F1000405DB1C464FF06B
:100920000043524263EB0403994208BF904230BD3A
:10093000064C074D06E0E06840F0010394E807002C
:1009400098471034AC42F6D3FFF75AFC20CA00088F
:1009500040CA0008202A06DBCB17203A41FA02F0F1
:1009600043EAE07306E041FA02F3D040C2F120020C
:100970009140084319467047C0B24FF4F05100F05F
:10098000F7B900002DE9F34F8BB04FF0000801F1EB
:100990000C000C464FF0010B46460DF1080A019081
:1009A0006269012101989047051E2DD0252D2CD07C
:1009B000216A8847C0B16269012101989047216A84
:1009C00088470028F7D1411E62690198904700E0EE
:1009D000761CA1690B988847216A88470028F7D1BF
:1009E000E1690B988847DBE7A1690B9888470746C0
:1009F000A84201D1761CD3E7E1690B9888477F1C98
:100A000002D1B8F1000F6FD047E1002762693D467F
:100A10003946019890472A2804D16269012101983A
:100A200090470125DFF8889262690121019890477B
:100A3000A0F130010A290AD24F45E5DC07EB870116
:100A400000EB4107303FDFD445F01005ECE7E90645
:100A500001D46FF000476C280AD04C2814D06828C5
:100A600015D06A280DD074281CD07A281AD01DE021
:100A700062690121019890476C2802D045F0040575
:100A800014E045F002050DE045F020050AE062693A
:100A9000012101989047682802D045F0080505E03B
:100AA00045F400656269012101989047C4E9015746
:100AB00065283DD019DC58287AD00CDC452837D081
:100AC00004DC252826D0412831D131E046282FD01A
:100AD00047282CD12CE05B2877D0612828D06328C8
:100AE0007CD0642823D15AE0D1E06F2848D008DCBC
:100AF00066281DD067281BD0692821D06E2816D102
:100B000027E0702845D0732868D0752847D078280A
:100B10000DD14DE0A1690B988847054625283FF483
:100B200069AFE1690B9888476D1C3FF46AAFB4E088
:100B300023466A466FF001000B99AFF300809FE0F7
:100B400045F040006060A80723464FF0000236D40D
:100B50003EE0E8077FF447AF2068011D2160006890
:100B6000290501D506701BE7290701D5068017E77F
:100B7000A90703D5F117C0E9006111E706600FE787
:100B800045F040006060A80723464FF0080216D4E5
:100B90001EE040F60E0125EA0100606016E045F017
:100BA00040006060A80723464FF00A0207D40FE018
:100BB00045F040006060A80708D5234610226FF07A
:100BC00001000B99AFF300805AE007E023461022A2
:100BD0006FF001000B99FFF7D5FB51E04FF00009D2
:100BE0004F464B46632802D05B2807D041E020796E
:100BF000C00601D40120A06001273AE0626901210A
:100C0000019890475E2805D14FF001096269494675
:100C100001989047216939B900210A46534643F8A3
:100C20002120491C0829FADBB0B3216969B9C11731
:100C300000EBD16253110AEB830122F01F02821AEA
:100C400001200B68904003430B6062690121019809
:100C500090475D28E8D1B9F1000F09D00020514636
:100C600051F82020D24341F82020401C0828F7DB0F
:100C700002AB224600976FF001000B99AFF30080A2
:100C800000280CDA401C08D1BBF1000F05D04FF052
:100C9000FF300DB0BDE8F08FFFE74046F9E7E90708
:100CA00001D108F1010806444FF0000B78E600007E
:100CB000CCCCCC0C10B5141E73F1000408DA401C27
:100CC00041F1000192185B411A4301D120F001006B
:100CD00010BD2DE9F04D92469B4611B1B1FA81F25B
:100CE00002E0B0FA80F220329046FFF707FC04469B
:100CF0000F4640EA0A0041EA0B0153465A460843B0
:100D000013D0114653EA010019D0C8F140025046F1
:100D1000FFF703FC05460E46504659464246FFF78C
:100D2000EDFB084305D0012004E020463946BDE82C
:100D3000F08D0020054346EAE0762C4337430A98BD
:100D40006305E40AA0EB08000022FD0A44EA4754C8
:100D50000A3002D500200146E9E701051019694172
:100D6000DDE9084500196941BDE8F04DA2E7000042
:100D70007F2801D9002208E0064A02EB5002C00792
:100D8000127800D1120902F00F02012090400840B1
:100D900070470000E0C9000870B58C1810F8015BBE
:100DA00015F0070301D110F8013B2A1106D110F804
:100DB000012B03E010F8016B01F8016B5B1EF9D108
:100DC0002B0705D40023521E0DD401F8013BFAE78E
:100DD00010F8013BCB1A921C03E013F8015B01F8F9
:100DE000015B521EF9D5A142D8D3002070BD00008E
:100DF00000B58DB00A48016801F59071094804F00A
:100E000045FE0748006890ED5A1BB0EE410B53ECCD
:100E1000102B05A1684607F029FD0DB000BD0000AC
:100E20000002002058040020256C66000EB5022048
:100E30000AF0C4FC18B923480068807868B32249D6
:100E4000096891F818010AF0B5FF2049C88804F034
:100E50001FFB1E48C0884FF6FF7306221E2100901C
:100E6000462000F023FB1948C0880421CDE900107A
:100E7000164843886422114615A004F0E3FA164987
:100E8000124880884FF6FF720323CDE900200291BB
:100E900012A2B4216A2000F0B5FA0BF027F9012163
:100EA0000D4808F099FC58B90020074909680874F2
:100EB00000F03AF803490968487808F0EDFB00BFF4
:100EC00000BF0EBD040200200002002068000020C8
:100ED000414C41524D0000009468002053544F5043
:100EE0000000000000B585B00B480068006A08B13A
:100EF00005B000BD012008490968086205F036FC0C
:100F000005F05EFC05A1684607F0B0FC68460AF0F3
:100F1000BFF800BFECE7000000020020616C6172C6
:100F20006D2E77617600000010B505F0F9FA00200B
:100F30000C49096808620C4809F008FA00200B49BE
:100F400008600B49086000BF07E00021094A22F849
:100F50001010094A22F81010401CB0F5805FF4DB35
:100F600010BD000000020020001800202C0000200E
:100F70003000002030480020302800207FB55D4838
:100F80000068807800283ED05B495CA000F03AFD04
:100F90005C49097809B95CA100E05DA10846564AA0
:100FA0001032012100F054FD5B4805885548007857
:100FB00028B95A480068007C08B957484589514803
:100FC000007810B15448C08901E05348408804219A
:100FD000CDE90115039051480068C06900904F4861
:100FE00000685F21D0E90523142000F065FB42482A
:100FF0000830009049480068027C02235F21E1200C
:1010000000F00CFC00BF0BF071F83E480078B0B166
:10101000434903C9CDE902014149083103C9CDE97A
:1010200000013548029981610399C161009901620B
:1010300001994162052108F0CFFB044604E0032139
:101040002D4808F0C9FB0446052C50D2DFE804F017
:10105000030A1A253A0000202A490870032008F0E4
:101060001BFB45E02D480068007C20B901202B497E
:101070000968087403E000202849096808740BF027
:1010800027F835E01F48007808B9012000E000206B
:101090001C4908700BF01CF82AE0204800684069E1
:1010A000401C1E49096848611C48006840691821B5
:1010B00090FBF1F201FB12001849096848610BF03E
:1010C00007F815E0154800688069401C1349096855
:1010D00088611248006880693C2190FBF1F201FBB5
:1010E00012010E48006881610AF0F2FF00E000BFC3
:1010F00000BF7FBD0402002094680020414C415293
:101100004D000000780000204544495400000000D4
:10111000444F4E45000000006800002000020020FF
:10112000A8C4000800BFFEE738B5224800688078F0
:1011300058B1214921A000F065FC1F4A1832A2F1E4
:101140000801A1F1080000F095F803200AF036FB31
:1011500018B918480068807848B11A48408800904B
:101160001848038805225A21282000F0CFF90AF0F8
:10117000BDFF0421104808F02FFB044634B1012CB8
:1011800008D0022C0AD0032C10D10BE0012008F06B
:1011900083FA0CE0042008F07FFA08E0062008F04B
:1011A0007BFA04E0052008F077FA00E000BF00BFFA
:1011B00038BD00000402002094680020434C4F43D7
:1011C0004B0000006800002070B505460C464FF447
:1011D000BC7208492846FFF75EF8074903C9C4E90D
:1011E0000001064805600648046000F02DF800F094
:1011F00017F870BD88000020800000200002002049
:101200000402002010B501221021034800F082FEE4
:10121000012000F057FD10BD0000024070470000A3
:1012200010B506A007F002F900BF064804F0DDFB88
:101230000128FAD009F0ECFE10BD0000494E4954D7
:10124000000000005804002010B504F039F90749E7
:10125000488804F01DF9012004F09CFA044909684B
:1012600091F818010AF0A6FD10BD000068000020EA
:10127000000200202DE9FE4304460D46164658485C
:1012800080884FF6FF71022356A2CDE90104009138
:10129000C8210A2000F0B6F854480068007C0128F4
:1012A00018D14F48808900906788B4F806C0674419
:1012B000BBB22788B4F804C067447F1FBAB26788FE
:1012C000B4F806C067447F1FB9B227887F1DB8B243
:1012D00003F080FF424880884FF6FF71CDE9010599
:1012E00000912188A288114488B2022340A2C8211B
:1012F00000F088F83D48006890F8240060B3384852
:1013000087893A48006890F82400022801D13448BF
:1013100007890097B5F802C0B5F80680C4441FFAE3
:101320008CF3B5F800C0B5F80480C444ACF1050CEA
:101330001FFA8CF2B5F802C0B5F80680C444ACF1CF
:10134000050C1FFA8CF1B5F800C00CF1050C1FFA62
:101350008CF003F03FFF00BF214880884FF6FF71FB
:10136000CDE9010600912988AA88114488B2022398
:1013700021A2C82100F046F81C48006890F834000B
:1013800060B3174887891948006890F8340002282C
:1013900001D1134807890097B6F802C0B6F8068055
:1013A000C4441FFA8CF3B6F800C0B6F80480C444F5
:1013B000ACF1050C1FFA8CF2B6F802C0B6F8068044
:1013C000C444ACF1050C1FFA8CF1B6F800C00CF166
:1013D000050C1FFA8CF003F0FDFE00BFBDE8FE8394
:1013E00068000020416C61726D0000000002002066
:1013F00054696D657200000053746F707761746397
:10140000680000002DE9F04F85B006460D461746EE
:101410001C46DDF83C803846FEF761FF049004EB83
:10142000440041000498801C41431FFA81F94FEAAF
:10143000041A05EB0A0083B206EB090082B22946C2
:101440003046CDF8008003F0C5FEE00000EE100A43
:10145000B8EEC00BB0EE002B80EE021B00EE105A6F
:10146000B8EE400B31EE000BBCEEC00B10EE100AD4
:101470001FFA80FB062000FB046081B2CDE9004822
:101480005A4638460E9B03F0DDFFADF80860ADF814
:101490000A50ADF80C90ADF80EA0029910980160BA
:1014A0000399416005B0BDE8F08F00002DE9FF41D0
:1014B00006460F4614461D46DDF828800F48006892
:1014C00000790F4908700D480068007A0D490870CE
:1014D0000A480068007B0C4908700848CDE90258AA
:1014E00001940068C0680090044800683946D0E95B
:1014F0000123304600F0E0F8BDE8FF810002002043
:1015000058000020590000205A0000202DE9FF411A
:1015100006460F4614461D46DDF828800F48006831
:1015200000790F4908700D480068007A0D4908706D
:101530000A480068007B0C4908700848CDE9025849
:1015400001940068C0680090044800683946D0E9FA
:101550000123304600F0D2F8BDE8FF8100020020F0
:1015600058000020590000205A00002000B593B018
:1015700045A10DA807F07AF94948006890F84400A1
:1015800001283CD146480068D0F810014549096857
:10159000884203D144480068807880B300214348E2
:1015A000808914231A46CDE900010A21084600F07B
:1015B00087FA3E4840880221CDE900103B48038865
:1015C0000C222D210DA803F03DFF3548026845325D
:1015D00037A103A807F04AF9344840880221CDE931
:1015E0000010324803880C222D2103A803F02AFFA3
:1015F0002B480068D0F810012A49086000BF28482D
:10160000006890F8440028B12548006890F844002C
:10161000022836D123480068401C18B922480068C7
:10162000807870B300212148408814231A46CDE900
:1016300000010A21084600F043FA1C4840880221B4
:10164000CDE90010194803880C222D210DA803F0C4
:10165000F9FE13480268453215A103A807F006F900
:10166000124840880221CDE90010104843880C221E
:101670002D2103A803F0E6FE4FF0FF300949086072
:1016800000BF13B000BD000020202020202020201B
:1016900020202020202020202020202020000000AA
:1016A00000020020600000200402002068000020EA
:1016B000252E3231730000000FB42DE9F04186B0C1
:1016C00004460D46DDE91278119E09A103A8DDE963
:1016D0000E2307F0CBF83B462A46214603A8CDE966
:1016E000006803F0AFFE06B0BDE8F0015DF814FB42
:1016F000252E32643A252E32640000000FB42DE905
:10170000F04186B004460D46DDE91278119E10982E
:10171000009009A103A8DDE90E2307F0A7F83B46D6
:101720002A46214603A8CDE9006803F08BFE06B0E7
:10173000BDE8F0015DF814FB252E32643A252E3207
:10174000643A252E326400002DE9FC4104460E4621
:1017500015461F461E231A4631462046CDE900573E
:1017600000F0AEF906F11E018BB204F121018AB23C
:10177000C91E88B23146009503F02CFDBDE8FC81FE
:101780002DE9FE4F04460D4616461F46DDE90D9A2B
:10179000DDF83080E81983B204EB080082B22946F4
:1017A0002046CDF8009003F015FDE9198BB2A11980
:1017B0008AB2A119A1EB080188B22946CDF80090A0
:1017C00003F008FDADF80440ADF80650ADF8086030
:1017D000ADF80A700198CAF800000298CAF804002F
:1017E000BDE8FE8F2DE9FC4104460E4615461F4616
:1017F000E11C88B21E231A463146CDE9005700F09D
:10180000C4F906F11E0083B2E01C82B231462046C4
:10181000009503F0DFFCBDE8FC8100002DE9F04FEE
:1018200087B006460C4690461D46DDF840A005EB05
:1018300045004000C0EBC0074FEA0519B8F1000FA2
:1018400002D16B48408901E069488089009004EB2F
:10185000090083B2F01982B22146304603F0BAFC87
:10186000B8F1000F53D163A263A105A806F0FEFFF3
:10187000E80000EE100AB8EEC00BB0EE002B80EED0
:10188000021B00EE104AB8EE400B31EE000BBCEE2E
:10189000C00B10EE100A1FFA80FB55484089CDE9B5
:1018A0000050534843885A46314605A803F0CAFD04
:1018B0004FF6FF700090E80000EE100AB8EEC01B73
:1018C00000EE104AB8EE400BB7EE0C2B01EE020B07
:1018D000BCEEC00B10EE100A83B205EB450006EB20
:1018E0008002E80000EE100AB8EEC01B00EE104ABD
:1018F000B8EE400BB5EE002B01EE020BBCEEC00BB8
:1019000010EE100A81B2701D03F064FC5EE03CA191
:1019100005A806F0ABFFE80000EE100AB8EEC00B19
:10192000B0EE002B80EE021B00EE104AB8EE400B2A
:1019300031EE000BBCEEC00B10EE100A1FFA80FB5C
:101940002B488089CDE90050294843885A463146C2
:1019500005A803F077FD4FF6FF7006EB070B05EBCC
:10196000450CABEB8C0C00901FFA8CF04FEAC50CC9
:1019700000EE10CAB8EEC01B00EE104AB8EE400BE5
:10198000B7EE0C2B01EE020BBCEEC00B10EE10CA32
:101990001FFA8CF306EB070CACF1050C1FFA8CF266
:1019A0004FEAC50C00EE10CAB8EEC01B00EE104A9C
:1019B000B8EE400BB5EE002B01EE020BBCEEC00BF7
:1019C00010EE10CA1FFA8CF103F004FCADF80C60A5
:1019D000ADF80E40ADF81070ADF812900398CAF84B
:1019E00000000498CAF8040007B0BDE8F08F0000BA
:1019F000680000204F464600253673200000000096
:101A0000204F4E0030B58DB004460D4600200E2309
:101A10001A460B21CDE900050A2000F0B6F822464F
:101A200008A103A806F022FF084840880221CDE95A
:101A30000010064803880A22232103A803F002FDB0
:101A40000DB030BD252E323173000000680000203B
:101A50002DE9FF4106460C4615463046FEF73FFC91
:101A6000C0F11A0000EB40008004070C12484088C7
:101A70000221CDE9001014B10F48808801E00E4822
:101A8000408903460A223946304603F0DBFC0B4905
:101A900003C9CDE902013046FEF721FCC0F11A006E
:101AA00000EB40008004000CADF8080002982860AC
:101AB00003986860BDE8FF8168000020A0C40008AA
:101AC0002DE9F04F2DED028B83B005460E461746EB
:101AD0001C46DDF83CB0A84641E0B1463AE0A8EB30
:101AE000050008EE100AA9EB060A780000EE100ABD
:101AF000F8EEC00A00EE104AB8EE401A81EE200A55
:101B0000F8EEC80A20EE200ABDEEC00A10EE100A58
:101B100050451DDC780000EE100AF8EEC00A604265
:101B200000EE100AB8EEC01A81EE200AF8EEC80ADC
:101B300020EE200ABDEEC00A10EE100A20445045E7
:101B400006DB1FFA89F11FFA88F00E9A03F086FB74
:101B500009F1010930194845C1DA08F10108E8190D
:101B60004045BADAADF80450ADF80660ADF808703B
:101B7000ADF80A400198CBF800000298CBF80400B9
:101B800003B0BDEC028BBDE8F08F2DE9F04F2DEDD9
:101B9000028B83B005460E4617461C46DDF83CB066
:101BA000A8464EE0B14647E0A8EB050008EE100A53
:101BB000A9EB060A7A0000EE102AB8EEC01A6242BB
:101BC00000EE102AB8EEC00AC0EE010A04EBD4728F
:101BD000521000EE102AB8EEC00AB8EEC81A00EE95
:101BE000810ABDEEC00A10EE102A524522DC7A00AE
:101BF00000EE102AB8EEC01A00EE104AB8EE400A05
:101C0000C0EE010A04EBD472521000EE102AB8EEB6
:101C1000C00AB8EEC81A00EE810ABDEEC00A10EE86
:101C2000102A524506DB1FFA89F11FFA88F00E9A36
:101C300003F014FB09F1010930194845B4DA08F141
:101C40000108E8194045ADDAADF80450ADF806607A
:101C5000ADF80870ADF80A400198CBF80000029882
:101C6000CBF8040003B0BDEC028BBDE8F08F72B678
:101C700000BFFEE7002200F001B8000084464DF8E6
:101C8000044D01200E4B5C7A002C16D1587A1C545E
:101C9000587A03EB8000C0F804C0587A03F1080CAE
:101CA00000F80C20587A421C5A72303008703A20E2
:101CB00048702F208870CC7000205DF8044B70476E
:101CC0006C6B002070B5044600F02AF906462546E4
:101CD000681C10B104480078054400BF00F020F9EA
:101CE000801BA842FAD370BD20000020F8B5024640
:101CF0000B46002100250024002000BFE4E001265F
:101D000006FA01F51E6806EA0504AC4271D15E6868
:101D1000012E08D05E68022E05D05E68112E02D01A
:101D20005E68122E13D190684F000326BE40B04368
:101D30004F00DE68BE4030439060506801268E4000
:101D4000B0431E79C6F300168E4030435060D06811
:101D50004F000326BE40B0434F009E68BE40304354
:101D6000D0605E68022E02D05E68122E13D1CF08BA
:101D700002F1200656F827004E07F70E0F26BE4048
:101D8000B0434F07FF0E1E69BE403043CF0802F13B
:101D9000200646F8270010684F000326BE40B043D7
:101DA0001E7906F003064F00BE40304310605E68A7
:101DB00006F08056B6F1805FA8D100BF444E366869
:101DC00046F48046424F3E603E46366806F4804602
:101DD000009600BF00BF3F4E8F0856F827008E07C1
:101DE000370F0F26BE40B0433B4EB24202D1002611
:101DF0002EE068E0394EB24201D1012628E0384E8B
:101E0000B24201D1022623E0364EB24201D103266E
:101E10001EE0354EB24201D1042619E0334EB242E3
:101E200001D1052614E0324EB24201D106260FE060
:101E3000304EB24201D107260AE02F4EB24201D104
:101E4000082605E02D4EB24201D1092600E00A26FF
:101E50008F073F0FBE4030431E4E8F0846F82700C5
:101E6000274E3068A0435E6806F48036B6F5803FA2
:101E700000D12043224E3060361D3068A0435E689A
:101E800006F40036B6F5003F00D120431C4E361D47
:101E90003060361D3068A0435E6806F48016B6F5E3
:101EA000801F00D12043164E08363060361D306842
:101EB000A0435E6806F40016B6F5001F00D120436B
:101EC0000F4E0C363060491C1029FFF418AFF8BDD6
:101ED000443802400838014000000240000402403B
:101EE00000080240000C02400010024000140240B2
:101EF00000180240001C0240002002400024024062
:101F0000003C0140024613690B400BB1012000E088
:101F1000002070470AB1816101E00B0483617047C2
:101F2000014800687047000018000020024692F83F
:101F3000410020282DD100BF92F84000012801D196
:101F400002207047012082F8400000BF242082F860
:101F500041001068006820F00100136818601068E4
:101F6000006820F480501368186010680068084307
:101F7000136818601068006840F00100136818606A
:101F8000202082F8410000BF002082F8400000BFFE
:101F9000D7E70220D5E710B502460B4692F841007C
:101FA00020282AD100BF92F84000012801D1022048
:101FB00010BD012082F8400000BF242082F84100BB
:101FC0001068006820F00100146820601068016843
:101FD00021F4706141EA0321106801601068006813
:101FE00040F0010014682060202082F8410000BF0A
:101FF000002082F8400000BFDAE70220D8E70000A6
:1020000010B504460CB9012010BD94F8410028B960
:10201000002084F84000204600F0F0F9242084F8E5
:1020200041002068006820F00100216808606068B5
:1020300020F07060216808612068806820F400400A
:1020400021688860E068012805D1A06840F400405C
:102050002168886004E0A06840F40440216888603A
:10206000E068022802D18002216848602068406848
:1020700013490843216848602068C06820F4004084
:102080002168C860D4E904010843A16940EA01203D
:102090002168C860D4E90701084321680860206806
:1020A000006840F001002168086000206064202082
:1020B00084F841000020206384F8420000BFA3E7B9
:1020C000008000022DE9FC5F0446894692469B464B
:1020D000DDE90C780E9E94F8410020287ED117B1DE
:1020E000B8F1000F05D14FF4007060640120BDE825
:1020F000FC9F00BF94F84000012801D10220F6E7C0
:10210000012084F8400000BFFFF70AFF05461923AD
:102110000122D1032046009502F0B4FE08B101204F
:10212000E5E7222084F84100402084F842000020A6
:1021300060646762A4F82A8060635B465246494641
:102140002046CDE9006502F007FE30B100BF002057
:1021500084F8400000BF0120C9E7608DFF280CD93A
:10216000FF2020853D48009094F828204FF0807390
:102170004946204602F06CFE0BE0608D2085374812
:10218000009094F828204FF000734946204602F052
:102190005FFE00BF3346002204212046009502F076
:1021A00071FE08B10120A2E72068406A616A0870E8
:1021B000606A401C6062208D401E2085608D401E3C
:1021C0006085608D48B3208D38BB33460022802166
:1021D0002046009502F056FE18B100E03CE00120D8
:1021E00085E7608DFF280CD9FF2020850020009016
:1021F00094F828204FF080734946204602F028FECC
:102200000BE0608D20850020009094F828204FF08E
:1022100000734946204602F01BFE608D0028B9D1AC
:102220002A463146204602F05CFE08B101205EE7F6
:1022300020202168C8612068406809490840216859
:102240004860202084F84100002084F8420000BF4C
:1022500084F8400000BF4AE7022048E700240080DD
:1022600000E800FE2DE9FC5F0446894692469B4645
:10227000DDE90C780E9E94F8410020287DD117B13D
:10228000B8F1000F05D14FF4007060640120BDE883
:10229000FC9F00BF94F84000012801D10220F6E71E
:1022A000012084F8400000BFFFF73AFE05461923DD
:1022B0000122D1032046009502F0E4FD08B101207F
:1022C000E5E7212084F84100402084F84200002006
:1022D00060646762A4F82A8060635B4652464946A0
:1022E0002046CDE9006502F075FD30B100BF002049
:1022F00084F8400000BF0120C9E7608DFF280CD999
:10230000FF2020850020009094F828204FF0807353
:102310004946204602F09CFD0BE0608D20850020A0
:10232000009094F828204FF000734946204602F0B0
:102330008FFD00BF2A463146204602F0FDFD08B160
:102340000120A4E7606A007821688862606A401C06
:102350006062608D401E6085208D401E2085608DEE
:1023600040B3208D30BB33460022802120460095AB
:1023700002F088FD10B1012089E73AE0608DFF2866
:102380000CD9FF2020850020009094F828204FF0E1
:1023900080734946204602F05BFD0BE0608D20858E
:1023A0000020009094F828204FF000734946204602
:1023B00002F04EFD608D0028BCD12A4631462046F1
:1023C00002F08FFD08B1012061E720202168C8617B
:1023D000206840680849084021684860202084F847
:1023E0004100002084F8420000BF84F8400000BF94
:1023F0004DE702204BE7000000E800FE10B586B074
:102400000446142101A8FDF75FFF1949206888429E
:102410002CD100BF1748006840F002001549086041
:102420000846006800F00200009000BF00BF4FF4B3
:10243000407001901220029001200390032004902C
:102440000420059001A90C48FFF750FC00BF094883
:102450001030006840F4001006491031086008464A
:10246000006800F40010009000BF00BF06B010BD6F
:10247000005400403038024000040240704770B5FC
:1024800004462068466820688568C5F3801048B90E
:1024900005F0010030B1C6F3801018B1204602F0FB
:1024A000B1FD70BDC5F3400030B1C6F3C01018B126
:1024B000204602F0C2FDF4E7C6F34010F8B1C5F3C0
:1024C000801048B12068406820F0600021684860B2
:1024D000E06B40F00200E063C5F3C00048B1206843
:1024E000406820F0A00021684860E06B40F00400E4
:1024F000E063012084F839002046FFF7BFFF00BFEA
:10250000CFE700002DE9F047044614B90120BDE8EB
:10251000F08794F8390028B9002084F83800204664
:1025200000F090F8022084F839002068C06940F675
:10253000BF7188432168C861022021680862606910
:10254000022842D0E06808B9102500E02025A068E4
:10255000202800D86D00E069012801D1384F03E040
:10256000204602F017FD07462069B0F5007F17D11D
:10257000E06850B1A800B7FBF0F000EB800041002C
:102580006069B1FBF0F0461D13E0E800B7FBF0F026
:1025900000EB800041006069B1FBF0F0461D08E0EF
:1025A000B7FBF5F000EB800041006069B1FBF0F093
:1025B000461D0A20B6FBF0F606F00109A6EB09005D
:1025C0004FEA50084FEA092903E04FF002084FF0A4
:1025D0000009B8F1020F02D3B8F1FF0F05D9E06B83
:1025E00040F01000E063012091E7206940EA090013
:1025F00040EA080021680862606840F40060A16851
:102600000843E1680843A16908432168C96940F6A5
:10261000BF72914308432168C861A068302802D086
:10262000A068B02805D12068C06940F480502168B6
:10263000C8610020E063012084F83900002066E7CB
:102640000080BB0010B586B00446142101A8FDF738
:102650003BFE2A49206888424DD100BF28480068C7
:1026600040F48040264908600846006800F4804035
:10267000009000BF00BF00BF21481038006840F044
:1026800004001F49103908600846006800F0040083
:10269000009000BF00BF00BF0846006840F0020085
:1026A00008600846006800F00200009000BF00BF0C
:1026B0000820019002200290002003900490052041
:1026C000059001A90F48FFF711FB4FF4A0500190AE
:1026D000022002900020039004900520059001A99B
:1026E0000948FFF703FB00221146242000F0F4F80C
:1026F000242000F0E1F806B010BD000000380040D2
:10270000403802400008024000040240704730B5E3
:10271000034601B10AB9012030BD00BF93F838006B
:10272000012801D10220F7E7012083F8380000BF1B
:1027300093F83900012806D000BF002083F8380044
:1027400000BF0220E8E7032083F839000020D863A7
:1027500019621868C06900F00704032C01D0052C29
:102760000AD14FF6FF7000EA420098844FF6FF70DE
:1027700000EA4200D88401E09A84DA84186840684C
:1027800040F0A0001D6868601868C06900F48060AF
:10279000B0F5806F05D01868C06940F480601D688E
:1027A000E86100BF002083F8380000BF00BFB3E736
:1027B00070B506460C48007800B170BD0B4805683E
:1027C0000B48006809490860094805604FF48054C7
:1027D0002246084601680748FFF799FF012006498D
:1027E000087000BFE9E70000290000202C0000204D
:1027F00030000020A40400202A00002003480068C4
:10280000034909780844014908607047180000200E
:102810002000002010B5032000F09CF8002000F0FC
:1028200005F800F029F8002010BD000070B504463E
:102830000E4800784FF47A71B1FBF0F00C4909684A
:10284000B1FBF0F5284601F000FC08B1012070BD95
:10285000102C07D200222146501E00F03DF80548FA
:10286000046001E00120F2E70020F0E720000020F2
:10287000240000201C00002008B500BF0D4800689F
:1028800040F080500B4908600846006800F0805016
:10289000009000BF00BF00BF081D006840F48040EA
:1028A000091D08600846006800F48040009000BFE1
:1028B00000BF08BD4038024001460846002809DB39
:1028C00000F01F0301229A4043099B0003F1E0231B
:1028D000C3F8002100BF70472DE9F05F80460D4628
:1028E0001646002705F0EEFF074639462A463346CE
:1028F00001F00700C0F1070ABAF1040F02D94FF046
:10290000040A01E0C0F1070AD14600F1040ABAF155
:10291000070F02D24FF0000A01E0A0F1030AD446EB
:102920004FF0010A0AFA09FAAAF1010A0AEA020AB0
:102930000AFA0CFA4FF0010B0BFA0CFBABF1010B8E
:102940000BEA030B4AEA0B042146404605F0C2FF9E
:10295000BDE8F09F00BF00F00702064B19684FF674
:10296000FF031940044B0B4343EA0221014B19605A
:1029700000BF70470CED00E00000FA0538B50024F8
:1029800000BF2048006840F080501E49086008469B
:10299000006800F08050009000BF00BF1A48006837
:1029A00040F4803018490860FFF7BAFA044607E09F
:1029B000FFF7B6FA001BB0F57A7F01D9032038BDC6
:1029C0001148406800F48030B0F5803FF0D10E48E7
:1029D000006840F400300C490860FFF7A1FA044693
:1029E00007E0FFF79DFA001BB0F57A7F01D90320BD
:1029F000E5E70548406800F40030B0F5003FF0D14D
:102A00000020DCE7403802400070004003480068C6
:102A100040F4807001490860704700000070004079
:102A20002DE9F8430446002600250027A846A946BC
:102A3000207800F0010088B100BFFE48006820F453
:102A40000000FC49086008460068616B0843F949CA
:102A5000086000BF606B08B94FF00108206800F4FF
:102A60000020B0F5002F13D1F2488430006820F424
:102A70004010E16B0843EF4984310860E06BB0F52A
:102A8000801F01D14FF00108E06B08B94FF0010938
:102A9000206800F48010B0F5801F13D1E548843021
:102AA000006820F44000216C0843E249843108604A
:102AB000206CB0F5800F01D14FF00108206C08B9EF
:102AC0004FF00109206800F08070B0F1807F01D1E3
:102AD0004FF00108207800F02000202870D100BFBE
:102AE000D4483830006840F08050D249383108600E
:102AF0000846006800F08050009000BF00BFCE483C
:102B0000006840F48070CC490860FFF709FA064677
:102B100007E0FFF705FA801B642802D90320BDE80F
:102B2000F883C548006800F480700028F1D0C148DF
:102B30006830006800F4407585B3208E00F4407062
:102B4000A8422BD0BB486830006820F44075B948D3
:102B50006830006840F48030B64968310860084643
:102B6000006820F48030086008460560006800F0C6
:102B7000010098B1FFF7D4F9064608E0FFF7D0F955
:102B8000801B41F28831884201D90320C7E7A94858
:102B900068300068C0F340000028EFD000BF208EEE
:102BA00000F44070B0F5407F0BD1A248006820F4DB
:102BB000F810A24A216B114008439E49086006E0C4
:102BC00010E09C48006820F4F8109A490860994881
:102BD00068300068218EC1F30B01084395496831C4
:102BE000086000BF207800F01000102810D100BF4E
:102BF00090488430006820F080708E4984310860ED
:102C000008460068A16B08438A498431086000BF08
:102C1000208800F48040B0F5804F09D18548883085
:102C2000006820F44030616E0843824988310860B2
:102C3000208800F40040B0F5004F09D17D4888306D
:102C4000006820F44020A16E08437A49883108606A
:102C5000206800F48030B0F5803F09D17548883095
:102C6000006820F44010E16E084372498831086022
:102C7000206800F40030B0F5003F09D16D4888307D
:102C8000006820F44000216F08436A4988310860D9
:102C9000207800F04000402809D16648883000685C
:102CA00020F00300616C0843624988310860207895
:102CB00000F08000802809D15E488830006820F04C
:102CC0000C00A16C08435B4988310860208800F43F
:102CD0008070B0F5807F09D156488830006820F0B8
:102CE0003000E16C0843534988310860208800F4C3
:102CF0000070B0F5007F09D14E488830006820F0A0
:102D0000C000216D08434B4988310860208800F4D9
:102D10008060B0F5806F09D146488830006820F4A3
:102D20004070616D0843434988310860208800F491
:102D30000060B0F5006F09D13E488830006820F48B
:102D40004060A16D08433B4988310860208800F449
:102D50008050B0F5805F09D136488830006820F493
:102D60004050E16D0843334988310860208800F401
:102D70000050B0F5005F09D12E488830006820F47B
:102D80004040216E08432B4988310860206800F4D8
:102D90008000B0F5800F09D126488830006820F007
:102DA0008060A16F0843234988310860206800F4DF
:102DB0000010B0F5001F0FD11E488830006820F0C9
:102DC0000060E16F08431B4988310860E06FB0F193
:102DD000006F01D14FF00109207800F008000828A9
:102DE00001D14FF00109206800F48020B0F5802F58
:102DF00009D110488830006820F04070616F0843A6
:102E00000C4988310860206800F40000B0F5000F1C
:102E10000AD108488830006820F08050D4F880102B
:102E20000843044988310860206800F08060B0F1F0
:102E3000806F05E00838024000700040FFFCFF0F83
:102E400008D1CD48006820F00050D4F88410084321
:102E5000C9490860206800F00060B0F1006F0AD135
:102E6000C548001F006820F00070D4F8881008439F
:102E7000C149091F0860206800F08050B0F1805FF0
:102E80000AD1BD48001F006820F08060D4F88C1083
:102E90000843B949091F0860B8F1010F05D020683F
:102EA00000F00070B0F1007F7ED1B3489038006828
:102EB00020F08060B04990390860FFF731F806468D
:102EC00006E0FFF72DF8801B642801D9032026E6D1
:102ED000A94890380068C0F3C0600028F1D120787C
:102EE00000F00100B8B1606BA8B9A3480C380068C5
:102EF000C0F30145A0480C380068C0F30367606860
:102F0000800140EA054040EA0761207A41EA00700A
:102F100099490C390860206800F40020B0F5002FB2
:102F200003D1E06BB0F5801F09D0206800F4801059
:102F3000B0F5801F24D1206CB0F5800F20D18E48D1
:102F40000C380068C0F301458B480C380068C0F3AA
:102F500002776068800140EA0541207B41EA006019
:102F600040EA077084490C3908608348001F0068F4
:102F700020F01F00616A491E08437F49091F08604D
:102F8000206800F08070B0F1807F17D17A480C384B
:102F90000068C0F3036578480C380068C0F3027716
:102FA00060688101208A00E036E041EA004040EAA2
:102FB000056040EA077070490C390860206800F02D
:102FC0000070B0F1007F0DD160688101208A41EA74
:102FD0000041207B41EA0061207A41EA00706649A5
:102FE0000C39086064489038006840F0806062499D
:102FF00090390860FEF794FF064606E0FEF790FF62
:10300000801B642801D9032089E55B48903800685B
:10301000C0F3C0600028F1D0B9F1010F7ED156484D
:103020009038006820F08050534990390860FEF7CE
:1030300077FF064606E0FEF773FF801B642801D980
:1030400003206CE54C4890380068C0F340700028BD
:10305000F1D1206800F40020B0F5002F01D1E06B21
:1030600038B1206800F48010B0F5801F22D1206CA8
:1030700000BB414808380068C0F301453E480838A5
:103080000068C0F302776069800140EA0541207E54
:1030900041EA006040EA0770374908390860081DB6
:1030A000006820F4F851A06A401E41EA002032492D
:1030B000091F0860206800F40010B0F5001F19D146
:1030C000E06FB0F1006F15D12B4808380068C0F3ED
:1030D0000365294808380068C0F3027760698101F8
:1030E000208C41EA004040EA056040EA077022492E
:1030F00008390860207800F00800082820D11E4810
:1031000008380068C0F303651B4808380068C0F33E
:1031100001476069800140EA074000E02AE040EA98
:103120000561207F41EA0070134908390860081DD5
:10313000006820F44030E16A08430F49091F086025
:103140000D489038006840F080500B499039086075
:10315000FEF7E6FE064606E0FEF7E2FE801B642868
:1031600001D90320DBE4044890380068C0F34070C4
:103170000028F1D00020D2E49038024070B5044617
:103180000D4600260CB9012070BD5C48006800F0B7
:103190000F00A8420ED25948006820F00F002843C3
:1031A000564908600846006800F00F00A84201D0A8
:1031B0000120E9E7207800F0020002281DD12078E4
:1031C00000F00400042805D14D48006840F4E050A8
:1031D0004B490860207800F00800082805D14848CD
:1031E000006840F46040464908604548006820F0A7
:1031F000F000A168084342490860207800F001000F
:1032000090B36068012807D13D4808380068C0F3D2
:103210004040A0B90120B7E76068022807D13848CC
:1032200008380068C0F3406048B90120ACE7344872
:1032300008380068C0F3400008B90120A4E730480E
:10324000006820F00300616808432D490860FEF71C
:1032500067FE064609E0FEF763FE801B41F28831F7
:10326000884202D903208FE707E02548006800F074
:103270000C006168B0EB810FEDD12048006800F0D0
:103280000F00A8420ED91D48006820F00F00284307
:103290001A4908600846006800F00F00A84201D0F3
:1032A000012071E7207800F00400042807D11448B9
:1032B000006820F4E050E168084311490860207874
:1032C00000F00800082808D10D48006820F460408C
:1032D000216940EAC1000A49086000F03FF8084946
:1032E0000968C1F30311074A515CC84006490860E8
:1032F00006480068FFF79AFA002045E7003C0240C4
:103300000838024084C40008240000201C0000206B
:1033100001480068704700002400002000B5FFF756
:10332000F7FF04490968C1F38221034A515CC84090
:1033300000BD00000838024094C4000800B5FFF743
:10334000E7FF04490968C1F34231034A515CC840B0
:1033500000BD00000838024094C400082DE9F04781
:10336000002400250026A1462548006800F00C0036
:1033700020B1042805D008283AD105E0DFF8849070
:1033800039E0DFF8849036E01D48001F006800F047
:103390003F041B48001F006800F4800078B11A4801
:1033A0001749091F0968C1F38811A0FB0170014684
:1033B000224600233846FCF73DFF05460EE0114843
:1033C0000F49091F0968C1F38811A0FB017001466C
:1033D000224600233846FCF72DFF05460848001F0B
:1033E0000068C0F30140401C4600B5FBF6F902E05E
:1033F000DFF8109000BF00BF4846BDE8F08700002E
:10340000083802400024F40000127A00F8B504469F
:1034100000270CB90120F8BD207800F00100002839
:1034200071D0F948006800F00C0004280DD0F6486F
:10343000006800F00C00082813D1F348001F006852
:1034400000F48000B0F5800F0BD1EF480838006819
:10345000C0F34040002869D06068002866D1012090
:10346000D9E700BF6068B0F5803F08D1E64808386A
:10347000006840F48030E449083908602EE0606854
:1034800068B9E1480838006820F48030DE4908391E
:1034900008600846006820F4802008601EE060682C
:1034A000B0F5A02F0DD1D8480838006840F480202E
:1034B000D549083908600846006840F48030086043
:1034C0000CE0D1480838006820F48030CE49083933
:1034D00008600846006820F48020086000BF60682B
:1034E00090B1FEF71DFD054606E0FEF719FD401BF5
:1034F000642801D903208EE7C34808380068C0F368
:1035000040400028F1D011E0FEF70AFD054606E034
:10351000FEF706FD401B642801D903207BE7BA486B
:1035200008380068C0F340400028F1D1207800F04E
:103530000200022869D1B448006800F00C0058B1BC
:10354000B148006800F00C0008281CD1AE48001FEC
:10355000006800F48000B0B9AB4808380068C0F3D8
:10356000400020B1E068012801D0012053E7A648BF
:103570000838006820F0F800216940EAC100A2493B
:103580000839086041E0E06828B39F4808380068BF
:1035900040F001009C4908390860FEF7C1FC05466F
:1035A00006E0FEF7BDFC401B022801D9032032E7EC
:1035B000954808380068C0F340000028F1D09248D0
:1035C0000838006820F0F800216940EAC1008E49FF
:1035D0000839086019E08C480838006820F00100BC
:1035E000894908390860FEF79BFC054606E0FEF7AE
:1035F00097FC401B022801D903200CE782480838B9
:103600000068C0F340000028F1D1207800F00800E5
:10361000082836D16069D0B17B486C30006840F032
:10362000010079496C310860FEF77AFC054606E036
:10363000FEF776FC401B022801D90320EBE6724816
:103640006C300068C0F340000028F1D019E06E48EB
:103650006C30006820F001006B496C310860FEF7A7
:103660005FFC054606E0FEF75BFC401B022801D923
:103670000320D0E664486C300068C0F340000028A6
:10368000F1D1207800F00400042874D15E4838306D
:10369000006800F0805080B900BF5B483830006897
:1036A00040F080505849383108600846006800F002
:1036B0008050009000BF00BF01275448006800F40C
:1036C0008070B0B95148006840F480704F4908607C
:1036D000FEF726FC054606E0FEF722FC401B6428A8
:1036E00001D9032097E64948006800F4807000285B
:1036F000F2D000BFA068012808D1434868300068B4
:1037000040F001004049683108602DE0A06868B9C8
:103710003D486830006820F001003B49683108608E
:103720000846006820F0040008601DE0A068052835
:103730000DD135486830006840F0040032496831E6
:1037400008600846006840F0010008600CE02E4860
:103750006830006820F001002B4968310860084695
:10376000006820F00400086000BFA068A8B1FEF760
:10377000D7FB054609E02EE0FEF7D2FB401B41F2E5
:103780008831884201D9032045E61F486830006827
:10379000C0F340000028EFD013E0FEF7C1FB054660
:1037A00008E0FEF7BDFB401B41F28831884201D999
:1037B000032030E6144868300068C0F34000002859
:1037C000EFD1012F07D110483830006820F0805029
:1037D0000D4938310860A069002854D00A480068B3
:1037E00000F00C00082867D0A06902284CD10648D8
:1037F0000838006820F08070034908390860FEF737
:103800008FFB05460BE000000838024000700040C6
:10381000FEF786FB401B022801D90320FBE53F4849
:103820000068C0F340600028F2D1D4E907010843E2
:10383000616A40EA81110122A06AC2EB500041EAAC
:1038400000412C20005D41EA00613020005D41EA2A
:1038500000703249091D0860081F006840F0807040
:10386000091F0860FEF75CFB054606E0FEF758FB03
:10387000401B022801D90320CDE528480068C0F389
:1038800040600028F2D047E02448006820F08070B3
:1038900022490860FEF744FB054606E0FEF740FBC0
:1038A000401B022801D90320B5E51C480068C0F37D
:1038B00040600028F2D12FE01848001D0668A0697A
:1038C000012827D006F48001E069814222D106F068
:1038D0003F01206A81421DD147F6C0703040616AC5
:1038E000B0EB811F16D106F440310122A06AC2EB71
:1038F0005000B1EB004F0DD106F070612C20005D3F
:10390000B1EB006F06D106F0E0413020005DB1EB75
:10391000007F01D001207EE500207CE500380240D8
:1039200010B504460CB9012010BD607920B9002003
:103930002071204600F00EF80220607120680068B7
:1039400040F0040021680860012060710020A06040
:1039500000BFE9E708B5094A016891420DD100BFEF
:103960000749096841F04001054A1160114609689C
:1039700001F04001009100BF00BF08BD00080650E3
:103980003438024070B504460CB9012070BD606A3D
:1039900038B96068B0F5827F00D105E00021E161AF
:1039A00002E00021216161610021A16294F85D00C3
:1039B00028B9002084F85C00204600F061F802205D
:1039C00084F85D002068006820F0400021680860ED
:1039D000E068B0F5E06F01D9002501E04FF48055B3
:1039E000E068B0F5706F05D0E068B0F5E06F01D029
:1039F0000021A162A08800F48270218901F40441B1
:103A00000843217C01F002010843217D01F00101FE
:103A10000843218B01F400710843217F01F0380134
:103A200008432021095D01F080010843218D01F444
:103A300000510843216808600421A06901EA104090
:103A400094F8241001F01001084394F8341001F0A8
:103A500008010843A18901F47061084305F480510D
:103A60000843216848602068C06920F4006021682C
:103A7000C86100202066012084F85D00002085E7F1
:103A800010B586B00446142101A8FCF71DFC3F497F
:103A90002068884247D100BF3D48006840F480500C
:103AA0003B4908600846006800F48050009000BF61
:103AB00000BF00BF36481438006840F001003449A8
:103AC000143908600846006800F00100009000BF4B
:103AD00000BF00BF0846006840F0020008600846CA
:103AE000006800F00200009000BF00BF602001905D
:103AF00002200290002003900320049005200590EE
:103B000001A92448FEF7F2F820200190022002903B
:103B100000200390032004900520059001A91E4871
:103B2000FEF7E4F830E01D49206888422CD100BF40
:103B30001748006840F4801015490860084600687E
:103B400000F48010009000BF00BF00BF1048143880
:103B5000006840F020000E491439086008460068EB
:103B600000F02000009000BF00BF4FF46070019093
:103B7000022002900020039003200490052005906D
:103B800001A90748FEF7B2F806B010BD00300140A9
:103B9000443802400000024000040240005001404E
:103BA000001402402DE9F84F0446884616461D468B
:103BB0004FF0000A00BF94F85C00012802D10220F7
:103BC000BDE8F88F012084F85C0000BFFEF7A8F97B
:103BD0000746B14694F85D00012802D04FF0020A72
:103BE000CBE0B8F1000F00D016B94FF0010AC4E0E5
:103BF000032084F85D0000202066C4F83880A68782
:103C0000E6872064A4F84400A4F846002065E06438
:103C1000A068B0F5004F0BD12068006820F040008C
:103C2000216808602068006840F4804021680860CE
:103C30002068006800F04000402805D02068006837
:103C400040F0400021680860E068B0F5E06F2FD9CF
:103C5000606810B1B9F1010F09D1A06B008821682B
:103C6000C860A06B801CA063E08F401EE0871BE053
:103C70002068806800F0020002280AD1A06B00884A
:103C80002168C860A06B801CA063E08F401EE087A5
:103C90000AE0FEF745F9C01BA84201D3681C00B931
:103CA00015B94FF0030A68E0E08F0028E0D14AE040
:103CB000606810B1B9F1010F17D1E08F01280AD95E
:103CC000A06B00882168C860A06B801CA063E08F97
:103CD000801EE08709E0A06B007821680873A06B64
:103CE000401CA063E08F401EE08729E020688068C8
:103CF00000F00200022818D1E08F01280AD9A06B39
:103D000000882168C860A06B801CA063E08F801EC3
:103D1000E08715E0A06B007821680873A06B401C59
:103D2000A063E08F401EE0870AE0FEF7F9F8C01BB1
:103D3000A84201D3681C00B915B94FF0030A1CE072
:103D4000E08F0028D2D13A462946204603F010F9E8
:103D500008B120202066A06850B900BF0020009064
:103D60002068C068009020688068009000BF00BF95
:103D7000206E08B14FF0010A00BF012084F85D00F9
:103D800000BF002084F85C0000BF504618E72DE912
:103D9000FF5F0446894692461D460E9E0120019013
:103DA0000020009000BF94F85C00012803D102209D
:103DB00004B0BDE8F09F012084F85C0000BFFEF76E
:103DC000AFF8074694F85D00029060680390A8463B
:103DD000AB46029801280BD00398B0F5827F04D13E
:103DE000A06810B90298042802D00220009022E1B5
:103DF000B9F1000F03D0BAF1000F00D015B90120BE
:103E0000009018E194F85D00042802D0052084F8A1
:103E10005D0000202066C4F840A0A4F84650A4F835
:103E20004450C4F83890E587A587E0642065E068D1
:103E3000B0F5E06F02D8BBF1010F06D920684068E9
:103E400020F480502168486005E02068406840F414
:103E50008050216848602068006800F040004028D9
:103E600005D02068006840F0400021680860E068E4
:103E7000B0F5E06F4ED9606810B1B8F1010F09D10B
:103E8000A06B00882168C860A06B801CA063E08FD5
:103E9000401EE08736E02068806800F002000228BB
:103EA00010D1E08F70B1019801280BD1A06B008870
:103EB0002168C860A06B801CA063E08F401EE08773
:103EC000002001902068806800F0010080B1B4F803
:103ED000460068B12068C068216C0880206C801C96
:103EE0002064B4F84600401EA4F84600012001906A
:103EF000FEF716F8C01BB04204D3701C10B10320AB
:103F0000009098E0E08F0028C5D1B4F84600002862
:103F1000C1D185E0606810B1B8F1010F17D1E08F11
:103F200001280AD9A06B00882168C860A06B801C9A
:103F3000A063E08F801EE08709E0A06B0078216815
:103F40000873A06B401CA063E08F401EE08760E018
:103F50002068806800F0020002281ED1E08FE0B1E6
:103F60000198012819D1E08F01280AD9A06B008897
:103F70002168C860A06B801CA063E08F801EE08772
:103F800009E0A06B007821680873A06B401CA06357
:103F9000E08F401EE087002001902068806800F0DC
:103FA000010058B3B4F8460040B3B4F84600012805
:103FB00016D92068C068216C0880206C801C2064A1
:103FC000B4F84600801EA4F84600B4F84600012864
:103FD00012D82068406840F48050216848600BE0A7
:103FE0002068007B216C0870206C401C2064B4F8B1
:103FF0004600401EA4F8460001200190FDF790FF06
:10400000C01BB04201D3701C00B916B90320009048
:1040100011E0E08F00289BD1B4F84600002897D12A
:104020003A463146204602F0A3FF18B10120009025
:104030002020206600BF012084F85D0000BF002022
:1040400084F85C0000BF0098B2E670B504462546CF
:10405000681EB0F1807F01D301200FE0681E4FF091
:10406000E02148610F214FF0FF3004F033FC0020C5
:104070004FF0E021886107200861002070BD704783
:104080007047704730B502460B4600BF92F83C00BF
:10409000012801D1022030BD012082F83C0000BF80
:1040A000022082F83D001068416810688468214D44
:1040B0001068A84203D0204D1068A84203D121F413
:1040C00070015868014321F07001186801431068BD
:1040D0004160184D1068A8421BD01068B0F1804FA5
:1040E00017D0164D1068A84213D0154D1068A8427D
:1040F0000FD0144D1068A8420BD00F4D1068A84285
:1041000007D0114D1068A84203D0104D1068A84286
:1041100005D124F08004986804431068846001206D
:1041200082F83D0000BF002082F83C0000BF00BFC5
:10413000B1E700000000014000040140000400401D
:1041400000080040000C0040004001400018004002
:1041500010B504460CB9012010BD94F83D0028B9F3
:10416000002084F83C00204600F02AF8022084F861
:104170003D00211D206803F039FB012084F8480030
:1041800000BF84F83E0001213F2001554020015529
:1041900041200155422001554320015500BF00BF79
:1041A000012084F844004520015546200155472050
:1041B000015500BF012084F83D000020CCE700003D
:1041C00038B504463449206888420DD100BF3348D1
:1041D000006840F00100314908600846006800F0BE
:1041E0000100009000BF55E02068B0F1804F18D169
:1041F00000BF2A48001F006840F001002749091F3E
:1042000008600846006800F00100009000BF00BF91
:10421000002201211C20FEF75FFB1C20FEF74CFB57
:1042200038E01F492068884218D100BF1B48001F92
:10423000006840F002001949091F0860084600683C
:1042400000F00200009000BF00BF002201211D20ED
:10425000FEF742FB1D20FEF72FFB1BE011492068F3
:10426000884217D100BF0D48001F006840F00400CD
:104270000A49091F08600846006800F00400009021
:1042800000BF00BF002201211E20FEF725FB1E20DB
:10429000FEF712FB38BD0000000001404438024028
:1042A0000004004000080040014691F83D0001284C
:1042B00001D001207047022081F83D000868C068E5
:1042C00040F001000B68D8601C4B086898421BD076
:1042D0000868B0F1804F17D0194B0868984213D086
:1042E000184B086898420FD0174B086898420BD0BB
:1042F000164B0868984207D0154B0868984203D0BF
:10430000144B0868984210D108688068124B00EA84
:104310000302062A0FD0B2F5803F0CD0086800686F
:1043200040F001000B68186005E00868006840F084
:1043300001000B6818600020BCE70000000001408D
:104340000004004000080040000C00400004014050
:104350000040014000180040070001002DE9F04135
:1043600004460D4600BF94F83C00012802D102200B
:10437000BDE8F081012084F83C0000BF022084F8F1
:104380003D00206886683748064026F47F4620684E
:1043900086602868502833D00CDC202850D004DCFC
:1043A00000284BD0102851D149E0302849D040286E
:1043B0004CD139E060282DD0702807D0B0F5805F4F
:1043C00003D0B0F5005F41D10DE040E0D5E9021324
:1043D0006A68206803F087FA2068866846F07706E6
:1043E0002068866033E0D5E902136A68206803F02C
:1043F0007AFA2068806840F480402168886026E06E
:10440000EA686968206803F0B9FB5021206803F06E
:1044100075FA1CE0EA686968206803F0C2FB602155
:10442000206803F06BFA12E0EA686968206803F01C
:10443000A5FB4021206803F061FA08E000BF00BF3F
:1044400000BF2968206803F059FA00E000BF00BFF0
:10445000012084F83D0000BF002084F83C0000BF2C
:1044600000BF85E788FFFEFF704710B5044620684F
:104470000069C0F34000D8B12068C068C0F34000B4
:10448000B0B16FF002002168086101202077206838
:10449000806900F0030018B12046FFF7E5FF05E052
:1044A000204600F0EDF8204600F0EEF900202077DD
:1044B00020680069C0F38000D8B12068C068C0F3EC
:1044C0008000B0B16FF004002168086102202077FD
:1044D0002068806900F4407018B12046FFF7C4FFDF
:1044E00005E0204600F0CCF8204600F0CDF9002091
:1044F000207720680069C0F3C000D8B12068C06888
:10450000C0F3C000B0B16FF008002168086104205A
:1045100020772068C06900F0030018B12046FFF73B
:10452000A3FF05E0204600F0ABF8204600F0ACF910
:104530000020207720680069C0F30010D8B12068FF
:10454000C068C0F30010B0B16FF0100021680861BE
:10455000082020772068C06900F4407018B1204618
:10456000FFF782FF05E0204600F08AF8204600F0C1
:104570008BF9002020772068006900F0010058B115
:104580002068C06800F0010030B16FF001002168C0
:104590000861204600F01CFA20680069C0F3C010D2
:1045A00058B12068C068C0F3C01030B16FF080000F
:1045B000216808612046FFF763FD20680069C0F3A9
:1045C000002058B12068C068C0F3C01030B16FF44B
:1045D0008070216808612046FFF751FD206800695E
:1045E000C0F3801058B12068C068C0F3801030B1AB
:1045F0006FF0400021680861204600F0EAF9206869
:104600000069C0F3401058B12068C068C0F3401082
:1046100030B16FF02000216808612046FFF731FDBE
:1046200010BD000010B586B00446142101A8FBF7A8
:104630004BFE1049206888421AD100BF0E4800681E
:1046400040F001000C4908600846006800F00100D5
:10465000009000BF00BF08200190022002900020BF
:10466000039004900220059001A90448FDF73EFB49
:1046700006B010BD000C004030380240000002407F
:10468000704770B504460D46164600BF94F83C00CE
:10469000012801D1022070BD012084F83C0000BF38
:1046A0000C2E51D005DC4EB1042E1ED0082E7AD12E
:1046B00033E0102E60D0142EF9D175E02946206821
:1046C00003F026F92068806940F0080021688861BD
:1046D0002068806920F00400216888612068806972
:1046E000296908432168886177E02946206803F03A
:1046F00049F92068806940F4006021688861206879
:10470000806920F480602168886120688069296957
:1047100040EA0120216888615FE02946206803F0B3
:1047200071F92068C06940F008002168C8612068FC
:10473000C06920F004002168C8612068C069296947
:1047400008432168C86148E02946206803F098F9C9
:104750002068C06940F400602168C8612068C069B1
:1047600020F480602168C8612068C069296940EA36
:1047700001202168C86130E02946206803F0ACF9C7
:104780002068406D40F00800216848652068406D51
:1047900020F00400216848652068406D29690843BD
:1047A0002168486519E017E02946206803F0BCF944
:1047B0002068406D40F40060216848652068406DC5
:1047C00020F48060216848652068406D296940EACE
:1047D00001202168486500E000BF00BF00BF002045
:1047E00084F83C0000BF00BF55E710B504460CB983
:1047F000012010BD94F83D0028B9002084F83C0049
:10480000204600F029F8022084F83D00211D206890
:1048100002F0ECFF012084F8480000BF84F83E005D
:1048200001213F20015540200155412001554220E2
:1048300001554320015500BF00BF012084F844000A
:1048400045200155462001554720015500BF012054
:1048500084F83D000020CCE708B5094A0168914280
:104860000DD100BF0749096841F00801054A1160F0
:104870001146096801F00801009100BF00BF08BDA2
:10488000000C0040403802407047000070B50446FC
:104890000D4615B994F83E0015E0042D02D13F20D5
:1048A000005D10E0082D02D14020005D0BE00C2DD2
:1048B00002D14120005D06E0102D02D14220005DB2
:1048C00001E04320005D012801D0012070BD1DB929
:1048D000022084F83E001AE0042D03D102213F207B
:1048E000015514E0082D03D10221402001550EE0AE
:1048F0000C2D03D102214120015508E0102D03D1D8
:1049000002214220015502E00221432001550122EB
:104910002946206802F0D6FF25492068884203D046
:1049200024492068884201D1012000E0002028B1FC
:104930002068406C40F40040216848641C492068AD
:1049400088421BD02068B0F1804F17D01A492068E8
:10495000884213D01949206888420FD0184920682E
:1049600088420BD013492068884207D01549206837
:10497000884203D014492068884210D1206880689A
:10498000124900EA0106062E0FD0B6F5803F0CD082
:104990002068006840F001002168086005E0206898
:1049A000006840F001002168086000208EE70000E8
:1049B00000000140000401400004004000080040E5
:1049C000000C0040004001400018004007000100BA
:1049D0007047704710B504460CB9012010BDA0699E
:1049E00000B100E000BFA06F28B9002084F8740077
:1049F000204600F029F82420A0672068006820F0F5
:104A0000010021680860204603F02AFD012800D13A
:104A1000E4E7606A10B1204603F052FC2068406869
:104A200020F49040216848602068806820F02A00C7
:104A3000216888602068006840F0010021680860F3
:104A4000204603F0B9FCC9E710B586B0044614212E
:104A500001A8FBF739FC1949206888422CD100BF16
:104A60001748006840F4802015490860084600682F
:104A700000F48020009000BF00BF00BF1048103835
:104A8000006840F008000E491039086008460068C8
:104A900000F00800009000BF00BF4FF4407001908C
:104AA000022002900020039003200490072005902C
:104AB00001A90448FDF71AF906B010BD00480040EE
:104AC00040380240000C02402DE9F84F04460E46E3
:104AD00017469946A06F20285DD106B117B901206D
:104AE000BDE8F88F00BF94F87400012801D10220BE
:104AF000F6E7012084F8740000BF002050342063E2
:104B00002120A062FDF70CFA824627806780503C86
:104B1000A068B0F5805F04D1206910B90025B046C7
:104B200002E035464FF0000800BF002084F8740012
:104B300000BF1DE05346002280212046CDF80090A2
:104B400003F02CFE08B10320CAE745B9B8F800000D
:104B5000C0F308002168886208F1020803E02878A1
:104B6000216888626D1CB4F85200401EA4F85200FF
:104B7000B4F852000028DDD15346002240212046DF
:104B8000CDF8009003F00AFE08B10320A8E720202A
:104B9000A0670020A4E70220A2E700BFFEE7000014
:104BA0003EB532480068807880B33149096891F891
:104BB000180107F0FFF82F492F4880884FF6FF7241
:104BC0000323CDE9002002912CA278211420FCF7C8
:104BD00019FC28480830284989884FF6FF720323BA
:104BE000CDE90021029027A27821AF20FCF70AFC32
:104BF0002048103000214FF6FF720223CDE900213A
:104C0000029022A2C821B420FCF7FCFBFCF7AEFC0A
:104C1000022006F0D3FD18B914480068807848B126
:104C20001548408800901448038806221E2146201B
:104C3000FCF73CFC07F05AFA03210E4804F0CCFDC7
:104C4000044624B1012C06D0022C0CD107E002202E
:104C500004F022FD08E0032004F01EFD04E007201C
:104C600004F01AFD00E000BF00BF3EBD04020020BA
:104C70000002002094680020680000204D55534930
:104C800043000000434C4F434B0000005345545435
:104C9000494E47530000000001688969C1F3400193
:104CA00011B10021026891620168896901F0010176
:104CB00029B90168896941F0010102689161704771
:104CC00070B504460D46164620688069C0F3001092
:104CD00000283DD017E0681CA8B1FDF721F9801B22
:104CE000A84200D87DB9606C40F0200060642020AC
:104CF00084F84100002084F8420000BF84F840009E
:104D000000BF012070BD20688069C0F340100028FA
:104D1000E1D010202168C86120202168C8612046A8
:104D2000FFF7BAFF206840680A49084021684860D8
:104D3000606C40F004006064202084F84100002092
:104D400084F8420000BF84F8400000BF0120D9E78A
:104D50000020D7E700E800FE2DE9F8430446894625
:104D600015461E46DDE908781948F2B20023494687
:104D70000090204600F06CF842463946204600F08C
:104D8000DBF810B10120BDE8F883012E03D1E8B2B1
:104D9000216888620EE0C5F30720216888624246D8
:104DA0003946204600F0C8F808B10120EBE7E8B228
:104DB000216888623B46002240212046CDF80080D1
:104DC00000F060F808B10120DDE70020DBE700001B
:104DD000002000802DE9F8430446894615461E460A
:104DE000DDE908781948F2B2C3024946009020462E
:104DF00000F02EF842463946204600F09DF810B1EA
:104E00000120BDE8F883012E03D1E8B22168886251
:104E10000EE0C5F3072021688862424639462046E5
:104E200000F08AF808B10120EBE7E8B22168886257
:104E30003B46002280212046CDF8008000F022F879
:104E400008B10120DDE70020DBE700000020008042
:104E5000F0B5059C05686D684FF4806606EA545607
:104E600066F0FC2646F4C046B543C1F309064FF48C
:104E70007F0707EA02473E431E4326433543066841
:104E80007560F0BD2DE9F04104460E4617461D46FB
:104E9000DDF8188019E0681CB8B1FDF741F8A0EB07
:104EA0000800A84200D885B9606C40F0200060641A
:104EB000202084F84100002084F8420000BF84F8DC
:104EC000400000BF0120BDE8F081206880693040CB
:104ED000B04201D1012000E00020B842DBD0002028
:104EE000F1E770B504460D4616461DE032462946E8
:104EF0002046FFF7E5FE08B1012070BDFDF710F870
:104F0000801BA84200D87DB9606C40F0200060642E
:104F1000202084F84100002084F8420000BF84F87B
:104F2000400000BF0120E8E720688069C0F340101E
:104F30000028DBD00020E0E770B504460D46164699
:104F40001FE0324629462046FFF7BAFE08B101208D
:104F500070BD681CA8B1FCF7E3FF801BA84200D815
:104F60007DB9606C40F020006064202084F841002E
:104F7000002084F8420000BF84F8400000BF0120F8
:104F8000E6E720688069C0F340000028D9D00020FF
:104F9000DEE7000030B50346DC69012C23D0022C8B
:104FA00023D1144C246804F480043CB9114C2468C7
:104FB00004F03F04104DB5FBF4F106E00D4C2468FD
:104FC00004F03F040D4DB5FBF4F10A4C8034246825
:104FD000C4F30272074C80342468C4F388144C4331
:104FE000B4FBF2F003E0064801E0002000BF00BF80
:104FF00030BD0000043802400024F40000127A00A2
:105000000080BB0010B504462068C068A16A088013
:10501000A06A801CA062E08D401EE085E08D58B93A
:105020002068406820F0600021684860012084F812
:1050300039002046FDF76AFB10BD10B50446206A12
:1050400000882168C860206A801C2062E08C401EB5
:10505000E084E08C58B92068406820F0A000216806
:105060004860012084F839002046FDF7A1FB10BDFF
:105070002DE9FE4F81460F4690469A460C9CCB4642
:10508000BBF1200F02DA4FF0000903E0ABF1200082
:1050900000F0FF0B002009E00BEB4B01204A02EB74
:1050A0004101095C01AA1154411CC8B20628F3DB76
:1050B0000D980090E004030C04EB44004004020C43
:1050C0004146384600F082F9002524E000261EE023
:1050D00001A8405D0121B1400840B0B1012C08D1C8
:1050E00008EB060291B27A1990B2524600F0B6F877
:1050F0000BE006FB048291B205FB047290B22346DA
:105100002246CDF800A000F061F9701CC6B2082E4E
:10511000DEDB681CC5B2062DD8DBBDE8FE8F0000C3
:1051200044C200082DE9FC5F07460D4600264FF4F7
:10513000FA70B0EB450F01D92E4601E04FF4FA7634
:10514000012251022148FCF7E5FE00224FF4807154
:105150001E48FCF7DFFE38120190B246504606F0BA
:10516000FFFB0446002004E001992154411C6754D0
:10517000801CB042F8D34FEA4508B8FBF6F9B8FBFB
:10518000F6F006FB10800090B9F1000F0CD04FF044
:10519000000B07E0B2B20A2321460D48FEF702FDDC
:1051A0000BF1010BCB45F5D3009882B20A232146BF
:1051B0000748FEF7F7FC012211020448FCF7AAFE9B
:1051C000204605F0C3FDBDE8FC9F0000000802403A
:1051D000580500202DE9F04F85B004460D461646CF
:1051E0001F46DDF838904FF0000A002004908346F7
:1051F0000390804602900190A6EB0408B8F1000FDE
:1052000001DA4FF0010B4FF00008A7EB0508B8F1E9
:10521000000F01DA01200390BBF1000F04D1301B15
:105220001FFA80FA029403E0A01B1FFA80FA02968C
:10523000039820B9781B80B20490019503E0E81B25
:1052400080B204900197CDF800905246049BDDE9AE
:10525000011000F0BBF805B0BDE8F08FFEB50446C4
:105260000D46164655480088844203DA54480088A3
:10527000854200DBFEBD00224FF400715148FCF76F
:1052800049FE00224FF480714E48FCF743FE2A206D
:1052900000F04CFA012251024A48FCF73BFE012281
:1052A00011024848FCF736FE00224FF48071454851
:1052B000FCF730FE20128DF80800E0B28DF80900EE
:1052C000601C000A8DF80A00601CC0B28DF80B004B
:1052D0000123042202A93C48FEF764FC01221102CA
:1052E0003848FCF717FE00224FF400713548FCF7F0
:1052F00011FE00224FF480713248FCF70BFE2B2088
:1053000000F014FA012251022E48FCF703FE01229C
:1053100011022C48FCF7FEFD00224FF48071294851
:10532000FCF7F8FD28128DF80400E8B28DF80500AE
:10533000681C000A8DF80600681CC0B28DF80700D2
:105340000123042201A92048FEF72CFC01221102AE
:105350001C48FCF7DFFD00224FF400711948FCF7F0
:10536000D9FD00224FF480711648FCF7D3FD2C20A4
:1053700000F0DCF9012251021248FCF7CBFD0122BA
:1053800011021048FCF7C6FD00224FF480710D4851
:10539000FCF7C0FD30128DF80000F0B28DF801006E
:1053A0000123022269460848FEF7FCFB0122110294
:1053B0000448FCF7AFFD00BF5CE7000002000020DE
:1053C0000000002000080240580500202DE9F041AF
:1053D00004460D4616461F46DDF81880174800881B
:1053E000844203DA16480088854201DBBDE8F0817B
:1053F000A019401E11490988884203DB0F48008824
:10540000001B86B2E819401E0D490988884203DB5B
:105410000B480088401B87B2E819401E83B2A019D0
:10542000401E82B22946204600F08AF907FB06F1A9
:105430004046FFF777FE00BFD8E7000002000020DB
:10544000000000202DE9FC4704460D46174698460B
:10545000DDE90A690CE0CDE9006914F8010B434667
:105460003A462946FFF704FE062000FB065085B2A7
:1054700020780028EFD1BDE8FC87000010B501229C
:1054800091020248FCF746FD10BD000000080240F2
:1054900010B50446084803880848028800210846D9
:1054A00000F04EF905480088034A128800FB02F11B
:1054B0002046FFF737FE10BD00000020020000204C
:1054C00010B5FFF7DBFF00F023F900F005F901202C
:1054D00000F0A4F94FF47A70FCF7F4FBCB2000F055
:1054E0009DF9392000F0B4F92C2000F0B1F900202A
:1054F00000F0AEF9342000F0ABF9022000F0A8F97A
:10550000CF2000F08BF9002000F0A2F9C12000F0BC
:105510009FF9302000F09CF9E82000F07FF9852009
:1055200000F096F9002000F093F9782000F090F94F
:10553000EA2000F073F9002000F08AF9002000F062
:1055400087F9ED2000F06AF9642000F081F903206A
:1055500000F07EF9122000F07BF9812000F078F94C
:10556000F72000F05BF9202000F072F9C02000F075
:1055700055F9232000F06CF9C12000F04FF91020FC
:1055800000F066F9C52000F049F93E2000F060F90E
:10559000282000F05DF9C72000F040F9862000F0D7
:1055A00057F9362000F03AF9482000F051F93A2036
:1055B00000F034F9552000F04BF9B12000F02EF93D
:1055C000002000F045F9182000F042F9B62000F064
:1055D00025F9082000F03CF9822000F039F9272055
:1055E00000F036F9F22000F019F9002000F030F94F
:1055F000262000F013F9012000F02AF9E02000F045
:105600000DF90F2000F024F9312000F021F92B20B2
:1056100000F01EF90C2000F01BF90E2000F018F924
:10562000082000F015F94E2000F012F9F12000F0EA
:105630000FF9372000F00CF9072000F009F91020CD
:1056400000F006F9032000F003F90E2000F000F945
:10565000092000F0FDF8002000F0FAF8E12000F049
:10566000DDF8002000F0F4F80E2000F0F1F814202E
:1056700000F0EEF8032000F0EBF8112000F0E8F85D
:10568000072000F0E5F8312000F0E2F8C12000F03A
:10569000DFF8482000F0DCF8082000F0D9F80F20EF
:1056A00000F0D6F80C2000F0D3F8312000F0D0F84C
:1056B000362000F0CDF80F2000F0CAF8112000F0DD
:1056C000ADF87820FCF7FEFA292000F0A7F80020BA
:1056D00000F060F810BD000010B500224FF48061AA
:1056E0000A48FCF717FCC820FCF7ECFA00224FF43C
:1056F00080710648FCF70EFCC820FCF7E3FA012293
:1057000091020248FCF706FC10BD000000080240B0
:1057100010B500F001FD00F039FB00224FF480715C
:105720000148FCF7F7FB10BD0008024001B501235A
:105730001A4669460148FEF735FA08BD58050020AB
:105740002DE9F04104460D4616461F462A2000F07A
:1057500065F8201200F07CF8E0B200F079F8301221
:1057600000F076F8F0B200F073F82B2000F056F855
:10577000281200F06DF8E8B200F06AF8381200F074
:1057800067F8F8B200F064F82C2000F047F8BDE8A4
:10579000F081000070B504462546362000F03EF842
:1057A0000120FCF78FFA35B1012D0FD0022D18D052
:1057B000032D2CD120E0482000F04AF8F0201549B4
:1057C00008804FF4A0701449088021E0282000F0E0
:1057D0003FF84FF4A0700F490880F0200E49088070
:1057E00016E0882000F034F8F0200A4908804FF4D1
:1057F000A070094908800BE0E82000F029F84FF478
:10580000A07004490880F0200349088000E000BF30
:1058100000BF70BD020000200000002010B504464B
:1058200000224FF480710948FCF774FB00224FF40A
:1058300000710648FCF76EFB2046FFF777FF012258
:1058400011020248FCF766FB10BD00000008024090
:1058500010B50446012251020848FCF75BFB002208
:105860004FF480710548FCF755FB2046FFF75EFFBB
:10587000012211020148FCF74DFB10BD0008024057
:1058800008B50A2006F096FA022005F097FF18B92D
:1058900009480068807848B1084840880090074867
:1058A000038806225A214B20FBF700FEFBF75EFE21
:1058B00006F01CFC08BD0000040200206800002067
:1058C0002DED048B84B0B0EE403B90ED080B31EE33
:1058D000400BB0EE408B90ED060B02EE080B80ED16
:1058E000060B90ED0C0B90ED109B12EE090B90ED5A
:1058F0000E9B30EE490B90ED009B30EE099B90ED36
:105900000A0B02EE090B80ED0A0B90ED0C0B90EDEB
:10591000109B02EE490B80ED0C0B90ED0E0B90ED01
:10592000109B02EE490B80ED0E0B90ED100B90EDED
:10593000029B09EE020B80ED100B90ED0A0B90ED2F
:10594000049B30EE090BB0EE404B90ED0A0B80EE5D
:10595000049B8DED009B90ED0E0B80EE049B8DED76
:10596000029B90ED060B33EE400BB0EE405B90EDEA
:10597000060B9DED009B09EE050B80ED060B90EDEF
:10598000080B9DED029B09EE050B80ED080B90EDD9
:105990000A0BB0EE406B90ED0C0BB0EE407B90ED3F
:1059A0000A0B9DED009B09EE460B80ED0A0B90ED76
:1059B0000C0B9DED009B09EE470B80ED0C0B90ED61
:1059C0000E0B9DED029B09EE460B80ED0E0B90ED4C
:1059D000100B9DED029B09EE470B80ED100B90ED37
:1059E000060B04B0BDEC048B704710B586B00446BE
:1059F0006420012105AA0B46CDE900210290752201
:105A0000D0212046FCF75EFB9DF8140068283AD1AF
:105A1000002004906420012104AA0B46CDE9002156
:105A200002906B22D0212046FCF71CFC072004903A
:105A30006420012104AA0B46CDE90021029019221D
:105A4000D0212046FCF70EFC0020049064200121A8
:105A500004AA0B46CDE9002102901C22D021204649
:105A6000FCF700FC002004906420012104AA0B46EE
:105A7000CDE9002102901B22D0212046FCF7F2FB49
:105A8000002006B010BD0120FBE7000030B52DED71
:105A90000C8B87B005460C4664200E2103AA012317
:105AA000CDE9002102903B22D0212846FCF70AFBD9
:105AB0009DF80D009DF80C1040EA012000B22080F6
:105AC0009DF80F009DF80E1040EA012000B26080A2
:105AD0009DF811009DF8101040EA012000B2A0804E
