:020000040800F2
:10000000000A002011020008DF320008B1250008B4
:10001000DD3200084105000815430008000000001B
:10002000000000000000000000000000AD340008E7
:10003000F505000800000000E1320008AF340008B8
:100040002B0200082B0200082B0200082B020008DC
:100050002B0200082B0200082B0200082B020008CC
:100060002B0200082B0200082B0200082B020008BC
:100070002B0200082B0200082B0200082B020008AC
:100080002B0200082B0200082B0200082B0200089C
:100090002B0200082B0200082B0200082B0200088C
:1000A0002B0200082B0200082B0200082B0200087C
:1000B00089350008A5350008C13500082B02000865
:1000C0002B0200082B0200082B0200082B0200085C
:1000D0002B0200082B0200082B0200082B0200084C
:1000E0002B0200082B0200082B0200082B0200083C
:1000F0002B0200082B0200082B0200082B0200082C
:100100002B0200082B0200082B0200082B0200081B
:100110002B0200082B0200082B0200082B0200080B
:100120002B0200082B0200082B0200082B020008FB
:100130002B0200082B0200082B0200082B020008EB
:100140002B0200082B0200082B0200082B020008DB
:100150002B0200082B0200082B0200082B020008CB
:100160002B0200082B0200082B0200082B020008BB
:100170002B0200082B0200082B02000800000000E0
:100180002B0200082B0200082B0200082B0200089B
:100190002B0200082B0200082B0200082B0200088B
:1001A0002B0200082B0200082B0200082B0200087B
:1001B0002B0200082B0200082B0200082B0200086B
:1001C0002B0200082B020008000000002B02000890
:1001D0002B0200082B0200082B0200082B0200084B
:1001E0002B0200082B0200082B0200082B0200083B
:1001F0002B0200082B020008DFF810D000F0ACF84A
:1002000000480047C5480008AFF30080000A0020FE
:100210000648804706480047FEE7FEE7FEE7FEE7A0
:10022000FEE7FEE7FEE7FEE7FEE7FEE779350008BA
:10023000F90100082DE9F05F0546002092469B4633
:1002400088460646814640241BE0284641464746EC
:10025000224600F070F853465A46C01A914110D316
:1002600011461846224600F057F82D1A67EB010890
:100270004F4622460120002100F04EF817EB0009FE
:100280004E41201EA4F10104DFDC484631462A46D7
:100290004346BDE8F09F40EA01039B0703D009E015
:1002A00008C9121F08C0042AFAD203E011F8013B62
:1002B00000F8013B521EF9D27047D2B201E000F8BB
:1002C000012B491EFBD270470022F6E710B51346FA
:1002D0000A4604461946FFF7F0FF204610BD421CAF
:1002E00010F8011B0029FBD1801A704730B50B466E
:1002F000014600202022012409E021FA02F59D4256
:1003000005D303FA02F5491B04FA02F52844151E29
:10031000A2F10102F1DC30BD202A04DB203A00FA10
:1003200002F1002070479140C2F1200320FA03F34C
:10033000194390407047202A04DB203A21FA02F04A
:100340000021704721FA02F3D040C2F1200291400F
:100350000843194670470000064C074D06E0E06868
:1003600040F0010394E8070098471034AC42F6D3FC
:10037000FFF746FF9C4E0008BC4E0008FEB5022069
:1003800004F082FA1D4D10B92868807810B31C4C17
:10039000E08802F03BFBE0884FF6FF76062233460A
:1003A0001E210090462000F0FFF9E188042064221D
:1003B000CDE90001638813A0114602F003FB134945
:1003C0000323A08812A20096CDE90101B4216A207E
:1003D00000F09CF904F0C6FB0C48012104F0B4F9CC
:1003E000002809D10C48016800200873286840786B
:1003F000BDE8FE4004F06AB9FEBD000044000020E4
:100400002A000020414C41524D0000005C030020B6
:1004100053544F5000000000400000207FB53F487B
:100420003C4C3D4D0068807880B33D493DA000F0D4
:10043000FBFA287860B13DA0394A0121103200F062
:1004400017FB35482A78801D01881AB1C08906E05B
:1004500038A0F1E72268127B02B941894088042262
:100460000192CDE902102068816900915F21D0E9F5
:100470000423142000F0CCF9294802235F2108301E
:1004800000902068027BE12000F002FA04F06AFB91
:10049000287838B1294E224B183347CE83E84700DD
:1004A000052100E003211E4804F04EF90021052833
:1004B0002FD2DFE800F0030A10172100297004B0E2
:1004C0000320BDE8704004F001B92068027B02B946
:1004D0000121017319E0287810B10020287014E080
:1004E0000120FBE7216818220869401C90FBF2F309
:1004F00002FB1300086108E021683C224869401CA7
:1005000090FBF2F302FB13004861BDE87F4004F06A
:1005100017BB7FBD400000202400002044000020C5
:100520005C030020414C41524D000000444F4E45B9
:10053000000000004544495400000000744E0008CB
:10054000FEE7000038B51C4C2068807858B11B4984
:100550001BA000F069FA194A1832A2F10801A1F1B2
:10056000080000F05FF8032004F08EF910B920684D
:10057000807840B114480522418800915A210388AF
:10058000282000F02BF904F0EDFA0C48042104F0C7
:10059000DBF850B101280AD002280AD003280AD17A
:1005A0000520BDE8384004F091B80120F9E70420A7
:1005B000F7E70620F5E738BD440000205C03002083
:1005C000434C4F434B0000002A00002070B54022EE
:1005D0000D4607490446FFF75EFE05490C390868D9
:1005E0002860C1E90145BDE8704000F005B8000091
:1005F000480000207047000010B502F01BFA0748C1
:10060000408802F003FA012002F082FB04480068EF
:1006100090F83C00BDE8104004F006BA2A00002023
:10062000400000202DE9FE432F4E05464FF6FF7790
:10063000914602230C46C821B0882CA20097CDE930
:1006400001050A2000F062F8DFF8A880D8F8000061
:10065000007B012812D1B0890090AA882888698877
:10066000EB880244521F19448BB2401DA1F1050CC6
:1006700092B21FFA8CF180B202F0AEF8B088022379
:1006800000971DA2CDE901042888A988084480B2FA
:10069000C82100F03BF8D8F80000007F98B102288C
:1006A000B08900D130890090A28820886188E388D1
:1006B0000244521F19448BB24D1F401D92B2A9B281
:1006C00080B202F089F8B1880223CDF808900CA21C
:1006D000CDE900712088A188084480B2C82100F0CB
:1006E00015F8BDE8FE8300002A000020416C61720D
:1006F0006D0000004000002054696D65720000002C
:1007000053746F7077617463680000002DE9FF4FC8
:1007100083B01C4689468046DDF848B00598DDE97F
:100720001065FFF7DCFD801C4FF6FF712701009577
:10073000604300EB400001EA400A494609EB07002C
:1007400083B208EB0A0082B2404602F045F8E000AE
:10075000334600EE100AB6EE002B04EB4400B8EE70
:10076000401B00EE109A08EB400081B2B8EE400B3F
:10077000CDE9004501EE020BBCEEC00B10EE100AF5
:1007800082B2059802F01EF968F30F056AF30F06AE
:1007900069F31F45CBF8005067F31F46CBF80460A0
:1007A00007B0BDE8F08F00002DE9FF41094D164666
:1007B000094C1F46DDF828C02D682A68E2706B6876
:1007C0002371AD6865718DE8E01000F021F8BDE897
:1007D000FF81000040000020240000202DE9FF419F
:1007E000094D1646094C1F46DDF828C02D682A68B9
:1007F000E2706B682371AD6865718DE8E01000F000
:1008000025F8BDE8FF810000400000202400002002
:100810002DE9F04186B005460DA80C4608A190E8E8
:10082000C00102A803F078FDCDE9006802A83B46AC
:100830002246294602F0C6F806B0BDE8F081000065
:10084000252E32643A252E32640000002DE9F04155
:1008500086B00C460CA905460F9E91E8810108A1BF
:10086000009002A803F058FDCDE9007602A84346A7
:100870002246294602F0A6F806B0BDE8F081000045
:10088000252E32643A252E32643A252E3264000039
:100890002DE9F04F2DED068B85B00C464FF02A0167
:1008A000804615001E4613FB01F004904FEA031B1F
:1008B00058486BD0B0F80C0004EB0B0300902146B5
:1008C000049808EB00024046924601F085FF002D97
:1008D000B6EE00ABB7EE0C8BB5EE009B4FEAC6054B
:1008E00056D04DA102A803F017FD00EE105A00EEFD
:1008F000904A4848B8EE401BB8EE600B818901EE83
:100900000A0BCDE9006143884146BCEEC00B10EEF6
:10091000100A82B202A802F055F800EE105A00EE5A
:10092000904AA6EB86024FF6FF70B8EE402BB8EE69
:10093000601BB8EE403BB8EE600BAAF105010090D9
:1009400002EE081B0AEB82008AB280B203EE090BAA
:10095000BCEEC11BBCEEC00B11EE103A9BB210EE08
:10096000101A89B201F038FF049868F30F0964F394
:100970001F4960F30F0714986BF31F47C0F80090EE
:10098000476005B0BDEC068BBDE8F08F408993E76A
:1009900022A223A102A803F0BFFC00EE105A00EE31
:1009A000904A1C48B8EE401BB8EE600B418901EE3E
:1009B0000A0BCDE9006143884146BCEEC00B10EE46
:1009C000100A82B202A801F0FDFF00EE105A00EEFC
:1009D000904A4FF6FF700090B8EE402BB8EE601BC7
:1009E000B8EE403BB8EE600B06EB460202EE081B89
:1009F00008EB820203EE090BBCEEC11BBCEEC00B80
:100A000011EE100A83B208F1050010EE101A89B237
:100A1000A8E700002A000020204F4E004F46460065
:100A2000253673200000000010B58CB00C460BA1D9
:100A3000024602A803F070FC0B4802214288CDE96F
:100A400000120A22038802A8114601F0BBFF0749E1
:100A5000D1E90001206061600CB010BD3C3C202554
:100A60002E323173000000002A0000205C4E000886
:100A70002DE9FC4115460C468046FFF730FC134A31
:100A8000C0F11A0102204FF6FF7601EB41015388B5
:100A900006EA8101CDE900030CB1938800E0538997
:100AA0000A22404601F08EFF0948D0E9024740463D
:100AB000FFF715FCC0F11A0000EB400006EA8000C9
:100AC00060F30F042C606F60BDE8FC812A000020F9
:100AD0005C4E000872B6FEE770B5044600F004F9FB
:100AE0000546601C02D004480078044400F0FCF87D
:100AF000401BA042FAD370BD140000202DE9F84F2E
:100B000000224FF001094FF0030A4FF00F0E00BF13
:100B10000B6809FA02F42340A34270D14D68012DFD
:100B200005D0022D03D0112D01D0122D11D18568D1
:100B30005700CE680AFA07FC25EA0C05BE402E4392
:100B4000866045680E79A543C6F3001696402E438D
:100B50004660C56856008F680AFA06F4A543B74098
:100B60002F43C7604D68022D01D0122D12D1D50838
:100B70000F694FEA427C00EB8505AB462D6A4FEAD0
:100B8000DC6C0EFA0CF807FA0CF725EA08052F437F
:100B9000CBF820700D79076805F00305A743B54031
:100BA0003D4305604C68E40074D53D4C256845F430
:100BB00080452560246822F00307960704F48044EA
:100BC0000094384C360F2744D7F80848DFF8D8C0CF
:100BD0000EFA06F5604524EA050401D100252EE051
:100BE000324DA84201D1012529E0314DA84201D161
:100BF000022524E02F4DA84202D103251FE049E041
:100C00002D4DA84201D1042519E02C4DA84201D157
:100C1000052514E02A4DA84201D106250FE0294DF3
:100C2000A84201D107250AE0274DA84201D1082595
:100C300005E0264DA84201D1092500E00A25B5406E
:100C4000234E2543C7F808584D683468ED0324EA5D
:100C5000030400D51C431E4D34602D1D4E682C68C6
:100C6000B60324EA030400D51C43194E2C60083651
:100C70004D683468ED0224EA030400D51C43144D8A
:100C800034600C354E682C68B60224EA030400D5A3
:100C90001C432C60521C102AFFF43AAFBDE8F88FB9
:100CA000443802400030014000000240000402408D
:100CB00000080240000C02400010024000140240F4
:100CC00000180240001C02400020024000240240A4
:100CD000003C01400069084000D0012070470AB183
:100CE000816170470904FBE7014880687047000094
:100CF0001400002002488168027811448160704726
:100D000014000020032010B500F06EF8002000F061
:100D100005F800F023F8002010BD000070B50D4D5F
:100D200004464FF47A700C4A29781268B0FBF1F04F
:100D3000B2FBF0F000F097FF48B9102C07D2002268
:100D40002146501E00F030F800206C6070BD01207C
:100D500070BD000014000020200000200A4808B5E3
:100D6000016841F080510160006800F080500090FF
:100D70000548001D016841F480410160006800F4ED
:100D80008040009008BD000040380240002809DB88
:100D9000410900F01F028900012001F1E02190408B
:100DA000C1F80001704700000E4BF0B41B680D46FF
:100DB000C3F30223C3F10706042E00D90426191D2C
:100DC000072901D2002300E0DB1E012404FA06F10A
:100DD0009C40491E2940641E994014402143F0BCA8
:100DE00003F0AEBA0CED00E0064900F0070210B5C2
:100DF0004FF6FF040868044B204040EA02201843E5
:100E0000086010BD0CED00E00000FA051848F8B5C8
:100E1000016841F0805101600068164C00F080507C
:100E20000090206840F480302060FFF75DFF4FF4B1
:100E30007A76054605E000BFFFF756FF401BB0423B
:100E40000FD86068C003F7D5206840F400302060F8
:100E5000FFF74AFF054606E0FFF746FF401BB0429A
:100E600001D90320F8BD60688003F5D50020F8BDE6
:100E700040380240007000400248016841F480712F
:100E800001607047007000402DE9F84F044600787B
:100E9000DFF824944FF000063746C0070ED0D9F88B
:100EA000001021F40001C9F80010D9F80010626B9D
:100EB0001143C9F80010606B00B90126FE4D20688F
:100EC000843500030ED5E16B286820F440100843F8
:100ED0002860E06BB0F5801F01D010B102E0012660
:100EE00000E0012720684FF4800BC0020CD5216C74
:100EF000286820F4400008432860206C584501D140
:100F0000012601E000B901272068C10100D50126B2
:100F1000800666D5E8483830016841F080510160AC
:100F20000068DFF898A300F080500090DAF8001015
:100F300041F48071CAF80010FFF7D6FE804605E044
:100F4000FFF7D2FEA0EB080064287DD8DAF8000095
:100F5000C005F5D5DFF8608308F16808D8F800000F
:100F600010F440702AD0218E01F44071814225D0C6
:100F7000D8F80010D8F8002021F4407142F48032F3
:100F8000C8F80020D8F8002022F48032C8F80020E9
:100F9000C8F80010D8F80000C0070FD0FFF7A4FE73
:100FA000824607E0FFF7A0FEA0EB0A0141F288307D
:100FB0008142CAD8D8F800008007F3D5206BC0F36F
:100FC000012103297ED0D9F8001021F4F811C9F8C5
:100FD0000010228ED8F80010C2F30B021143C8F89B
:100FE00000102078C00607D5286820F0807028609F
:100FF0002868A16B084328602188AF4888304904DD
:1010000005D5626E016821F44031114301602188E9
:10101000090405D5A26E016821F440211143016045
:101020002168C90305D5E26E016821F4401111431E
:1010300001602168890305D5226F016821F4400110
:1010400011430160217800E034E1490605D5626C66
:10105000016821F00301114301602178090605D5DB
:10106000A26C016821F00C01114301602188C905BF
:1010700005D5E26C016821F030011143016021883F
:10108000890505D5226D016821F0C0011143016079
:101090002188490505D5626D016821F4407111432D
:1010A00001602188090505D5A26D016821F4406120
:1010B000114301602188C90407D5E26D016821F45C
:1010C000405100E068E0114301602188890405D5A2
:1010D000226E016821F440411143016021684902F8
:1010E00005D5A26F016821F080611143016021687C
:1010F0004FF0006A890209D5E26F016821F00061B2
:1011000011430160E16F514500D1012721680A07B1
:1011100000D50127490305D5626F016821F04071B0
:10112000114301602168090206D5D4F880200168C6
:1011300021F08051114301602168490106D5D4F89E
:101140008420016821F000511143016020680001F2
:1011500006D5D4F88810286820F00070084328606D
:101160002068C00006D5D4F88C10286820F0806074
:1011700008432860DFF84891012E02D020688001E2
:101180007ED5D9F800004E4620F08060C9F80000F6
:10119000FFF7AAFD80460FE04A4AD9F80030104018
:1011A00023F4F8120243C9F8002012E7FFF79CFD70
:1011B000A0EB080064287DD830680001F6D42178BF
:1011C0003D487C30C90712D0616B81B9237A6268CF
:1011D0000168D0F800C09201C1F3014142EA014226
:1011E000CCF3036142EA016141EA037101602168C5
:1011F0000A0303D5E26BB2F5801F04D0C9021AD5E9
:10120000216C594517D16368016894F80CC00268D5
:101210009B01C1F3014143EA0141C2F3027241EA79
:101220000C6141EA027101602968626A21F01F01C4
:10123000521E114329602168C90110D5238A6268B2
:101240000168D0F800C09201C1F3036142EA034291
:1012500042EA0162CCF3027142EA01710160216845
:1012600089010CD56168228A237B94F808C0890122
:1012700041EA024141EA036141EA0C71016000E088
:1012800011E03168B04641F080613160FFF72CFD1C
:10129000064604E0FFF728FD801B64280AD8D8F82A
:1012A00000000001F6D5E7B3D9F800004E4620F063
:1012B000805009E07BE000000838024000700040E8
:1012C00000380240FFFCFF0FC9F80000FFF70CFDDB
:1012D000074604E0FFF708FDC01B642867D83068A4
:1012E000C0438000F6D5216835480A0301D5E26B7A
:1012F0001AB1C9021DD5216CD9B963690168277E6D
:1013000002689B01C1F3014143EA0143C2F3027148
:1013100043EA076242EA0171016029686FF0FF0346
:1013200000E04BE0A26A21F4F85103EB02221143E2
:1013300029602168890212D5E16F51450FD1238CB4
:101340006269016807689201C1F3036142EA0342DE
:1013500042EA0162C7F3027142EA01710160217839
:10136000090716D561690268D0F800C08B01277F94
:10137000C2F30362CCF3014143EA014141EA026155
:1013800041EA077101602868E16A20F440300843AF
:101390002860306840F080503060FFF7A5FC0446BC
:1013A00008E000BFFFF7A0FC001B642802D903205F
:1013B000BDE8F88F3068C0438000F3D40020F7E721
:1013C000883802402DE9F04705000F4663D0444EAF
:1013D000306800F00F00B84209D2306820F00F00EA
:1013E00038433060306800F00F00B84253D12868AD
:1013F0003C4C810712D5400703D5206840F4E050EB
:1014000020602878000703D5206840F46040206001
:10141000A968206820F0F000084320602878C00701
:101420002AD0304968680839012810D00968022894
:1014300010D0890700292EDA216821F00301014329
:101440002160FFF751FC804641F288390DE00968C0
:101450008903EFE78901EDE7FFF746FCA0EB080100
:10146000494502D90320BDE8F0876868216801F08A
:101470000C01B1EB800FEFD1306800F00F00B842E3
:101480000BD9306820F00F0038433060306800F02E
:101490000F00B84201D00120E5E72878400705D5C4
:1014A000E968206820F4E0500843206028780007AD
:1014B00006D52869216821F4604141EAC000206016
:1014C00000F038F82168084AC1F30311515CC840A4
:1014D0000649086006480068FFF720FC0020C2E7C4
:1014E000003C024008380240444E00082000002022
:1014F000180000200449054809680068044AC1F33F
:101500008221515CC840704708380240200000200A
:10151000544E00080449054809680068044AC1F3AC
:101520004231515CC840704708380240200000201A
:10153000544E0008154910B51548096811F00C0201
:1015400013D04110042A0FD0082A0ED10F4C241FAB
:101550002268236802F03F025B0207D52068C0F3CF
:101560008810A0FB010106E0084610BD2168C1F308
:101570008811A1FB00010023FEF75CFE2168C1F386
:101580000141491C4900B0FBF1F010BD0838024090
:101590000024F4002DE9F84F04004FF000076ED04E
:1015A0002078DFF87CA3AAF10408C007A8F104059D
:1015B0004CD0DAF800105046C1F38101012908D05F
:1015C0000068C0F3810002280AD1D8F80000400268
:1015D00006D52868800339D560680028DFD035E05B
:1015E0006068B0F5803F0BD010B1B0F5A02F11D0DE
:1015F000286820F480302860286820F4802002E0E9
:10160000286840F480302860606890B1FFF76CFB78
:1016100006460AE0286840F480202860F0E700BF12
:10162000FFF762FB801B642872D828688003F7D517
:101630000CE0FFF759FB064605E000BFFFF754FB3F
:10164000801B6428F0D828688003F7D420788007AE
:1016500042D5DAF80010504611F00C0F08D000689F
:10166000C0F3810002280BD1D8F80000400207D453
:101670002868800718D5E068012800D114E04AE105
:10168000E0680028286817D040F001002860FFF7C4
:101690002BFB064605E000BFFFF726FB801B022858
:1016A000C2D828688007F7D52069296821F0F80199
:1016B00041EAC00028600FE020F001002860FFF739
:1016C00013FB064605E000BFFFF70EFB801B022858
:1016D0001ED828688007F7D42078000729D59048BD
:1016E00061696C3000298146016812D041F0010126
:1016F0000160FFF7F9FA064605E000BFFFF7F4FACC
:10170000801B022804D8D9F800008007F6D510E025
:1017100089E021F001010160FFF7E6FA064604E0E6
:10172000FFF7E2FA801B02287DD8D9F80000800775
:10173000F6D4207840076BD5DFF8E49109F1380939
:10174000D9F80000C0000BD4D9F8001041F0805146
:10175000C9F80010D9F80000012700F0805000906F
:1017600070480168C90512D40168834641F480714C
:101770000160FFF7B9FA064605E000BFFFF7B4FACB
:10178000801B64284FD8DBF80000C005F6D5644EF6
:10179000A068683601280AD008B1052811D0306841
:1017A00020F001003060306820F0040002E0306872
:1017B00040F001003060A068A0B1FFF795FA8346C1
:1017C0000CE0306840F004003060F0E7FFF78CFA7E
:1017D000A0EB0B0141F28830814268D83068800765
:1017E000F4D50EE0FFF780FA834607E0FFF77CFAB6
:1017F000A0EB0B0141F28830814258D83068800755
:10180000F4D42FB1D9F8001021F08051C9F800109C
:10181000A069E0B3DAF80010C1F3810102294DD0CC
:101820000228286800E042E020F08070286003D0A1
:10183000FFF75AFA04463DE0FFF756FA064604E081
:10184000FFF752FA801B022831D828688001F7D4AC
:10185000D4E90921DFF8D0C0D4E9070694F8303084
:101860004F0894F82C1030430CEB074444EA8212E2
:10187000104340EA016040EA0370C8F8000028689D
:1018800040F080702860FFF72FFA044605E044E03E
:10189000FFF72AFA001B022809D828688001F7D52B
:1018A0003BE000BFFFF720FA001B022802D903200B
:1018B000BDE8F88F28688001F4D42EE00128D8F81C
:1018C000000028D0E16900F480028A4223D1216A15
:1018D00000F03F028A421ED1626A47F6C0710140A1
:1018E000B1EB821F17D1A16A4FF0FF3200F44033F1
:1018F00002EB5101B3EB014F0DD194F82C1000F025
:101900007062B2EB016F06D194F8301000F0E04045
:10191000B0EB017F01D00120CAE70020C8E700003A
:1019200008380240007000400000FFFF70B504005E
:1019300003D06079002510B105E0012070BD20467C
:10194000257100F00DF80220607101212068026805
:1019500042F0040202606171A560002070BD0000C9
:1019600008B500680649884208D10648016841F078
:1019700040010160006800F04000009008BD0000D8
:1019800000080650343802402DE9F04104000AD026
:10199000606A002550B12561C4F8145094F85D00C8
:1019A000A56248B10DE00120BDE8F0816068B0F5A6
:1019B000827FF3D0E561F1E7204684F85C5000F0C7
:1019C0005DF8022084F85D004FF4E0622068016851
:1019D00021F040010160E068904201D9002101E05E
:1019E0004FF48051B0F5706F02D0904200D0A562E4
:1019F0002289A088237C02F4044C277D00F48270A5
:101A000003F00206228B40EA0C00237F304394F857
:101A1000206007F001073843278D02F4007210435D
:101A200003F038031843236806F08002104307F4DC
:101A3000005630431860A069042394F8242001F470
:101A4000805194F8346003EA1040A78902F0100234
:101A5000104306F008031843236807F4706210432C
:101A6000084358602068C16921F40062C261012105
:101A7000256684F85D10002096E7000010B586B05A
:101A8000044614216846FEF71FFC1249206888426C
:101A90001ED11148016841F480110160006800F412
:101AA000801005900C481438016841F02001016055
:101AB00000680221002200F0200005900323052485
:101AC0004FF460708DE81F0004486946FFF716F870
:101AD00006B010BD005001404438024000140240DE
:101AE0002DE9F84F044690F85C0000271D460128B8
:101AF000164689460DD04FF0010B84F85CB0FFF715
:101B0000F3F8804694F85D00BA46012804D0022715
:101B1000A3E00220BDE8F88FB9F1000F73D0002ECA
:101B200071D0A2680321C4F83890A68784F85D10AC
:101B3000C4F860A0E687C4F840A0A4F844A0A4F8C4
:101B400046A0B2F5004FC4F850A0C4F84CA009D18B
:101B50002068016821F0400101602068016841F4BB
:101B60008041016020680168490603D4016841F0A2
:101B700040010160E068B0F5E06F606823D908B10A
:101B8000012E1CD1A06B21680088C86006E0206887
:101B90008168890709D5A16B0988C160A06B801C89
:101BA000A063E08F401EE08709E0FFF79DF8A0EBFF
:101BB0000800A84202D3681C01D045E0A5B3E08F1D
:101BC0000028E4D135E008B1012E2FD1E08F216843
:101BD0000128A06B02D90088C8600EE00078087365
:101BE00014E0E08722E020688168890714D5E18F3E
:101BF0000129A16B08D90988C160A06B801CA06372
:101C0000E08F801EEDE727E009780173A06B401C90
:101C1000A063E08F401EE4E7FFF766F8A0EB080042
:101C2000A84202D3681C01D00EE06DB1E08F0028FD
:101C3000D9D142462946204601F053FB08B1202065
:101C40002066A06810B105E0032706E02068C1689F
:101C500080680090206E00B1012784F85DB038469E
:101C600084F85CA056E7401EB0F1807F10B501D328
:101C7000012010BD4FF0E02460610F21601702F0D9
:101C80005FFB0020A0610721216110BD70477047F4
:101C900070470000F0B590F83C20012A3BD01F4E61
:101CA000012480F83C40022280F83D2002681C4D4F
:101CB0005368B242D2F808C001D0AA4203D14F689B
:101CC00023F470033B430F6823F070031F435760F6
:101CD0000268B24213D0B2F1804F10D0114B9A4239
:101CE0000DD0114B9A420AD0104B9A4207D0AA420B
:101CF00005D00F4B9A4202D00E4B9A4204D189680C
:101D00002CF0800319439160002180F83D4080F859
:101D10003C100846F0BD0220F0BD0000000001406C
:101D2000000401400004004000080040000C004096
:101D3000004001400018004010B5040003D094F8A2
:101D40003D0010B107E0012010BD002084F83C00E8
:101D5000204600F023F8022084F83D002068211D71
:101D600001F03CFC012084F8480084F83E0084F82F
:101D70003F0084F8400084F8410084F8420084F871
:101D8000430084F8440084F8450084F8460084F851
:101D9000470084F83D00002010BD000008B5016830
:101DA0002348814209D12348016841F001010160C3
:101DB000006800F00100009008BD1F48B1F1804F9D
:101DC00011D01E4A91421DD1016841F0020101600B
:101DD00000680022022100F0020000901D20FEF7A2
:101DE000E3FF1D201FE0016841F001010160006870
:101DF0000022012100F0010000901C20FEF7D4FF1A
:101E00001C2010E00E4A9142D6D1016841F0040135
:101E1000016000680022032100F0040000901E20F1
:101E2000FEF7C2FF1E20BDE80840FEF7AFBF00006E
:101E300000000140443802404038024000040040A5
:101E40000008004090F83D10012901D001207047A2
:101E5000174A022180F83D100168CB6843F0010366
:101E6000CB600068904214D0B0F1804F11D011497E
:101E700088420ED0104988420BD01049884208D0C1
:101E80000F49884205D00F49884202D00E49884246
:101E900007D181680D4A1140062906D0B1F5803F6F
:101EA00003D0016841F0010101600020704700008B
:101EB000000001400004004000080040000C004009
:101EC00000040140004001400018004007000100EC
:101ED00070B5044690F83C00012817D0324B01251C
:101EE00084F83C50022084F83D0022689068184035
:101EF00020F47F4090600868502830D00DDC202806
:101F00004DD005DC98B310283BD148E0022070BDCD
:101F1000302844D0402834D139E0602828D07028B7
:101F200006D0B0F5805F2CD0B0F5005F29D10AE073
:101F30004A682068D1E9021301F0C3FB2068816878
:101F400041F0770109E04A682068D1E9021301F005
:101F5000B8FB2068816841F48041816011E0CA6863
:101F60004968206801F0F4FC2068502107E016E081
:101F7000CA684968206801F0FCFC2068602101F013
:101F8000A9FB002084F83D5084F83C0070BDCA686D
:101F90004968206801F0DCFC20684021EFE72268F6
:101FA00001461046EBE7000088FFFEFF704770B562
:101FB0000446006800250169C943890715D4C16832
:101FC000C943890711D4EA1E0261012121772068E3
:101FD00080698007204602D0FFF7E8FF04E000F0A8
:101FE000CFF8204600F0A2F9257720680169C9439F
:101FF000490717D4C168C943490713D402216FF0B8
:102000000402026121772068806910F4407F204635
:1020100002D0FFF7CBFF04E000F0B2F8204600F05A
:1020200085F9257720680169C943090716D4C16875
:10203000C943090712D404216FF008020261217715
:102040002068C0698007204602D0FFF7AFFF04E098
:1020500000F096F8204600F069F9257720680169BC
:10206000C943C90617D4C168C943C90613D4082196
:102070006FF01002026121772068C06910F4407F80
:10208000204602D0FFF792FF04E000F079F82046E6
:1020900000F04CF9257720680169C943C90708D1C8
:1020A000C168C943C90704D1891E0161204600F0F7
:1020B000BBF920680169C943090609D4C168C9434D
:1020C000090605D46FF0800101612046FFF7DFFDAE
:1020D00020680169C943C90509D4C168C943090613
:1020E00005D46FF4807101612046FFF7CFFD2068B1
:1020F0000169C943490609D4C168C943490605D4E1
:102100006FF040010161204600F08FF920680169FD
:10211000C94389060BD4C168C943890607D46FF047
:10212000200101612046BDE87040FFF7B1BD70BDE0
:1021300010B586B0044614216846FEF7C5F80D496F
:102140002068884214D10C48016841F00101016007
:1021500000680021082200F0010005900220009292
:10216000CDE90101CDE9031004486946FEF7C6FC3C
:1021700006B010BD000C00403038024000000240A4
:10218000704770B5044690F83C000D4601280BD00E
:10219000012084F83C000C2A45D007DC5AB1042AFF
:1021A0001BD0082A78D12CE0022070BD102A4ED016
:1021B000142A71D15DE0206801F094FA20688169E9
:1021C00041F0080181612068816921F00401816189
:1021D00020682A698169114311E0206801F0BCFA86
:1021E0002068816941F4006181612068816921F47E
:1021F0008061816120682969826942EA01218161E7
:102200004AE0206801F0E4FA2068C16941F0080161
:10221000C1612068C16921F00401C16120682A6997
:10222000C169114311E0206801F00EFB2068C1690B
:1022300041F40061C1612068C16921F48061C1611C
:1022400020682969C26942EA0121C16124E020684D
:1022500001F026FB2068416D41F0080141652068CE
:10226000416D21F00401416520682A69416D1143E7
:1022700011E0206801F040FB2068416D41F40061ED
:1022800041652068416D21F48061416520682969BC
:10229000426D42EA01214165002084F83C0070BD96
:1022A00010B5040003D094F83D0010B107E0012000
:1022B00010BD002084F83C00204600F023F80220E6
:1022C00084F83D002068211D01F088F9012084F880
:1022D000480084F83E0084F83F0084F8400084F809
:1022E000410084F8420084F8430084F8440084F8F4
:1022F000450084F8460084F8470084F83D0000203B
:1023000010BD000008B500680649884208D106489B
:10231000016841F008010160006800F008000090C9
:1023200008BD0000000C004040380240704700002B
:1023300010B504464FF0020269B1042912D00829F1
:1023400017D00C291CD0102921D094F84300012863
:1023500024D0012010BD94F83E000128F9D184F862
:102360003E201DE094F83F000128F2D184F83F2080
:1023700016E094F840000128EBD184F840200FE0EB
:1023800094F841000128E4D184F8412008E094F851
:1023900042000128DDD184F8422001E084F8432086
:1023A0000122206801F080F917492068174A884205
:1023B00001D0904203D1436C43F40043436420684E
:1023C000884213D0B0F1804F10D0114988420DD00F
:1023D000104988420AD01049884207D0904205D05F
:1023E0000E49884202D00E49884207D181680D4AC1
:1023F0001140062906D0B1F5803F03D0016841F0B5
:1024000001010160002010BD0000014000040140F6
:102410000004004000080040000C00400040014063
:1024200000180040070001007047704710B5040015
:1024300002D0A06F10B107E0012010BD002084F889
:102440007400204600F026F82420A0672068016868
:1024500021F001010160204601F0F0FD0128ECD0DF
:10246000606A10B1204601F03FFD2068416821F408
:10247000904141602068816821F02A0181602068D4
:10248000016841F0010101602046BDE8104001F003
:102490008FBD000010B586B0044614216846FDF7D4
:1024A00013FF1249206888421ED11148016841F487
:1024B00080210160006800F4802005900C481038ED
:1024C000016841F00801016000680221002200F06B
:1024D00008000590032307244FF440708DE81F0087
:1024E00004486946FEF70AFB06B010BD00480040EC
:1024F00040380240000C02402DE9F8430446806F4A
:102500001F4616460D46202850D1CDB1C6B194F8CD
:10251000740001284AD0012084F8740021224FF071
:102520000008C4F88080A267FEF7DEFB8146A06841
:10253000A4F85060A4F85260B0F5805F03D004E0C6
:102540000120BDE8F883206928B12E465FF0000520
:1025500084F8748010E00026FAE78021204601F01C
:1025600087FEB8B9C6B116F8010B21688862B4F8C5
:102570005200401EA4F85200B4F852004B464FF0EF
:10258000000200970028E8D14FF04001204601F0FA
:102590006FFE38B10320D4E735F8020B2168C0F391
:1025A0000800E3E72020A0670020CAE70220C8E770
:1025B000FEE70000FEB52A4E2A4C3068807850B302
:1025C0002948006890F83C0002F02EFA27494FF69F
:1025D000FF75A0880323009525A2CDE9010178218C
:1025E0001420FEF793F821490323A08822A2083182
:1025F0000095CDE901017821AF20FEF787F81B484F
:1026000000210095022310301DA2CDE90110C82140
:10261000B420FEF77BF8022002F036F910B93068DA
:10262000807838B16088062200901E2123884620D9
:10263000FEF7BAF802F096FA0C48032102F084F88B
:1026400040B1012808D0022808D10720BDE8FE408B
:1026500002F03CB80220F9E70320F7E7FEBD0000D6
:10266000440000202A000020400000205C030020DD
:102670004D55534943000000434C4F434B0000006D
:1026800053455454494E4753000000002DE9FE4F76
:1026900092469B4620288946DDE90C6201D320380A
:1026A000C0B2234B01AC00EB4001002003EB410121
:1026B000431C0D5C2554D8B20628F9D306EB46011D
:1026C0004FF6FF7000EAC603009200EA410251464D
:1026D000484600F047F90127A04600255FF00004B6
:1026E00018F8050007FA04F108420DD0012E15D0A4
:1026F00004FB06A105FB06903346CDF800B089B275
:102700001A4680B200F02EF9641CE4B2082CE7D31C
:102710006D1CEDB2062DE1D3BDE8FE8F0AEB04017E
:102720005A4609EB050089B280B200F06FF8EBE77A
:10273000044C00082DE9F0470E4607464FF4FA74A2
:10274000B4EB460F00D90C46DFF8849001224D46C9
:1027500048465102FEF7C3FA4FF4807A2846002219
:102760005146FEF7BCFA4FEA1728204602F026F938
:1027700005460020F9B204E02B1805F80080801C03
:102780005970A042F8D37000B0FBF4F1B0FBF4F73D
:1027900004FB110857B1002606E0A2B20D480A2337
:1027A0002946FFF79DF9761CBE42F6D31FFA88F240
:1027B00008480A232946FFF793F901225146484663
:1027C000FEF78DFA2846BDE8F04702F035B8000064
:1027D00000080240E0000020F8B54FF0000C161A87
:1027E0006746069D01D54FF0010C5C1A00D5012704
:1027F000BCF1000F01D0861A1046B2B20FB1CC1A4C
:102800001946A3B2009500F0ADF8F8BD2DE9FE43DE
:10281000054651480C46164641888D427DD20088B7
:1028200084427AD2DFF834814FF4007700223946AF
:102830004046FEF754FA4FF480794046002249465C
:10284000FEF74DFA2A2000F02FFA012239464046C1
:10285000FEF745FA012249464046FEF740FA0022BB
:1028600049464046FEF73BFA681C290A8DF80010DD
:102870008DF80150020A8DF8022001238DF8030023
:10288000042237486946FFF72BF9012249464046A2
:10289000FEF725FA002239464046FEF720FA0022CC
:1028A00049464046FEF71BFA2B2000F0FDF90122B5
:1028B00039464046FEF713FA012249464046FEF7E4
:1028C0000EFA002249464046FEF709FA601C210A2A
:1028D0008DF804108DF80540020A8DF806200123BA
:1028E0008DF8070004221E4801A9FFF7F9F801221C
:1028F00049464046FEF7F3F9002239464046FEF7C6
:10290000EEF9002249464046FEF7E9F92C2000F096
:10291000CBF901223946404600E01BE0FEF7DFF923
:10292000012249464046FEF7DAF900224946404670
:10293000FEF7D5F9300A8DF8080009480123022274
:102940008DF8096002A9FFF7CBF8012249464046FD
:10295000FEF7C5F9BDE8FE83000000200008024034
:10296000E00000202DE9F041154C16461D46069F5B
:102970006288904221D2228891421ED263888219B5
:10298000521E9A4202DB6288121A96B223884A19B2
:10299000521E9A4202DB2288521A95B24B198219B2
:1029A0005B1E521E9BB292B200F088F905FB06F145
:1029B0003846BDE8F041FFF7BDBEBDE8F08100003C
:1029C000000000202DE9FC47994692460D4604463A
:1029D000DDE90A7807EB47060AE0641C4B46CDE9BF
:1029E000007852462946FFF751FE05EB460085B2B6
:1029F00020780028F1D1BDE8FC87000001220248C0
:102A00009102FEF76CB900000008024070B5084C56
:102A10000546238862880021084600F04FF9618846
:102A2000208841432846BDE87040FFF783BE000080
:102A30000000002010B5FFF7E1FF00F025F900F0DD
:102A400005F9012000F08CF94FF47A70FEF744F894
:102A5000CB2000F085F9392000F09EF92C2000F001
:102A60009BF9002000F098F9342000F095F902203D
:102A700000F092F9CF2000F073F9002000F08CF9FB
:102A8000C12000F089F9302000F086F9E82000F03C
:102A900067F9852000F080F9002000F07DF97820AA
:102AA00000F07AF9EA2000F05BF9002000F074F9F8
:102AB000002000F071F9ED2000F052F9642000F0E0
:102AC0006BF9032000F068F9122000F065F981200D
:102AD00000F062F9F72000F043F9202000F05CF9E3
:102AE000C02000F03DF9232000F056F9C12000F08D
:102AF00037F9102000F050F9C52000F031F93E20E0
:102B000000F04AF9282000F047F9C72000F028F922
:102B1000862000F041F9362000F022F9482000F02C
:102B20003BF93A2000F01CF9552000F035F9B120AE
:102B300000F016F9002000F02FF9182000F02CF911
:102B4000B62000F00DF9082000F026F9822000F0F0
:102B500023F9272000F020F9F22000F001F90020ED
:102B600000F01AF9262000F0FBF8012000F014F91B
:102B7000E02000F0F5F80F2000F00EF9312000F011
:102B80000BF92B2000F008F90C2000F005F90E20BD
:102B900000F002F9082000F0FFF84E2000F0FCF8E9
:102BA000F12000F0F9F8372000F0F6F8072000F0E7
:102BB000F3F8102000F0F0F8032000F0EDF80E20FC
:102BC00000F0EAF8092000F0E7F8002000F0E4F84F
:102BD000E12000F0C5F8002000F0DEF80E2000F043
:102BE000DBF8142000F0D8F8032000F0D5F811200D
:102BF00000F0D2F8072000F0CFF8312000F0CCF838
:102C0000C12000F0C9F8482000F0C6F8082000F004
:102C1000C3F80F2000F0C0F80C2000F0BDF8312000
:102C200000F0BAF8362000F0B7F80F2000F0B4F842
:102C3000112000F095F87820FDF74EFF292000F0D4
:102C40008FF8BDE81040002000F062B870B50D4D5F
:102C50004FF48064002221462846FEF740F8C82041
:102C6000FDF73AFF00222846A110FEF738F8C820E9
:102C7000FDF732FF21462846BDE870400122FEF7ED
:102C80002EB800000008024010B500F0D9F900F09D
:102C9000D1F8BDE81040034800224FF48071FEF7E0
:102CA0001EB8000000080240012301B502481A4680
:102CB0006946FEF715FF08BDE00000202DE9F04150
:102CC0001C4615460E4607462A2000F049F8380AE9
:102CD00000F062F8F8B200F05FF8280A00F05CF843
:102CE000E8B200F059F82B2000F03AF8300A00F072
:102CF00053F8F0B200F050F8200A00F04DF8E0B2BE
:102D000000F04AF8BDE8F0412C2000F029B800009E
:102D10002DE9F0410746362000F022F80120FDF7AA
:102D2000DBFE0E4C4FF4A0764FF0F00567B1012F9B
:102D30000CD0022F0CD0032F04D1E82000F02CF887
:102D400066802580BDE8F081482002E02820F5E774
:102D5000882000F021F865802680F3E7000000203D
:102D600070B50C4D4FF4807400220646214628466B
:102D7000FDF7B5FF002228466100FDF7B0FF3046A1
:102D8000FFF792FF21462846BDE870400122FDF77B
:102D9000A6BF00000008024070B50B4C0122064699
:102DA00051022046FDF79BFFA5152046002229462B
:102DB000FDF795FF3046FFF777FF29462046BDE82F
:102DC00070400122FDF78BBF000802400EB50A20BB
:102DD00001F02AFE022001F057FD18B911480068E1
:102DE000807840B110480622418800915A2103881A
:102DF0004B20FDF7D9FC01F0B5FE0C49D1E90401E7
:102E0000CDE90101012101A801F09EFC002808D1B3
:102E10000748006890F83C0001F006FE012001F030
:102E200055FC0EBD440000202A0000205C4E000826
:102E3000400000202DE9F04F87B014216846FDF7CF
:102E400043FA6F48016841F010010160016801F028
:102E500010010591016841F004010160016801F071
:102E600004010591016841F020010160016801F051
:102E700020010591016841F080010160016801F0C5
:102E800080010591016841F001010160016801F0D4
:102E900001010591016841F002010160016801F042
:102EA00002010591016841F008010160016801F02B
:102EB00008010591016841F04001016000680022AD
:102EC000504D682100F0400005902846FDF707FFAF
:102ED00044F2810A4C4800225146FDF700FF4B485E
:102EE00000224021FDF7FBFE4FF4E06B4848002232
:102EF0005946FDF7F4FE0024694614200294CDE9FA
:102F000000042846FDF7FAFD682000900127694675
:102F1000CDE9017428460394FDF7F0FD3D494FF4D7
:102F20000059CDF80090CDE9011439486946FDF704
:102F3000E5FD02254FF00B083220694602AACDE9D3
:102F400000050326324882E85001FDF7D7FD8620B0
:102F5000694602AACDE900052F4882E85001FDF735
:102F6000CDFDCDF800A06946CDE901742648039453
:102F7000FDF7C4FD02AA2448694682E85001CDE964
:102F80000095FDF7BBFD40200090CDE901741F487E
:102F900069460394FDF7B2FD80206946CDE900043F
:102FA0001A480294FDF7AAFDCDF800B06946CDE9B4
:102FB000017417480394FDF7A1FD4FF4E850009009
:102FC0000A206946CDE903601348CDE90154FDF7B5
:102FD00095FD28026946CDE900040F480294FDF7EB
:102FE0008DFD4FF42051094802AACDE9001569462C
:102FF00082E85001FDF782FD07B0BDE8F08F0000C8
:103000003038024000100240000402400018024024
:103010000008024000001110000002400749064865
:1030200010B508600846FEF781FC002803D0BDE813
:103030001040FDF74FBD10BD00080650D000002025
:1030400070B5104D4FF4E0630F4800214FF48274C7
:103050006A15C0E9021301610723C0E90512C161C5
:1030600001624162C0E90A1301634163C0E900548F
:10307000FEF78AFC002803D0BDE87040FDF72ABDAA
:1030800070BD000000500140E000002010B588B085
:1030900017490024174842F2107200948B150194CE
:1030A0000294039404940594069480E81600C0E901
:1030B000034344618461FEF73FFE08B1FDF70AFD5A
:1030C0004FF4805000900B486946FEF701FF08B1AD
:1030D000FDF700FD074804A9049405940694FEF743
:1030E000D9FD002801D0FDF7F5FC08B010BD0000A7
:1030F000000001404401002010B588B016480024AB
:1031000040F2E733632200944FF08041019402942F
:10311000039404940594069480E81600C0E90334EF
:103120008461FEF709FE08B1FDF7D4FC4FF480502E
:10313000009009486946FEF7CBFE08B1FDF7CAFCCE
:10314000054804A904940694FEF7A4FD002801D0C4
:10315000FDF7C0FC08B010BD9001002010B588B08C
:10316000174800241549632240F2E7330094019484
:103170000294039404940594069480E81600C0E930
:1031800003348461FEF7D8FD08B1FDF7A3FC4FF4CA
:10319000805000900A486946FEF79AFE08B1FDF794
:1031A00099FC074804A904940694FEF773FD0028CF
:1031B00001D0FDF78FFC08B010BD000000040040F6
:1031C000DC01002010B588B017480024154963229F
:1031D00040F2E7330094019402940394049405941C
:1031E000069480E81600C0E903348461FEF7A4FD6C
:1031F00008B1FDF76FFC4FF4805000900A48694613
:10320000FEF766FE08B1FDF765FC074804A90494C3
:103210000694FEF73FFD002801D0FDF75BFC08B0E7
:1032200010BD0000000800402802002010B58AB040
:10323000002468461C21079408940994FDF744F87B
:10324000164840F2E7316322134BC0E902410461A2
:103250008461C0E90032FFF723F808B1FDF73AFCBA
:103260000E4807A907940994FEF714FD08B1FDF76D
:1032700031FC60206946CDE9000408480C22029424
:103280000494FEF77EFF08B1FDF724FC0348FEF727
:103290004FFF0AB010BD0000000C00407402002077
:1032A0000D48002110B50B4C0C224FF4E1330460A3
:1032B000C0E90131C160C0E904128161C1610162EC
:1032C0004162FFF7B3F8002803D0BDE81040FDF7D6
:1032D00001BC10BD00480040C0020020FEE7FEE730
:1032E0007047F8B515460E4604460B464FF4C051DC
:1032F0000092002200F01AF888B90022334680219B
:103300002046009500F076F848B9002233464FF485
:10331000C0612046009500F009F8002804D0206E16
:1033200040F0200020660320F8BD00002DE9FC4796
:10333000994617460E4604460A9DFDF7D5FC411BEB
:10334000A9EB0105FDF7D0FC804629484FF4C06A7F
:103350000068C0EBC00000EB8000000D68433FE058
:10336000564502D10FB9007B0190B9F1FF3F38D02B
:10337000FDF7BAFCA0EB0800A84203D215B10098F3
:1033800060B32CE02068416821F0E0014160606892
:10339000B0F5827F0BD1A068B0F5004F02D0B0F538
:1033A000806F04D12068016821F040010160A06AAB
:1033B000B0F5005F09D12068016821F40051016077
:1033C0002068016841F400510160012184F85D101A
:1033D000002084F85C000320BDE8FC870025401E27
:1033E0000090206881683140B942B9D10020F3E7EC
:1033F000200000202DE9F8431E46914688460446E9
:10340000089DFDF771FC401B351AFDF76DFC074662
:1034100025480068C0F3CB30684338E0701C37D0D3
:10342000FDF762FCC01BA84203D215B1009860B33F
:103430002CE02068416821F0E00141606068B0F54F
:10344000827F0BD1A068B0F5004F02D0B0F5806F3D
:1034500004D12068016821F040010160A06AB0F544
:10346000005F09D12068016821F4005101602068E3
:10347000016841F400510160012184F85D100020D1
:1034800084F85C000320BDE8F8830025401E00900E
:103490002068816838EA010004D000214945BDD187
:1034A0000020F0E70121F9E7200000207047FDF738
:1034B00021BC000070B5B8B0342124A8FCF704FF8B
:1034C000142131A8FCF700FF90216846FCF7FCFEB0
:1034D000FDF7D2FC2548016841F080510160006889
:1034E00000F0805036902248016841F4404101606C
:1034F00000684FF4A021022400F4404036900120DF
:10350000C825820509260423CDE92A42CDE92401F4
:10351000CDE92C35CDE92E4624A8FEF73BF808B1BD
:1035200072B6FEE7FDF772FC08B172B6FEE74FF423
:1035300080524FF4A0510025CDE9341231AA0F205A
:10354000062182E8310031A8FDF73CFF08B172B6D0
:10355000FEE7084813951F9500906846FDF794FC18
:10356000002801D072B6FEE738B070BD4038024086
:1035700000700040000120000248016841F4700121
:103580000160704788ED00E0044810B5FEF70FFDBC
:1035900003480168491C016010BD00009001002033
:1035A00008000020044810B5FEF701FD034801683B
:1035B000491C016010BD0000DC010020100000204B
:1035C000044810B5FEF7F3FC03480168491E01608A
:1035D00010BD0000280200200C000020F0B5274B91
:1035E0004FF0804E264D02689842264E264F274CBB
:1035F00009D0704507D0A84205D0B04203D0B842E8
:1036000001D0A04205D1D1F804C022F070024CEAEA
:10361000020298421BD0704519D0A84217D0B04280
:1036200015D0B84213D0A04211D0194DA8420ED0E7
:10363000184DA8420BD0184DA84208D0174DA842EB
:1036400005D0174DA84202D0164DA84203D1CD682F
:1036500022F440722A434D6922F080022A4302601C
:1036600098428A68C2620A68826201D0A04201D18F
:103670000969016301214161F0BD000000000140C2
:103680000004004000080040000C0040000401401D
:103690000040014000440140004801400018004043
:1036A000001C00400020004010B5046A012301F016
:1036B0001F018B409C4304628A40016A11430162EE
:1036C00010BD42EA032283680A4323F47F410A4380
:1036D00082607047826822F070020A4342F007015C
:1036E00081607047F0B5026ADFF860C0184F22F0C1
:1036F0000102DFF860E00262066A4268836926F030
:1037000002060D68B8428C6803EA0C0323F0030339
:1037100044EA060445EA030501D0704505D1CB68AB
:1037200024F00804234323F00404B84201D0704578
:1037300005D122F44076D1E9053233431A43426081
:103740008561496841630462F0BD00008FFFFEFFA0
:103750000000014000040140F0B5026A194E1A4C05
:1037600022F01002DFF864E00262056A43688269B1
:1037700025F02005D1F808C0A0420F6802EA060231
:1037800022F4407245EA0C1542EA072201D0704546
:1037900006D1CE6825F0800545EA061525F04005DE
:1037A000A04201D0704507D1D1E9054623F440631A
:1037B00043EA840343EA8603436082614968816384
:1037C0000562F0BDFF8FFFFE0000014000040140D4
:1037D000F0B5026A194F1A4E22F48072DFF864E0E5
:1037E0000262056A4368C26925F40075D1F808C011
:1037F000B0420C6802EA070222F0030245EA0C25F7
:1038000044EA020401D0704506D1CF6825F4006275
:1038100042EA072222F48065B04201D0704507D108
:1038200023F44052D1E9053642EA031242EA061374
:103830004360C4614968C1630562F0BD8FFFFEFF4C
:103840000000014000040140F0B5026A124B114F24
:1038500022F4805298420262046A4268C36924F4E6
:1038600000548E680D6803EA070323F4407344EAAA
:10387000063443EA052302D0084DA84204D14D691D
:1038800022F4804242EA85124260C36149680164C1
:103890000462F0BDFF8FFFFE000001400004014004
:1038A000F0B5026ADFF844C022F480320262056A91
:1038B0004268446D25F400350E8960450C4F0B6855
:1038C00004EA070445EA064543EA040302D0094C2A
:1038D000A04204D14C6922F4803242EA04224260C0
:1038E0004365496881650562F0BD00000000014044
:1038F0008FFFFEFF00040140F0B5026ADFF844C00C
:1039000022F480120262046A4268436D24F40014B7
:103910000E8960450C4F0D6803EA070344EA06541C
:1039200043EA052302D0094DA84204D14D6922F48F
:10393000802242EA8522426043654968C16504628B
:10394000F0BD000000000140FF8FFFFE00040140B9
:1039500010B5036A046A23F00A0324F00104046228
:1039600084690B4324F0F00141EA02118161036292
:1039700010BD10B5036A23F0100303628369046A63
:1039800023F4704324F0A00443EA0232826144EA43
:103990000111016210BD00002DE9F0410F4E10250C
:1039A0005FF000044FF6FF7701223046082107EA56
:1039B0004404FDF794F9002230460821FDF78FF901
:1039C00010213046FDF786F908B1641CA4B26D1EC3
:1039D00015F0FF05E8D12046BDE8F0810010024057
:1039E0002DE9F047DFF8DC90012208210646484621
:1039F000FDF775F9012248462021FDF770F90122F3
:103A000048464021FDF76BF9002748464FF47A7A83
:103A10003C46402155463A46FDF761F90EE09020BC
:103A200000F062F8FFF7B8FF0744D02000F05CF820
:103A3000FFF7B2FF641C6D1E804405D00421484688
:103A4000FDF748F90028EAD001224D4640214846BA
:103A5000FDF745F9544504D104212846FDF73AF90C
:103A600020B1002030807080BDE8F087B8FBF4F012
:103A7000B7FBF4F140F21112CC239FED130B40423F
:103A80004C4281B2B1FBF2F1A0B2B0FBF3F0C1F154
:103A9000E30101EE101A0F3801EE900AB8EEC12BC7
:103AA000B8EEE11B22EE002B21EE001BBCEEC20B98
:103AB000FCEEC10B10EE100A3080012010EE901ABF
:103AC0007180D1E7001002408FC2F5285C8FF23F71
:103AD0000448042110B5FDF7FDF808B1002010BD21
:103AE000012010BD0010024070B5114E08240022C4
:103AF000054621463046FDF7F2F8280601D5012299
:103B000000E0002230462021FDF7E9F86806012296
:103B1000050E30460821FDF7E2F800223046082164
:103B2000FDF7DDF8641E14F0FF04E6D170BD00005F
:103B3000001002403EB5184D28688078C8B1174C77
:103B4000E088FEF763FFE18804206422CDE90001EC
:103B5000638813A01146FEF735FF134A4FF6FF7036
:103B6000A18803238DE80700B4216A200FA2FCF787
:103B7000CDFD00F0F7FF0C48012100F0E5FD002825
:103B800009D10C4801680020087728684078BDE812
:103B90003E4000F09BBD3EBD440000202A000020B6
:103BA00054494D45520000005C03002053544F50CF
:103BB00000000000400000202DE9FF5FDFF838A280
:103BC000DAF80000016A002905DC416A002902DCFC
:103BD000806A002801DD012000E00020DFF81CB22F
:103BE0008146874DAC1FDBF80000807800287AD032
:103BF000844985A0FCF718FFDAF800004FF6FF783B
:103C0000804E1036007F40B1012806F108072DD004
:103C1000022843D0032859D065E0607808B17CA021
:103C200000E07DA0774A01210832FCF721FFB9F1BD
:103C3000000F01D06078B8B168890323CDF8008007
:103C40009621CDE90106282074A2FCF75FFD60787B
:103C5000002847D074496B48183091E84E1101276D
:103C600080E84E11A7703EE0A889E6E7A988022304
:103C7000CDF800802820CDE9011696216BA2FCF733
:103C800045FD29890223CDF80080C420CDE9011724
:103C9000962168A2FCF73AFD022023E0A9880223BE
:103CA000CDF800802820CDE9011696215FA2FCF70F
:103CB0002DFDA9890223CDF80080B820CDE9011798
:103CC00096215EA2FCF722FD03200BE0A8880323C7
:103CD000CDF800809621CDE90106282059A2FCF7F5
:103CE00015FD0420A07047495646DAF800000C394B
:103CF0000B68026A93420BD1436A4F689F4207D117
:103D0000836A8968994203D1DBF80010897881B110
:103D1000617809B1E98900E069882B88052501955A
:103D2000CDE90231816A00914621436A2820FCF7DF
:103D30008DFD00F017FF3348062100F005FD60B14E
:103D4000A17881B101291DD0022942D003294DD08B
:103D500004294FD102284DD142E004B00320BDE830
:103D6000F05F00F0B3BC012807D0022842D1B9F1BE
:103D7000000F37D000F086F834E06078A0B1002062
:103D800060702FE00128F8D003280FD03C210428D0
:103D900016D005282ED13268906A401C90FBF1F3B2
:103DA00001FB130090621DE00120E9E73168632206
:103DB000086A401C90FBF2F302FB1300086211E05A
:103DC0003268506A401C90FBF1F301FB1300506213
:103DD00008E0022804D003280CD100F039F801E0F3
:103DE00000F03EF8BDE8FF5F00F0AABE0228F7D061
:103DF0000328BFD0BDE8FF9F400000204400002002
:103E00002A0000205C03002054494D455200000068
:103E1000444F4E45000000005345540020202053DD
:103E20005441525420202000844E000852455345EE
:103E30005400000050415553450000005245535571
:103E40004D4500002020205245534554202020009D
:103E500002480168022008777047000040000020F7
:103E600006480021064B10B500681A68D3E90143E3
:103E70008362C0E90824017710BD000040000020E3
:103E80004403002010B5124C86B001212068017750
:103E9000816A00910FA1D0E9082301A800F03CFA43
:103EA00001A800F0B3F8206840F253730C4CD0E93D
:103EB0000812806A61435A4300EB4003C3EBC01011
:103EC00001EB421101EBC0000649086006B010BDCD
:103ED0004000002025326420253264202532640011
:103EE00080EE36000C00002090F82410C90706D0A0
:103EF0000168836A4A6822F400321A434A6090F8E3
:103F00002410890706D50168C36A4A6822F4803202
:103F10001A434A6090F82410490706D50168036BDC
:103F20004A6822F480221A434A6090F82410090754
:103F300006D50168436B4A6822F400421A434A607E
:103F400090F82410C90606D50168836B8A6822F4AC
:103F500080521A438A6090F82410890606D50168B9
:103F6000C36B8A6822F400521A438A6090F82410C6
:103F7000490611D50168036C4A6822F480121A437D
:103F80004A60016CB1F5801F06D10168436C4A6834
:103F900022F4C0021A434A6090F82410090606D59C
:103FA0000168826C486820F4002010434860704724
:103FB000F8B500260446C0F88060FCF795FE05467B
:103FC00020686FF07E470068000708D500222B4666
:103FD0004FF400112046009700F04AF960B92068BC
:103FE000006840070AD500222B464FF48001204686
:103FF000009700F03DF908B10320F8BD2020A0672C
:10400000E0672666002084F87460F8BD70B5044649
:10401000FCF765F94FF47A75214682B205482B46C4
:10402000FEF76AFA2B460348BDE87040042202A15D
:10403000FEF762BAC00200200A0D00002DE9F0412F
:1040400004460368C2698168D4E90450DFF8F4C10A
:104050007D4E29431F68002510437C4A014307EA2F
:104060000C070F431F604FF400402168E7684B685E
:1040700023F440533B434B602768A369216AD7F878
:1040800008C019432CF430630B43BB602168B14274
:104090000AD1116811F0030152D001297CD0022904
:1040A00071D003296ED184E0694B99420AD111681D
:1040B00011F00C0167D0042965D0082975D00C29AE
:1040C00060D176E0634B99420AD1116811F030015A
:1040D00059D010296BD0202967D0302952D168E0FF
:1040E0005D4B99420AD1116811F0C0014BD04029B3
:1040F0005DD0802959D0C02944D15AE0574B99420C
:104100000DD1116811F440713DD0B1F5807F4ED0D2
:10411000B1F5007F49D0B1F5407F33D149E0504B34
:1041200099420FD1116811F4406109D0B1F5806F47
:104130003DD0B1F5006F38D0B1F5406F22D138E0F5
:10414000012120E0474B99420DD1116811F44051F3
:1041500019D0B1F5805F2AD0B1F5005F25D0B1F557
:10416000405F0FD125E0404B99420BD1116811F40B
:10417000404108D0B1F5804F19D0814215D0B1F53A
:10418000404F16D01021E369384A4FF6EF7683424C
:104190002FD109294BD201E009E006E0DFE801F068
:1041A0000B0E11471347474716000221EBE7042186
:1041B000E9E70821E7E7FDF79DF906E0FDF7AAF931
:1041C00003E0104602E0FDF7B5F988B361684000EE
:1041D00000EB5100B0FBF1F080B2A0F11001B14250
:1041E00025D84FF6F0732168C0F3420218401043FF
:1041F00020E009291BD2DFE801F005080B1A0D1A8F
:104200001A1A1000FDF776F906E0FDF783F903E0CE
:10421000104602E0FDF78EF950B1616800EB5100E5
:10422000B0FBF1F080B2A0F11001B14201D901253B
:1042300001E02168C86000206066A0662846BDE8ED
:10424000F0810000F369FFEF001001409038024058
:104250000044004000480040004C00400050004036
:104260000014014000780040007C00400024F4006D
:104270002DE9F0479A4617460E460446089D4FF032
:1042800000094FF0200839E0681C37D0FCF72CFDFE
:10429000A0EB0A00A84222D80DB3206801684907A4
:1042A0002CD5C069C043000528D423684FF40061B1
:1042B000196221680B6823F4D0730B6021688B6846
:1042C00023F001038B60C4F87880C4F87C80C4F8C4
:1042D000808000BF032084F87490BDE8F0872168D7
:1042E0000B6823F4D0730B6021688B6823F0010303
:1042F0008B60C4F87880C4F87C80EBE72068C069E4
:1043000036EA000004D00020B842BDD00020E4E727
:104310000120F9E7FEE700000FB4084B10B504A92F
:1043200002AA039800F02CF8044602A9002000F02D
:10433000C8F9204610BC5DF814FB0000C346000815
:10434000090700284FEA116104DB00F1E02080F842
:104350000014704700F00F0000F1E02080F8141DF9
:10436000704702E008C8121F08C1002AFAD170473E
:104370007047002001E001C1121F002AFBD17047E5
:104380002DE9FF4F8BB088460546002606E025281C
:104390000BD0DDE90D1290476D1C761C28780028A3
:1043A000F5D10FB03046BDE8F08F0024A146A246FB
:1043B0000122AE4900E0044315F8013F203B02FA18
:1043C00003F00842F7D128782A2810D06FF02F0286
:1043D0002878A0F13001092915D809EB890102EBF1
:1043E000410144F0020400EB01096D1CF0E758F8AC
:1043F000041B5FEA010903D544F40054C9F1000924
:1044000044F002046D1C28782E2817D115F8010FEE
:1044100044F004042A280ED06FF02F022878A0F16F
:10442000300109290AD80AEB8A0102EB410100EBAD
:10443000010A6D1CF2E758F804AB6D1C28786C2853
:104440000FD006DC4C2817D068280DD06A2814D16C
:1044500004E0742810D07A280FD10DE044F4001441
:104460000AE044F4801401E044F440146978814285
:1044700002D104F580146D1C6D1C2878692865D064
:1044800006DC00288DD0632827D0642806D15DE0A3
:104490006E2808D073282AD0752877D0DDE90D1250
:1044A0009047761CE0E0C4F30250022809D00328AC
:1044B0000DD0D8F8001004280DD00E6008F10408C3
:1044C000D2E0D8F80010F217C1E90062F6E7D8F898
:1044D00000100E80F2E70E70F0E718F8041B8DF85C
:1044E000001000208DF80100EB46012003E058F891
:1044F00004BB4FF0FF3061074FF0000701D40AE022
:104500007F1C57450DDA8742FADB1BF8071000299C
:10451000F6D106E07F1C8742FCDB1BF80710002960
:10452000F8D1DDE90D23A9EB07008146214600F013
:10453000B1F83044C61904E0DDE90D121BF8010B97
:1045400090477F1EF8D22146484688E058F8040B71
:10455000C4F302514FF00A0B032900D100B2042921
:1045600000D140B2002802DA40422D2102E02105AC
:1045700005D52B218DF82410012104E006E0E10788
:1045800010D02021F6E708AF089113E058F8040B8B
:10459000C4F302514FF00A0B032900D180B2042961
:1045A00000D1C0B20021EEE75946FBF79FFE303143
:1045B00007F8011D0028F7D1ADEB070000F1200B33
:1045C000600702D524F4803401E04FF0010ADA4597
:1045D00002DDAAEB0B0000E00020824600EB0B019D
:1045E00008980144A9EB01000A90E00306D4DDE934
:1045F0000D2321460A9800F04DF806444FF00009BB
:1046000008E009A911F80900DDE90D12904709F148
:104610000109761C08998945F3DBE0030CD5DDE937
:104620000D2321460A9800F035F8064404E0DDE940
:104630000D1230209047761CBAF10001AAF1010A50
:10464000F5DC05E0DDE90D1217F8010B9047761C4B
:10465000BBF10001ABF1010BF4DC0A982146DDE966
:104660000D2300F005F806446D1C97E609280100AB
:104670002DE9F041044600251E461746880404D45F
:1046800005E039462020B0476D1C641EF9D5284648
:10469000BDE8F0812DE9F041044600251E46904614
:1046A000C80301D5302700E02027880404D505E0A1
:1046B00041463846B0476D1C641EF9D52846BDE812
:1046C000F0810A68531C0B60107070470349096839
:1046D0000A784A70087000F033BA000044000020E5
:1046E000084810B50068017B012909D1D0E90421EF
:1046F000D0E90043944203D18B4201D103210173DD
:1047000010BD0000400000200268B2F57A7F14D38B
:104710000C4BA2F57A720260002118688268521C64
:1047200082603C2A426802DB521CC0E901213C2A1B
:10473000026803DB521CC0E900217047182AFCDB29
:104740000160704740000020F8B50D460446FFF7B1
:10475000BFF920B36846FFF743F901281FD10020B5
:104760001BE000BF04EBC00134F830204B888F8879
:10477000CE88C3F1F00189B2BDF800308E1B8B42A8
:104780001744B9B2B6B207D8B34205D3BDF8023068
:10479000934201D38B4204D9401CA842E2DB4FF084
:1047A000FF30F8BD70B5224D224C2868007B0328ED
:1047B00008D120680078082804D0092802D00820F1
:1047C000FFF784FF2868007F032808D1206800785D
:1047D000092804D0082802D00920FFF777FF2068B5
:1047E00000780A2822D2DFE800F00509210D112106
:1047F0001521191DBDE87040FEF7E8BABDE870400C
:10480000FDF7D8BEBDE87040FBF79CBEBDE8704028
:10481000FBF704BEBDE87040FFF7CEB9BDE87040BD
:10482000FBF7ACBDBDE87040FFF784B970BD000078
:10483000400000204400002010B5002821D0114B7A
:104840000022001F196803E0814203D80A46496824
:104850000029F9D152B11368841A9C4204D100682E
:1048600018441060104602E0506000E0186039B152
:1048700002680B1A934203D10B681A44026049681C
:10488000416010BD880000200C4910B50C4A096831
:10489000D3780C689C4201D001280DD014794B6864
:1048A000A34201D0022807D089685279914201D0F1
:1048B000032801D0002010BD012010BD40000020C1
:1048C00024000020BFF34F8FBFF36F8F33490020C8
:1048D0000860BFF34F8FBFF36F8F314A116841F407
:1048E00000311160BFF34F8FBFF36F8F2C497031D0
:1048F0000860BFF34F8F081F43F6FF740068274D11
:104900001035C0F34E31C0F3C90304EA411618460E
:1049100046EA80772F60401EFAD2491EF5D2BFF3D7
:104920004F8F106840F480301060BFF34F8FBFF39B
:104930006F8FFCF7E7F9FEF7BDFDFEF77BFAFEF798
:104940007FFBFEF7A3FBFEF7ABFCFEF767FBFEF772
:10495000D3FBFEF703FCFEF735FCFEF767FC1148BE
:10496000FDF770FA1048FDF76DFA1048FDF76AFA86
:104970000F480C21FDF7DCFC0E490F48FBF726FE23
:104980000C4C00BFFFF70EFF0A48001DFFF7BCFEEE
:10499000FFF7A6FEA06800F0EDF8F3E750EF00E0A7
:1049A00014ED00E090010020DC010020280200202E
:1049B000740200200400002090000020F0B50B30AD
:1049C000154D20F007010024144A0FE003688B42C4
:1049D0000BD38B4205D95E1A43184768C3E90067B9
:1049E00000E04368136002C004E0021D1068002864
:1049F000ECD12046002802D1286808B10020F0BD83
:104A0000064A07481060074A121A22F00702C0E956
:104A1000002401202860D7E78C00002088000020B7
:104A200004040020000600202DE9F0413F4C05461B
:104A3000424FB3EE040B2DED048B20689FED3C8AB2
:104A40009FED3C9BC078A8422ED2A5EB00004FF012
:104A5000000601EE100AB8EEC11B81EE002BF7EE46
:104A6000C28B00BF206800EE106AB0EE491B3968A7
:104A7000C078F8EEC00A00EE100AB8EE400A08EE60
:104A8000A00A20EE080AB7EEC00A80EE012BBCEEA9
:104A9000C20B10EE100A08644FF00A00FCF71CF875
:104AA000761C142EDEDB2BE02AD9401B01EE100A07
:104AB0005FF00006B8EEC11B81EE002BF7EEC28B53
:104AC000206800EE106AB0EE491B3968C078F8EE35
:104AD000C00A00EE100AB8EE400A08EEE00A20EE26
:104AE000080AB7EEC00A80EE012BBCEEC20B10EE36
:104AF000100A08640A20FBF7EFFF761C142EDFDB98
:104B000000EE105A2068B8EE400AC570396820EEF1
:104B1000080AB7EEC00A80EE091BBCEEC10B10EE0E
:104B2000100A0864BDEC048BBDE8F081440000204D
:104B300000C07944000000000000594074020020C9
:104B4000642010B5FBF7C8FF04484088FDF75EFFFE
:104B5000034801680120887010BD00002A00002071
:104B6000440000200248016800208870704700005F
:104B700044000020F0B51D4D044685B02868017F33
:104B8000012930D11A4A4EF66021B4FBF1F7B4FB8B
:104B9000F2F64FF47A73B4FBF3F3B4FBF1FCB4FB1D
:104BA000F2F12030A6EB0612A7EB07160CEB8202FF
:104BB00003EB860380E80E000EA122466846FFF74D
:104BC000ABFB6846FFF722FA002C0CD10AA0FFF7D6
:104BD0001DFA0B4B032128681A68D3E9014383624D
:104BE000C0E90824017705B0F0BD000040000020B6
:104BF00080EE360025640000434C45415200000021
:104C0000440300200000000000005C0000000000E1
:104C1000060006000000287C287C28005C54FE5416
:104C2000740044201008440028545420500006000A
:104C3000000000003844000000004438000000007C
:104C400002070200000010107C101000C0000000DD
:104C50000000101010101000400000000000601054
:104C60000C0000007C64544C7C00487C4000000038
:104C7000645454544800445454546C003C207020F4
:104C800020005C54545424007C5454547400040494
:104C900064140C007C5454547C005C5454547C00C8
:104CA000440000000000C400000000001028440080
:104CB00000002828282828004428100000000804A4
:104CC000540800007C4454545C007C2424247C0060
:104CD0007C5454546C007C44444444007C4444441C
:104CE00038007C54545444007C14141404007C4454
:104CF000445474007C1010107C0044447C444400F4
:104D0000604040447C007C10102844007C404040BF
:104D100040007C0810087C007C0810207C0038448F
:104D2000444438007C14141408003C2464243C00DF
:104D30007C14141468005C545454740004047C04FF
:104D400004007C4040407C000C3040300C003C4073
:104D500030403C004428102844000C1060100C0027
:104D60004464544C44007C44000000000C1060007B
:104D70000000447C000000000001000100004040F1
:104D8000404040400001000000007C2424247C00BE
:104D90007C5454546C007C44444444007C4444445B
:104DA00038007C54545444007C14141404007C4493
:104DB000445474007C1010107C0044447C44440033
:104DC000604040447C007C10102844007C404040FF
:104DD00040007C0810087C007C0810207C003844CF
:104DE000444438007C14141408003C2464243C001F
:104DF0007C14141468005C545454740004047C043F
:104E000004007C4040407C000C3040300C003C40B2
:104E100030403C004428102844000C1060100C0066
:104E20004464544C4400107C440000006C000000BA
:104E30000000447C1000000002010201000000009C
:104E40000000000000000000000000000102030458
:104E5000060708090000000001020304000000002A
:104E60001A001A000000000020011A0000000000D3
:104E70004001F00014005F00300020005C005F0083
:104E80003000200028005A003C00280082005A0010
:104E90003C002800DC005A003C002800BC4E000802
:104EA0000000002090000000624300084C4F000802
:104EB000900000207009000072430008F0004001DB
:104EC00000000000000000000000000000000000E2
:104ED0000100000010000000000000000024F400A9
:104EE0000000000000000000FFFFFF040BF840FE80
:104EF000F39C2D177FC70000000001320000000066
:104F000000000000000000000000000000000000A1
:104F10000000000000000000000000000000000091
:104F20000000000000000000000000000000000081
:104F30000000000000000000000000000000000071
:0C4F400032000000000000000000000033
:04000005080001F9F5
:00000001FF
